{
	"contracts-module_2/struct.sol": {
		"structa": {
			"abi": [
				{
					"inputs": [
						{
							"internalType": "uint256",
							"name": "age",
							"type": "uint256"
						},
						{
							"internalType": "address",
							"name": "_addr",
							"type": "address"
						}
					],
					"name": "setAge",
					"outputs": [],
					"stateMutability": "nonpayable",
					"type": "function"
				},
				{
					"inputs": [
						{
							"internalType": "string",
							"name": "value",
							"type": "string"
						}
					],
					"name": "setAsge",
					"outputs": [
						{
							"internalType": "string",
							"name": "",
							"type": "string"
						}
					],
					"stateMutability": "nonpayable",
					"type": "function"
				},
				{
					"inputs": [
						{
							"internalType": "string",
							"name": "_name",
							"type": "string"
						},
						{
							"internalType": "address",
							"name": "_addr",
							"type": "address"
						}
					],
					"name": "setName",
					"outputs": [],
					"stateMutability": "nonpayable",
					"type": "function"
				}
			],
			"devdoc": {
				"kind": "dev",
				"methods": {},
				"version": 1
			},
			"evm": {
				"assembly": "    /* \"contracts-module_2/struct.sol\":60:562  contract structa {... */\n  mstore(0x40, 0x80)\n  callvalue\n  dup1\n  iszero\n  tag_1\n  jumpi\n  0x00\n  dup1\n  revert\ntag_1:\n  pop\n  dataSize(sub_0)\n  dup1\n  dataOffset(sub_0)\n  0x00\n  codecopy\n  0x00\n  return\nstop\n\nsub_0: assembly {\n        /* \"contracts-module_2/struct.sol\":60:562  contract structa {... */\n      mstore(0x40, 0x80)\n      callvalue\n      dup1\n      iszero\n      tag_1\n      jumpi\n      0x00\n      dup1\n      revert\n    tag_1:\n      pop\n      jumpi(tag_2, lt(calldatasize, 0x04))\n      shr(0xe0, calldataload(0x00))\n      dup1\n      0x1e04894f\n      eq\n      tag_3\n      jumpi\n      dup1\n      0x4f6670cc\n      eq\n      tag_4\n      jumpi\n      dup1\n      0xec07c2d1\n      eq\n      tag_5\n      jumpi\n    tag_2:\n      0x00\n      dup1\n      revert\n        /* \"contracts-module_2/struct.sol\":431:559  function setAsge(string memory value) public returns (string memory){... */\n    tag_3:\n      tag_6\n      0x04\n      dup1\n      calldatasize\n      sub\n      dup2\n      add\n      swap1\n      tag_7\n      swap2\n      swap1\n      tag_8\n      jump\t// in\n    tag_7:\n      tag_9\n      jump\t// in\n    tag_6:\n      mload(0x40)\n      tag_10\n      swap2\n      swap1\n      tag_11\n      jump\t// in\n    tag_10:\n      mload(0x40)\n      dup1\n      swap2\n      sub\n      swap1\n      return\n        /* \"contracts-module_2/struct.sol\":328:419  function setAge(uint age, address _addr) public {... */\n    tag_4:\n      tag_12\n      0x04\n      dup1\n      calldatasize\n      sub\n      dup2\n      add\n      swap1\n      tag_13\n      swap2\n      swap1\n      tag_14\n      jump\t// in\n    tag_13:\n      tag_15\n      jump\t// in\n    tag_12:\n      stop\n        /* \"contracts-module_2/struct.sol\":214:320  function setName(string memory _name, address _addr) public {... */\n    tag_5:\n      tag_16\n      0x04\n      dup1\n      calldatasize\n      sub\n      dup2\n      add\n      swap1\n      tag_17\n      swap2\n      swap1\n      tag_18\n      jump\t// in\n    tag_17:\n      tag_19\n      jump\t// in\n    tag_16:\n      stop\n        /* \"contracts-module_2/struct.sol\":431:559  function setAsge(string memory value) public returns (string memory){... */\n    tag_9:\n        /* \"contracts-module_2/struct.sol\":485:498  string memory */\n      0x60\n        /* \"contracts-module_2/struct.sol\":506:523  string memory val */\n      0x00\n        /* \"contracts-module_2/struct.sol\":526:531  value */\n      dup3\n        /* \"contracts-module_2/struct.sol\":506:531  string memory val = value */\n      swap1\n      pop\n        /* \"contracts-module_2/struct.sol\":547:550  val */\n      dup1\n        /* \"contracts-module_2/struct.sol\":540:550  return val */\n      swap2\n      pop\n      pop\n        /* \"contracts-module_2/struct.sol\":431:559  function setAsge(string memory value) public returns (string memory){... */\n      swap2\n      swap1\n      pop\n      jump\t// out\n        /* \"contracts-module_2/struct.sol\":328:419  function setAge(uint age, address _addr) public {... */\n    tag_15:\n        /* \"contracts-module_2/struct.sol\":408:411  age */\n      dup2\n        /* \"contracts-module_2/struct.sol\":387:394  student */\n      0x00\n        /* \"contracts-module_2/struct.sol\":387:401  student[_addr] */\n      dup1\n        /* \"contracts-module_2/struct.sol\":395:400  _addr */\n      dup4\n        /* \"contracts-module_2/struct.sol\":387:401  student[_addr] */\n      0xffffffffffffffffffffffffffffffffffffffff\n      and\n      0xffffffffffffffffffffffffffffffffffffffff\n      and\n      dup2\n      mstore\n      0x20\n      add\n      swap1\n      dup2\n      mstore\n      0x20\n      add\n      0x00\n      keccak256\n        /* \"contracts-module_2/struct.sol\":387:405  student[_addr].age */\n      0x01\n      add\n        /* \"contracts-module_2/struct.sol\":387:411  student[_addr].age = age */\n      dup2\n      swap1\n      sstore\n      pop\n        /* \"contracts-module_2/struct.sol\":328:419  function setAge(uint age, address _addr) public {... */\n      pop\n      pop\n      jump\t// out\n        /* \"contracts-module_2/struct.sol\":214:320  function setName(string memory _name, address _addr) public {... */\n    tag_19:\n        /* \"contracts-module_2/struct.sol\":307:312  _name */\n      dup2\n        /* \"contracts-module_2/struct.sol\":285:292  student */\n      0x00\n        /* \"contracts-module_2/struct.sol\":285:299  student[_addr] */\n      dup1\n        /* \"contracts-module_2/struct.sol\":293:298  _addr */\n      dup4\n        /* \"contracts-module_2/struct.sol\":285:299  student[_addr] */\n      0xffffffffffffffffffffffffffffffffffffffff\n      and\n      0xffffffffffffffffffffffffffffffffffffffff\n      and\n      dup2\n      mstore\n      0x20\n      add\n      swap1\n      dup2\n      mstore\n      0x20\n      add\n      0x00\n      keccak256\n        /* \"contracts-module_2/struct.sol\":285:304  student[_addr].name */\n      0x00\n      add\n        /* \"contracts-module_2/struct.sol\":285:312  student[_addr].name = _name */\n      swap1\n      dup2\n      tag_23\n      swap2\n      swap1\n      tag_24\n      jump\t// in\n    tag_23:\n      pop\n        /* \"contracts-module_2/struct.sol\":214:320  function setName(string memory _name, address _addr) public {... */\n      pop\n      pop\n      jump\t// out\n        /* \"#utility.yul\":7:82   */\n    tag_25:\n        /* \"#utility.yul\":40:46   */\n      0x00\n        /* \"#utility.yul\":73:75   */\n      0x40\n        /* \"#utility.yul\":67:76   */\n      mload\n        /* \"#utility.yul\":57:76   */\n      swap1\n      pop\n        /* \"#utility.yul\":7:82   */\n      swap1\n      jump\t// out\n        /* \"#utility.yul\":88:205   */\n    tag_26:\n        /* \"#utility.yul\":197:198   */\n      0x00\n        /* \"#utility.yul\":194:195   */\n      dup1\n        /* \"#utility.yul\":187:199   */\n      revert\n        /* \"#utility.yul\":211:328   */\n    tag_27:\n        /* \"#utility.yul\":320:321   */\n      0x00\n        /* \"#utility.yul\":317:318   */\n      dup1\n        /* \"#utility.yul\":310:322   */\n      revert\n        /* \"#utility.yul\":334:451   */\n    tag_28:\n        /* \"#utility.yul\":443:444   */\n      0x00\n        /* \"#utility.yul\":440:441   */\n      dup1\n        /* \"#utility.yul\":433:445   */\n      revert\n        /* \"#utility.yul\":457:574   */\n    tag_29:\n        /* \"#utility.yul\":566:567   */\n      0x00\n        /* \"#utility.yul\":563:564   */\n      dup1\n        /* \"#utility.yul\":556:568   */\n      revert\n        /* \"#utility.yul\":580:682   */\n    tag_30:\n        /* \"#utility.yul\":621:627   */\n      0x00\n        /* \"#utility.yul\":672:674   */\n      0x1f\n        /* \"#utility.yul\":668:675   */\n      not\n        /* \"#utility.yul\":663:665   */\n      0x1f\n        /* \"#utility.yul\":656:661   */\n      dup4\n        /* \"#utility.yul\":652:666   */\n      add\n        /* \"#utility.yul\":648:676   */\n      and\n        /* \"#utility.yul\":638:676   */\n      swap1\n      pop\n        /* \"#utility.yul\":580:682   */\n      swap2\n      swap1\n      pop\n      jump\t// out\n        /* \"#utility.yul\":688:868   */\n    tag_31:\n        /* \"#utility.yul\":736:813   */\n      0x4e487b7100000000000000000000000000000000000000000000000000000000\n        /* \"#utility.yul\":733:734   */\n      0x00\n        /* \"#utility.yul\":726:814   */\n      mstore\n        /* \"#utility.yul\":833:837   */\n      0x41\n        /* \"#utility.yul\":830:831   */\n      0x04\n        /* \"#utility.yul\":823:838   */\n      mstore\n        /* \"#utility.yul\":857:861   */\n      0x24\n        /* \"#utility.yul\":854:855   */\n      0x00\n        /* \"#utility.yul\":847:862   */\n      revert\n        /* \"#utility.yul\":874:1155   */\n    tag_32:\n        /* \"#utility.yul\":957:984   */\n      tag_75\n        /* \"#utility.yul\":979:983   */\n      dup3\n        /* \"#utility.yul\":957:984   */\n      tag_30\n      jump\t// in\n    tag_75:\n        /* \"#utility.yul\":949:955   */\n      dup2\n        /* \"#utility.yul\":945:985   */\n      add\n        /* \"#utility.yul\":1087:1093   */\n      dup2\n        /* \"#utility.yul\":1075:1085   */\n      dup2\n        /* \"#utility.yul\":1072:1094   */\n      lt\n        /* \"#utility.yul\":1051:1069   */\n      0xffffffffffffffff\n        /* \"#utility.yul\":1039:1049   */\n      dup3\n        /* \"#utility.yul\":1036:1070   */\n      gt\n        /* \"#utility.yul\":1033:1095   */\n      or\n        /* \"#utility.yul\":1030:1118   */\n      iszero\n      tag_76\n      jumpi\n        /* \"#utility.yul\":1098:1116   */\n      tag_77\n      tag_31\n      jump\t// in\n    tag_77:\n        /* \"#utility.yul\":1030:1118   */\n    tag_76:\n        /* \"#utility.yul\":1138:1148   */\n      dup1\n        /* \"#utility.yul\":1134:1136   */\n      0x40\n        /* \"#utility.yul\":1127:1149   */\n      mstore\n        /* \"#utility.yul\":917:1155   */\n      pop\n        /* \"#utility.yul\":874:1155   */\n      pop\n      pop\n      jump\t// out\n        /* \"#utility.yul\":1161:1290   */\n    tag_33:\n        /* \"#utility.yul\":1195:1201   */\n      0x00\n        /* \"#utility.yul\":1222:1242   */\n      tag_79\n      tag_25\n      jump\t// in\n    tag_79:\n        /* \"#utility.yul\":1212:1242   */\n      swap1\n      pop\n        /* \"#utility.yul\":1251:1284   */\n      tag_80\n        /* \"#utility.yul\":1279:1283   */\n      dup3\n        /* \"#utility.yul\":1271:1277   */\n      dup3\n        /* \"#utility.yul\":1251:1284   */\n      tag_32\n      jump\t// in\n    tag_80:\n        /* \"#utility.yul\":1161:1290   */\n      swap2\n      swap1\n      pop\n      jump\t// out\n        /* \"#utility.yul\":1296:1604   */\n    tag_34:\n        /* \"#utility.yul\":1358:1362   */\n      0x00\n        /* \"#utility.yul\":1448:1466   */\n      0xffffffffffffffff\n        /* \"#utility.yul\":1440:1446   */\n      dup3\n        /* \"#utility.yul\":1437:1467   */\n      gt\n        /* \"#utility.yul\":1434:1490   */\n      iszero\n      tag_82\n      jumpi\n        /* \"#utility.yul\":1470:1488   */\n      tag_83\n      tag_31\n      jump\t// in\n    tag_83:\n        /* \"#utility.yul\":1434:1490   */\n    tag_82:\n        /* \"#utility.yul\":1508:1537   */\n      tag_84\n        /* \"#utility.yul\":1530:1536   */\n      dup3\n        /* \"#utility.yul\":1508:1537   */\n      tag_30\n      jump\t// in\n    tag_84:\n        /* \"#utility.yul\":1500:1537   */\n      swap1\n      pop\n        /* \"#utility.yul\":1592:1596   */\n      0x20\n        /* \"#utility.yul\":1586:1590   */\n      dup2\n        /* \"#utility.yul\":1582:1597   */\n      add\n        /* \"#utility.yul\":1574:1597   */\n      swap1\n      pop\n        /* \"#utility.yul\":1296:1604   */\n      swap2\n      swap1\n      pop\n      jump\t// out\n        /* \"#utility.yul\":1610:1756   */\n    tag_35:\n        /* \"#utility.yul\":1707:1713   */\n      dup3\n        /* \"#utility.yul\":1702:1705   */\n      dup2\n        /* \"#utility.yul\":1697:1700   */\n      dup4\n        /* \"#utility.yul\":1684:1714   */\n      calldatacopy\n        /* \"#utility.yul\":1748:1749   */\n      0x00\n        /* \"#utility.yul\":1739:1745   */\n      dup4\n        /* \"#utility.yul\":1734:1737   */\n      dup4\n        /* \"#utility.yul\":1730:1746   */\n      add\n        /* \"#utility.yul\":1723:1750   */\n      mstore\n        /* \"#utility.yul\":1610:1756   */\n      pop\n      pop\n      pop\n      jump\t// out\n        /* \"#utility.yul\":1762:2187   */\n    tag_36:\n        /* \"#utility.yul\":1840:1845   */\n      0x00\n        /* \"#utility.yul\":1865:1931   */\n      tag_87\n        /* \"#utility.yul\":1881:1930   */\n      tag_88\n        /* \"#utility.yul\":1923:1929   */\n      dup5\n        /* \"#utility.yul\":1881:1930   */\n      tag_34\n      jump\t// in\n    tag_88:\n        /* \"#utility.yul\":1865:1931   */\n      tag_33\n      jump\t// in\n    tag_87:\n        /* \"#utility.yul\":1856:1931   */\n      swap1\n      pop\n        /* \"#utility.yul\":1954:1960   */\n      dup3\n        /* \"#utility.yul\":1947:1952   */\n      dup2\n        /* \"#utility.yul\":1940:1961   */\n      mstore\n        /* \"#utility.yul\":1992:1996   */\n      0x20\n        /* \"#utility.yul\":1985:1990   */\n      dup2\n        /* \"#utility.yul\":1981:1997   */\n      add\n        /* \"#utility.yul\":2030:2033   */\n      dup5\n        /* \"#utility.yul\":2021:2027   */\n      dup5\n        /* \"#utility.yul\":2016:2019   */\n      dup5\n        /* \"#utility.yul\":2012:2028   */\n      add\n        /* \"#utility.yul\":2009:2034   */\n      gt\n        /* \"#utility.yul\":2006:2118   */\n      iszero\n      tag_89\n      jumpi\n        /* \"#utility.yul\":2037:2116   */\n      tag_90\n      tag_29\n      jump\t// in\n    tag_90:\n        /* \"#utility.yul\":2006:2118   */\n    tag_89:\n        /* \"#utility.yul\":2127:2181   */\n      tag_91\n        /* \"#utility.yul\":2174:2180   */\n      dup5\n        /* \"#utility.yul\":2169:2172   */\n      dup3\n        /* \"#utility.yul\":2164:2167   */\n      dup6\n        /* \"#utility.yul\":2127:2181   */\n      tag_35\n      jump\t// in\n    tag_91:\n        /* \"#utility.yul\":1846:2187   */\n      pop\n        /* \"#utility.yul\":1762:2187   */\n      swap4\n      swap3\n      pop\n      pop\n      pop\n      jump\t// out\n        /* \"#utility.yul\":2207:2547   */\n    tag_37:\n        /* \"#utility.yul\":2263:2268   */\n      0x00\n        /* \"#utility.yul\":2312:2315   */\n      dup3\n        /* \"#utility.yul\":2305:2309   */\n      0x1f\n        /* \"#utility.yul\":2297:2303   */\n      dup4\n        /* \"#utility.yul\":2293:2310   */\n      add\n        /* \"#utility.yul\":2289:2316   */\n      slt\n        /* \"#utility.yul\":2279:2401   */\n      tag_93\n      jumpi\n        /* \"#utility.yul\":2320:2399   */\n      tag_94\n      tag_28\n      jump\t// in\n    tag_94:\n        /* \"#utility.yul\":2279:2401   */\n    tag_93:\n        /* \"#utility.yul\":2437:2443   */\n      dup2\n        /* \"#utility.yul\":2424:2444   */\n      calldataload\n        /* \"#utility.yul\":2462:2541   */\n      tag_95\n        /* \"#utility.yul\":2537:2540   */\n      dup5\n        /* \"#utility.yul\":2529:2535   */\n      dup3\n        /* \"#utility.yul\":2522:2526   */\n      0x20\n        /* \"#utility.yul\":2514:2520   */\n      dup7\n        /* \"#utility.yul\":2510:2527   */\n      add\n        /* \"#utility.yul\":2462:2541   */\n      tag_36\n      jump\t// in\n    tag_95:\n        /* \"#utility.yul\":2453:2541   */\n      swap2\n      pop\n        /* \"#utility.yul\":2269:2547   */\n      pop\n        /* \"#utility.yul\":2207:2547   */\n      swap3\n      swap2\n      pop\n      pop\n      jump\t// out\n        /* \"#utility.yul\":2553:3062   */\n    tag_8:\n        /* \"#utility.yul\":2622:2628   */\n      0x00\n        /* \"#utility.yul\":2671:2673   */\n      0x20\n        /* \"#utility.yul\":2659:2668   */\n      dup3\n        /* \"#utility.yul\":2650:2657   */\n      dup5\n        /* \"#utility.yul\":2646:2669   */\n      sub\n        /* \"#utility.yul\":2642:2674   */\n      slt\n        /* \"#utility.yul\":2639:2758   */\n      iszero\n      tag_97\n      jumpi\n        /* \"#utility.yul\":2677:2756   */\n      tag_98\n      tag_26\n      jump\t// in\n    tag_98:\n        /* \"#utility.yul\":2639:2758   */\n    tag_97:\n        /* \"#utility.yul\":2825:2826   */\n      0x00\n        /* \"#utility.yul\":2814:2823   */\n      dup3\n        /* \"#utility.yul\":2810:2827   */\n      add\n        /* \"#utility.yul\":2797:2828   */\n      calldataload\n        /* \"#utility.yul\":2855:2873   */\n      0xffffffffffffffff\n        /* \"#utility.yul\":2847:2853   */\n      dup2\n        /* \"#utility.yul\":2844:2874   */\n      gt\n        /* \"#utility.yul\":2841:2958   */\n      iszero\n      tag_99\n      jumpi\n        /* \"#utility.yul\":2877:2956   */\n      tag_100\n      tag_27\n      jump\t// in\n    tag_100:\n        /* \"#utility.yul\":2841:2958   */\n    tag_99:\n        /* \"#utility.yul\":2982:3045   */\n      tag_101\n        /* \"#utility.yul\":3037:3044   */\n      dup5\n        /* \"#utility.yul\":3028:3034   */\n      dup3\n        /* \"#utility.yul\":3017:3026   */\n      dup6\n        /* \"#utility.yul\":3013:3035   */\n      add\n        /* \"#utility.yul\":2982:3045   */\n      tag_37\n      jump\t// in\n    tag_101:\n        /* \"#utility.yul\":2972:3045   */\n      swap2\n      pop\n        /* \"#utility.yul\":2768:3055   */\n      pop\n        /* \"#utility.yul\":2553:3062   */\n      swap3\n      swap2\n      pop\n      pop\n      jump\t// out\n        /* \"#utility.yul\":3068:3167   */\n    tag_38:\n        /* \"#utility.yul\":3120:3126   */\n      0x00\n        /* \"#utility.yul\":3154:3159   */\n      dup2\n        /* \"#utility.yul\":3148:3160   */\n      mload\n        /* \"#utility.yul\":3138:3160   */\n      swap1\n      pop\n        /* \"#utility.yul\":3068:3167   */\n      swap2\n      swap1\n      pop\n      jump\t// out\n        /* \"#utility.yul\":3173:3342   */\n    tag_39:\n        /* \"#utility.yul\":3257:3268   */\n      0x00\n        /* \"#utility.yul\":3291:3297   */\n      dup3\n        /* \"#utility.yul\":3286:3289   */\n      dup3\n        /* \"#utility.yul\":3279:3298   */\n      mstore\n        /* \"#utility.yul\":3331:3335   */\n      0x20\n        /* \"#utility.yul\":3326:3329   */\n      dup3\n        /* \"#utility.yul\":3322:3336   */\n      add\n        /* \"#utility.yul\":3307:3336   */\n      swap1\n      pop\n        /* \"#utility.yul\":3173:3342   */\n      swap3\n      swap2\n      pop\n      pop\n      jump\t// out\n        /* \"#utility.yul\":3348:3594   */\n    tag_40:\n        /* \"#utility.yul\":3429:3430   */\n      0x00\n        /* \"#utility.yul\":3439:3552   */\n    tag_105:\n        /* \"#utility.yul\":3453:3459   */\n      dup4\n        /* \"#utility.yul\":3450:3451   */\n      dup2\n        /* \"#utility.yul\":3447:3460   */\n      lt\n        /* \"#utility.yul\":3439:3552   */\n      iszero\n      tag_107\n      jumpi\n        /* \"#utility.yul\":3538:3539   */\n      dup1\n        /* \"#utility.yul\":3533:3536   */\n      dup3\n        /* \"#utility.yul\":3529:3540   */\n      add\n        /* \"#utility.yul\":3523:3541   */\n      mload\n        /* \"#utility.yul\":3519:3520   */\n      dup2\n        /* \"#utility.yul\":3514:3517   */\n      dup5\n        /* \"#utility.yul\":3510:3521   */\n      add\n        /* \"#utility.yul\":3503:3542   */\n      mstore\n        /* \"#utility.yul\":3475:3477   */\n      0x20\n        /* \"#utility.yul\":3472:3473   */\n      dup2\n        /* \"#utility.yul\":3468:3478   */\n      add\n        /* \"#utility.yul\":3463:3478   */\n      swap1\n      pop\n        /* \"#utility.yul\":3439:3552   */\n      jump(tag_105)\n    tag_107:\n        /* \"#utility.yul\":3586:3587   */\n      0x00\n        /* \"#utility.yul\":3577:3583   */\n      dup5\n        /* \"#utility.yul\":3572:3575   */\n      dup5\n        /* \"#utility.yul\":3568:3584   */\n      add\n        /* \"#utility.yul\":3561:3588   */\n      mstore\n        /* \"#utility.yul\":3410:3594   */\n      pop\n        /* \"#utility.yul\":3348:3594   */\n      pop\n      pop\n      pop\n      jump\t// out\n        /* \"#utility.yul\":3600:3977   */\n    tag_41:\n        /* \"#utility.yul\":3688:3691   */\n      0x00\n        /* \"#utility.yul\":3716:3755   */\n      tag_109\n        /* \"#utility.yul\":3749:3754   */\n      dup3\n        /* \"#utility.yul\":3716:3755   */\n      tag_38\n      jump\t// in\n    tag_109:\n        /* \"#utility.yul\":3771:3842   */\n      tag_110\n        /* \"#utility.yul\":3835:3841   */\n      dup2\n        /* \"#utility.yul\":3830:3833   */\n      dup6\n        /* \"#utility.yul\":3771:3842   */\n      tag_39\n      jump\t// in\n    tag_110:\n        /* \"#utility.yul\":3764:3842   */\n      swap4\n      pop\n        /* \"#utility.yul\":3851:3916   */\n      tag_111\n        /* \"#utility.yul\":3909:3915   */\n      dup2\n        /* \"#utility.yul\":3904:3907   */\n      dup6\n        /* \"#utility.yul\":3897:3901   */\n      0x20\n        /* \"#utility.yul\":3890:3895   */\n      dup7\n        /* \"#utility.yul\":3886:3902   */\n      add\n        /* \"#utility.yul\":3851:3916   */\n      tag_40\n      jump\t// in\n    tag_111:\n        /* \"#utility.yul\":3941:3970   */\n      tag_112\n        /* \"#utility.yul\":3963:3969   */\n      dup2\n        /* \"#utility.yul\":3941:3970   */\n      tag_30\n      jump\t// in\n    tag_112:\n        /* \"#utility.yul\":3936:3939   */\n      dup5\n        /* \"#utility.yul\":3932:3971   */\n      add\n        /* \"#utility.yul\":3925:3971   */\n      swap2\n      pop\n        /* \"#utility.yul\":3692:3977   */\n      pop\n        /* \"#utility.yul\":3600:3977   */\n      swap3\n      swap2\n      pop\n      pop\n      jump\t// out\n        /* \"#utility.yul\":3983:4296   */\n    tag_11:\n        /* \"#utility.yul\":4096:4100   */\n      0x00\n        /* \"#utility.yul\":4134:4136   */\n      0x20\n        /* \"#utility.yul\":4123:4132   */\n      dup3\n        /* \"#utility.yul\":4119:4137   */\n      add\n        /* \"#utility.yul\":4111:4137   */\n      swap1\n      pop\n        /* \"#utility.yul\":4183:4192   */\n      dup2\n        /* \"#utility.yul\":4177:4181   */\n      dup2\n        /* \"#utility.yul\":4173:4193   */\n      sub\n        /* \"#utility.yul\":4169:4170   */\n      0x00\n        /* \"#utility.yul\":4158:4167   */\n      dup4\n        /* \"#utility.yul\":4154:4171   */\n      add\n        /* \"#utility.yul\":4147:4194   */\n      mstore\n        /* \"#utility.yul\":4211:4289   */\n      tag_114\n        /* \"#utility.yul\":4284:4288   */\n      dup2\n        /* \"#utility.yul\":4275:4281   */\n      dup5\n        /* \"#utility.yul\":4211:4289   */\n      tag_41\n      jump\t// in\n    tag_114:\n        /* \"#utility.yul\":4203:4289   */\n      swap1\n      pop\n        /* \"#utility.yul\":3983:4296   */\n      swap3\n      swap2\n      pop\n      pop\n      jump\t// out\n        /* \"#utility.yul\":4302:4379   */\n    tag_42:\n        /* \"#utility.yul\":4339:4346   */\n      0x00\n        /* \"#utility.yul\":4368:4373   */\n      dup2\n        /* \"#utility.yul\":4357:4373   */\n      swap1\n      pop\n        /* \"#utility.yul\":4302:4379   */\n      swap2\n      swap1\n      pop\n      jump\t// out\n        /* \"#utility.yul\":4385:4507   */\n    tag_43:\n        /* \"#utility.yul\":4458:4482   */\n      tag_117\n        /* \"#utility.yul\":4476:4481   */\n      dup2\n        /* \"#utility.yul\":4458:4482   */\n      tag_42\n      jump\t// in\n    tag_117:\n        /* \"#utility.yul\":4451:4456   */\n      dup2\n        /* \"#utility.yul\":4448:4483   */\n      eq\n        /* \"#utility.yul\":4438:4501   */\n      tag_118\n      jumpi\n        /* \"#utility.yul\":4497:4498   */\n      0x00\n        /* \"#utility.yul\":4494:4495   */\n      dup1\n        /* \"#utility.yul\":4487:4499   */\n      revert\n        /* \"#utility.yul\":4438:4501   */\n    tag_118:\n        /* \"#utility.yul\":4385:4507   */\n      pop\n      jump\t// out\n        /* \"#utility.yul\":4513:4652   */\n    tag_44:\n        /* \"#utility.yul\":4559:4564   */\n      0x00\n        /* \"#utility.yul\":4597:4603   */\n      dup2\n        /* \"#utility.yul\":4584:4604   */\n      calldataload\n        /* \"#utility.yul\":4575:4604   */\n      swap1\n      pop\n        /* \"#utility.yul\":4613:4646   */\n      tag_120\n        /* \"#utility.yul\":4640:4645   */\n      dup2\n        /* \"#utility.yul\":4613:4646   */\n      tag_43\n      jump\t// in\n    tag_120:\n        /* \"#utility.yul\":4513:4652   */\n      swap3\n      swap2\n      pop\n      pop\n      jump\t// out\n        /* \"#utility.yul\":4658:4784   */\n    tag_45:\n        /* \"#utility.yul\":4695:4702   */\n      0x00\n        /* \"#utility.yul\":4735:4777   */\n      0xffffffffffffffffffffffffffffffffffffffff\n        /* \"#utility.yul\":4728:4733   */\n      dup3\n        /* \"#utility.yul\":4724:4778   */\n      and\n        /* \"#utility.yul\":4713:4778   */\n      swap1\n      pop\n        /* \"#utility.yul\":4658:4784   */\n      swap2\n      swap1\n      pop\n      jump\t// out\n        /* \"#utility.yul\":4790:4886   */\n    tag_46:\n        /* \"#utility.yul\":4827:4834   */\n      0x00\n        /* \"#utility.yul\":4856:4880   */\n      tag_123\n        /* \"#utility.yul\":4874:4879   */\n      dup3\n        /* \"#utility.yul\":4856:4880   */\n      tag_45\n      jump\t// in\n    tag_123:\n        /* \"#utility.yul\":4845:4880   */\n      swap1\n      pop\n        /* \"#utility.yul\":4790:4886   */\n      swap2\n      swap1\n      pop\n      jump\t// out\n        /* \"#utility.yul\":4892:5014   */\n    tag_47:\n        /* \"#utility.yul\":4965:4989   */\n      tag_125\n        /* \"#utility.yul\":4983:4988   */\n      dup2\n        /* \"#utility.yul\":4965:4989   */\n      tag_46\n      jump\t// in\n    tag_125:\n        /* \"#utility.yul\":4958:4963   */\n      dup2\n        /* \"#utility.yul\":4955:4990   */\n      eq\n        /* \"#utility.yul\":4945:5008   */\n      tag_126\n      jumpi\n        /* \"#utility.yul\":5004:5005   */\n      0x00\n        /* \"#utility.yul\":5001:5002   */\n      dup1\n        /* \"#utility.yul\":4994:5006   */\n      revert\n        /* \"#utility.yul\":4945:5008   */\n    tag_126:\n        /* \"#utility.yul\":4892:5014   */\n      pop\n      jump\t// out\n        /* \"#utility.yul\":5020:5159   */\n    tag_48:\n        /* \"#utility.yul\":5066:5071   */\n      0x00\n        /* \"#utility.yul\":5104:5110   */\n      dup2\n        /* \"#utility.yul\":5091:5111   */\n      calldataload\n        /* \"#utility.yul\":5082:5111   */\n      swap1\n      pop\n        /* \"#utility.yul\":5120:5153   */\n      tag_128\n        /* \"#utility.yul\":5147:5152   */\n      dup2\n        /* \"#utility.yul\":5120:5153   */\n      tag_47\n      jump\t// in\n    tag_128:\n        /* \"#utility.yul\":5020:5159   */\n      swap3\n      swap2\n      pop\n      pop\n      jump\t// out\n        /* \"#utility.yul\":5165:5639   */\n    tag_14:\n        /* \"#utility.yul\":5233:5239   */\n      0x00\n        /* \"#utility.yul\":5241:5247   */\n      dup1\n        /* \"#utility.yul\":5290:5292   */\n      0x40\n        /* \"#utility.yul\":5278:5287   */\n      dup4\n        /* \"#utility.yul\":5269:5276   */\n      dup6\n        /* \"#utility.yul\":5265:5288   */\n      sub\n        /* \"#utility.yul\":5261:5293   */\n      slt\n        /* \"#utility.yul\":5258:5377   */\n      iszero\n      tag_130\n      jumpi\n        /* \"#utility.yul\":5296:5375   */\n      tag_131\n      tag_26\n      jump\t// in\n    tag_131:\n        /* \"#utility.yul\":5258:5377   */\n    tag_130:\n        /* \"#utility.yul\":5416:5417   */\n      0x00\n        /* \"#utility.yul\":5441:5494   */\n      tag_132\n        /* \"#utility.yul\":5486:5493   */\n      dup6\n        /* \"#utility.yul\":5477:5483   */\n      dup3\n        /* \"#utility.yul\":5466:5475   */\n      dup7\n        /* \"#utility.yul\":5462:5484   */\n      add\n        /* \"#utility.yul\":5441:5494   */\n      tag_44\n      jump\t// in\n    tag_132:\n        /* \"#utility.yul\":5431:5494   */\n      swap3\n      pop\n        /* \"#utility.yul\":5387:5504   */\n      pop\n        /* \"#utility.yul\":5543:5545   */\n      0x20\n        /* \"#utility.yul\":5569:5622   */\n      tag_133\n        /* \"#utility.yul\":5614:5621   */\n      dup6\n        /* \"#utility.yul\":5605:5611   */\n      dup3\n        /* \"#utility.yul\":5594:5603   */\n      dup7\n        /* \"#utility.yul\":5590:5612   */\n      add\n        /* \"#utility.yul\":5569:5622   */\n      tag_48\n      jump\t// in\n    tag_133:\n        /* \"#utility.yul\":5559:5622   */\n      swap2\n      pop\n        /* \"#utility.yul\":5514:5632   */\n      pop\n        /* \"#utility.yul\":5165:5639   */\n      swap3\n      pop\n      swap3\n      swap1\n      pop\n      jump\t// out\n        /* \"#utility.yul\":5645:6299   */\n    tag_18:\n        /* \"#utility.yul\":5723:5729   */\n      0x00\n        /* \"#utility.yul\":5731:5737   */\n      dup1\n        /* \"#utility.yul\":5780:5782   */\n      0x40\n        /* \"#utility.yul\":5768:5777   */\n      dup4\n        /* \"#utility.yul\":5759:5766   */\n      dup6\n        /* \"#utility.yul\":5755:5778   */\n      sub\n        /* \"#utility.yul\":5751:5783   */\n      slt\n        /* \"#utility.yul\":5748:5867   */\n      iszero\n      tag_135\n      jumpi\n        /* \"#utility.yul\":5786:5865   */\n      tag_136\n      tag_26\n      jump\t// in\n    tag_136:\n        /* \"#utility.yul\":5748:5867   */\n    tag_135:\n        /* \"#utility.yul\":5934:5935   */\n      0x00\n        /* \"#utility.yul\":5923:5932   */\n      dup4\n        /* \"#utility.yul\":5919:5936   */\n      add\n        /* \"#utility.yul\":5906:5937   */\n      calldataload\n        /* \"#utility.yul\":5964:5982   */\n      0xffffffffffffffff\n        /* \"#utility.yul\":5956:5962   */\n      dup2\n        /* \"#utility.yul\":5953:5983   */\n      gt\n        /* \"#utility.yul\":5950:6067   */\n      iszero\n      tag_137\n      jumpi\n        /* \"#utility.yul\":5986:6065   */\n      tag_138\n      tag_27\n      jump\t// in\n    tag_138:\n        /* \"#utility.yul\":5950:6067   */\n    tag_137:\n        /* \"#utility.yul\":6091:6154   */\n      tag_139\n        /* \"#utility.yul\":6146:6153   */\n      dup6\n        /* \"#utility.yul\":6137:6143   */\n      dup3\n        /* \"#utility.yul\":6126:6135   */\n      dup7\n        /* \"#utility.yul\":6122:6144   */\n      add\n        /* \"#utility.yul\":6091:6154   */\n      tag_37\n      jump\t// in\n    tag_139:\n        /* \"#utility.yul\":6081:6154   */\n      swap3\n      pop\n        /* \"#utility.yul\":5877:6164   */\n      pop\n        /* \"#utility.yul\":6203:6205   */\n      0x20\n        /* \"#utility.yul\":6229:6282   */\n      tag_140\n        /* \"#utility.yul\":6274:6281   */\n      dup6\n        /* \"#utility.yul\":6265:6271   */\n      dup3\n        /* \"#utility.yul\":6254:6263   */\n      dup7\n        /* \"#utility.yul\":6250:6272   */\n      add\n        /* \"#utility.yul\":6229:6282   */\n      tag_48\n      jump\t// in\n    tag_140:\n        /* \"#utility.yul\":6219:6282   */\n      swap2\n      pop\n        /* \"#utility.yul\":6174:6292   */\n      pop\n        /* \"#utility.yul\":5645:6299   */\n      swap3\n      pop\n      swap3\n      swap1\n      pop\n      jump\t// out\n        /* \"#utility.yul\":6305:6485   */\n    tag_49:\n        /* \"#utility.yul\":6353:6430   */\n      0x4e487b7100000000000000000000000000000000000000000000000000000000\n        /* \"#utility.yul\":6350:6351   */\n      0x00\n        /* \"#utility.yul\":6343:6431   */\n      mstore\n        /* \"#utility.yul\":6450:6454   */\n      0x22\n        /* \"#utility.yul\":6447:6448   */\n      0x04\n        /* \"#utility.yul\":6440:6455   */\n      mstore\n        /* \"#utility.yul\":6474:6478   */\n      0x24\n        /* \"#utility.yul\":6471:6472   */\n      0x00\n        /* \"#utility.yul\":6464:6479   */\n      revert\n        /* \"#utility.yul\":6491:6811   */\n    tag_50:\n        /* \"#utility.yul\":6535:6541   */\n      0x00\n        /* \"#utility.yul\":6572:6573   */\n      0x02\n        /* \"#utility.yul\":6566:6570   */\n      dup3\n        /* \"#utility.yul\":6562:6574   */\n      div\n        /* \"#utility.yul\":6552:6574   */\n      swap1\n      pop\n        /* \"#utility.yul\":6619:6620   */\n      0x01\n        /* \"#utility.yul\":6613:6617   */\n      dup3\n        /* \"#utility.yul\":6609:6621   */\n      and\n        /* \"#utility.yul\":6640:6658   */\n      dup1\n        /* \"#utility.yul\":6630:6711   */\n      tag_143\n      jumpi\n        /* \"#utility.yul\":6696:6700   */\n      0x7f\n        /* \"#utility.yul\":6688:6694   */\n      dup3\n        /* \"#utility.yul\":6684:6701   */\n      and\n        /* \"#utility.yul\":6674:6701   */\n      swap2\n      pop\n        /* \"#utility.yul\":6630:6711   */\n    tag_143:\n        /* \"#utility.yul\":6758:6760   */\n      0x20\n        /* \"#utility.yul\":6750:6756   */\n      dup3\n        /* \"#utility.yul\":6747:6761   */\n      lt\n        /* \"#utility.yul\":6727:6745   */\n      dup2\n        /* \"#utility.yul\":6724:6762   */\n      sub\n        /* \"#utility.yul\":6721:6805   */\n      tag_144\n      jumpi\n        /* \"#utility.yul\":6777:6795   */\n      tag_145\n      tag_49\n      jump\t// in\n    tag_145:\n        /* \"#utility.yul\":6721:6805   */\n    tag_144:\n        /* \"#utility.yul\":6542:6811   */\n      pop\n        /* \"#utility.yul\":6491:6811   */\n      swap2\n      swap1\n      pop\n      jump\t// out\n        /* \"#utility.yul\":6817:6958   */\n    tag_51:\n        /* \"#utility.yul\":6866:6870   */\n      0x00\n        /* \"#utility.yul\":6889:6892   */\n      dup2\n        /* \"#utility.yul\":6881:6892   */\n      swap1\n      pop\n        /* \"#utility.yul\":6912:6915   */\n      dup2\n        /* \"#utility.yul\":6909:6910   */\n      0x00\n        /* \"#utility.yul\":6902:6916   */\n      mstore\n        /* \"#utility.yul\":6946:6950   */\n      0x20\n        /* \"#utility.yul\":6943:6944   */\n      0x00\n        /* \"#utility.yul\":6933:6951   */\n      keccak256\n        /* \"#utility.yul\":6925:6951   */\n      swap1\n      pop\n        /* \"#utility.yul\":6817:6958   */\n      swap2\n      swap1\n      pop\n      jump\t// out\n        /* \"#utility.yul\":6964:7057   */\n    tag_52:\n        /* \"#utility.yul\":7001:7007   */\n      0x00\n        /* \"#utility.yul\":7048:7050   */\n      0x20\n        /* \"#utility.yul\":7043:7045   */\n      0x1f\n        /* \"#utility.yul\":7036:7041   */\n      dup4\n        /* \"#utility.yul\":7032:7046   */\n      add\n        /* \"#utility.yul\":7028:7051   */\n      div\n        /* \"#utility.yul\":7018:7051   */\n      swap1\n      pop\n        /* \"#utility.yul\":6964:7057   */\n      swap2\n      swap1\n      pop\n      jump\t// out\n        /* \"#utility.yul\":7063:7170   */\n    tag_53:\n        /* \"#utility.yul\":7107:7115   */\n      0x00\n        /* \"#utility.yul\":7157:7162   */\n      dup3\n        /* \"#utility.yul\":7151:7155   */\n      dup3\n        /* \"#utility.yul\":7147:7163   */\n      shl\n        /* \"#utility.yul\":7126:7163   */\n      swap1\n      pop\n        /* \"#utility.yul\":7063:7170   */\n      swap3\n      swap2\n      pop\n      pop\n      jump\t// out\n        /* \"#utility.yul\":7176:7569   */\n    tag_54:\n        /* \"#utility.yul\":7245:7251   */\n      0x00\n        /* \"#utility.yul\":7295:7296   */\n      0x08\n        /* \"#utility.yul\":7283:7293   */\n      dup4\n        /* \"#utility.yul\":7279:7297   */\n      mul\n        /* \"#utility.yul\":7318:7415   */\n      tag_150\n        /* \"#utility.yul\":7348:7414   */\n      0xffffffffffffffffffffffffffffffffffffffffffffffffffffffffffffffff\n        /* \"#utility.yul\":7337:7346   */\n      dup3\n        /* \"#utility.yul\":7318:7415   */\n      tag_53\n      jump\t// in\n    tag_150:\n        /* \"#utility.yul\":7436:7475   */\n      tag_151\n        /* \"#utility.yul\":7466:7474   */\n      dup7\n        /* \"#utility.yul\":7455:7464   */\n      dup4\n        /* \"#utility.yul\":7436:7475   */\n      tag_53\n      jump\t// in\n    tag_151:\n        /* \"#utility.yul\":7424:7475   */\n      swap6\n      pop\n        /* \"#utility.yul\":7508:7512   */\n      dup1\n        /* \"#utility.yul\":7504:7513   */\n      not\n        /* \"#utility.yul\":7497:7502   */\n      dup5\n        /* \"#utility.yul\":7493:7514   */\n      and\n        /* \"#utility.yul\":7484:7514   */\n      swap4\n      pop\n        /* \"#utility.yul\":7557:7561   */\n      dup1\n        /* \"#utility.yul\":7547:7555   */\n      dup7\n        /* \"#utility.yul\":7543:7562   */\n      and\n        /* \"#utility.yul\":7536:7541   */\n      dup5\n        /* \"#utility.yul\":7533:7563   */\n      or\n        /* \"#utility.yul\":7523:7563   */\n      swap3\n      pop\n        /* \"#utility.yul\":7252:7569   */\n      pop\n      pop\n        /* \"#utility.yul\":7176:7569   */\n      swap4\n      swap3\n      pop\n      pop\n      pop\n      jump\t// out\n        /* \"#utility.yul\":7575:7635   */\n    tag_55:\n        /* \"#utility.yul\":7603:7606   */\n      0x00\n        /* \"#utility.yul\":7624:7629   */\n      dup2\n        /* \"#utility.yul\":7617:7629   */\n      swap1\n      pop\n        /* \"#utility.yul\":7575:7635   */\n      swap2\n      swap1\n      pop\n      jump\t// out\n        /* \"#utility.yul\":7641:7783   */\n    tag_56:\n        /* \"#utility.yul\":7691:7700   */\n      0x00\n        /* \"#utility.yul\":7724:7777   */\n      tag_154\n        /* \"#utility.yul\":7742:7776   */\n      tag_155\n        /* \"#utility.yul\":7751:7775   */\n      tag_156\n        /* \"#utility.yul\":7769:7774   */\n      dup5\n        /* \"#utility.yul\":7751:7775   */\n      tag_42\n      jump\t// in\n    tag_156:\n        /* \"#utility.yul\":7742:7776   */\n      tag_55\n      jump\t// in\n    tag_155:\n        /* \"#utility.yul\":7724:7777   */\n      tag_42\n      jump\t// in\n    tag_154:\n        /* \"#utility.yul\":7711:7777   */\n      swap1\n      pop\n        /* \"#utility.yul\":7641:7783   */\n      swap2\n      swap1\n      pop\n      jump\t// out\n        /* \"#utility.yul\":7789:7864   */\n    tag_57:\n        /* \"#utility.yul\":7832:7835   */\n      0x00\n        /* \"#utility.yul\":7853:7858   */\n      dup2\n        /* \"#utility.yul\":7846:7858   */\n      swap1\n      pop\n        /* \"#utility.yul\":7789:7864   */\n      swap2\n      swap1\n      pop\n      jump\t// out\n        /* \"#utility.yul\":7870:8139   */\n    tag_58:\n        /* \"#utility.yul\":7980:8019   */\n      tag_159\n        /* \"#utility.yul\":8011:8018   */\n      dup4\n        /* \"#utility.yul\":7980:8019   */\n      tag_56\n      jump\t// in\n    tag_159:\n        /* \"#utility.yul\":8041:8132   */\n      tag_160\n        /* \"#utility.yul\":8090:8131   */\n      tag_161\n        /* \"#utility.yul\":8114:8130   */\n      dup3\n        /* \"#utility.yul\":8090:8131   */\n      tag_57\n      jump\t// in\n    tag_161:\n        /* \"#utility.yul\":8082:8088   */\n      dup5\n        /* \"#utility.yul\":8075:8079   */\n      dup5\n        /* \"#utility.yul\":8069:8080   */\n      sload\n        /* \"#utility.yul\":8041:8132   */\n      tag_54\n      jump\t// in\n    tag_160:\n        /* \"#utility.yul\":8035:8039   */\n      dup3\n        /* \"#utility.yul\":8028:8133   */\n      sstore\n        /* \"#utility.yul\":7946:8139   */\n      pop\n        /* \"#utility.yul\":7870:8139   */\n      pop\n      pop\n      pop\n      jump\t// out\n        /* \"#utility.yul\":8145:8218   */\n    tag_59:\n        /* \"#utility.yul\":8190:8193   */\n      0x00\n        /* \"#utility.yul\":8145:8218   */\n      swap1\n      jump\t// out\n        /* \"#utility.yul\":8224:8413   */\n    tag_60:\n        /* \"#utility.yul\":8301:8333   */\n      tag_164\n      tag_59\n      jump\t// in\n    tag_164:\n        /* \"#utility.yul\":8342:8407   */\n      tag_165\n        /* \"#utility.yul\":8400:8406   */\n      dup2\n        /* \"#utility.yul\":8392:8398   */\n      dup5\n        /* \"#utility.yul\":8386:8390   */\n      dup5\n        /* \"#utility.yul\":8342:8407   */\n      tag_58\n      jump\t// in\n    tag_165:\n        /* \"#utility.yul\":8277:8413   */\n      pop\n        /* \"#utility.yul\":8224:8413   */\n      pop\n      pop\n      jump\t// out\n        /* \"#utility.yul\":8419:8605   */\n    tag_61:\n        /* \"#utility.yul\":8479:8599   */\n    tag_167:\n        /* \"#utility.yul\":8496:8499   */\n      dup2\n        /* \"#utility.yul\":8489:8494   */\n      dup2\n        /* \"#utility.yul\":8486:8500   */\n      lt\n        /* \"#utility.yul\":8479:8599   */\n      iszero\n      tag_169\n      jumpi\n        /* \"#utility.yul\":8550:8589   */\n      tag_170\n        /* \"#utility.yul\":8587:8588   */\n      0x00\n        /* \"#utility.yul\":8580:8585   */\n      dup3\n        /* \"#utility.yul\":8550:8589   */\n      tag_60\n      jump\t// in\n    tag_170:\n        /* \"#utility.yul\":8523:8524   */\n      0x01\n        /* \"#utility.yul\":8516:8521   */\n      dup2\n        /* \"#utility.yul\":8512:8525   */\n      add\n        /* \"#utility.yul\":8503:8525   */\n      swap1\n      pop\n        /* \"#utility.yul\":8479:8599   */\n      jump(tag_167)\n    tag_169:\n        /* \"#utility.yul\":8419:8605   */\n      pop\n      pop\n      jump\t// out\n        /* \"#utility.yul\":8611:9154   */\n    tag_62:\n        /* \"#utility.yul\":8712:8714   */\n      0x1f\n        /* \"#utility.yul\":8707:8710   */\n      dup3\n        /* \"#utility.yul\":8704:8715   */\n      gt\n        /* \"#utility.yul\":8701:9147   */\n      iszero\n      tag_172\n      jumpi\n        /* \"#utility.yul\":8746:8784   */\n      tag_173\n        /* \"#utility.yul\":8778:8783   */\n      dup2\n        /* \"#utility.yul\":8746:8784   */\n      tag_51\n      jump\t// in\n    tag_173:\n        /* \"#utility.yul\":8830:8859   */\n      tag_174\n        /* \"#utility.yul\":8848:8858   */\n      dup5\n        /* \"#utility.yul\":8830:8859   */\n      tag_52\n      jump\t// in\n    tag_174:\n        /* \"#utility.yul\":8820:8828   */\n      dup2\n        /* \"#utility.yul\":8816:8860   */\n      add\n        /* \"#utility.yul\":9013:9015   */\n      0x20\n        /* \"#utility.yul\":9001:9011   */\n      dup6\n        /* \"#utility.yul\":8998:9016   */\n      lt\n        /* \"#utility.yul\":8995:9044   */\n      iszero\n      tag_175\n      jumpi\n        /* \"#utility.yul\":9034:9042   */\n      dup2\n        /* \"#utility.yul\":9019:9042   */\n      swap1\n      pop\n        /* \"#utility.yul\":8995:9044   */\n    tag_175:\n        /* \"#utility.yul\":9057:9137   */\n      tag_176\n        /* \"#utility.yul\":9113:9135   */\n      tag_177\n        /* \"#utility.yul\":9131:9134   */\n      dup6\n        /* \"#utility.yul\":9113:9135   */\n      tag_52\n      jump\t// in\n    tag_177:\n        /* \"#utility.yul\":9103:9111   */\n      dup4\n        /* \"#utility.yul\":9099:9136   */\n      add\n        /* \"#utility.yul\":9086:9097   */\n      dup3\n        /* \"#utility.yul\":9057:9137   */\n      tag_61\n      jump\t// in\n    tag_176:\n        /* \"#utility.yul\":8716:9147   */\n      pop\n      pop\n        /* \"#utility.yul\":8701:9147   */\n    tag_172:\n        /* \"#utility.yul\":8611:9154   */\n      pop\n      pop\n      pop\n      jump\t// out\n        /* \"#utility.yul\":9160:9277   */\n    tag_63:\n        /* \"#utility.yul\":9214:9222   */\n      0x00\n        /* \"#utility.yul\":9264:9269   */\n      dup3\n        /* \"#utility.yul\":9258:9262   */\n      dup3\n        /* \"#utility.yul\":9254:9270   */\n      shr\n        /* \"#utility.yul\":9233:9270   */\n      swap1\n      pop\n        /* \"#utility.yul\":9160:9277   */\n      swap3\n      swap2\n      pop\n      pop\n      jump\t// out\n        /* \"#utility.yul\":9283:9452   */\n    tag_64:\n        /* \"#utility.yul\":9327:9333   */\n      0x00\n        /* \"#utility.yul\":9360:9411   */\n      tag_180\n        /* \"#utility.yul\":9408:9409   */\n      0x00\n        /* \"#utility.yul\":9404:9410   */\n      not\n        /* \"#utility.yul\":9396:9401   */\n      dup5\n        /* \"#utility.yul\":9393:9394   */\n      0x08\n        /* \"#utility.yul\":9389:9402   */\n      mul\n        /* \"#utility.yul\":9360:9411   */\n      tag_63\n      jump\t// in\n    tag_180:\n        /* \"#utility.yul\":9356:9412   */\n      not\n        /* \"#utility.yul\":9441:9445   */\n      dup1\n        /* \"#utility.yul\":9435:9439   */\n      dup4\n        /* \"#utility.yul\":9431:9446   */\n      and\n        /* \"#utility.yul\":9421:9446   */\n      swap2\n      pop\n        /* \"#utility.yul\":9334:9452   */\n      pop\n        /* \"#utility.yul\":9283:9452   */\n      swap3\n      swap2\n      pop\n      pop\n      jump\t// out\n        /* \"#utility.yul\":9457:9752   */\n    tag_65:\n        /* \"#utility.yul\":9533:9537   */\n      0x00\n        /* \"#utility.yul\":9679:9708   */\n      tag_182\n        /* \"#utility.yul\":9704:9707   */\n      dup4\n        /* \"#utility.yul\":9698:9702   */\n      dup4\n        /* \"#utility.yul\":9679:9708   */\n      tag_64\n      jump\t// in\n    tag_182:\n        /* \"#utility.yul\":9671:9708   */\n      swap2\n      pop\n        /* \"#utility.yul\":9741:9744   */\n      dup3\n        /* \"#utility.yul\":9738:9739   */\n      0x02\n        /* \"#utility.yul\":9734:9745   */\n      mul\n        /* \"#utility.yul\":9728:9732   */\n      dup3\n        /* \"#utility.yul\":9725:9746   */\n      or\n        /* \"#utility.yul\":9717:9746   */\n      swap1\n      pop\n        /* \"#utility.yul\":9457:9752   */\n      swap3\n      swap2\n      pop\n      pop\n      jump\t// out\n        /* \"#utility.yul\":9757:11152   */\n    tag_24:\n        /* \"#utility.yul\":9874:9911   */\n      tag_184\n        /* \"#utility.yul\":9907:9910   */\n      dup3\n        /* \"#utility.yul\":9874:9911   */\n      tag_38\n      jump\t// in\n    tag_184:\n        /* \"#utility.yul\":9976:9994   */\n      0xffffffffffffffff\n        /* \"#utility.yul\":9968:9974   */\n      dup2\n        /* \"#utility.yul\":9965:9995   */\n      gt\n        /* \"#utility.yul\":9962:10018   */\n      iszero\n      tag_185\n      jumpi\n        /* \"#utility.yul\":9998:10016   */\n      tag_186\n      tag_31\n      jump\t// in\n    tag_186:\n        /* \"#utility.yul\":9962:10018   */\n    tag_185:\n        /* \"#utility.yul\":10042:10080   */\n      tag_187\n        /* \"#utility.yul\":10074:10078   */\n      dup3\n        /* \"#utility.yul\":10068:10079   */\n      sload\n        /* \"#utility.yul\":10042:10080   */\n      tag_50\n      jump\t// in\n    tag_187:\n        /* \"#utility.yul\":10127:10194   */\n      tag_188\n        /* \"#utility.yul\":10187:10193   */\n      dup3\n        /* \"#utility.yul\":10179:10185   */\n      dup3\n        /* \"#utility.yul\":10173:10177   */\n      dup6\n        /* \"#utility.yul\":10127:10194   */\n      tag_62\n      jump\t// in\n    tag_188:\n        /* \"#utility.yul\":10221:10222   */\n      0x00\n        /* \"#utility.yul\":10245:10249   */\n      0x20\n        /* \"#utility.yul\":10232:10249   */\n      swap1\n      pop\n        /* \"#utility.yul\":10277:10279   */\n      0x1f\n        /* \"#utility.yul\":10269:10275   */\n      dup4\n        /* \"#utility.yul\":10266:10280   */\n      gt\n        /* \"#utility.yul\":10294:10295   */\n      0x01\n        /* \"#utility.yul\":10289:10907   */\n      dup2\n      eq\n      tag_190\n      jumpi\n        /* \"#utility.yul\":10951:10952   */\n      0x00\n        /* \"#utility.yul\":10968:10974   */\n      dup5\n        /* \"#utility.yul\":10965:11042   */\n      iszero\n      tag_191\n      jumpi\n        /* \"#utility.yul\":11017:11026   */\n      dup3\n        /* \"#utility.yul\":11012:11015   */\n      dup8\n        /* \"#utility.yul\":11008:11027   */\n      add\n        /* \"#utility.yul\":11002:11028   */\n      mload\n        /* \"#utility.yul\":10993:11028   */\n      swap1\n      pop\n        /* \"#utility.yul\":10965:11042   */\n    tag_191:\n        /* \"#utility.yul\":11068:11135   */\n      tag_192\n        /* \"#utility.yul\":11128:11134   */\n      dup6\n        /* \"#utility.yul\":11121:11126   */\n      dup3\n        /* \"#utility.yul\":11068:11135   */\n      tag_65\n      jump\t// in\n    tag_192:\n        /* \"#utility.yul\":11062:11066   */\n      dup7\n        /* \"#utility.yul\":11055:11136   */\n      sstore\n        /* \"#utility.yul\":10924:11146   */\n      pop\n        /* \"#utility.yul\":10259:11146   */\n      jump(tag_189)\n        /* \"#utility.yul\":10289:10907   */\n    tag_190:\n        /* \"#utility.yul\":10341:10345   */\n      0x1f\n        /* \"#utility.yul\":10337:10346   */\n      not\n        /* \"#utility.yul\":10329:10335   */\n      dup5\n        /* \"#utility.yul\":10325:10347   */\n      and\n        /* \"#utility.yul\":10375:10412   */\n      tag_193\n        /* \"#utility.yul\":10407:10411   */\n      dup7\n        /* \"#utility.yul\":10375:10412   */\n      tag_51\n      jump\t// in\n    tag_193:\n        /* \"#utility.yul\":10434:10435   */\n      0x00\n        /* \"#utility.yul\":10448:10656   */\n    tag_194:\n        /* \"#utility.yul\":10462:10469   */\n      dup3\n        /* \"#utility.yul\":10459:10460   */\n      dup2\n        /* \"#utility.yul\":10456:10470   */\n      lt\n        /* \"#utility.yul\":10448:10656   */\n      iszero\n      tag_196\n      jumpi\n        /* \"#utility.yul\":10541:10550   */\n      dup5\n        /* \"#utility.yul\":10536:10539   */\n      dup10\n        /* \"#utility.yul\":10532:10551   */\n      add\n        /* \"#utility.yul\":10526:10552   */\n      mload\n        /* \"#utility.yul\":10518:10524   */\n      dup3\n        /* \"#utility.yul\":10511:10553   */\n      sstore\n        /* \"#utility.yul\":10592:10593   */\n      0x01\n        /* \"#utility.yul\":10584:10590   */\n      dup3\n        /* \"#utility.yul\":10580:10594   */\n      add\n        /* \"#utility.yul\":10570:10594   */\n      swap2\n      pop\n        /* \"#utility.yul\":10639:10641   */\n      0x20\n        /* \"#utility.yul\":10628:10637   */\n      dup6\n        /* \"#utility.yul\":10624:10642   */\n      add\n        /* \"#utility.yul\":10611:10642   */\n      swap5\n      pop\n        /* \"#utility.yul\":10485:10489   */\n      0x20\n        /* \"#utility.yul\":10482:10483   */\n      dup2\n        /* \"#utility.yul\":10478:10490   */\n      add\n        /* \"#utility.yul\":10473:10490   */\n      swap1\n      pop\n        /* \"#utility.yul\":10448:10656   */\n      jump(tag_194)\n    tag_196:\n        /* \"#utility.yul\":10684:10690   */\n      dup7\n        /* \"#utility.yul\":10675:10682   */\n      dup4\n        /* \"#utility.yul\":10672:10691   */\n      lt\n        /* \"#utility.yul\":10669:10848   */\n      iszero\n      tag_197\n      jumpi\n        /* \"#utility.yul\":10742:10751   */\n      dup5\n        /* \"#utility.yul\":10737:10740   */\n      dup10\n        /* \"#utility.yul\":10733:10752   */\n      add\n        /* \"#utility.yul\":10727:10753   */\n      mload\n        /* \"#utility.yul\":10785:10833   */\n      tag_198\n        /* \"#utility.yul\":10827:10831   */\n      0x1f\n        /* \"#utility.yul\":10819:10825   */\n      dup10\n        /* \"#utility.yul\":10815:10832   */\n      and\n        /* \"#utility.yul\":10804:10813   */\n      dup3\n        /* \"#utility.yul\":10785:10833   */\n      tag_64\n      jump\t// in\n    tag_198:\n        /* \"#utility.yul\":10777:10783   */\n      dup4\n        /* \"#utility.yul\":10770:10834   */\n      sstore\n        /* \"#utility.yul\":10692:10848   */\n      pop\n        /* \"#utility.yul\":10669:10848   */\n    tag_197:\n        /* \"#utility.yul\":10894:10895   */\n      0x01\n        /* \"#utility.yul\":10890:10891   */\n      0x02\n        /* \"#utility.yul\":10882:10888   */\n      dup9\n        /* \"#utility.yul\":10878:10892   */\n      mul\n        /* \"#utility.yul\":10874:10896   */\n      add\n        /* \"#utility.yul\":10868:10872   */\n      dup9\n        /* \"#utility.yul\":10861:10897   */\n      sstore\n        /* \"#utility.yul\":10296:10907   */\n      pop\n      pop\n      pop\n        /* \"#utility.yul\":10259:11146   */\n    tag_189:\n      pop\n        /* \"#utility.yul\":9849:11152   */\n      pop\n      pop\n      pop\n        /* \"#utility.yul\":9757:11152   */\n      pop\n      pop\n      jump\t// out\n\n    auxdata: 0xa26469706673582212205ed4edd8cb14af53ba872f814c56db2498df213b71caf1fa8589ad84c5d404b364736f6c63430008120033\n}\n",
				"bytecode": {
					"linkReferences": {},
					"object": "608060405234801561001057600080fd5b506107e3806100206000396000f3fe608060405234801561001057600080fd5b50600436106100415760003560e01c80631e04894f146100465780634f6670cc14610076578063ec07c2d114610092575b600080fd5b610060600480360381019061005b91906102b5565b6100ae565b60405161006d919061037d565b60405180910390f35b610090600480360381019061008b9190610433565b6100be565b005b6100ac60048036038101906100a79190610473565b610108565b005b6060600082905080915050919050565b816000808373ffffffffffffffffffffffffffffffffffffffff1673ffffffffffffffffffffffffffffffffffffffff168152602001908152602001600020600101819055505050565b816000808373ffffffffffffffffffffffffffffffffffffffff1673ffffffffffffffffffffffffffffffffffffffff168152602001908152602001600020600001908161015691906106db565b505050565b6000604051905090565b600080fd5b600080fd5b600080fd5b600080fd5b6000601f19601f8301169050919050565b7f4e487b7100000000000000000000000000000000000000000000000000000000600052604160045260246000fd5b6101c282610179565b810181811067ffffffffffffffff821117156101e1576101e061018a565b5b80604052505050565b60006101f461015b565b905061020082826101b9565b919050565b600067ffffffffffffffff8211156102205761021f61018a565b5b61022982610179565b9050602081019050919050565b82818337600083830152505050565b600061025861025384610205565b6101ea565b90508281526020810184848401111561027457610273610174565b5b61027f848285610236565b509392505050565b600082601f83011261029c5761029b61016f565b5b81356102ac848260208601610245565b91505092915050565b6000602082840312156102cb576102ca610165565b5b600082013567ffffffffffffffff8111156102e9576102e861016a565b5b6102f584828501610287565b91505092915050565b600081519050919050565b600082825260208201905092915050565b60005b8381101561033857808201518184015260208101905061031d565b60008484015250505050565b600061034f826102fe565b6103598185610309565b935061036981856020860161031a565b61037281610179565b840191505092915050565b600060208201905081810360008301526103978184610344565b905092915050565b6000819050919050565b6103b28161039f565b81146103bd57600080fd5b50565b6000813590506103cf816103a9565b92915050565b600073ffffffffffffffffffffffffffffffffffffffff82169050919050565b6000610400826103d5565b9050919050565b610410816103f5565b811461041b57600080fd5b50565b60008135905061042d81610407565b92915050565b6000806040838503121561044a57610449610165565b5b6000610458858286016103c0565b92505060206104698582860161041e565b9150509250929050565b6000806040838503121561048a57610489610165565b5b600083013567ffffffffffffffff8111156104a8576104a761016a565b5b6104b485828601610287565b92505060206104c58582860161041e565b9150509250929050565b7f4e487b7100000000000000000000000000000000000000000000000000000000600052602260045260246000fd5b6000600282049050600182168061051657607f821691505b602082108103610529576105286104cf565b5b50919050565b60008190508160005260206000209050919050565b60006020601f8301049050919050565b600082821b905092915050565b6000600883026105917fffffffffffffffffffffffffffffffffffffffffffffffffffffffffffffffff82610554565b61059b8683610554565b95508019841693508086168417925050509392505050565b6000819050919050565b60006105d86105d36105ce8461039f565b6105b3565b61039f565b9050919050565b6000819050919050565b6105f2836105bd565b6106066105fe826105df565b848454610561565b825550505050565b600090565b61061b61060e565b6106268184846105e9565b505050565b5b8181101561064a5761063f600082610613565b60018101905061062c565b5050565b601f82111561068f576106608161052f565b61066984610544565b81016020851015610678578190505b61068c61068485610544565b83018261062b565b50505b505050565b600082821c905092915050565b60006106b260001984600802610694565b1980831691505092915050565b60006106cb83836106a1565b9150826002028217905092915050565b6106e4826102fe565b67ffffffffffffffff8111156106fd576106fc61018a565b5b61070782546104fe565b61071282828561064e565b600060209050601f8311600181146107455760008415610733578287015190505b61073d85826106bf565b8655506107a5565b601f1984166107538661052f565b60005b8281101561077b57848901518255600182019150602085019450602081019050610756565b868310156107985784890151610794601f8916826106a1565b8355505b6001600288020188555050505b50505050505056fea26469706673582212205ed4edd8cb14af53ba872f814c56db2498df213b71caf1fa8589ad84c5d404b364736f6c63430008120033",
					"opcodes": "PUSH1 0x80 PUSH1 0x40 MSTORE CALLVALUE DUP1 ISZERO PUSH2 0x10 JUMPI PUSH1 0x0 DUP1 REVERT JUMPDEST POP PUSH2 0x7E3 DUP1 PUSH2 0x20 PUSH1 0x0 CODECOPY PUSH1 0x0 RETURN INVALID PUSH1 0x80 PUSH1 0x40 MSTORE CALLVALUE DUP1 ISZERO PUSH2 0x10 JUMPI PUSH1 0x0 DUP1 REVERT JUMPDEST POP PUSH1 0x4 CALLDATASIZE LT PUSH2 0x41 JUMPI PUSH1 0x0 CALLDATALOAD PUSH1 0xE0 SHR DUP1 PUSH4 0x1E04894F EQ PUSH2 0x46 JUMPI DUP1 PUSH4 0x4F6670CC EQ PUSH2 0x76 JUMPI DUP1 PUSH4 0xEC07C2D1 EQ PUSH2 0x92 JUMPI JUMPDEST PUSH1 0x0 DUP1 REVERT JUMPDEST PUSH2 0x60 PUSH1 0x4 DUP1 CALLDATASIZE SUB DUP2 ADD SWAP1 PUSH2 0x5B SWAP2 SWAP1 PUSH2 0x2B5 JUMP JUMPDEST PUSH2 0xAE JUMP JUMPDEST PUSH1 0x40 MLOAD PUSH2 0x6D SWAP2 SWAP1 PUSH2 0x37D JUMP JUMPDEST PUSH1 0x40 MLOAD DUP1 SWAP2 SUB SWAP1 RETURN JUMPDEST PUSH2 0x90 PUSH1 0x4 DUP1 CALLDATASIZE SUB DUP2 ADD SWAP1 PUSH2 0x8B SWAP2 SWAP1 PUSH2 0x433 JUMP JUMPDEST PUSH2 0xBE JUMP JUMPDEST STOP JUMPDEST PUSH2 0xAC PUSH1 0x4 DUP1 CALLDATASIZE SUB DUP2 ADD SWAP1 PUSH2 0xA7 SWAP2 SWAP1 PUSH2 0x473 JUMP JUMPDEST PUSH2 0x108 JUMP JUMPDEST STOP JUMPDEST PUSH1 0x60 PUSH1 0x0 DUP3 SWAP1 POP DUP1 SWAP2 POP POP SWAP2 SWAP1 POP JUMP JUMPDEST DUP2 PUSH1 0x0 DUP1 DUP4 PUSH20 0xFFFFFFFFFFFFFFFFFFFFFFFFFFFFFFFFFFFFFFFF AND PUSH20 0xFFFFFFFFFFFFFFFFFFFFFFFFFFFFFFFFFFFFFFFF AND DUP2 MSTORE PUSH1 0x20 ADD SWAP1 DUP2 MSTORE PUSH1 0x20 ADD PUSH1 0x0 KECCAK256 PUSH1 0x1 ADD DUP2 SWAP1 SSTORE POP POP POP JUMP JUMPDEST DUP2 PUSH1 0x0 DUP1 DUP4 PUSH20 0xFFFFFFFFFFFFFFFFFFFFFFFFFFFFFFFFFFFFFFFF AND PUSH20 0xFFFFFFFFFFFFFFFFFFFFFFFFFFFFFFFFFFFFFFFF AND DUP2 MSTORE PUSH1 0x20 ADD SWAP1 DUP2 MSTORE PUSH1 0x20 ADD PUSH1 0x0 KECCAK256 PUSH1 0x0 ADD SWAP1 DUP2 PUSH2 0x156 SWAP2 SWAP1 PUSH2 0x6DB JUMP JUMPDEST POP POP POP JUMP JUMPDEST PUSH1 0x0 PUSH1 0x40 MLOAD SWAP1 POP SWAP1 JUMP JUMPDEST PUSH1 0x0 DUP1 REVERT JUMPDEST PUSH1 0x0 DUP1 REVERT JUMPDEST PUSH1 0x0 DUP1 REVERT JUMPDEST PUSH1 0x0 DUP1 REVERT JUMPDEST PUSH1 0x0 PUSH1 0x1F NOT PUSH1 0x1F DUP4 ADD AND SWAP1 POP SWAP2 SWAP1 POP JUMP JUMPDEST PUSH32 0x4E487B7100000000000000000000000000000000000000000000000000000000 PUSH1 0x0 MSTORE PUSH1 0x41 PUSH1 0x4 MSTORE PUSH1 0x24 PUSH1 0x0 REVERT JUMPDEST PUSH2 0x1C2 DUP3 PUSH2 0x179 JUMP JUMPDEST DUP2 ADD DUP2 DUP2 LT PUSH8 0xFFFFFFFFFFFFFFFF DUP3 GT OR ISZERO PUSH2 0x1E1 JUMPI PUSH2 0x1E0 PUSH2 0x18A JUMP JUMPDEST JUMPDEST DUP1 PUSH1 0x40 MSTORE POP POP POP JUMP JUMPDEST PUSH1 0x0 PUSH2 0x1F4 PUSH2 0x15B JUMP JUMPDEST SWAP1 POP PUSH2 0x200 DUP3 DUP3 PUSH2 0x1B9 JUMP JUMPDEST SWAP2 SWAP1 POP JUMP JUMPDEST PUSH1 0x0 PUSH8 0xFFFFFFFFFFFFFFFF DUP3 GT ISZERO PUSH2 0x220 JUMPI PUSH2 0x21F PUSH2 0x18A JUMP JUMPDEST JUMPDEST PUSH2 0x229 DUP3 PUSH2 0x179 JUMP JUMPDEST SWAP1 POP PUSH1 0x20 DUP2 ADD SWAP1 POP SWAP2 SWAP1 POP JUMP JUMPDEST DUP3 DUP2 DUP4 CALLDATACOPY PUSH1 0x0 DUP4 DUP4 ADD MSTORE POP POP POP JUMP JUMPDEST PUSH1 0x0 PUSH2 0x258 PUSH2 0x253 DUP5 PUSH2 0x205 JUMP JUMPDEST PUSH2 0x1EA JUMP JUMPDEST SWAP1 POP DUP3 DUP2 MSTORE PUSH1 0x20 DUP2 ADD DUP5 DUP5 DUP5 ADD GT ISZERO PUSH2 0x274 JUMPI PUSH2 0x273 PUSH2 0x174 JUMP JUMPDEST JUMPDEST PUSH2 0x27F DUP5 DUP3 DUP6 PUSH2 0x236 JUMP JUMPDEST POP SWAP4 SWAP3 POP POP POP JUMP JUMPDEST PUSH1 0x0 DUP3 PUSH1 0x1F DUP4 ADD SLT PUSH2 0x29C JUMPI PUSH2 0x29B PUSH2 0x16F JUMP JUMPDEST JUMPDEST DUP2 CALLDATALOAD PUSH2 0x2AC DUP5 DUP3 PUSH1 0x20 DUP7 ADD PUSH2 0x245 JUMP JUMPDEST SWAP2 POP POP SWAP3 SWAP2 POP POP JUMP JUMPDEST PUSH1 0x0 PUSH1 0x20 DUP3 DUP5 SUB SLT ISZERO PUSH2 0x2CB JUMPI PUSH2 0x2CA PUSH2 0x165 JUMP JUMPDEST JUMPDEST PUSH1 0x0 DUP3 ADD CALLDATALOAD PUSH8 0xFFFFFFFFFFFFFFFF DUP2 GT ISZERO PUSH2 0x2E9 JUMPI PUSH2 0x2E8 PUSH2 0x16A JUMP JUMPDEST JUMPDEST PUSH2 0x2F5 DUP5 DUP3 DUP6 ADD PUSH2 0x287 JUMP JUMPDEST SWAP2 POP POP SWAP3 SWAP2 POP POP JUMP JUMPDEST PUSH1 0x0 DUP2 MLOAD SWAP1 POP SWAP2 SWAP1 POP JUMP JUMPDEST PUSH1 0x0 DUP3 DUP3 MSTORE PUSH1 0x20 DUP3 ADD SWAP1 POP SWAP3 SWAP2 POP POP JUMP JUMPDEST PUSH1 0x0 JUMPDEST DUP4 DUP2 LT ISZERO PUSH2 0x338 JUMPI DUP1 DUP3 ADD MLOAD DUP2 DUP5 ADD MSTORE PUSH1 0x20 DUP2 ADD SWAP1 POP PUSH2 0x31D JUMP JUMPDEST PUSH1 0x0 DUP5 DUP5 ADD MSTORE POP POP POP POP JUMP JUMPDEST PUSH1 0x0 PUSH2 0x34F DUP3 PUSH2 0x2FE JUMP JUMPDEST PUSH2 0x359 DUP2 DUP6 PUSH2 0x309 JUMP JUMPDEST SWAP4 POP PUSH2 0x369 DUP2 DUP6 PUSH1 0x20 DUP7 ADD PUSH2 0x31A JUMP JUMPDEST PUSH2 0x372 DUP2 PUSH2 0x179 JUMP JUMPDEST DUP5 ADD SWAP2 POP POP SWAP3 SWAP2 POP POP JUMP JUMPDEST PUSH1 0x0 PUSH1 0x20 DUP3 ADD SWAP1 POP DUP2 DUP2 SUB PUSH1 0x0 DUP4 ADD MSTORE PUSH2 0x397 DUP2 DUP5 PUSH2 0x344 JUMP JUMPDEST SWAP1 POP SWAP3 SWAP2 POP POP JUMP JUMPDEST PUSH1 0x0 DUP2 SWAP1 POP SWAP2 SWAP1 POP JUMP JUMPDEST PUSH2 0x3B2 DUP2 PUSH2 0x39F JUMP JUMPDEST DUP2 EQ PUSH2 0x3BD JUMPI PUSH1 0x0 DUP1 REVERT JUMPDEST POP JUMP JUMPDEST PUSH1 0x0 DUP2 CALLDATALOAD SWAP1 POP PUSH2 0x3CF DUP2 PUSH2 0x3A9 JUMP JUMPDEST SWAP3 SWAP2 POP POP JUMP JUMPDEST PUSH1 0x0 PUSH20 0xFFFFFFFFFFFFFFFFFFFFFFFFFFFFFFFFFFFFFFFF DUP3 AND SWAP1 POP SWAP2 SWAP1 POP JUMP JUMPDEST PUSH1 0x0 PUSH2 0x400 DUP3 PUSH2 0x3D5 JUMP JUMPDEST SWAP1 POP SWAP2 SWAP1 POP JUMP JUMPDEST PUSH2 0x410 DUP2 PUSH2 0x3F5 JUMP JUMPDEST DUP2 EQ PUSH2 0x41B JUMPI PUSH1 0x0 DUP1 REVERT JUMPDEST POP JUMP JUMPDEST PUSH1 0x0 DUP2 CALLDATALOAD SWAP1 POP PUSH2 0x42D DUP2 PUSH2 0x407 JUMP JUMPDEST SWAP3 SWAP2 POP POP JUMP JUMPDEST PUSH1 0x0 DUP1 PUSH1 0x40 DUP4 DUP6 SUB SLT ISZERO PUSH2 0x44A JUMPI PUSH2 0x449 PUSH2 0x165 JUMP JUMPDEST JUMPDEST PUSH1 0x0 PUSH2 0x458 DUP6 DUP3 DUP7 ADD PUSH2 0x3C0 JUMP JUMPDEST SWAP3 POP POP PUSH1 0x20 PUSH2 0x469 DUP6 DUP3 DUP7 ADD PUSH2 0x41E JUMP JUMPDEST SWAP2 POP POP SWAP3 POP SWAP3 SWAP1 POP JUMP JUMPDEST PUSH1 0x0 DUP1 PUSH1 0x40 DUP4 DUP6 SUB SLT ISZERO PUSH2 0x48A JUMPI PUSH2 0x489 PUSH2 0x165 JUMP JUMPDEST JUMPDEST PUSH1 0x0 DUP4 ADD CALLDATALOAD PUSH8 0xFFFFFFFFFFFFFFFF DUP2 GT ISZERO PUSH2 0x4A8 JUMPI PUSH2 0x4A7 PUSH2 0x16A JUMP JUMPDEST JUMPDEST PUSH2 0x4B4 DUP6 DUP3 DUP7 ADD PUSH2 0x287 JUMP JUMPDEST SWAP3 POP POP PUSH1 0x20 PUSH2 0x4C5 DUP6 DUP3 DUP7 ADD PUSH2 0x41E JUMP JUMPDEST SWAP2 POP POP SWAP3 POP SWAP3 SWAP1 POP JUMP JUMPDEST PUSH32 0x4E487B7100000000000000000000000000000000000000000000000000000000 PUSH1 0x0 MSTORE PUSH1 0x22 PUSH1 0x4 MSTORE PUSH1 0x24 PUSH1 0x0 REVERT JUMPDEST PUSH1 0x0 PUSH1 0x2 DUP3 DIV SWAP1 POP PUSH1 0x1 DUP3 AND DUP1 PUSH2 0x516 JUMPI PUSH1 0x7F DUP3 AND SWAP2 POP JUMPDEST PUSH1 0x20 DUP3 LT DUP2 SUB PUSH2 0x529 JUMPI PUSH2 0x528 PUSH2 0x4CF JUMP JUMPDEST JUMPDEST POP SWAP2 SWAP1 POP JUMP JUMPDEST PUSH1 0x0 DUP2 SWAP1 POP DUP2 PUSH1 0x0 MSTORE PUSH1 0x20 PUSH1 0x0 KECCAK256 SWAP1 POP SWAP2 SWAP1 POP JUMP JUMPDEST PUSH1 0x0 PUSH1 0x20 PUSH1 0x1F DUP4 ADD DIV SWAP1 POP SWAP2 SWAP1 POP JUMP JUMPDEST PUSH1 0x0 DUP3 DUP3 SHL SWAP1 POP SWAP3 SWAP2 POP POP JUMP JUMPDEST PUSH1 0x0 PUSH1 0x8 DUP4 MUL PUSH2 0x591 PUSH32 0xFFFFFFFFFFFFFFFFFFFFFFFFFFFFFFFFFFFFFFFFFFFFFFFFFFFFFFFFFFFFFFFF DUP3 PUSH2 0x554 JUMP JUMPDEST PUSH2 0x59B DUP7 DUP4 PUSH2 0x554 JUMP JUMPDEST SWAP6 POP DUP1 NOT DUP5 AND SWAP4 POP DUP1 DUP7 AND DUP5 OR SWAP3 POP POP POP SWAP4 SWAP3 POP POP POP JUMP JUMPDEST PUSH1 0x0 DUP2 SWAP1 POP SWAP2 SWAP1 POP JUMP JUMPDEST PUSH1 0x0 PUSH2 0x5D8 PUSH2 0x5D3 PUSH2 0x5CE DUP5 PUSH2 0x39F JUMP JUMPDEST PUSH2 0x5B3 JUMP JUMPDEST PUSH2 0x39F JUMP JUMPDEST SWAP1 POP SWAP2 SWAP1 POP JUMP JUMPDEST PUSH1 0x0 DUP2 SWAP1 POP SWAP2 SWAP1 POP JUMP JUMPDEST PUSH2 0x5F2 DUP4 PUSH2 0x5BD JUMP JUMPDEST PUSH2 0x606 PUSH2 0x5FE DUP3 PUSH2 0x5DF JUMP JUMPDEST DUP5 DUP5 SLOAD PUSH2 0x561 JUMP JUMPDEST DUP3 SSTORE POP POP POP POP JUMP JUMPDEST PUSH1 0x0 SWAP1 JUMP JUMPDEST PUSH2 0x61B PUSH2 0x60E JUMP JUMPDEST PUSH2 0x626 DUP2 DUP5 DUP5 PUSH2 0x5E9 JUMP JUMPDEST POP POP POP JUMP JUMPDEST JUMPDEST DUP2 DUP2 LT ISZERO PUSH2 0x64A JUMPI PUSH2 0x63F PUSH1 0x0 DUP3 PUSH2 0x613 JUMP JUMPDEST PUSH1 0x1 DUP2 ADD SWAP1 POP PUSH2 0x62C JUMP JUMPDEST POP POP JUMP JUMPDEST PUSH1 0x1F DUP3 GT ISZERO PUSH2 0x68F JUMPI PUSH2 0x660 DUP2 PUSH2 0x52F JUMP JUMPDEST PUSH2 0x669 DUP5 PUSH2 0x544 JUMP JUMPDEST DUP2 ADD PUSH1 0x20 DUP6 LT ISZERO PUSH2 0x678 JUMPI DUP2 SWAP1 POP JUMPDEST PUSH2 0x68C PUSH2 0x684 DUP6 PUSH2 0x544 JUMP JUMPDEST DUP4 ADD DUP3 PUSH2 0x62B JUMP JUMPDEST POP POP JUMPDEST POP POP POP JUMP JUMPDEST PUSH1 0x0 DUP3 DUP3 SHR SWAP1 POP SWAP3 SWAP2 POP POP JUMP JUMPDEST PUSH1 0x0 PUSH2 0x6B2 PUSH1 0x0 NOT DUP5 PUSH1 0x8 MUL PUSH2 0x694 JUMP JUMPDEST NOT DUP1 DUP4 AND SWAP2 POP POP SWAP3 SWAP2 POP POP JUMP JUMPDEST PUSH1 0x0 PUSH2 0x6CB DUP4 DUP4 PUSH2 0x6A1 JUMP JUMPDEST SWAP2 POP DUP3 PUSH1 0x2 MUL DUP3 OR SWAP1 POP SWAP3 SWAP2 POP POP JUMP JUMPDEST PUSH2 0x6E4 DUP3 PUSH2 0x2FE JUMP JUMPDEST PUSH8 0xFFFFFFFFFFFFFFFF DUP2 GT ISZERO PUSH2 0x6FD JUMPI PUSH2 0x6FC PUSH2 0x18A JUMP JUMPDEST JUMPDEST PUSH2 0x707 DUP3 SLOAD PUSH2 0x4FE JUMP JUMPDEST PUSH2 0x712 DUP3 DUP3 DUP6 PUSH2 0x64E JUMP JUMPDEST PUSH1 0x0 PUSH1 0x20 SWAP1 POP PUSH1 0x1F DUP4 GT PUSH1 0x1 DUP2 EQ PUSH2 0x745 JUMPI PUSH1 0x0 DUP5 ISZERO PUSH2 0x733 JUMPI DUP3 DUP8 ADD MLOAD SWAP1 POP JUMPDEST PUSH2 0x73D DUP6 DUP3 PUSH2 0x6BF JUMP JUMPDEST DUP7 SSTORE POP PUSH2 0x7A5 JUMP JUMPDEST PUSH1 0x1F NOT DUP5 AND PUSH2 0x753 DUP7 PUSH2 0x52F JUMP JUMPDEST PUSH1 0x0 JUMPDEST DUP3 DUP2 LT ISZERO PUSH2 0x77B JUMPI DUP5 DUP10 ADD MLOAD DUP3 SSTORE PUSH1 0x1 DUP3 ADD SWAP2 POP PUSH1 0x20 DUP6 ADD SWAP5 POP PUSH1 0x20 DUP2 ADD SWAP1 POP PUSH2 0x756 JUMP JUMPDEST DUP7 DUP4 LT ISZERO PUSH2 0x798 JUMPI DUP5 DUP10 ADD MLOAD PUSH2 0x794 PUSH1 0x1F DUP10 AND DUP3 PUSH2 0x6A1 JUMP JUMPDEST DUP4 SSTORE POP JUMPDEST PUSH1 0x1 PUSH1 0x2 DUP9 MUL ADD DUP9 SSTORE POP POP POP JUMPDEST POP POP POP POP POP POP JUMP INVALID LOG2 PUSH5 0x6970667358 0x22 SLT KECCAK256 0x5E 0xD4 0xED 0xD8 0xCB EQ 0xAF MSTORE8 0xBA DUP8 0x2F DUP2 0x4C JUMP 0xDB 0x24 SWAP9 0xDF 0x21 EXTCODESIZE PUSH18 0xCAF1FA8589AD84C5D404B364736F6C634300 ADDMOD SLT STOP CALLER "
				},
				"gasEstimates": {
					"creation": {
						"codeDepositCost": "403800",
						"executionCost": "443",
						"totalCost": "404243"
					},
					"external": {
						"setAge(uint256,address)": "22838",
						"setAsge(string)": "infinite",
						"setName(string,address)": "infinite"
					}
				},
				"methodIdentifiers": {
					"setAge(uint256,address)": "4f6670cc",
					"setAsge(string)": "1e04894f",
					"setName(string,address)": "ec07c2d1"
				}
			},
			"storageLayout": {
				"storage": [
					{
						"astId": 11,
						"contract": "contracts-module_2/struct.sol:structa",
						"label": "student",
						"offset": 0,
						"slot": "0",
						"type": "t_mapping(t_address,t_struct(studentStruct)6_storage)"
					}
				],
				"types": {
					"t_address": {
						"encoding": "inplace",
						"label": "address",
						"numberOfBytes": "20"
					},
					"t_mapping(t_address,t_struct(studentStruct)6_storage)": {
						"encoding": "mapping",
						"key": "t_address",
						"label": "mapping(address => struct structa.studentStruct)",
						"numberOfBytes": "32",
						"value": "t_struct(studentStruct)6_storage"
					},
					"t_string_storage": {
						"encoding": "bytes",
						"label": "string",
						"numberOfBytes": "32"
					},
					"t_struct(studentStruct)6_storage": {
						"encoding": "inplace",
						"label": "struct structa.studentStruct",
						"members": [
							{
								"astId": 3,
								"contract": "contracts-module_2/struct.sol:structa",
								"label": "name",
								"offset": 0,
								"slot": "0",
								"type": "t_string_storage"
							},
							{
								"astId": 5,
								"contract": "contracts-module_2/struct.sol:structa",
								"label": "age",
								"offset": 0,
								"slot": "1",
								"type": "t_uint256"
							}
						],
						"numberOfBytes": "64"
					},
					"t_uint256": {
						"encoding": "inplace",
						"label": "uint256",
						"numberOfBytes": "32"
					}
				}
			},
			"userdoc": {
				"kind": "user",
				"methods": {},
				"version": 1
			}
		}
	}
}