{
	"week8/exercise.sol": {
		"exerciseOnFunction": {
			"abi": [
				{
					"inputs": [],
					"name": "add",
					"outputs": [],
					"stateMutability": "nonpayable",
					"type": "function"
				},
				{
					"inputs": [
						{
							"internalType": "uint256",
							"name": "_number",
							"type": "uint256"
						}
					],
					"name": "addPure",
					"outputs": [
						{
							"internalType": "uint256",
							"name": "tempNum",
							"type": "uint256"
						}
					],
					"stateMutability": "pure",
					"type": "function"
				},
				{
					"inputs": [],
					"name": "addView",
					"outputs": [
						{
							"internalType": "uint256",
							"name": "",
							"type": "uint256"
						}
					],
					"stateMutability": "view",
					"type": "function"
				},
				{
					"inputs": [
						{
							"internalType": "uint256",
							"name": "r",
							"type": "uint256"
						}
					],
					"name": "circumference",
					"outputs": [
						{
							"internalType": "uint256",
							"name": "c",
							"type": "uint256"
						}
					],
					"stateMutability": "view",
					"type": "function"
				},
				{
					"inputs": [],
					"name": "info",
					"outputs": [
						{
							"internalType": "string",
							"name": "",
							"type": "string"
						},
						{
							"internalType": "string",
							"name": "",
							"type": "string"
						},
						{
							"internalType": "address",
							"name": "",
							"type": "address"
						}
					],
					"stateMutability": "pure",
					"type": "function"
				},
				{
					"inputs": [],
					"name": "info2",
					"outputs": [
						{
							"internalType": "string",
							"name": "name",
							"type": "string"
						},
						{
							"internalType": "string",
							"name": "Gender",
							"type": "string"
						},
						{
							"internalType": "address",
							"name": "metamask",
							"type": "address"
						}
					],
					"stateMutability": "pure",
					"type": "function"
				},
				{
					"inputs": [],
					"name": "info3",
					"outputs": [
						{
							"internalType": "string",
							"name": "name",
							"type": "string"
						},
						{
							"internalType": "string",
							"name": "Gender",
							"type": "string"
						},
						{
							"internalType": "address",
							"name": "metamask",
							"type": "address"
						}
					],
					"stateMutability": "pure",
					"type": "function"
				},
				{
					"inputs": [],
					"name": "number",
					"outputs": [
						{
							"internalType": "uint256",
							"name": "",
							"type": "uint256"
						}
					],
					"stateMutability": "view",
					"type": "function"
				}
			],
			"devdoc": {
				"kind": "dev",
				"methods": {},
				"version": 1
			},
			"evm": {
				"assembly": "    /* \"week8/exercise.sol\":62:1896  contract exerciseOnFunction {... */\n  mstore(0x40, 0x80)\n    /* \"week8/exercise.sol\":1043:1048  31415 */\n  0x7ab7\n    /* \"week8/exercise.sol\":1032:1048  uint pi =  31415 */\n  0x00\n  sstore\n    /* \"week8/exercise.sol\":1341:1342  4 */\n  0x04\n    /* \"week8/exercise.sol\":1320:1342  uint public number = 4 */\n  0x01\n  sstore\n    /* \"week8/exercise.sol\":62:1896  contract exerciseOnFunction {... */\n  callvalue\n  dup1\n  iszero\n  tag_1\n  jumpi\n  0x00\n  dup1\n  revert\ntag_1:\n  pop\n  dataSize(sub_0)\n  dup1\n  dataOffset(sub_0)\n  0x00\n  codecopy\n  0x00\n  return\nstop\n\nsub_0: assembly {\n        /* \"week8/exercise.sol\":62:1896  contract exerciseOnFunction {... */\n      mstore(0x40, 0x80)\n      callvalue\n      dup1\n      iszero\n      tag_1\n      jumpi\n      0x00\n      dup1\n      revert\n    tag_1:\n      pop\n      jumpi(tag_2, lt(calldatasize, 0x04))\n      shr(0xe0, calldataload(0x00))\n      dup1\n      0x7032c4f2\n      gt\n      tag_11\n      jumpi\n      dup1\n      0x7032c4f2\n      eq\n      tag_7\n      jumpi\n      dup1\n      0x8381f58a\n      eq\n      tag_8\n      jumpi\n      dup1\n      0xb262eb7f\n      eq\n      tag_9\n      jumpi\n      dup1\n      0xe002d16f\n      eq\n      tag_10\n      jumpi\n      jump(tag_2)\n    tag_11:\n      dup1\n      0x16ff6540\n      eq\n      tag_3\n      jumpi\n      dup1\n      0x370158ea\n      eq\n      tag_4\n      jumpi\n      dup1\n      0x4f2be91f\n      eq\n      tag_5\n      jumpi\n      dup1\n      0x6b7f18bb\n      eq\n      tag_6\n      jumpi\n    tag_2:\n      0x00\n      dup1\n      revert\n        /* \"week8/exercise.sol\":1056:1176  function circumference(uint r) public view returns (uint c){... */\n    tag_3:\n      tag_12\n      0x04\n      dup1\n      calldatasize\n      sub\n      dup2\n      add\n      swap1\n      tag_13\n      swap2\n      swap1\n      tag_14\n      jump\t// in\n    tag_13:\n      tag_15\n      jump\t// in\n    tag_12:\n      mload(0x40)\n      tag_16\n      swap2\n      swap1\n      tag_17\n      jump\t// in\n    tag_16:\n      mload(0x40)\n      dup1\n      swap2\n      sub\n      swap1\n      return\n        /* \"week8/exercise.sol\":278:446  function info() public pure returns (string memory , string memory, address){... */\n    tag_4:\n      tag_18\n      tag_19\n      jump\t// in\n    tag_18:\n      mload(0x40)\n      tag_20\n      swap4\n      swap3\n      swap2\n      swap1\n      tag_21\n      jump\t// in\n    tag_20:\n      mload(0x40)\n      dup1\n      swap2\n      sub\n      swap1\n      return\n        /* \"week8/exercise.sol\":1365:1412  function add() public{... */\n    tag_5:\n      tag_22\n      tag_23\n      jump\t// in\n    tag_22:\n      stop\n        /* \"week8/exercise.sol\":452:637  function info2() public pure returns (string memory name, string memory Gender, address metamask){... */\n    tag_6:\n      tag_24\n      tag_25\n      jump\t// in\n    tag_24:\n      mload(0x40)\n      tag_26\n      swap4\n      swap3\n      swap2\n      swap1\n      tag_21\n      jump\t// in\n    tag_26:\n      mload(0x40)\n      dup1\n      swap2\n      sub\n      swap1\n      return\n        /* \"week8/exercise.sol\":1433:1556  function addPure(uint _number) public pure returns(uint tempNum) {... */\n    tag_7:\n      tag_27\n      0x04\n      dup1\n      calldatasize\n      sub\n      dup2\n      add\n      swap1\n      tag_28\n      swap2\n      swap1\n      tag_14\n      jump\t// in\n    tag_28:\n      tag_29\n      jump\t// in\n    tag_27:\n      mload(0x40)\n      tag_30\n      swap2\n      swap1\n      tag_17\n      jump\t// in\n    tag_30:\n      mload(0x40)\n      dup1\n      swap2\n      sub\n      swap1\n      return\n        /* \"week8/exercise.sol\":1320:1342  uint public number = 4 */\n    tag_8:\n      tag_31\n      tag_32\n      jump\t// in\n    tag_31:\n      mload(0x40)\n      tag_33\n      swap2\n      swap1\n      tag_17\n      jump\t// in\n    tag_33:\n      mload(0x40)\n      dup1\n      swap2\n      sub\n      swap1\n      return\n        /* \"week8/exercise.sol\":1571:1685  function addView() public view returns (uint){... */\n    tag_9:\n      tag_34\n      tag_35\n      jump\t// in\n    tag_34:\n      mload(0x40)\n      tag_36\n      swap2\n      swap1\n      tag_17\n      jump\t// in\n    tag_36:\n      mload(0x40)\n      dup1\n      swap2\n      sub\n      swap1\n      return\n        /* \"week8/exercise.sol\":645:865  function info3() public pure returns (string memory name, string memory Gender, address metamask){... */\n    tag_10:\n      tag_37\n      tag_38\n      jump\t// in\n    tag_37:\n      mload(0x40)\n      tag_39\n      swap4\n      swap3\n      swap2\n      swap1\n      tag_21\n      jump\t// in\n    tag_39:\n      mload(0x40)\n      dup1\n      swap2\n      sub\n      swap1\n      return\n        /* \"week8/exercise.sol\":1056:1176  function circumference(uint r) public view returns (uint c){... */\n    tag_15:\n        /* \"week8/exercise.sol\":1108:1114  uint c */\n      0x00\n        /* \"week8/exercise.sol\":1144:1149  10000 */\n      0x2710\n        /* \"week8/exercise.sol\":1140:1141  r */\n      dup3\n        /* \"week8/exercise.sol\":1135:1137  pi */\n      sload(0x00)\n        /* \"week8/exercise.sol\":1131:1132  2 */\n      0x02\n        /* \"week8/exercise.sol\":1131:1137  2 * pi */\n      tag_41\n      swap2\n      swap1\n      tag_42\n      jump\t// in\n    tag_41:\n        /* \"week8/exercise.sol\":1131:1141  2 * pi * r */\n      tag_43\n      swap2\n      swap1\n      tag_42\n      jump\t// in\n    tag_43:\n        /* \"week8/exercise.sol\":1131:1149  2 * pi * r / 10000 */\n      tag_44\n      swap2\n      swap1\n      tag_45\n      jump\t// in\n    tag_44:\n        /* \"week8/exercise.sol\":1127:1149  c = 2 * pi * r / 10000 */\n      swap1\n      pop\n        /* \"week8/exercise.sol\":1056:1176  function circumference(uint r) public view returns (uint c){... */\n      swap2\n      swap1\n      pop\n      jump\t// out\n        /* \"week8/exercise.sol\":278:446  function info() public pure returns (string memory , string memory, address){... */\n    tag_19:\n        /* \"week8/exercise.sol\":315:328  string memory */\n      0x60\n        /* \"week8/exercise.sol\":331:344  string memory */\n      dup1\n        /* \"week8/exercise.sol\":346:353  address */\n      0x00\n        /* \"week8/exercise.sol\":388:430  0x5B38Da6a701c568545dCfcB03FcB875f56beddC4 */\n      0x5b38da6a701c568545dcfcb03fcb875f56beddc4\n        /* \"week8/exercise.sol\":365:432  return (\"gmk\", \"male\", 0x5B38Da6a701c568545dCfcB03FcB875f56beddC4 ) */\n      mload(0x40)\n      dup1\n      0x40\n      add\n      0x40\n      mstore\n      dup1\n      0x03\n      dup2\n      mstore\n      0x20\n      add\n      0x676d6b0000000000000000000000000000000000000000000000000000000000\n      dup2\n      mstore\n      pop\n      swap1\n      mload(0x40)\n      dup1\n      0x40\n      add\n      0x40\n      mstore\n      dup1\n      0x04\n      dup2\n      mstore\n      0x20\n      add\n      0x6d616c6500000000000000000000000000000000000000000000000000000000\n      dup2\n      mstore\n      pop\n      swap1\n      swap3\n      pop\n      swap3\n      pop\n      swap3\n      pop\n        /* \"week8/exercise.sol\":278:446  function info() public pure returns (string memory , string memory, address){... */\n      swap1\n      swap2\n      swap3\n      jump\t// out\n        /* \"week8/exercise.sol\":1365:1412  function add() public{... */\n    tag_23:\n        /* \"week8/exercise.sol\":1403:1404  2 */\n      0x02\n        /* \"week8/exercise.sol\":1393:1399  number */\n      0x01\n      0x00\n        /* \"week8/exercise.sol\":1393:1404  number += 2 */\n      dup3\n      dup3\n      sload\n      tag_48\n      swap2\n      swap1\n      tag_49\n      jump\t// in\n    tag_48:\n      swap3\n      pop\n      pop\n      dup2\n      swap1\n      sstore\n      pop\n        /* \"week8/exercise.sol\":1365:1412  function add() public{... */\n      jump\t// out\n        /* \"week8/exercise.sol\":452:637  function info2() public pure returns (string memory name, string memory Gender, address metamask){... */\n    tag_25:\n        /* \"week8/exercise.sol\":490:508  string memory name */\n      0x60\n        /* \"week8/exercise.sol\":510:530  string memory Gender */\n      dup1\n        /* \"week8/exercise.sol\":532:548  address metamask */\n      0x00\n        /* \"week8/exercise.sol\":585:627  0x5B38Da6a701c568545dCfcB03FcB875f56beddC4 */\n      0x5b38da6a701c568545dcfcb03fcb875f56beddc4\n        /* \"week8/exercise.sol\":562:629  return (\"gmk\", \"male\", 0x5B38Da6a701c568545dCfcB03FcB875f56beddC4 ) */\n      mload(0x40)\n      dup1\n      0x40\n      add\n      0x40\n      mstore\n      dup1\n      0x03\n      dup2\n      mstore\n      0x20\n      add\n      0x676d6b0000000000000000000000000000000000000000000000000000000000\n      dup2\n      mstore\n      pop\n      swap1\n      mload(0x40)\n      dup1\n      0x40\n      add\n      0x40\n      mstore\n      dup1\n      0x04\n      dup2\n      mstore\n      0x20\n      add\n      0x6d616c6500000000000000000000000000000000000000000000000000000000\n      dup2\n      mstore\n      pop\n      swap1\n      swap3\n      pop\n      swap3\n      pop\n      swap3\n      pop\n        /* \"week8/exercise.sol\":452:637  function info2() public pure returns (string memory name, string memory Gender, address metamask){... */\n      swap1\n      swap2\n      swap3\n      jump\t// out\n        /* \"week8/exercise.sol\":1433:1556  function addPure(uint _number) public pure returns(uint tempNum) {... */\n    tag_29:\n        /* \"week8/exercise.sol\":1484:1496  uint tempNum */\n      0x00\n        /* \"week8/exercise.sol\":1519:1526  _number */\n      dup2\n        /* \"week8/exercise.sol\":1509:1526  tempNum = _number */\n      swap1\n      pop\n        /* \"week8/exercise.sol\":1433:1556  function addPure(uint _number) public pure returns(uint tempNum) {... */\n      swap2\n      swap1\n      pop\n      jump\t// out\n        /* \"week8/exercise.sol\":1320:1342  uint public number = 4 */\n    tag_32:\n      sload(0x01)\n      dup2\n      jump\t// out\n        /* \"week8/exercise.sol\":1571:1685  function addView() public view returns (uint){... */\n    tag_35:\n        /* \"week8/exercise.sol\":1611:1615  uint */\n      0x00\n        /* \"week8/exercise.sol\":1672:1678  number */\n      sload(0x01)\n        /* \"week8/exercise.sol\":1665:1678  return number */\n      swap1\n      pop\n        /* \"week8/exercise.sol\":1571:1685  function addView() public view returns (uint){... */\n      swap1\n      jump\t// out\n        /* \"week8/exercise.sol\":645:865  function info3() public pure returns (string memory name, string memory Gender, address metamask){... */\n    tag_38:\n        /* \"week8/exercise.sol\":683:701  string memory name */\n      0x60\n        /* \"week8/exercise.sol\":703:723  string memory Gender */\n      dup1\n        /* \"week8/exercise.sol\":725:741  address metamask */\n      0x00\n        /* \"week8/exercise.sol\":755:767  name = \"gmk\" */\n      mload(0x40)\n      dup1\n      0x40\n      add\n      0x40\n      mstore\n      dup1\n      0x03\n      dup2\n      mstore\n      0x20\n      add\n      0x676d6b0000000000000000000000000000000000000000000000000000000000\n      dup2\n      mstore\n      pop\n      swap3\n      pop\n        /* \"week8/exercise.sol\":778:793  Gender = \"male\" */\n      mload(0x40)\n      dup1\n      0x40\n      add\n      0x40\n      mstore\n      dup1\n      0x04\n      dup2\n      mstore\n      0x20\n      add\n      0x6d616c6500000000000000000000000000000000000000000000000000000000\n      dup2\n      mstore\n      pop\n      swap2\n      pop\n        /* \"week8/exercise.sol\":815:857  0x5B38Da6a701c568545dCfcB03FcB875f56beddC4 */\n      0x5b38da6a701c568545dcfcb03fcb875f56beddc4\n        /* \"week8/exercise.sol\":804:857  metamask = 0x5B38Da6a701c568545dCfcB03FcB875f56beddC4 */\n      swap1\n      pop\n        /* \"week8/exercise.sol\":645:865  function info3() public pure returns (string memory name, string memory Gender, address metamask){... */\n      swap1\n      swap2\n      swap3\n      jump\t// out\n        /* \"#utility.yul\":88:205   */\n    tag_55:\n        /* \"#utility.yul\":197:198   */\n      0x00\n        /* \"#utility.yul\":194:195   */\n      dup1\n        /* \"#utility.yul\":187:199   */\n      revert\n        /* \"#utility.yul\":334:411   */\n    tag_57:\n        /* \"#utility.yul\":371:378   */\n      0x00\n        /* \"#utility.yul\":400:405   */\n      dup2\n        /* \"#utility.yul\":389:405   */\n      swap1\n      pop\n        /* \"#utility.yul\":334:411   */\n      swap2\n      swap1\n      pop\n      jump\t// out\n        /* \"#utility.yul\":417:539   */\n    tag_58:\n        /* \"#utility.yul\":490:514   */\n      tag_77\n        /* \"#utility.yul\":508:513   */\n      dup2\n        /* \"#utility.yul\":490:514   */\n      tag_57\n      jump\t// in\n    tag_77:\n        /* \"#utility.yul\":483:488   */\n      dup2\n        /* \"#utility.yul\":480:515   */\n      eq\n        /* \"#utility.yul\":470:533   */\n      tag_78\n      jumpi\n        /* \"#utility.yul\":529:530   */\n      0x00\n        /* \"#utility.yul\":526:527   */\n      dup1\n        /* \"#utility.yul\":519:531   */\n      revert\n        /* \"#utility.yul\":470:533   */\n    tag_78:\n        /* \"#utility.yul\":417:539   */\n      pop\n      jump\t// out\n        /* \"#utility.yul\":545:684   */\n    tag_59:\n        /* \"#utility.yul\":591:596   */\n      0x00\n        /* \"#utility.yul\":629:635   */\n      dup2\n        /* \"#utility.yul\":616:636   */\n      calldataload\n        /* \"#utility.yul\":607:636   */\n      swap1\n      pop\n        /* \"#utility.yul\":645:678   */\n      tag_80\n        /* \"#utility.yul\":672:677   */\n      dup2\n        /* \"#utility.yul\":645:678   */\n      tag_58\n      jump\t// in\n    tag_80:\n        /* \"#utility.yul\":545:684   */\n      swap3\n      swap2\n      pop\n      pop\n      jump\t// out\n        /* \"#utility.yul\":690:1019   */\n    tag_14:\n        /* \"#utility.yul\":749:755   */\n      0x00\n        /* \"#utility.yul\":798:800   */\n      0x20\n        /* \"#utility.yul\":786:795   */\n      dup3\n        /* \"#utility.yul\":777:784   */\n      dup5\n        /* \"#utility.yul\":773:796   */\n      sub\n        /* \"#utility.yul\":769:801   */\n      slt\n        /* \"#utility.yul\":766:885   */\n      iszero\n      tag_82\n      jumpi\n        /* \"#utility.yul\":804:883   */\n      tag_83\n      tag_55\n      jump\t// in\n    tag_83:\n        /* \"#utility.yul\":766:885   */\n    tag_82:\n        /* \"#utility.yul\":924:925   */\n      0x00\n        /* \"#utility.yul\":949:1002   */\n      tag_84\n        /* \"#utility.yul\":994:1001   */\n      dup5\n        /* \"#utility.yul\":985:991   */\n      dup3\n        /* \"#utility.yul\":974:983   */\n      dup6\n        /* \"#utility.yul\":970:992   */\n      add\n        /* \"#utility.yul\":949:1002   */\n      tag_59\n      jump\t// in\n    tag_84:\n        /* \"#utility.yul\":939:1002   */\n      swap2\n      pop\n        /* \"#utility.yul\":895:1012   */\n      pop\n        /* \"#utility.yul\":690:1019   */\n      swap3\n      swap2\n      pop\n      pop\n      jump\t// out\n        /* \"#utility.yul\":1025:1143   */\n    tag_60:\n        /* \"#utility.yul\":1112:1136   */\n      tag_86\n        /* \"#utility.yul\":1130:1135   */\n      dup2\n        /* \"#utility.yul\":1112:1136   */\n      tag_57\n      jump\t// in\n    tag_86:\n        /* \"#utility.yul\":1107:1110   */\n      dup3\n        /* \"#utility.yul\":1100:1137   */\n      mstore\n        /* \"#utility.yul\":1025:1143   */\n      pop\n      pop\n      jump\t// out\n        /* \"#utility.yul\":1149:1371   */\n    tag_17:\n        /* \"#utility.yul\":1242:1246   */\n      0x00\n        /* \"#utility.yul\":1280:1282   */\n      0x20\n        /* \"#utility.yul\":1269:1278   */\n      dup3\n        /* \"#utility.yul\":1265:1283   */\n      add\n        /* \"#utility.yul\":1257:1283   */\n      swap1\n      pop\n        /* \"#utility.yul\":1293:1364   */\n      tag_88\n        /* \"#utility.yul\":1361:1362   */\n      0x00\n        /* \"#utility.yul\":1350:1359   */\n      dup4\n        /* \"#utility.yul\":1346:1363   */\n      add\n        /* \"#utility.yul\":1337:1343   */\n      dup5\n        /* \"#utility.yul\":1293:1364   */\n      tag_60\n      jump\t// in\n    tag_88:\n        /* \"#utility.yul\":1149:1371   */\n      swap3\n      swap2\n      pop\n      pop\n      jump\t// out\n        /* \"#utility.yul\":1377:1476   */\n    tag_61:\n        /* \"#utility.yul\":1429:1435   */\n      0x00\n        /* \"#utility.yul\":1463:1468   */\n      dup2\n        /* \"#utility.yul\":1457:1469   */\n      mload\n        /* \"#utility.yul\":1447:1469   */\n      swap1\n      pop\n        /* \"#utility.yul\":1377:1476   */\n      swap2\n      swap1\n      pop\n      jump\t// out\n        /* \"#utility.yul\":1482:1651   */\n    tag_62:\n        /* \"#utility.yul\":1566:1577   */\n      0x00\n        /* \"#utility.yul\":1600:1606   */\n      dup3\n        /* \"#utility.yul\":1595:1598   */\n      dup3\n        /* \"#utility.yul\":1588:1607   */\n      mstore\n        /* \"#utility.yul\":1640:1644   */\n      0x20\n        /* \"#utility.yul\":1635:1638   */\n      dup3\n        /* \"#utility.yul\":1631:1645   */\n      add\n        /* \"#utility.yul\":1616:1645   */\n      swap1\n      pop\n        /* \"#utility.yul\":1482:1651   */\n      swap3\n      swap2\n      pop\n      pop\n      jump\t// out\n        /* \"#utility.yul\":1657:1903   */\n    tag_63:\n        /* \"#utility.yul\":1738:1739   */\n      0x00\n        /* \"#utility.yul\":1748:1861   */\n    tag_92:\n        /* \"#utility.yul\":1762:1768   */\n      dup4\n        /* \"#utility.yul\":1759:1760   */\n      dup2\n        /* \"#utility.yul\":1756:1769   */\n      lt\n        /* \"#utility.yul\":1748:1861   */\n      iszero\n      tag_94\n      jumpi\n        /* \"#utility.yul\":1847:1848   */\n      dup1\n        /* \"#utility.yul\":1842:1845   */\n      dup3\n        /* \"#utility.yul\":1838:1849   */\n      add\n        /* \"#utility.yul\":1832:1850   */\n      mload\n        /* \"#utility.yul\":1828:1829   */\n      dup2\n        /* \"#utility.yul\":1823:1826   */\n      dup5\n        /* \"#utility.yul\":1819:1830   */\n      add\n        /* \"#utility.yul\":1812:1851   */\n      mstore\n        /* \"#utility.yul\":1784:1786   */\n      0x20\n        /* \"#utility.yul\":1781:1782   */\n      dup2\n        /* \"#utility.yul\":1777:1787   */\n      add\n        /* \"#utility.yul\":1772:1787   */\n      swap1\n      pop\n        /* \"#utility.yul\":1748:1861   */\n      jump(tag_92)\n    tag_94:\n        /* \"#utility.yul\":1895:1896   */\n      0x00\n        /* \"#utility.yul\":1886:1892   */\n      dup5\n        /* \"#utility.yul\":1881:1884   */\n      dup5\n        /* \"#utility.yul\":1877:1893   */\n      add\n        /* \"#utility.yul\":1870:1897   */\n      mstore\n        /* \"#utility.yul\":1719:1903   */\n      pop\n        /* \"#utility.yul\":1657:1903   */\n      pop\n      pop\n      pop\n      jump\t// out\n        /* \"#utility.yul\":1909:2011   */\n    tag_64:\n        /* \"#utility.yul\":1950:1956   */\n      0x00\n        /* \"#utility.yul\":2001:2003   */\n      0x1f\n        /* \"#utility.yul\":1997:2004   */\n      not\n        /* \"#utility.yul\":1992:1994   */\n      0x1f\n        /* \"#utility.yul\":1985:1990   */\n      dup4\n        /* \"#utility.yul\":1981:1995   */\n      add\n        /* \"#utility.yul\":1977:2005   */\n      and\n        /* \"#utility.yul\":1967:2005   */\n      swap1\n      pop\n        /* \"#utility.yul\":1909:2011   */\n      swap2\n      swap1\n      pop\n      jump\t// out\n        /* \"#utility.yul\":2017:2394   */\n    tag_65:\n        /* \"#utility.yul\":2105:2108   */\n      0x00\n        /* \"#utility.yul\":2133:2172   */\n      tag_97\n        /* \"#utility.yul\":2166:2171   */\n      dup3\n        /* \"#utility.yul\":2133:2172   */\n      tag_61\n      jump\t// in\n    tag_97:\n        /* \"#utility.yul\":2188:2259   */\n      tag_98\n        /* \"#utility.yul\":2252:2258   */\n      dup2\n        /* \"#utility.yul\":2247:2250   */\n      dup6\n        /* \"#utility.yul\":2188:2259   */\n      tag_62\n      jump\t// in\n    tag_98:\n        /* \"#utility.yul\":2181:2259   */\n      swap4\n      pop\n        /* \"#utility.yul\":2268:2333   */\n      tag_99\n        /* \"#utility.yul\":2326:2332   */\n      dup2\n        /* \"#utility.yul\":2321:2324   */\n      dup6\n        /* \"#utility.yul\":2314:2318   */\n      0x20\n        /* \"#utility.yul\":2307:2312   */\n      dup7\n        /* \"#utility.yul\":2303:2319   */\n      add\n        /* \"#utility.yul\":2268:2333   */\n      tag_63\n      jump\t// in\n    tag_99:\n        /* \"#utility.yul\":2358:2387   */\n      tag_100\n        /* \"#utility.yul\":2380:2386   */\n      dup2\n        /* \"#utility.yul\":2358:2387   */\n      tag_64\n      jump\t// in\n    tag_100:\n        /* \"#utility.yul\":2353:2356   */\n      dup5\n        /* \"#utility.yul\":2349:2388   */\n      add\n        /* \"#utility.yul\":2342:2388   */\n      swap2\n      pop\n        /* \"#utility.yul\":2109:2394   */\n      pop\n        /* \"#utility.yul\":2017:2394   */\n      swap3\n      swap2\n      pop\n      pop\n      jump\t// out\n        /* \"#utility.yul\":2400:2526   */\n    tag_66:\n        /* \"#utility.yul\":2437:2444   */\n      0x00\n        /* \"#utility.yul\":2477:2519   */\n      0xffffffffffffffffffffffffffffffffffffffff\n        /* \"#utility.yul\":2470:2475   */\n      dup3\n        /* \"#utility.yul\":2466:2520   */\n      and\n        /* \"#utility.yul\":2455:2520   */\n      swap1\n      pop\n        /* \"#utility.yul\":2400:2526   */\n      swap2\n      swap1\n      pop\n      jump\t// out\n        /* \"#utility.yul\":2532:2628   */\n    tag_67:\n        /* \"#utility.yul\":2569:2576   */\n      0x00\n        /* \"#utility.yul\":2598:2622   */\n      tag_103\n        /* \"#utility.yul\":2616:2621   */\n      dup3\n        /* \"#utility.yul\":2598:2622   */\n      tag_66\n      jump\t// in\n    tag_103:\n        /* \"#utility.yul\":2587:2622   */\n      swap1\n      pop\n        /* \"#utility.yul\":2532:2628   */\n      swap2\n      swap1\n      pop\n      jump\t// out\n        /* \"#utility.yul\":2634:2752   */\n    tag_68:\n        /* \"#utility.yul\":2721:2745   */\n      tag_105\n        /* \"#utility.yul\":2739:2744   */\n      dup2\n        /* \"#utility.yul\":2721:2745   */\n      tag_67\n      jump\t// in\n    tag_105:\n        /* \"#utility.yul\":2716:2719   */\n      dup3\n        /* \"#utility.yul\":2709:2746   */\n      mstore\n        /* \"#utility.yul\":2634:2752   */\n      pop\n      pop\n      jump\t// out\n        /* \"#utility.yul\":2758:3382   */\n    tag_21:\n        /* \"#utility.yul\":2947:2951   */\n      0x00\n        /* \"#utility.yul\":2985:2987   */\n      0x60\n        /* \"#utility.yul\":2974:2983   */\n      dup3\n        /* \"#utility.yul\":2970:2988   */\n      add\n        /* \"#utility.yul\":2962:2988   */\n      swap1\n      pop\n        /* \"#utility.yul\":3034:3043   */\n      dup2\n        /* \"#utility.yul\":3028:3032   */\n      dup2\n        /* \"#utility.yul\":3024:3044   */\n      sub\n        /* \"#utility.yul\":3020:3021   */\n      0x00\n        /* \"#utility.yul\":3009:3018   */\n      dup4\n        /* \"#utility.yul\":3005:3022   */\n      add\n        /* \"#utility.yul\":2998:3045   */\n      mstore\n        /* \"#utility.yul\":3062:3140   */\n      tag_107\n        /* \"#utility.yul\":3135:3139   */\n      dup2\n        /* \"#utility.yul\":3126:3132   */\n      dup7\n        /* \"#utility.yul\":3062:3140   */\n      tag_65\n      jump\t// in\n    tag_107:\n        /* \"#utility.yul\":3054:3140   */\n      swap1\n      pop\n        /* \"#utility.yul\":3187:3196   */\n      dup2\n        /* \"#utility.yul\":3181:3185   */\n      dup2\n        /* \"#utility.yul\":3177:3197   */\n      sub\n        /* \"#utility.yul\":3172:3174   */\n      0x20\n        /* \"#utility.yul\":3161:3170   */\n      dup4\n        /* \"#utility.yul\":3157:3175   */\n      add\n        /* \"#utility.yul\":3150:3198   */\n      mstore\n        /* \"#utility.yul\":3215:3293   */\n      tag_108\n        /* \"#utility.yul\":3288:3292   */\n      dup2\n        /* \"#utility.yul\":3279:3285   */\n      dup6\n        /* \"#utility.yul\":3215:3293   */\n      tag_65\n      jump\t// in\n    tag_108:\n        /* \"#utility.yul\":3207:3293   */\n      swap1\n      pop\n        /* \"#utility.yul\":3303:3375   */\n      tag_109\n        /* \"#utility.yul\":3371:3373   */\n      0x40\n        /* \"#utility.yul\":3360:3369   */\n      dup4\n        /* \"#utility.yul\":3356:3374   */\n      add\n        /* \"#utility.yul\":3347:3353   */\n      dup5\n        /* \"#utility.yul\":3303:3375   */\n      tag_68\n      jump\t// in\n    tag_109:\n        /* \"#utility.yul\":2758:3382   */\n      swap5\n      swap4\n      pop\n      pop\n      pop\n      pop\n      jump\t// out\n        /* \"#utility.yul\":3388:3568   */\n    tag_69:\n        /* \"#utility.yul\":3436:3513   */\n      0x4e487b7100000000000000000000000000000000000000000000000000000000\n        /* \"#utility.yul\":3433:3434   */\n      0x00\n        /* \"#utility.yul\":3426:3514   */\n      mstore\n        /* \"#utility.yul\":3533:3537   */\n      0x11\n        /* \"#utility.yul\":3530:3531   */\n      0x04\n        /* \"#utility.yul\":3523:3538   */\n      mstore\n        /* \"#utility.yul\":3557:3561   */\n      0x24\n        /* \"#utility.yul\":3554:3555   */\n      0x00\n        /* \"#utility.yul\":3547:3562   */\n      revert\n        /* \"#utility.yul\":3574:3984   */\n    tag_42:\n        /* \"#utility.yul\":3614:3621   */\n      0x00\n        /* \"#utility.yul\":3637:3657   */\n      tag_112\n        /* \"#utility.yul\":3655:3656   */\n      dup3\n        /* \"#utility.yul\":3637:3657   */\n      tag_57\n      jump\t// in\n    tag_112:\n        /* \"#utility.yul\":3632:3657   */\n      swap2\n      pop\n        /* \"#utility.yul\":3671:3691   */\n      tag_113\n        /* \"#utility.yul\":3689:3690   */\n      dup4\n        /* \"#utility.yul\":3671:3691   */\n      tag_57\n      jump\t// in\n    tag_113:\n        /* \"#utility.yul\":3666:3691   */\n      swap3\n      pop\n        /* \"#utility.yul\":3726:3727   */\n      dup3\n        /* \"#utility.yul\":3723:3724   */\n      dup3\n        /* \"#utility.yul\":3719:3728   */\n      mul\n        /* \"#utility.yul\":3748:3778   */\n      tag_114\n        /* \"#utility.yul\":3766:3777   */\n      dup2\n        /* \"#utility.yul\":3748:3778   */\n      tag_57\n      jump\t// in\n    tag_114:\n        /* \"#utility.yul\":3737:3778   */\n      swap2\n      pop\n        /* \"#utility.yul\":3927:3928   */\n      dup3\n        /* \"#utility.yul\":3918:3925   */\n      dup3\n        /* \"#utility.yul\":3914:3929   */\n      div\n        /* \"#utility.yul\":3911:3912   */\n      dup5\n        /* \"#utility.yul\":3908:3930   */\n      eq\n        /* \"#utility.yul\":3888:3889   */\n      dup4\n        /* \"#utility.yul\":3881:3890   */\n      iszero\n        /* \"#utility.yul\":3861:3944   */\n      or\n        /* \"#utility.yul\":3838:3977   */\n      tag_115\n      jumpi\n        /* \"#utility.yul\":3957:3975   */\n      tag_116\n      tag_69\n      jump\t// in\n    tag_116:\n        /* \"#utility.yul\":3838:3977   */\n    tag_115:\n        /* \"#utility.yul\":3622:3984   */\n      pop\n        /* \"#utility.yul\":3574:3984   */\n      swap3\n      swap2\n      pop\n      pop\n      jump\t// out\n        /* \"#utility.yul\":3990:4170   */\n    tag_70:\n        /* \"#utility.yul\":4038:4115   */\n      0x4e487b7100000000000000000000000000000000000000000000000000000000\n        /* \"#utility.yul\":4035:4036   */\n      0x00\n        /* \"#utility.yul\":4028:4116   */\n      mstore\n        /* \"#utility.yul\":4135:4139   */\n      0x12\n        /* \"#utility.yul\":4132:4133   */\n      0x04\n        /* \"#utility.yul\":4125:4140   */\n      mstore\n        /* \"#utility.yul\":4159:4163   */\n      0x24\n        /* \"#utility.yul\":4156:4157   */\n      0x00\n        /* \"#utility.yul\":4149:4164   */\n      revert\n        /* \"#utility.yul\":4176:4361   */\n    tag_45:\n        /* \"#utility.yul\":4216:4217   */\n      0x00\n        /* \"#utility.yul\":4233:4253   */\n      tag_119\n        /* \"#utility.yul\":4251:4252   */\n      dup3\n        /* \"#utility.yul\":4233:4253   */\n      tag_57\n      jump\t// in\n    tag_119:\n        /* \"#utility.yul\":4228:4253   */\n      swap2\n      pop\n        /* \"#utility.yul\":4267:4287   */\n      tag_120\n        /* \"#utility.yul\":4285:4286   */\n      dup4\n        /* \"#utility.yul\":4267:4287   */\n      tag_57\n      jump\t// in\n    tag_120:\n        /* \"#utility.yul\":4262:4287   */\n      swap3\n      pop\n        /* \"#utility.yul\":4306:4307   */\n      dup3\n        /* \"#utility.yul\":4296:4331   */\n      tag_121\n      jumpi\n        /* \"#utility.yul\":4311:4329   */\n      tag_122\n      tag_70\n      jump\t// in\n    tag_122:\n        /* \"#utility.yul\":4296:4331   */\n    tag_121:\n        /* \"#utility.yul\":4353:4354   */\n      dup3\n        /* \"#utility.yul\":4350:4351   */\n      dup3\n        /* \"#utility.yul\":4346:4355   */\n      div\n        /* \"#utility.yul\":4341:4355   */\n      swap1\n      pop\n        /* \"#utility.yul\":4176:4361   */\n      swap3\n      swap2\n      pop\n      pop\n      jump\t// out\n        /* \"#utility.yul\":4367:4558   */\n    tag_49:\n        /* \"#utility.yul\":4407:4410   */\n      0x00\n        /* \"#utility.yul\":4426:4446   */\n      tag_124\n        /* \"#utility.yul\":4444:4445   */\n      dup3\n        /* \"#utility.yul\":4426:4446   */\n      tag_57\n      jump\t// in\n    tag_124:\n        /* \"#utility.yul\":4421:4446   */\n      swap2\n      pop\n        /* \"#utility.yul\":4460:4480   */\n      tag_125\n        /* \"#utility.yul\":4478:4479   */\n      dup4\n        /* \"#utility.yul\":4460:4480   */\n      tag_57\n      jump\t// in\n    tag_125:\n        /* \"#utility.yul\":4455:4480   */\n      swap3\n      pop\n        /* \"#utility.yul\":4503:4504   */\n      dup3\n        /* \"#utility.yul\":4500:4501   */\n      dup3\n        /* \"#utility.yul\":4496:4505   */\n      add\n        /* \"#utility.yul\":4489:4505   */\n      swap1\n      pop\n        /* \"#utility.yul\":4524:4527   */\n      dup1\n        /* \"#utility.yul\":4521:4522   */\n      dup3\n        /* \"#utility.yul\":4518:4528   */\n      gt\n        /* \"#utility.yul\":4515:4551   */\n      iszero\n      tag_126\n      jumpi\n        /* \"#utility.yul\":4531:4549   */\n      tag_127\n      tag_69\n      jump\t// in\n    tag_127:\n        /* \"#utility.yul\":4515:4551   */\n    tag_126:\n        /* \"#utility.yul\":4367:4558   */\n      swap3\n      swap2\n      pop\n      pop\n      jump\t// out\n\n    auxdata: 0xa26469706673582212201bd0a94fcecd2ffc30c5f57052e73d0f1f6534f7fe2f3d8b10c55f79ac2c5f8c64736f6c63430008120033\n}\n",
				"bytecode": {
					"linkReferences": {},
					"object": "6080604052617ab7600055600460015534801561001b57600080fd5b506106938061002b6000396000f3fe608060405234801561001057600080fd5b50600436106100885760003560e01c80637032c4f21161005b5780637032c4f2146101075780638381f58a14610137578063b262eb7f14610155578063e002d16f1461017357610088565b806316ff65401461008d578063370158ea146100bd5780634f2be91f146100dd5780636b7f18bb146100e7575b600080fd5b6100a760048036038101906100a291906103eb565b610193565b6040516100b49190610427565b60405180910390f35b6100c56101c3565b6040516100d493929190610513565b60405180910390f35b6100e5610256565b005b6100ef610272565b6040516100fe93929190610513565b60405180910390f35b610121600480360381019061011c91906103eb565b610305565b60405161012e9190610427565b60405180910390f35b61013f61030f565b60405161014c9190610427565b60405180910390f35b61015d610315565b60405161016a9190610427565b60405180910390f35b61017b61031f565b60405161018a93929190610513565b60405180910390f35b60006127108260005460026101a89190610587565b6101b29190610587565b6101bc91906105f8565b9050919050565b6060806000735b38da6a701c568545dcfcb03fcb875f56beddc46040518060400160405280600381526020017f676d6b0000000000000000000000000000000000000000000000000000000000815250906040518060400160405280600481526020017f6d616c650000000000000000000000000000000000000000000000000000000081525090925092509250909192565b6002600160008282546102699190610629565b92505081905550565b6060806000735b38da6a701c568545dcfcb03fcb875f56beddc46040518060400160405280600381526020017f676d6b0000000000000000000000000000000000000000000000000000000000815250906040518060400160405280600481526020017f6d616c650000000000000000000000000000000000000000000000000000000081525090925092509250909192565b6000819050919050565b60015481565b6000600154905090565b60608060006040518060400160405280600381526020017f676d6b000000000000000000000000000000000000000000000000000000000081525092506040518060400160405280600481526020017f6d616c65000000000000000000000000000000000000000000000000000000008152509150735b38da6a701c568545dcfcb03fcb875f56beddc49050909192565b600080fd5b6000819050919050565b6103c8816103b5565b81146103d357600080fd5b50565b6000813590506103e5816103bf565b92915050565b600060208284031215610401576104006103b0565b5b600061040f848285016103d6565b91505092915050565b610421816103b5565b82525050565b600060208201905061043c6000830184610418565b92915050565b600081519050919050565b600082825260208201905092915050565b60005b8381101561047c578082015181840152602081019050610461565b60008484015250505050565b6000601f19601f8301169050919050565b60006104a482610442565b6104ae818561044d565b93506104be81856020860161045e565b6104c781610488565b840191505092915050565b600073ffffffffffffffffffffffffffffffffffffffff82169050919050565b60006104fd826104d2565b9050919050565b61050d816104f2565b82525050565b6000606082019050818103600083015261052d8186610499565b905081810360208301526105418185610499565b90506105506040830184610504565b949350505050565b7f4e487b7100000000000000000000000000000000000000000000000000000000600052601160045260246000fd5b6000610592826103b5565b915061059d836103b5565b92508282026105ab816103b5565b915082820484148315176105c2576105c1610558565b5b5092915050565b7f4e487b7100000000000000000000000000000000000000000000000000000000600052601260045260246000fd5b6000610603826103b5565b915061060e836103b5565b92508261061e5761061d6105c9565b5b828204905092915050565b6000610634826103b5565b915061063f836103b5565b925082820190508082111561065757610656610558565b5b9291505056fea26469706673582212201bd0a94fcecd2ffc30c5f57052e73d0f1f6534f7fe2f3d8b10c55f79ac2c5f8c64736f6c63430008120033",
					"opcodes": "PUSH1 0x80 PUSH1 0x40 MSTORE PUSH2 0x7AB7 PUSH1 0x0 SSTORE PUSH1 0x4 PUSH1 0x1 SSTORE CALLVALUE DUP1 ISZERO PUSH2 0x1B JUMPI PUSH1 0x0 DUP1 REVERT JUMPDEST POP PUSH2 0x693 DUP1 PUSH2 0x2B PUSH1 0x0 CODECOPY PUSH1 0x0 RETURN INVALID PUSH1 0x80 PUSH1 0x40 MSTORE CALLVALUE DUP1 ISZERO PUSH2 0x10 JUMPI PUSH1 0x0 DUP1 REVERT JUMPDEST POP PUSH1 0x4 CALLDATASIZE LT PUSH2 0x88 JUMPI PUSH1 0x0 CALLDATALOAD PUSH1 0xE0 SHR DUP1 PUSH4 0x7032C4F2 GT PUSH2 0x5B JUMPI DUP1 PUSH4 0x7032C4F2 EQ PUSH2 0x107 JUMPI DUP1 PUSH4 0x8381F58A EQ PUSH2 0x137 JUMPI DUP1 PUSH4 0xB262EB7F EQ PUSH2 0x155 JUMPI DUP1 PUSH4 0xE002D16F EQ PUSH2 0x173 JUMPI PUSH2 0x88 JUMP JUMPDEST DUP1 PUSH4 0x16FF6540 EQ PUSH2 0x8D JUMPI DUP1 PUSH4 0x370158EA EQ PUSH2 0xBD JUMPI DUP1 PUSH4 0x4F2BE91F EQ PUSH2 0xDD JUMPI DUP1 PUSH4 0x6B7F18BB EQ PUSH2 0xE7 JUMPI JUMPDEST PUSH1 0x0 DUP1 REVERT JUMPDEST PUSH2 0xA7 PUSH1 0x4 DUP1 CALLDATASIZE SUB DUP2 ADD SWAP1 PUSH2 0xA2 SWAP2 SWAP1 PUSH2 0x3EB JUMP JUMPDEST PUSH2 0x193 JUMP JUMPDEST PUSH1 0x40 MLOAD PUSH2 0xB4 SWAP2 SWAP1 PUSH2 0x427 JUMP JUMPDEST PUSH1 0x40 MLOAD DUP1 SWAP2 SUB SWAP1 RETURN JUMPDEST PUSH2 0xC5 PUSH2 0x1C3 JUMP JUMPDEST PUSH1 0x40 MLOAD PUSH2 0xD4 SWAP4 SWAP3 SWAP2 SWAP1 PUSH2 0x513 JUMP JUMPDEST PUSH1 0x40 MLOAD DUP1 SWAP2 SUB SWAP1 RETURN JUMPDEST PUSH2 0xE5 PUSH2 0x256 JUMP JUMPDEST STOP JUMPDEST PUSH2 0xEF PUSH2 0x272 JUMP JUMPDEST PUSH1 0x40 MLOAD PUSH2 0xFE SWAP4 SWAP3 SWAP2 SWAP1 PUSH2 0x513 JUMP JUMPDEST PUSH1 0x40 MLOAD DUP1 SWAP2 SUB SWAP1 RETURN JUMPDEST PUSH2 0x121 PUSH1 0x4 DUP1 CALLDATASIZE SUB DUP2 ADD SWAP1 PUSH2 0x11C SWAP2 SWAP1 PUSH2 0x3EB JUMP JUMPDEST PUSH2 0x305 JUMP JUMPDEST PUSH1 0x40 MLOAD PUSH2 0x12E SWAP2 SWAP1 PUSH2 0x427 JUMP JUMPDEST PUSH1 0x40 MLOAD DUP1 SWAP2 SUB SWAP1 RETURN JUMPDEST PUSH2 0x13F PUSH2 0x30F JUMP JUMPDEST PUSH1 0x40 MLOAD PUSH2 0x14C SWAP2 SWAP1 PUSH2 0x427 JUMP JUMPDEST PUSH1 0x40 MLOAD DUP1 SWAP2 SUB SWAP1 RETURN JUMPDEST PUSH2 0x15D PUSH2 0x315 JUMP JUMPDEST PUSH1 0x40 MLOAD PUSH2 0x16A SWAP2 SWAP1 PUSH2 0x427 JUMP JUMPDEST PUSH1 0x40 MLOAD DUP1 SWAP2 SUB SWAP1 RETURN JUMPDEST PUSH2 0x17B PUSH2 0x31F JUMP JUMPDEST PUSH1 0x40 MLOAD PUSH2 0x18A SWAP4 SWAP3 SWAP2 SWAP1 PUSH2 0x513 JUMP JUMPDEST PUSH1 0x40 MLOAD DUP1 SWAP2 SUB SWAP1 RETURN JUMPDEST PUSH1 0x0 PUSH2 0x2710 DUP3 PUSH1 0x0 SLOAD PUSH1 0x2 PUSH2 0x1A8 SWAP2 SWAP1 PUSH2 0x587 JUMP JUMPDEST PUSH2 0x1B2 SWAP2 SWAP1 PUSH2 0x587 JUMP JUMPDEST PUSH2 0x1BC SWAP2 SWAP1 PUSH2 0x5F8 JUMP JUMPDEST SWAP1 POP SWAP2 SWAP1 POP JUMP JUMPDEST PUSH1 0x60 DUP1 PUSH1 0x0 PUSH20 0x5B38DA6A701C568545DCFCB03FCB875F56BEDDC4 PUSH1 0x40 MLOAD DUP1 PUSH1 0x40 ADD PUSH1 0x40 MSTORE DUP1 PUSH1 0x3 DUP2 MSTORE PUSH1 0x20 ADD PUSH32 0x676D6B0000000000000000000000000000000000000000000000000000000000 DUP2 MSTORE POP SWAP1 PUSH1 0x40 MLOAD DUP1 PUSH1 0x40 ADD PUSH1 0x40 MSTORE DUP1 PUSH1 0x4 DUP2 MSTORE PUSH1 0x20 ADD PUSH32 0x6D616C6500000000000000000000000000000000000000000000000000000000 DUP2 MSTORE POP SWAP1 SWAP3 POP SWAP3 POP SWAP3 POP SWAP1 SWAP2 SWAP3 JUMP JUMPDEST PUSH1 0x2 PUSH1 0x1 PUSH1 0x0 DUP3 DUP3 SLOAD PUSH2 0x269 SWAP2 SWAP1 PUSH2 0x629 JUMP JUMPDEST SWAP3 POP POP DUP2 SWAP1 SSTORE POP JUMP JUMPDEST PUSH1 0x60 DUP1 PUSH1 0x0 PUSH20 0x5B38DA6A701C568545DCFCB03FCB875F56BEDDC4 PUSH1 0x40 MLOAD DUP1 PUSH1 0x40 ADD PUSH1 0x40 MSTORE DUP1 PUSH1 0x3 DUP2 MSTORE PUSH1 0x20 ADD PUSH32 0x676D6B0000000000000000000000000000000000000000000000000000000000 DUP2 MSTORE POP SWAP1 PUSH1 0x40 MLOAD DUP1 PUSH1 0x40 ADD PUSH1 0x40 MSTORE DUP1 PUSH1 0x4 DUP2 MSTORE PUSH1 0x20 ADD PUSH32 0x6D616C6500000000000000000000000000000000000000000000000000000000 DUP2 MSTORE POP SWAP1 SWAP3 POP SWAP3 POP SWAP3 POP SWAP1 SWAP2 SWAP3 JUMP JUMPDEST PUSH1 0x0 DUP2 SWAP1 POP SWAP2 SWAP1 POP JUMP JUMPDEST PUSH1 0x1 SLOAD DUP2 JUMP JUMPDEST PUSH1 0x0 PUSH1 0x1 SLOAD SWAP1 POP SWAP1 JUMP JUMPDEST PUSH1 0x60 DUP1 PUSH1 0x0 PUSH1 0x40 MLOAD DUP1 PUSH1 0x40 ADD PUSH1 0x40 MSTORE DUP1 PUSH1 0x3 DUP2 MSTORE PUSH1 0x20 ADD PUSH32 0x676D6B0000000000000000000000000000000000000000000000000000000000 DUP2 MSTORE POP SWAP3 POP PUSH1 0x40 MLOAD DUP1 PUSH1 0x40 ADD PUSH1 0x40 MSTORE DUP1 PUSH1 0x4 DUP2 MSTORE PUSH1 0x20 ADD PUSH32 0x6D616C6500000000000000000000000000000000000000000000000000000000 DUP2 MSTORE POP SWAP2 POP PUSH20 0x5B38DA6A701C568545DCFCB03FCB875F56BEDDC4 SWAP1 POP SWAP1 SWAP2 SWAP3 JUMP JUMPDEST PUSH1 0x0 DUP1 REVERT JUMPDEST PUSH1 0x0 DUP2 SWAP1 POP SWAP2 SWAP1 POP JUMP JUMPDEST PUSH2 0x3C8 DUP2 PUSH2 0x3B5 JUMP JUMPDEST DUP2 EQ PUSH2 0x3D3 JUMPI PUSH1 0x0 DUP1 REVERT JUMPDEST POP JUMP JUMPDEST PUSH1 0x0 DUP2 CALLDATALOAD SWAP1 POP PUSH2 0x3E5 DUP2 PUSH2 0x3BF JUMP JUMPDEST SWAP3 SWAP2 POP POP JUMP JUMPDEST PUSH1 0x0 PUSH1 0x20 DUP3 DUP5 SUB SLT ISZERO PUSH2 0x401 JUMPI PUSH2 0x400 PUSH2 0x3B0 JUMP JUMPDEST JUMPDEST PUSH1 0x0 PUSH2 0x40F DUP5 DUP3 DUP6 ADD PUSH2 0x3D6 JUMP JUMPDEST SWAP2 POP POP SWAP3 SWAP2 POP POP JUMP JUMPDEST PUSH2 0x421 DUP2 PUSH2 0x3B5 JUMP JUMPDEST DUP3 MSTORE POP POP JUMP JUMPDEST PUSH1 0x0 PUSH1 0x20 DUP3 ADD SWAP1 POP PUSH2 0x43C PUSH1 0x0 DUP4 ADD DUP5 PUSH2 0x418 JUMP JUMPDEST SWAP3 SWAP2 POP POP JUMP JUMPDEST PUSH1 0x0 DUP2 MLOAD SWAP1 POP SWAP2 SWAP1 POP JUMP JUMPDEST PUSH1 0x0 DUP3 DUP3 MSTORE PUSH1 0x20 DUP3 ADD SWAP1 POP SWAP3 SWAP2 POP POP JUMP JUMPDEST PUSH1 0x0 JUMPDEST DUP4 DUP2 LT ISZERO PUSH2 0x47C JUMPI DUP1 DUP3 ADD MLOAD DUP2 DUP5 ADD MSTORE PUSH1 0x20 DUP2 ADD SWAP1 POP PUSH2 0x461 JUMP JUMPDEST PUSH1 0x0 DUP5 DUP5 ADD MSTORE POP POP POP POP JUMP JUMPDEST PUSH1 0x0 PUSH1 0x1F NOT PUSH1 0x1F DUP4 ADD AND SWAP1 POP SWAP2 SWAP1 POP JUMP JUMPDEST PUSH1 0x0 PUSH2 0x4A4 DUP3 PUSH2 0x442 JUMP JUMPDEST PUSH2 0x4AE DUP2 DUP6 PUSH2 0x44D JUMP JUMPDEST SWAP4 POP PUSH2 0x4BE DUP2 DUP6 PUSH1 0x20 DUP7 ADD PUSH2 0x45E JUMP JUMPDEST PUSH2 0x4C7 DUP2 PUSH2 0x488 JUMP JUMPDEST DUP5 ADD SWAP2 POP POP SWAP3 SWAP2 POP POP JUMP JUMPDEST PUSH1 0x0 PUSH20 0xFFFFFFFFFFFFFFFFFFFFFFFFFFFFFFFFFFFFFFFF DUP3 AND SWAP1 POP SWAP2 SWAP1 POP JUMP JUMPDEST PUSH1 0x0 PUSH2 0x4FD DUP3 PUSH2 0x4D2 JUMP JUMPDEST SWAP1 POP SWAP2 SWAP1 POP JUMP JUMPDEST PUSH2 0x50D DUP2 PUSH2 0x4F2 JUMP JUMPDEST DUP3 MSTORE POP POP JUMP JUMPDEST PUSH1 0x0 PUSH1 0x60 DUP3 ADD SWAP1 POP DUP2 DUP2 SUB PUSH1 0x0 DUP4 ADD MSTORE PUSH2 0x52D DUP2 DUP7 PUSH2 0x499 JUMP JUMPDEST SWAP1 POP DUP2 DUP2 SUB PUSH1 0x20 DUP4 ADD MSTORE PUSH2 0x541 DUP2 DUP6 PUSH2 0x499 JUMP JUMPDEST SWAP1 POP PUSH2 0x550 PUSH1 0x40 DUP4 ADD DUP5 PUSH2 0x504 JUMP JUMPDEST SWAP5 SWAP4 POP POP POP POP JUMP JUMPDEST PUSH32 0x4E487B7100000000000000000000000000000000000000000000000000000000 PUSH1 0x0 MSTORE PUSH1 0x11 PUSH1 0x4 MSTORE PUSH1 0x24 PUSH1 0x0 REVERT JUMPDEST PUSH1 0x0 PUSH2 0x592 DUP3 PUSH2 0x3B5 JUMP JUMPDEST SWAP2 POP PUSH2 0x59D DUP4 PUSH2 0x3B5 JUMP JUMPDEST SWAP3 POP DUP3 DUP3 MUL PUSH2 0x5AB DUP2 PUSH2 0x3B5 JUMP JUMPDEST SWAP2 POP DUP3 DUP3 DIV DUP5 EQ DUP4 ISZERO OR PUSH2 0x5C2 JUMPI PUSH2 0x5C1 PUSH2 0x558 JUMP JUMPDEST JUMPDEST POP SWAP3 SWAP2 POP POP JUMP JUMPDEST PUSH32 0x4E487B7100000000000000000000000000000000000000000000000000000000 PUSH1 0x0 MSTORE PUSH1 0x12 PUSH1 0x4 MSTORE PUSH1 0x24 PUSH1 0x0 REVERT JUMPDEST PUSH1 0x0 PUSH2 0x603 DUP3 PUSH2 0x3B5 JUMP JUMPDEST SWAP2 POP PUSH2 0x60E DUP4 PUSH2 0x3B5 JUMP JUMPDEST SWAP3 POP DUP3 PUSH2 0x61E JUMPI PUSH2 0x61D PUSH2 0x5C9 JUMP JUMPDEST JUMPDEST DUP3 DUP3 DIV SWAP1 POP SWAP3 SWAP2 POP POP JUMP JUMPDEST PUSH1 0x0 PUSH2 0x634 DUP3 PUSH2 0x3B5 JUMP JUMPDEST SWAP2 POP PUSH2 0x63F DUP4 PUSH2 0x3B5 JUMP JUMPDEST SWAP3 POP DUP3 DUP3 ADD SWAP1 POP DUP1 DUP3 GT ISZERO PUSH2 0x657 JUMPI PUSH2 0x656 PUSH2 0x558 JUMP JUMPDEST JUMPDEST SWAP3 SWAP2 POP POP JUMP INVALID LOG2 PUSH5 0x6970667358 0x22 SLT KECCAK256 SHL 0xD0 0xA9 0x4F 0xCE 0xCD 0x2F 0xFC ADDRESS 0xC5 CREATE2 PUSH17 0x52E73D0F1F6534F7FE2F3D8B10C55F79AC 0x2C 0x5F DUP13 PUSH5 0x736F6C6343 STOP ADDMOD SLT STOP CALLER "
				},
				"gasEstimates": {
					"creation": {
						"codeDepositCost": "336600",
						"executionCost": "44586",
						"totalCost": "381186"
					},
					"external": {
						"add()": "infinite",
						"addPure(uint256)": "infinite",
						"addView()": "2481",
						"circumference(uint256)": "infinite",
						"info()": "infinite",
						"info2()": "infinite",
						"info3()": "infinite",
						"number()": "2451"
					}
				},
				"methodIdentifiers": {
					"add()": "4f2be91f",
					"addPure(uint256)": "7032c4f2",
					"addView()": "b262eb7f",
					"circumference(uint256)": "16ff6540",
					"info()": "370158ea",
					"info2()": "6b7f18bb",
					"info3()": "e002d16f",
					"number()": "8381f58a"
				}
			},
			"storageLayout": {
				"storage": [
					{
						"astId": 56,
						"contract": "week8/exercise.sol:exerciseOnFunction",
						"label": "pi",
						"offset": 0,
						"slot": "0",
						"type": "t_uint256"
					},
					{
						"astId": 79,
						"contract": "week8/exercise.sol:exerciseOnFunction",
						"label": "number",
						"offset": 0,
						"slot": "1",
						"type": "t_uint256"
					}
				],
				"types": {
					"t_uint256": {
						"encoding": "inplace",
						"label": "uint256",
						"numberOfBytes": "32"
					}
				}
			},
			"userdoc": {
				"kind": "user",
				"methods": {},
				"version": 1
			}
		}
	}
}