{
	"contracts/enumsAndStructPractice.sol": {
		"enums": {
			"abi": [
				{
					"inputs": [
						{
							"internalType": "address",
							"name": "addr",
							"type": "address"
						}
					],
					"name": "detail",
					"outputs": [
						{
							"internalType": "string",
							"name": "name",
							"type": "string"
						},
						{
							"internalType": "uint256",
							"name": "age",
							"type": "uint256"
						},
						{
							"internalType": "enum enums.weekdays",
							"name": "week",
							"type": "uint8"
						}
					],
					"stateMutability": "view",
					"type": "function"
				},
				{
					"inputs": [
						{
							"internalType": "address",
							"name": "addr",
							"type": "address"
						}
					],
					"name": "getter",
					"outputs": [
						{
							"components": [
								{
									"internalType": "string",
									"name": "name",
									"type": "string"
								},
								{
									"internalType": "uint256",
									"name": "age",
									"type": "uint256"
								},
								{
									"internalType": "enum enums.weekdays",
									"name": "week",
									"type": "uint8"
								},
								{
									"internalType": "uint256[]",
									"name": "array",
									"type": "uint256[]"
								}
							],
							"internalType": "struct enums.abc",
							"name": "",
							"type": "tuple"
						}
					],
					"stateMutability": "view",
					"type": "function"
				},
				{
					"inputs": [
						{
							"internalType": "address",
							"name": "addr",
							"type": "address"
						}
					],
					"name": "popElement",
					"outputs": [],
					"stateMutability": "nonpayable",
					"type": "function"
				},
				{
					"inputs": [
						{
							"internalType": "address",
							"name": "addr",
							"type": "address"
						},
						{
							"internalType": "uint256[]",
							"name": "child",
							"type": "uint256[]"
						}
					],
					"name": "pushElement",
					"outputs": [],
					"stateMutability": "nonpayable",
					"type": "function"
				},
				{
					"inputs": [
						{
							"internalType": "address",
							"name": "addr",
							"type": "address"
						},
						{
							"internalType": "string",
							"name": "_name",
							"type": "string"
						},
						{
							"internalType": "uint256",
							"name": "_age",
							"type": "uint256"
						},
						{
							"internalType": "enum enums.weekdays",
							"name": "_week",
							"type": "uint8"
						}
					],
					"name": "setter",
					"outputs": [],
					"stateMutability": "nonpayable",
					"type": "function"
				}
			],
			"devdoc": {
				"kind": "dev",
				"methods": {},
				"version": 1
			},
			"evm": {
				"assembly": "    /* \"contracts/enumsAndStructPractice.sol\":60:1388  contract enums {... */\n  mstore(0x40, 0x80)\n  callvalue\n  dup1\n  iszero\n  tag_1\n  jumpi\n  0x00\n  dup1\n  revert\ntag_1:\n  pop\n  dataSize(sub_0)\n  dup1\n  dataOffset(sub_0)\n  0x00\n  codecopy\n  0x00\n  return\nstop\n\nsub_0: assembly {\n        /* \"contracts/enumsAndStructPractice.sol\":60:1388  contract enums {... */\n      mstore(0x40, 0x80)\n      callvalue\n      dup1\n      iszero\n      tag_1\n      jumpi\n      0x00\n      dup1\n      revert\n    tag_1:\n      pop\n      jumpi(tag_2, lt(calldatasize, 0x04))\n      shr(0xe0, calldataload(0x00))\n      dup1\n      0x6d4c9c23\n      eq\n      tag_3\n      jumpi\n      dup1\n      0xa98ac960\n      eq\n      tag_4\n      jumpi\n      dup1\n      0xae97b846\n      eq\n      tag_5\n      jumpi\n      dup1\n      0xec5b5932\n      eq\n      tag_6\n      jumpi\n      dup1\n      0xf88b1641\n      eq\n      tag_7\n      jumpi\n    tag_2:\n      0x00\n      dup1\n      revert\n        /* \"contracts/enumsAndStructPractice.sol\":1013:1235  function pushElement(address addr, uint[] memory child) public {... */\n    tag_3:\n      tag_8\n      0x04\n      dup1\n      calldatasize\n      sub\n      dup2\n      add\n      swap1\n      tag_9\n      swap2\n      swap1\n      tag_10\n      jump\t// in\n    tag_9:\n      tag_11\n      jump\t// in\n    tag_8:\n      stop\n        /* \"contracts/enumsAndStructPractice.sol\":1241:1379  function popElement(address addr) public  {... */\n    tag_4:\n      tag_12\n      0x04\n      dup1\n      calldatasize\n      sub\n      dup2\n      add\n      swap1\n      tag_13\n      swap2\n      swap1\n      tag_14\n      jump\t// in\n    tag_13:\n      tag_15\n      jump\t// in\n    tag_12:\n      stop\n        /* \"contracts/enumsAndStructPractice.sol\":688:899  function setter(address addr, string memory _name, uint _age, weekdays _week) public  {... */\n    tag_5:\n      tag_16\n      0x04\n      dup1\n      calldatasize\n      sub\n      dup2\n      add\n      swap1\n      tag_17\n      swap2\n      swap1\n      tag_18\n      jump\t// in\n    tag_17:\n      tag_19\n      jump\t// in\n    tag_16:\n      stop\n        /* \"contracts/enumsAndStructPractice.sol\":637:679  mapping(address addr => abc) public detail */\n    tag_6:\n      tag_20\n      0x04\n      dup1\n      calldatasize\n      sub\n      dup2\n      add\n      swap1\n      tag_21\n      swap2\n      swap1\n      tag_14\n      jump\t// in\n    tag_21:\n      tag_22\n      jump\t// in\n    tag_20:\n      mload(0x40)\n      tag_23\n      swap4\n      swap3\n      swap2\n      swap1\n      tag_24\n      jump\t// in\n    tag_23:\n      mload(0x40)\n      dup1\n      swap2\n      sub\n      swap1\n      return\n        /* \"contracts/enumsAndStructPractice.sol\":905:1007  function getter(address addr) public view returns (abc memory)  {... */\n    tag_7:\n      tag_25\n      0x04\n      dup1\n      calldatasize\n      sub\n      dup2\n      add\n      swap1\n      tag_26\n      swap2\n      swap1\n      tag_14\n      jump\t// in\n    tag_26:\n      tag_27\n      jump\t// in\n    tag_25:\n      mload(0x40)\n      tag_28\n      swap2\n      swap1\n      tag_29\n      jump\t// in\n    tag_28:\n      mload(0x40)\n      dup1\n      swap2\n      sub\n      swap1\n      return\n        /* \"contracts/enumsAndStructPractice.sol\":1013:1235  function pushElement(address addr, uint[] memory child) public {... */\n    tag_11:\n        /* \"contracts/enumsAndStructPractice.sol\":1087:1105  uint[] storage arr */\n      0x00\n        /* \"contracts/enumsAndStructPractice.sol\":1108:1114  detail */\n      0x01\n        /* \"contracts/enumsAndStructPractice.sol\":1108:1120  detail[addr] */\n      0x00\n        /* \"contracts/enumsAndStructPractice.sol\":1115:1119  addr */\n      dup5\n        /* \"contracts/enumsAndStructPractice.sol\":1108:1120  detail[addr] */\n      0xffffffffffffffffffffffffffffffffffffffff\n      and\n      0xffffffffffffffffffffffffffffffffffffffff\n      and\n      dup2\n      mstore\n      0x20\n      add\n      swap1\n      dup2\n      mstore\n      0x20\n      add\n      0x00\n      keccak256\n        /* \"contracts/enumsAndStructPractice.sol\":1108:1126  detail[addr].array */\n      0x03\n      add\n        /* \"contracts/enumsAndStructPractice.sol\":1087:1126  uint[] storage arr = detail[addr].array */\n      swap1\n      pop\n        /* \"contracts/enumsAndStructPractice.sol\":1142:1148  uint i */\n      0x00\n        /* \"contracts/enumsAndStructPractice.sol\":1137:1228  for (uint i=0; i<child.length; i++) ... */\n    tag_31:\n        /* \"contracts/enumsAndStructPractice.sol\":1154:1159  child */\n      dup3\n        /* \"contracts/enumsAndStructPractice.sol\":1154:1166  child.length */\n      mload\n        /* \"contracts/enumsAndStructPractice.sol\":1152:1153  i */\n      dup2\n        /* \"contracts/enumsAndStructPractice.sol\":1152:1166  i<child.length */\n      lt\n        /* \"contracts/enumsAndStructPractice.sol\":1137:1228  for (uint i=0; i<child.length; i++) ... */\n      iszero\n      tag_32\n      jumpi\n        /* \"contracts/enumsAndStructPractice.sol\":1198:1201  arr */\n      dup2\n        /* \"contracts/enumsAndStructPractice.sol\":1207:1212  child */\n      dup4\n        /* \"contracts/enumsAndStructPractice.sol\":1213:1214  i */\n      dup3\n        /* \"contracts/enumsAndStructPractice.sol\":1207:1215  child[i] */\n      dup2\n      mload\n      dup2\n      lt\n      tag_34\n      jumpi\n      tag_35\n      tag_36\n      jump\t// in\n    tag_35:\n    tag_34:\n      0x20\n      mul\n      0x20\n      add\n      add\n      mload\n        /* \"contracts/enumsAndStructPractice.sol\":1198:1216  arr.push(child[i]) */\n      swap1\n      dup1\n      0x01\n      dup2\n      sload\n      add\n      dup1\n      dup3\n      sstore\n      dup1\n      swap2\n      pop\n      pop\n      0x01\n      swap1\n      sub\n      swap1\n      0x00\n      mstore\n      keccak256(0x00, 0x20)\n      add\n      0x00\n      swap1\n      swap2\n      swap1\n      swap2\n      swap1\n      swap2\n      pop\n      sstore\n        /* \"contracts/enumsAndStructPractice.sol\":1168:1171  i++ */\n      dup1\n      dup1\n      tag_38\n      swap1\n      tag_39\n      jump\t// in\n    tag_38:\n      swap2\n      pop\n      pop\n        /* \"contracts/enumsAndStructPractice.sol\":1137:1228  for (uint i=0; i<child.length; i++) ... */\n      jump(tag_31)\n    tag_32:\n      pop\n        /* \"contracts/enumsAndStructPractice.sol\":1076:1235  {... */\n      pop\n        /* \"contracts/enumsAndStructPractice.sol\":1013:1235  function pushElement(address addr, uint[] memory child) public {... */\n      pop\n      pop\n      jump\t// out\n        /* \"contracts/enumsAndStructPractice.sol\":1241:1379  function popElement(address addr) public  {... */\n    tag_15:\n        /* \"contracts/enumsAndStructPractice.sol\":1347:1353  detail */\n      0x01\n        /* \"contracts/enumsAndStructPractice.sol\":1347:1359  detail[addr] */\n      0x00\n        /* \"contracts/enumsAndStructPractice.sol\":1354:1358  addr */\n      dup3\n        /* \"contracts/enumsAndStructPractice.sol\":1347:1359  detail[addr] */\n      0xffffffffffffffffffffffffffffffffffffffff\n      and\n      0xffffffffffffffffffffffffffffffffffffffff\n      and\n      dup2\n      mstore\n      0x20\n      add\n      swap1\n      dup2\n      mstore\n      0x20\n      add\n      0x00\n      keccak256\n        /* \"contracts/enumsAndStructPractice.sol\":1347:1365  detail[addr].array */\n      0x03\n      add\n        /* \"contracts/enumsAndStructPractice.sol\":1347:1371  detail[addr].array.pop() */\n      dup1\n      sload\n      dup1\n      tag_41\n      jumpi\n      tag_42\n      tag_43\n      jump\t// in\n    tag_42:\n    tag_41:\n      0x01\n      swap1\n      sub\n      dup2\n      dup2\n      swap1\n      0x00\n      mstore\n      keccak256(0x00, 0x20)\n      add\n      0x00\n      swap1\n      sstore\n      swap1\n      sstore\n        /* \"contracts/enumsAndStructPractice.sol\":1241:1379  function popElement(address addr) public  {... */\n      pop\n      jump\t// out\n        /* \"contracts/enumsAndStructPractice.sol\":688:899  function setter(address addr, string memory _name, uint _age, weekdays _week) public  {... */\n    tag_19:\n        /* \"contracts/enumsAndStructPractice.sol\":806:811  _name */\n      dup3\n        /* \"contracts/enumsAndStructPractice.sol\":785:791  detail */\n      0x01\n        /* \"contracts/enumsAndStructPractice.sol\":785:797  detail[addr] */\n      0x00\n        /* \"contracts/enumsAndStructPractice.sol\":792:796  addr */\n      dup7\n        /* \"contracts/enumsAndStructPractice.sol\":785:797  detail[addr] */\n      0xffffffffffffffffffffffffffffffffffffffff\n      and\n      0xffffffffffffffffffffffffffffffffffffffff\n      and\n      dup2\n      mstore\n      0x20\n      add\n      swap1\n      dup2\n      mstore\n      0x20\n      add\n      0x00\n      keccak256\n        /* \"contracts/enumsAndStructPractice.sol\":785:802  detail[addr].name */\n      0x00\n      add\n        /* \"contracts/enumsAndStructPractice.sol\":785:811  detail[addr].name =  _name */\n      swap1\n      dup2\n      tag_46\n      swap2\n      swap1\n      tag_47\n      jump\t// in\n    tag_46:\n      pop\n        /* \"contracts/enumsAndStructPractice.sol\":842:846  _age */\n      dup2\n        /* \"contracts/enumsAndStructPractice.sol\":822:828  detail */\n      0x01\n        /* \"contracts/enumsAndStructPractice.sol\":822:834  detail[addr] */\n      0x00\n        /* \"contracts/enumsAndStructPractice.sol\":829:833  addr */\n      dup7\n        /* \"contracts/enumsAndStructPractice.sol\":822:834  detail[addr] */\n      0xffffffffffffffffffffffffffffffffffffffff\n      and\n      0xffffffffffffffffffffffffffffffffffffffff\n      and\n      dup2\n      mstore\n      0x20\n      add\n      swap1\n      dup2\n      mstore\n      0x20\n      add\n      0x00\n      keccak256\n        /* \"contracts/enumsAndStructPractice.sol\":822:838  detail[addr].age */\n      0x01\n      add\n        /* \"contracts/enumsAndStructPractice.sol\":822:846  detail[addr].age =  _age */\n      dup2\n      swap1\n      sstore\n      pop\n        /* \"contracts/enumsAndStructPractice.sol\":877:882  _week */\n      dup1\n        /* \"contracts/enumsAndStructPractice.sol\":857:863  detail */\n      0x01\n        /* \"contracts/enumsAndStructPractice.sol\":857:869  detail[addr] */\n      0x00\n        /* \"contracts/enumsAndStructPractice.sol\":864:868  addr */\n      dup7\n        /* \"contracts/enumsAndStructPractice.sol\":857:869  detail[addr] */\n      0xffffffffffffffffffffffffffffffffffffffff\n      and\n      0xffffffffffffffffffffffffffffffffffffffff\n      and\n      dup2\n      mstore\n      0x20\n      add\n      swap1\n      dup2\n      mstore\n      0x20\n      add\n      0x00\n      keccak256\n        /* \"contracts/enumsAndStructPractice.sol\":857:874  detail[addr].week */\n      0x02\n      add\n      0x00\n        /* \"contracts/enumsAndStructPractice.sol\":857:882  detail[addr].week = _week */\n      0x0100\n      exp\n      dup2\n      sload\n      dup2\n      0xff\n      mul\n      not\n      and\n      swap1\n      dup4\n      0x05\n      dup2\n      gt\n      iszero\n      tag_48\n      jumpi\n      tag_49\n      tag_50\n      jump\t// in\n    tag_49:\n    tag_48:\n      mul\n      or\n      swap1\n      sstore\n      pop\n        /* \"contracts/enumsAndStructPractice.sol\":688:899  function setter(address addr, string memory _name, uint _age, weekdays _week) public  {... */\n      pop\n      pop\n      pop\n      pop\n      jump\t// out\n        /* \"contracts/enumsAndStructPractice.sol\":637:679  mapping(address addr => abc) public detail */\n    tag_22:\n      mstore(0x20, 0x01)\n      dup1\n      0x00\n      mstore\n      keccak256(0x00, 0x40)\n      0x00\n      swap2\n      pop\n      swap1\n      pop\n      dup1\n      0x00\n      add\n      dup1\n      sload\n      tag_51\n      swap1\n      tag_52\n      jump\t// in\n    tag_51:\n      dup1\n      0x1f\n      add\n      0x20\n      dup1\n      swap2\n      div\n      mul\n      0x20\n      add\n      mload(0x40)\n      swap1\n      dup2\n      add\n      0x40\n      mstore\n      dup1\n      swap3\n      swap2\n      swap1\n      dup2\n      dup2\n      mstore\n      0x20\n      add\n      dup3\n      dup1\n      sload\n      tag_53\n      swap1\n      tag_52\n      jump\t// in\n    tag_53:\n      dup1\n      iszero\n      tag_54\n      jumpi\n      dup1\n      0x1f\n      lt\n      tag_55\n      jumpi\n      0x0100\n      dup1\n      dup4\n      sload\n      div\n      mul\n      dup4\n      mstore\n      swap2\n      0x20\n      add\n      swap2\n      jump(tag_54)\n    tag_55:\n      dup3\n      add\n      swap2\n      swap1\n      0x00\n      mstore\n      keccak256(0x00, 0x20)\n      swap1\n    tag_56:\n      dup2\n      sload\n      dup2\n      mstore\n      swap1\n      0x01\n      add\n      swap1\n      0x20\n      add\n      dup1\n      dup4\n      gt\n      tag_56\n      jumpi\n      dup3\n      swap1\n      sub\n      0x1f\n      and\n      dup3\n      add\n      swap2\n    tag_54:\n      pop\n      pop\n      pop\n      pop\n      pop\n      swap1\n      dup1\n      0x01\n      add\n      sload\n      swap1\n      dup1\n      0x02\n      add\n      0x00\n      swap1\n      sload\n      swap1\n      0x0100\n      exp\n      swap1\n      div\n      0xff\n      and\n      swap1\n      pop\n      dup4\n      jump\t// out\n        /* \"contracts/enumsAndStructPractice.sol\":905:1007  function getter(address addr) public view returns (abc memory)  {... */\n    tag_27:\n        /* \"contracts/enumsAndStructPractice.sol\":956:966  abc memory */\n      tag_57\n      tag_58\n      jump\t// in\n    tag_57:\n        /* \"contracts/enumsAndStructPractice.sol\":987:993  detail */\n      0x01\n        /* \"contracts/enumsAndStructPractice.sol\":987:999  detail[addr] */\n      0x00\n        /* \"contracts/enumsAndStructPractice.sol\":994:998  addr */\n      dup4\n        /* \"contracts/enumsAndStructPractice.sol\":987:999  detail[addr] */\n      0xffffffffffffffffffffffffffffffffffffffff\n      and\n      0xffffffffffffffffffffffffffffffffffffffff\n      and\n      dup2\n      mstore\n      0x20\n      add\n      swap1\n      dup2\n      mstore\n      0x20\n      add\n      0x00\n      keccak256\n        /* \"contracts/enumsAndStructPractice.sol\":980:999  return detail[addr] */\n      mload(0x40)\n      dup1\n      0x80\n      add\n      0x40\n      mstore\n      swap1\n      dup2\n      0x00\n      dup3\n      add\n      dup1\n      sload\n      tag_60\n      swap1\n      tag_52\n      jump\t// in\n    tag_60:\n      dup1\n      0x1f\n      add\n      0x20\n      dup1\n      swap2\n      div\n      mul\n      0x20\n      add\n      mload(0x40)\n      swap1\n      dup2\n      add\n      0x40\n      mstore\n      dup1\n      swap3\n      swap2\n      swap1\n      dup2\n      dup2\n      mstore\n      0x20\n      add\n      dup3\n      dup1\n      sload\n      tag_61\n      swap1\n      tag_52\n      jump\t// in\n    tag_61:\n      dup1\n      iszero\n      tag_62\n      jumpi\n      dup1\n      0x1f\n      lt\n      tag_63\n      jumpi\n      0x0100\n      dup1\n      dup4\n      sload\n      div\n      mul\n      dup4\n      mstore\n      swap2\n      0x20\n      add\n      swap2\n      jump(tag_62)\n    tag_63:\n      dup3\n      add\n      swap2\n      swap1\n      0x00\n      mstore\n      keccak256(0x00, 0x20)\n      swap1\n    tag_64:\n      dup2\n      sload\n      dup2\n      mstore\n      swap1\n      0x01\n      add\n      swap1\n      0x20\n      add\n      dup1\n      dup4\n      gt\n      tag_64\n      jumpi\n      dup3\n      swap1\n      sub\n      0x1f\n      and\n      dup3\n      add\n      swap2\n    tag_62:\n      pop\n      pop\n      pop\n      pop\n      pop\n      dup2\n      mstore\n      0x20\n      add\n      0x01\n      dup3\n      add\n      sload\n      dup2\n      mstore\n      0x20\n      add\n      0x02\n      dup3\n      add\n      0x00\n      swap1\n      sload\n      swap1\n      0x0100\n      exp\n      swap1\n      div\n      0xff\n      and\n      0x05\n      dup2\n      gt\n      iszero\n      tag_65\n      jumpi\n      tag_66\n      tag_50\n      jump\t// in\n    tag_66:\n    tag_65:\n      0x05\n      dup2\n      gt\n      iszero\n      tag_67\n      jumpi\n      tag_68\n      tag_50\n      jump\t// in\n    tag_68:\n    tag_67:\n      dup2\n      mstore\n      0x20\n      add\n      0x03\n      dup3\n      add\n      dup1\n      sload\n      dup1\n      0x20\n      mul\n      0x20\n      add\n      mload(0x40)\n      swap1\n      dup2\n      add\n      0x40\n      mstore\n      dup1\n      swap3\n      swap2\n      swap1\n      dup2\n      dup2\n      mstore\n      0x20\n      add\n      dup3\n      dup1\n      sload\n      dup1\n      iszero\n      tag_69\n      jumpi\n      0x20\n      mul\n      dup3\n      add\n      swap2\n      swap1\n      0x00\n      mstore\n      keccak256(0x00, 0x20)\n      swap1\n    tag_70:\n      dup2\n      sload\n      dup2\n      mstore\n      0x20\n      add\n      swap1\n      0x01\n      add\n      swap1\n      dup1\n      dup4\n      gt\n      tag_70\n      jumpi\n    tag_69:\n      pop\n      pop\n      pop\n      pop\n      pop\n      dup2\n      mstore\n      pop\n      pop\n      swap1\n      pop\n        /* \"contracts/enumsAndStructPractice.sol\":905:1007  function getter(address addr) public view returns (abc memory)  {... */\n      swap2\n      swap1\n      pop\n      jump\t// out\n    tag_58:\n      mload(0x40)\n      dup1\n      0x80\n      add\n      0x40\n      mstore\n      dup1\n      0x60\n      dup2\n      mstore\n      0x20\n      add\n      0x00\n      dup2\n      mstore\n      0x20\n      add\n      0x00\n      0x05\n      dup2\n      gt\n      iszero\n      tag_71\n      jumpi\n      tag_72\n      tag_50\n      jump\t// in\n    tag_72:\n    tag_71:\n      dup2\n      mstore\n      0x20\n      add\n      0x60\n      dup2\n      mstore\n      pop\n      swap1\n      jump\t// out\n        /* \"#utility.yul\":7:82   */\n    tag_73:\n        /* \"#utility.yul\":40:46   */\n      0x00\n        /* \"#utility.yul\":73:75   */\n      0x40\n        /* \"#utility.yul\":67:76   */\n      mload\n        /* \"#utility.yul\":57:76   */\n      swap1\n      pop\n        /* \"#utility.yul\":7:82   */\n      swap1\n      jump\t// out\n        /* \"#utility.yul\":88:205   */\n    tag_74:\n        /* \"#utility.yul\":197:198   */\n      0x00\n        /* \"#utility.yul\":194:195   */\n      dup1\n        /* \"#utility.yul\":187:199   */\n      revert\n        /* \"#utility.yul\":211:328   */\n    tag_75:\n        /* \"#utility.yul\":320:321   */\n      0x00\n        /* \"#utility.yul\":317:318   */\n      dup1\n        /* \"#utility.yul\":310:322   */\n      revert\n        /* \"#utility.yul\":334:460   */\n    tag_76:\n        /* \"#utility.yul\":371:378   */\n      0x00\n        /* \"#utility.yul\":411:453   */\n      0xffffffffffffffffffffffffffffffffffffffff\n        /* \"#utility.yul\":404:409   */\n      dup3\n        /* \"#utility.yul\":400:454   */\n      and\n        /* \"#utility.yul\":389:454   */\n      swap1\n      pop\n        /* \"#utility.yul\":334:460   */\n      swap2\n      swap1\n      pop\n      jump\t// out\n        /* \"#utility.yul\":466:562   */\n    tag_77:\n        /* \"#utility.yul\":503:510   */\n      0x00\n        /* \"#utility.yul\":532:556   */\n      tag_142\n        /* \"#utility.yul\":550:555   */\n      dup3\n        /* \"#utility.yul\":532:556   */\n      tag_76\n      jump\t// in\n    tag_142:\n        /* \"#utility.yul\":521:556   */\n      swap1\n      pop\n        /* \"#utility.yul\":466:562   */\n      swap2\n      swap1\n      pop\n      jump\t// out\n        /* \"#utility.yul\":568:690   */\n    tag_78:\n        /* \"#utility.yul\":641:665   */\n      tag_144\n        /* \"#utility.yul\":659:664   */\n      dup2\n        /* \"#utility.yul\":641:665   */\n      tag_77\n      jump\t// in\n    tag_144:\n        /* \"#utility.yul\":634:639   */\n      dup2\n        /* \"#utility.yul\":631:666   */\n      eq\n        /* \"#utility.yul\":621:684   */\n      tag_145\n      jumpi\n        /* \"#utility.yul\":680:681   */\n      0x00\n        /* \"#utility.yul\":677:678   */\n      dup1\n        /* \"#utility.yul\":670:682   */\n      revert\n        /* \"#utility.yul\":621:684   */\n    tag_145:\n        /* \"#utility.yul\":568:690   */\n      pop\n      jump\t// out\n        /* \"#utility.yul\":696:835   */\n    tag_79:\n        /* \"#utility.yul\":742:747   */\n      0x00\n        /* \"#utility.yul\":780:786   */\n      dup2\n        /* \"#utility.yul\":767:787   */\n      calldataload\n        /* \"#utility.yul\":758:787   */\n      swap1\n      pop\n        /* \"#utility.yul\":796:829   */\n      tag_147\n        /* \"#utility.yul\":823:828   */\n      dup2\n        /* \"#utility.yul\":796:829   */\n      tag_78\n      jump\t// in\n    tag_147:\n        /* \"#utility.yul\":696:835   */\n      swap3\n      swap2\n      pop\n      pop\n      jump\t// out\n        /* \"#utility.yul\":841:958   */\n    tag_80:\n        /* \"#utility.yul\":950:951   */\n      0x00\n        /* \"#utility.yul\":947:948   */\n      dup1\n        /* \"#utility.yul\":940:952   */\n      revert\n        /* \"#utility.yul\":964:1066   */\n    tag_81:\n        /* \"#utility.yul\":1005:1011   */\n      0x00\n        /* \"#utility.yul\":1056:1058   */\n      0x1f\n        /* \"#utility.yul\":1052:1059   */\n      not\n        /* \"#utility.yul\":1047:1049   */\n      0x1f\n        /* \"#utility.yul\":1040:1045   */\n      dup4\n        /* \"#utility.yul\":1036:1050   */\n      add\n        /* \"#utility.yul\":1032:1060   */\n      and\n        /* \"#utility.yul\":1022:1060   */\n      swap1\n      pop\n        /* \"#utility.yul\":964:1066   */\n      swap2\n      swap1\n      pop\n      jump\t// out\n        /* \"#utility.yul\":1072:1252   */\n    tag_82:\n        /* \"#utility.yul\":1120:1197   */\n      0x4e487b7100000000000000000000000000000000000000000000000000000000\n        /* \"#utility.yul\":1117:1118   */\n      0x00\n        /* \"#utility.yul\":1110:1198   */\n      mstore\n        /* \"#utility.yul\":1217:1221   */\n      0x41\n        /* \"#utility.yul\":1214:1215   */\n      0x04\n        /* \"#utility.yul\":1207:1222   */\n      mstore\n        /* \"#utility.yul\":1241:1245   */\n      0x24\n        /* \"#utility.yul\":1238:1239   */\n      0x00\n        /* \"#utility.yul\":1231:1246   */\n      revert\n        /* \"#utility.yul\":1258:1539   */\n    tag_83:\n        /* \"#utility.yul\":1341:1368   */\n      tag_152\n        /* \"#utility.yul\":1363:1367   */\n      dup3\n        /* \"#utility.yul\":1341:1368   */\n      tag_81\n      jump\t// in\n    tag_152:\n        /* \"#utility.yul\":1333:1339   */\n      dup2\n        /* \"#utility.yul\":1329:1369   */\n      add\n        /* \"#utility.yul\":1471:1477   */\n      dup2\n        /* \"#utility.yul\":1459:1469   */\n      dup2\n        /* \"#utility.yul\":1456:1478   */\n      lt\n        /* \"#utility.yul\":1435:1453   */\n      0xffffffffffffffff\n        /* \"#utility.yul\":1423:1433   */\n      dup3\n        /* \"#utility.yul\":1420:1454   */\n      gt\n        /* \"#utility.yul\":1417:1479   */\n      or\n        /* \"#utility.yul\":1414:1502   */\n      iszero\n      tag_153\n      jumpi\n        /* \"#utility.yul\":1482:1500   */\n      tag_154\n      tag_82\n      jump\t// in\n    tag_154:\n        /* \"#utility.yul\":1414:1502   */\n    tag_153:\n        /* \"#utility.yul\":1522:1532   */\n      dup1\n        /* \"#utility.yul\":1518:1520   */\n      0x40\n        /* \"#utility.yul\":1511:1533   */\n      mstore\n        /* \"#utility.yul\":1301:1539   */\n      pop\n        /* \"#utility.yul\":1258:1539   */\n      pop\n      pop\n      jump\t// out\n        /* \"#utility.yul\":1545:1674   */\n    tag_84:\n        /* \"#utility.yul\":1579:1585   */\n      0x00\n        /* \"#utility.yul\":1606:1626   */\n      tag_156\n      tag_73\n      jump\t// in\n    tag_156:\n        /* \"#utility.yul\":1596:1626   */\n      swap1\n      pop\n        /* \"#utility.yul\":1635:1668   */\n      tag_157\n        /* \"#utility.yul\":1663:1667   */\n      dup3\n        /* \"#utility.yul\":1655:1661   */\n      dup3\n        /* \"#utility.yul\":1635:1668   */\n      tag_83\n      jump\t// in\n    tag_157:\n        /* \"#utility.yul\":1545:1674   */\n      swap2\n      swap1\n      pop\n      jump\t// out\n        /* \"#utility.yul\":1680:1991   */\n    tag_85:\n        /* \"#utility.yul\":1757:1761   */\n      0x00\n        /* \"#utility.yul\":1847:1865   */\n      0xffffffffffffffff\n        /* \"#utility.yul\":1839:1845   */\n      dup3\n        /* \"#utility.yul\":1836:1866   */\n      gt\n        /* \"#utility.yul\":1833:1889   */\n      iszero\n      tag_159\n      jumpi\n        /* \"#utility.yul\":1869:1887   */\n      tag_160\n      tag_82\n      jump\t// in\n    tag_160:\n        /* \"#utility.yul\":1833:1889   */\n    tag_159:\n        /* \"#utility.yul\":1919:1923   */\n      0x20\n        /* \"#utility.yul\":1911:1917   */\n      dup3\n        /* \"#utility.yul\":1907:1924   */\n      mul\n        /* \"#utility.yul\":1899:1924   */\n      swap1\n      pop\n        /* \"#utility.yul\":1979:1983   */\n      0x20\n        /* \"#utility.yul\":1973:1977   */\n      dup2\n        /* \"#utility.yul\":1969:1984   */\n      add\n        /* \"#utility.yul\":1961:1984   */\n      swap1\n      pop\n        /* \"#utility.yul\":1680:1991   */\n      swap2\n      swap1\n      pop\n      jump\t// out\n        /* \"#utility.yul\":1997:2114   */\n    tag_86:\n        /* \"#utility.yul\":2106:2107   */\n      0x00\n        /* \"#utility.yul\":2103:2104   */\n      dup1\n        /* \"#utility.yul\":2096:2108   */\n      revert\n        /* \"#utility.yul\":2120:2197   */\n    tag_87:\n        /* \"#utility.yul\":2157:2164   */\n      0x00\n        /* \"#utility.yul\":2186:2191   */\n      dup2\n        /* \"#utility.yul\":2175:2191   */\n      swap1\n      pop\n        /* \"#utility.yul\":2120:2197   */\n      swap2\n      swap1\n      pop\n      jump\t// out\n        /* \"#utility.yul\":2203:2325   */\n    tag_88:\n        /* \"#utility.yul\":2276:2300   */\n      tag_164\n        /* \"#utility.yul\":2294:2299   */\n      dup2\n        /* \"#utility.yul\":2276:2300   */\n      tag_87\n      jump\t// in\n    tag_164:\n        /* \"#utility.yul\":2269:2274   */\n      dup2\n        /* \"#utility.yul\":2266:2301   */\n      eq\n        /* \"#utility.yul\":2256:2319   */\n      tag_165\n      jumpi\n        /* \"#utility.yul\":2315:2316   */\n      0x00\n        /* \"#utility.yul\":2312:2313   */\n      dup1\n        /* \"#utility.yul\":2305:2317   */\n      revert\n        /* \"#utility.yul\":2256:2319   */\n    tag_165:\n        /* \"#utility.yul\":2203:2325   */\n      pop\n      jump\t// out\n        /* \"#utility.yul\":2331:2470   */\n    tag_89:\n        /* \"#utility.yul\":2377:2382   */\n      0x00\n        /* \"#utility.yul\":2415:2421   */\n      dup2\n        /* \"#utility.yul\":2402:2422   */\n      calldataload\n        /* \"#utility.yul\":2393:2422   */\n      swap1\n      pop\n        /* \"#utility.yul\":2431:2464   */\n      tag_167\n        /* \"#utility.yul\":2458:2463   */\n      dup2\n        /* \"#utility.yul\":2431:2464   */\n      tag_88\n      jump\t// in\n    tag_167:\n        /* \"#utility.yul\":2331:2470   */\n      swap3\n      swap2\n      pop\n      pop\n      jump\t// out\n        /* \"#utility.yul\":2493:3203   */\n    tag_90:\n        /* \"#utility.yul\":2589:2594   */\n      0x00\n        /* \"#utility.yul\":2614:2695   */\n      tag_169\n        /* \"#utility.yul\":2630:2694   */\n      tag_170\n        /* \"#utility.yul\":2687:2693   */\n      dup5\n        /* \"#utility.yul\":2630:2694   */\n      tag_85\n      jump\t// in\n    tag_170:\n        /* \"#utility.yul\":2614:2695   */\n      tag_84\n      jump\t// in\n    tag_169:\n        /* \"#utility.yul\":2605:2695   */\n      swap1\n      pop\n        /* \"#utility.yul\":2715:2720   */\n      dup1\n        /* \"#utility.yul\":2744:2750   */\n      dup4\n        /* \"#utility.yul\":2737:2742   */\n      dup3\n        /* \"#utility.yul\":2730:2751   */\n      mstore\n        /* \"#utility.yul\":2778:2782   */\n      0x20\n        /* \"#utility.yul\":2771:2776   */\n      dup3\n        /* \"#utility.yul\":2767:2783   */\n      add\n        /* \"#utility.yul\":2760:2783   */\n      swap1\n      pop\n        /* \"#utility.yul\":2831:2835   */\n      0x20\n        /* \"#utility.yul\":2823:2829   */\n      dup5\n        /* \"#utility.yul\":2819:2836   */\n      mul\n        /* \"#utility.yul\":2811:2817   */\n      dup4\n        /* \"#utility.yul\":2807:2837   */\n      add\n        /* \"#utility.yul\":2860:2863   */\n      dup6\n        /* \"#utility.yul\":2852:2858   */\n      dup2\n        /* \"#utility.yul\":2849:2864   */\n      gt\n        /* \"#utility.yul\":2846:2968   */\n      iszero\n      tag_171\n      jumpi\n        /* \"#utility.yul\":2879:2958   */\n      tag_172\n      tag_86\n      jump\t// in\n    tag_172:\n        /* \"#utility.yul\":2846:2968   */\n    tag_171:\n        /* \"#utility.yul\":2994:3000   */\n      dup4\n        /* \"#utility.yul\":2977:3197   */\n    tag_173:\n        /* \"#utility.yul\":3011:3017   */\n      dup2\n        /* \"#utility.yul\":3006:3009   */\n      dup2\n        /* \"#utility.yul\":3003:3018   */\n      lt\n        /* \"#utility.yul\":2977:3197   */\n      iszero\n      tag_175\n      jumpi\n        /* \"#utility.yul\":3086:3089   */\n      dup1\n        /* \"#utility.yul\":3115:3152   */\n      tag_176\n        /* \"#utility.yul\":3148:3151   */\n      dup9\n        /* \"#utility.yul\":3136:3146   */\n      dup3\n        /* \"#utility.yul\":3115:3152   */\n      tag_89\n      jump\t// in\n    tag_176:\n        /* \"#utility.yul\":3110:3113   */\n      dup5\n        /* \"#utility.yul\":3103:3153   */\n      mstore\n        /* \"#utility.yul\":3182:3186   */\n      0x20\n        /* \"#utility.yul\":3177:3180   */\n      dup5\n        /* \"#utility.yul\":3173:3187   */\n      add\n        /* \"#utility.yul\":3166:3187   */\n      swap4\n      pop\n        /* \"#utility.yul\":3053:3197   */\n      pop\n        /* \"#utility.yul\":3037:3041   */\n      0x20\n        /* \"#utility.yul\":3032:3035   */\n      dup2\n        /* \"#utility.yul\":3028:3042   */\n      add\n        /* \"#utility.yul\":3021:3042   */\n      swap1\n      pop\n        /* \"#utility.yul\":2977:3197   */\n      jump(tag_173)\n    tag_175:\n        /* \"#utility.yul\":2981:3002   */\n      pop\n        /* \"#utility.yul\":2595:3203   */\n      pop\n      pop\n        /* \"#utility.yul\":2493:3203   */\n      swap4\n      swap3\n      pop\n      pop\n      pop\n      jump\t// out\n        /* \"#utility.yul\":3226:3596   */\n    tag_91:\n        /* \"#utility.yul\":3297:3302   */\n      0x00\n        /* \"#utility.yul\":3346:3349   */\n      dup3\n        /* \"#utility.yul\":3339:3343   */\n      0x1f\n        /* \"#utility.yul\":3331:3337   */\n      dup4\n        /* \"#utility.yul\":3327:3344   */\n      add\n        /* \"#utility.yul\":3323:3350   */\n      slt\n        /* \"#utility.yul\":3313:3435   */\n      tag_178\n      jumpi\n        /* \"#utility.yul\":3354:3433   */\n      tag_179\n      tag_80\n      jump\t// in\n    tag_179:\n        /* \"#utility.yul\":3313:3435   */\n    tag_178:\n        /* \"#utility.yul\":3471:3477   */\n      dup2\n        /* \"#utility.yul\":3458:3478   */\n      calldataload\n        /* \"#utility.yul\":3496:3590   */\n      tag_180\n        /* \"#utility.yul\":3586:3589   */\n      dup5\n        /* \"#utility.yul\":3578:3584   */\n      dup3\n        /* \"#utility.yul\":3571:3575   */\n      0x20\n        /* \"#utility.yul\":3563:3569   */\n      dup7\n        /* \"#utility.yul\":3559:3576   */\n      add\n        /* \"#utility.yul\":3496:3590   */\n      tag_90\n      jump\t// in\n    tag_180:\n        /* \"#utility.yul\":3487:3590   */\n      swap2\n      pop\n        /* \"#utility.yul\":3303:3596   */\n      pop\n        /* \"#utility.yul\":3226:3596   */\n      swap3\n      swap2\n      pop\n      pop\n      jump\t// out\n        /* \"#utility.yul\":3602:4286   */\n    tag_10:\n        /* \"#utility.yul\":3695:3701   */\n      0x00\n        /* \"#utility.yul\":3703:3709   */\n      dup1\n        /* \"#utility.yul\":3752:3754   */\n      0x40\n        /* \"#utility.yul\":3740:3749   */\n      dup4\n        /* \"#utility.yul\":3731:3738   */\n      dup6\n        /* \"#utility.yul\":3727:3750   */\n      sub\n        /* \"#utility.yul\":3723:3755   */\n      slt\n        /* \"#utility.yul\":3720:3839   */\n      iszero\n      tag_182\n      jumpi\n        /* \"#utility.yul\":3758:3837   */\n      tag_183\n      tag_74\n      jump\t// in\n    tag_183:\n        /* \"#utility.yul\":3720:3839   */\n    tag_182:\n        /* \"#utility.yul\":3878:3879   */\n      0x00\n        /* \"#utility.yul\":3903:3956   */\n      tag_184\n        /* \"#utility.yul\":3948:3955   */\n      dup6\n        /* \"#utility.yul\":3939:3945   */\n      dup3\n        /* \"#utility.yul\":3928:3937   */\n      dup7\n        /* \"#utility.yul\":3924:3946   */\n      add\n        /* \"#utility.yul\":3903:3956   */\n      tag_79\n      jump\t// in\n    tag_184:\n        /* \"#utility.yul\":3893:3956   */\n      swap3\n      pop\n        /* \"#utility.yul\":3849:3966   */\n      pop\n        /* \"#utility.yul\":4033:4035   */\n      0x20\n        /* \"#utility.yul\":4022:4031   */\n      dup4\n        /* \"#utility.yul\":4018:4036   */\n      add\n        /* \"#utility.yul\":4005:4037   */\n      calldataload\n        /* \"#utility.yul\":4064:4082   */\n      0xffffffffffffffff\n        /* \"#utility.yul\":4056:4062   */\n      dup2\n        /* \"#utility.yul\":4053:4083   */\n      gt\n        /* \"#utility.yul\":4050:4167   */\n      iszero\n      tag_185\n      jumpi\n        /* \"#utility.yul\":4086:4165   */\n      tag_186\n      tag_75\n      jump\t// in\n    tag_186:\n        /* \"#utility.yul\":4050:4167   */\n    tag_185:\n        /* \"#utility.yul\":4191:4269   */\n      tag_187\n        /* \"#utility.yul\":4261:4268   */\n      dup6\n        /* \"#utility.yul\":4252:4258   */\n      dup3\n        /* \"#utility.yul\":4241:4250   */\n      dup7\n        /* \"#utility.yul\":4237:4259   */\n      add\n        /* \"#utility.yul\":4191:4269   */\n      tag_91\n      jump\t// in\n    tag_187:\n        /* \"#utility.yul\":4181:4269   */\n      swap2\n      pop\n        /* \"#utility.yul\":3976:4279   */\n      pop\n        /* \"#utility.yul\":3602:4286   */\n      swap3\n      pop\n      swap3\n      swap1\n      pop\n      jump\t// out\n        /* \"#utility.yul\":4292:4621   */\n    tag_14:\n        /* \"#utility.yul\":4351:4357   */\n      0x00\n        /* \"#utility.yul\":4400:4402   */\n      0x20\n        /* \"#utility.yul\":4388:4397   */\n      dup3\n        /* \"#utility.yul\":4379:4386   */\n      dup5\n        /* \"#utility.yul\":4375:4398   */\n      sub\n        /* \"#utility.yul\":4371:4403   */\n      slt\n        /* \"#utility.yul\":4368:4487   */\n      iszero\n      tag_189\n      jumpi\n        /* \"#utility.yul\":4406:4485   */\n      tag_190\n      tag_74\n      jump\t// in\n    tag_190:\n        /* \"#utility.yul\":4368:4487   */\n    tag_189:\n        /* \"#utility.yul\":4526:4527   */\n      0x00\n        /* \"#utility.yul\":4551:4604   */\n      tag_191\n        /* \"#utility.yul\":4596:4603   */\n      dup5\n        /* \"#utility.yul\":4587:4593   */\n      dup3\n        /* \"#utility.yul\":4576:4585   */\n      dup6\n        /* \"#utility.yul\":4572:4594   */\n      add\n        /* \"#utility.yul\":4551:4604   */\n      tag_79\n      jump\t// in\n    tag_191:\n        /* \"#utility.yul\":4541:4604   */\n      swap2\n      pop\n        /* \"#utility.yul\":4497:4614   */\n      pop\n        /* \"#utility.yul\":4292:4621   */\n      swap3\n      swap2\n      pop\n      pop\n      jump\t// out\n        /* \"#utility.yul\":4627:4744   */\n    tag_92:\n        /* \"#utility.yul\":4736:4737   */\n      0x00\n        /* \"#utility.yul\":4733:4734   */\n      dup1\n        /* \"#utility.yul\":4726:4738   */\n      revert\n        /* \"#utility.yul\":4750:5058   */\n    tag_93:\n        /* \"#utility.yul\":4812:4816   */\n      0x00\n        /* \"#utility.yul\":4902:4920   */\n      0xffffffffffffffff\n        /* \"#utility.yul\":4894:4900   */\n      dup3\n        /* \"#utility.yul\":4891:4921   */\n      gt\n        /* \"#utility.yul\":4888:4944   */\n      iszero\n      tag_194\n      jumpi\n        /* \"#utility.yul\":4924:4942   */\n      tag_195\n      tag_82\n      jump\t// in\n    tag_195:\n        /* \"#utility.yul\":4888:4944   */\n    tag_194:\n        /* \"#utility.yul\":4962:4991   */\n      tag_196\n        /* \"#utility.yul\":4984:4990   */\n      dup3\n        /* \"#utility.yul\":4962:4991   */\n      tag_81\n      jump\t// in\n    tag_196:\n        /* \"#utility.yul\":4954:4991   */\n      swap1\n      pop\n        /* \"#utility.yul\":5046:5050   */\n      0x20\n        /* \"#utility.yul\":5040:5044   */\n      dup2\n        /* \"#utility.yul\":5036:5051   */\n      add\n        /* \"#utility.yul\":5028:5051   */\n      swap1\n      pop\n        /* \"#utility.yul\":4750:5058   */\n      swap2\n      swap1\n      pop\n      jump\t// out\n        /* \"#utility.yul\":5064:5210   */\n    tag_94:\n        /* \"#utility.yul\":5161:5167   */\n      dup3\n        /* \"#utility.yul\":5156:5159   */\n      dup2\n        /* \"#utility.yul\":5151:5154   */\n      dup4\n        /* \"#utility.yul\":5138:5168   */\n      calldatacopy\n        /* \"#utility.yul\":5202:5203   */\n      0x00\n        /* \"#utility.yul\":5193:5199   */\n      dup4\n        /* \"#utility.yul\":5188:5191   */\n      dup4\n        /* \"#utility.yul\":5184:5200   */\n      add\n        /* \"#utility.yul\":5177:5204   */\n      mstore\n        /* \"#utility.yul\":5064:5210   */\n      pop\n      pop\n      pop\n      jump\t// out\n        /* \"#utility.yul\":5216:5641   */\n    tag_95:\n        /* \"#utility.yul\":5294:5299   */\n      0x00\n        /* \"#utility.yul\":5319:5385   */\n      tag_199\n        /* \"#utility.yul\":5335:5384   */\n      tag_200\n        /* \"#utility.yul\":5377:5383   */\n      dup5\n        /* \"#utility.yul\":5335:5384   */\n      tag_93\n      jump\t// in\n    tag_200:\n        /* \"#utility.yul\":5319:5385   */\n      tag_84\n      jump\t// in\n    tag_199:\n        /* \"#utility.yul\":5310:5385   */\n      swap1\n      pop\n        /* \"#utility.yul\":5408:5414   */\n      dup3\n        /* \"#utility.yul\":5401:5406   */\n      dup2\n        /* \"#utility.yul\":5394:5415   */\n      mstore\n        /* \"#utility.yul\":5446:5450   */\n      0x20\n        /* \"#utility.yul\":5439:5444   */\n      dup2\n        /* \"#utility.yul\":5435:5451   */\n      add\n        /* \"#utility.yul\":5484:5487   */\n      dup5\n        /* \"#utility.yul\":5475:5481   */\n      dup5\n        /* \"#utility.yul\":5470:5473   */\n      dup5\n        /* \"#utility.yul\":5466:5482   */\n      add\n        /* \"#utility.yul\":5463:5488   */\n      gt\n        /* \"#utility.yul\":5460:5572   */\n      iszero\n      tag_201\n      jumpi\n        /* \"#utility.yul\":5491:5570   */\n      tag_202\n      tag_92\n      jump\t// in\n    tag_202:\n        /* \"#utility.yul\":5460:5572   */\n    tag_201:\n        /* \"#utility.yul\":5581:5635   */\n      tag_203\n        /* \"#utility.yul\":5628:5634   */\n      dup5\n        /* \"#utility.yul\":5623:5626   */\n      dup3\n        /* \"#utility.yul\":5618:5621   */\n      dup6\n        /* \"#utility.yul\":5581:5635   */\n      tag_94\n      jump\t// in\n    tag_203:\n        /* \"#utility.yul\":5300:5641   */\n      pop\n        /* \"#utility.yul\":5216:5641   */\n      swap4\n      swap3\n      pop\n      pop\n      pop\n      jump\t// out\n        /* \"#utility.yul\":5661:6001   */\n    tag_96:\n        /* \"#utility.yul\":5717:5722   */\n      0x00\n        /* \"#utility.yul\":5766:5769   */\n      dup3\n        /* \"#utility.yul\":5759:5763   */\n      0x1f\n        /* \"#utility.yul\":5751:5757   */\n      dup4\n        /* \"#utility.yul\":5747:5764   */\n      add\n        /* \"#utility.yul\":5743:5770   */\n      slt\n        /* \"#utility.yul\":5733:5855   */\n      tag_205\n      jumpi\n        /* \"#utility.yul\":5774:5853   */\n      tag_206\n      tag_80\n      jump\t// in\n    tag_206:\n        /* \"#utility.yul\":5733:5855   */\n    tag_205:\n        /* \"#utility.yul\":5891:5897   */\n      dup2\n        /* \"#utility.yul\":5878:5898   */\n      calldataload\n        /* \"#utility.yul\":5916:5995   */\n      tag_207\n        /* \"#utility.yul\":5991:5994   */\n      dup5\n        /* \"#utility.yul\":5983:5989   */\n      dup3\n        /* \"#utility.yul\":5976:5980   */\n      0x20\n        /* \"#utility.yul\":5968:5974   */\n      dup7\n        /* \"#utility.yul\":5964:5981   */\n      add\n        /* \"#utility.yul\":5916:5995   */\n      tag_95\n      jump\t// in\n    tag_207:\n        /* \"#utility.yul\":5907:5995   */\n      swap2\n      pop\n        /* \"#utility.yul\":5723:6001   */\n      pop\n        /* \"#utility.yul\":5661:6001   */\n      swap3\n      swap2\n      pop\n      pop\n      jump\t// out\n        /* \"#utility.yul\":6007:6116   */\n    tag_97:\n        /* \"#utility.yul\":6090:6091   */\n      0x06\n        /* \"#utility.yul\":6083:6088   */\n      dup2\n        /* \"#utility.yul\":6080:6092   */\n      lt\n        /* \"#utility.yul\":6070:6110   */\n      tag_209\n      jumpi\n        /* \"#utility.yul\":6106:6107   */\n      0x00\n        /* \"#utility.yul\":6103:6104   */\n      dup1\n        /* \"#utility.yul\":6096:6108   */\n      revert\n        /* \"#utility.yul\":6070:6110   */\n    tag_209:\n        /* \"#utility.yul\":6007:6116   */\n      pop\n      jump\t// out\n        /* \"#utility.yul\":6122:6281   */\n    tag_98:\n        /* \"#utility.yul\":6178:6183   */\n      0x00\n        /* \"#utility.yul\":6216:6222   */\n      dup2\n        /* \"#utility.yul\":6203:6223   */\n      calldataload\n        /* \"#utility.yul\":6194:6223   */\n      swap1\n      pop\n        /* \"#utility.yul\":6232:6275   */\n      tag_211\n        /* \"#utility.yul\":6269:6274   */\n      dup2\n        /* \"#utility.yul\":6232:6275   */\n      tag_97\n      jump\t// in\n    tag_211:\n        /* \"#utility.yul\":6122:6281   */\n      swap3\n      swap2\n      pop\n      pop\n      jump\t// out\n        /* \"#utility.yul\":6287:7252   */\n    tag_18:\n        /* \"#utility.yul\":6393:6399   */\n      0x00\n        /* \"#utility.yul\":6401:6407   */\n      dup1\n        /* \"#utility.yul\":6409:6415   */\n      0x00\n        /* \"#utility.yul\":6417:6423   */\n      dup1\n        /* \"#utility.yul\":6466:6469   */\n      0x80\n        /* \"#utility.yul\":6454:6463   */\n      dup6\n        /* \"#utility.yul\":6445:6452   */\n      dup8\n        /* \"#utility.yul\":6441:6464   */\n      sub\n        /* \"#utility.yul\":6437:6470   */\n      slt\n        /* \"#utility.yul\":6434:6554   */\n      iszero\n      tag_213\n      jumpi\n        /* \"#utility.yul\":6473:6552   */\n      tag_214\n      tag_74\n      jump\t// in\n    tag_214:\n        /* \"#utility.yul\":6434:6554   */\n    tag_213:\n        /* \"#utility.yul\":6593:6594   */\n      0x00\n        /* \"#utility.yul\":6618:6671   */\n      tag_215\n        /* \"#utility.yul\":6663:6670   */\n      dup8\n        /* \"#utility.yul\":6654:6660   */\n      dup3\n        /* \"#utility.yul\":6643:6652   */\n      dup9\n        /* \"#utility.yul\":6639:6661   */\n      add\n        /* \"#utility.yul\":6618:6671   */\n      tag_79\n      jump\t// in\n    tag_215:\n        /* \"#utility.yul\":6608:6671   */\n      swap5\n      pop\n        /* \"#utility.yul\":6564:6681   */\n      pop\n        /* \"#utility.yul\":6748:6750   */\n      0x20\n        /* \"#utility.yul\":6737:6746   */\n      dup6\n        /* \"#utility.yul\":6733:6751   */\n      add\n        /* \"#utility.yul\":6720:6752   */\n      calldataload\n        /* \"#utility.yul\":6779:6797   */\n      0xffffffffffffffff\n        /* \"#utility.yul\":6771:6777   */\n      dup2\n        /* \"#utility.yul\":6768:6798   */\n      gt\n        /* \"#utility.yul\":6765:6882   */\n      iszero\n      tag_216\n      jumpi\n        /* \"#utility.yul\":6801:6880   */\n      tag_217\n      tag_75\n      jump\t// in\n    tag_217:\n        /* \"#utility.yul\":6765:6882   */\n    tag_216:\n        /* \"#utility.yul\":6906:6969   */\n      tag_218\n        /* \"#utility.yul\":6961:6968   */\n      dup8\n        /* \"#utility.yul\":6952:6958   */\n      dup3\n        /* \"#utility.yul\":6941:6950   */\n      dup9\n        /* \"#utility.yul\":6937:6959   */\n      add\n        /* \"#utility.yul\":6906:6969   */\n      tag_96\n      jump\t// in\n    tag_218:\n        /* \"#utility.yul\":6896:6969   */\n      swap4\n      pop\n        /* \"#utility.yul\":6691:6979   */\n      pop\n        /* \"#utility.yul\":7018:7020   */\n      0x40\n        /* \"#utility.yul\":7044:7097   */\n      tag_219\n        /* \"#utility.yul\":7089:7096   */\n      dup8\n        /* \"#utility.yul\":7080:7086   */\n      dup3\n        /* \"#utility.yul\":7069:7078   */\n      dup9\n        /* \"#utility.yul\":7065:7087   */\n      add\n        /* \"#utility.yul\":7044:7097   */\n      tag_89\n      jump\t// in\n    tag_219:\n        /* \"#utility.yul\":7034:7097   */\n      swap3\n      pop\n        /* \"#utility.yul\":6989:7107   */\n      pop\n        /* \"#utility.yul\":7146:7148   */\n      0x60\n        /* \"#utility.yul\":7172:7235   */\n      tag_220\n        /* \"#utility.yul\":7227:7234   */\n      dup8\n        /* \"#utility.yul\":7218:7224   */\n      dup3\n        /* \"#utility.yul\":7207:7216   */\n      dup9\n        /* \"#utility.yul\":7203:7225   */\n      add\n        /* \"#utility.yul\":7172:7235   */\n      tag_98\n      jump\t// in\n    tag_220:\n        /* \"#utility.yul\":7162:7235   */\n      swap2\n      pop\n        /* \"#utility.yul\":7117:7245   */\n      pop\n        /* \"#utility.yul\":6287:7252   */\n      swap3\n      swap6\n      swap2\n      swap5\n      pop\n      swap3\n      pop\n      jump\t// out\n        /* \"#utility.yul\":7258:7357   */\n    tag_99:\n        /* \"#utility.yul\":7310:7316   */\n      0x00\n        /* \"#utility.yul\":7344:7349   */\n      dup2\n        /* \"#utility.yul\":7338:7350   */\n      mload\n        /* \"#utility.yul\":7328:7350   */\n      swap1\n      pop\n        /* \"#utility.yul\":7258:7357   */\n      swap2\n      swap1\n      pop\n      jump\t// out\n        /* \"#utility.yul\":7363:7532   */\n    tag_100:\n        /* \"#utility.yul\":7447:7458   */\n      0x00\n        /* \"#utility.yul\":7481:7487   */\n      dup3\n        /* \"#utility.yul\":7476:7479   */\n      dup3\n        /* \"#utility.yul\":7469:7488   */\n      mstore\n        /* \"#utility.yul\":7521:7525   */\n      0x20\n        /* \"#utility.yul\":7516:7519   */\n      dup3\n        /* \"#utility.yul\":7512:7526   */\n      add\n        /* \"#utility.yul\":7497:7526   */\n      swap1\n      pop\n        /* \"#utility.yul\":7363:7532   */\n      swap3\n      swap2\n      pop\n      pop\n      jump\t// out\n        /* \"#utility.yul\":7538:7784   */\n    tag_101:\n        /* \"#utility.yul\":7619:7620   */\n      0x00\n        /* \"#utility.yul\":7629:7742   */\n    tag_224:\n        /* \"#utility.yul\":7643:7649   */\n      dup4\n        /* \"#utility.yul\":7640:7641   */\n      dup2\n        /* \"#utility.yul\":7637:7650   */\n      lt\n        /* \"#utility.yul\":7629:7742   */\n      iszero\n      tag_226\n      jumpi\n        /* \"#utility.yul\":7728:7729   */\n      dup1\n        /* \"#utility.yul\":7723:7726   */\n      dup3\n        /* \"#utility.yul\":7719:7730   */\n      add\n        /* \"#utility.yul\":7713:7731   */\n      mload\n        /* \"#utility.yul\":7709:7710   */\n      dup2\n        /* \"#utility.yul\":7704:7707   */\n      dup5\n        /* \"#utility.yul\":7700:7711   */\n      add\n        /* \"#utility.yul\":7693:7732   */\n      mstore\n        /* \"#utility.yul\":7665:7667   */\n      0x20\n        /* \"#utility.yul\":7662:7663   */\n      dup2\n        /* \"#utility.yul\":7658:7668   */\n      add\n        /* \"#utility.yul\":7653:7668   */\n      swap1\n      pop\n        /* \"#utility.yul\":7629:7742   */\n      jump(tag_224)\n    tag_226:\n        /* \"#utility.yul\":7776:7777   */\n      0x00\n        /* \"#utility.yul\":7767:7773   */\n      dup5\n        /* \"#utility.yul\":7762:7765   */\n      dup5\n        /* \"#utility.yul\":7758:7774   */\n      add\n        /* \"#utility.yul\":7751:7778   */\n      mstore\n        /* \"#utility.yul\":7600:7784   */\n      pop\n        /* \"#utility.yul\":7538:7784   */\n      pop\n      pop\n      pop\n      jump\t// out\n        /* \"#utility.yul\":7790:8167   */\n    tag_102:\n        /* \"#utility.yul\":7878:7881   */\n      0x00\n        /* \"#utility.yul\":7906:7945   */\n      tag_228\n        /* \"#utility.yul\":7939:7944   */\n      dup3\n        /* \"#utility.yul\":7906:7945   */\n      tag_99\n      jump\t// in\n    tag_228:\n        /* \"#utility.yul\":7961:8032   */\n      tag_229\n        /* \"#utility.yul\":8025:8031   */\n      dup2\n        /* \"#utility.yul\":8020:8023   */\n      dup6\n        /* \"#utility.yul\":7961:8032   */\n      tag_100\n      jump\t// in\n    tag_229:\n        /* \"#utility.yul\":7954:8032   */\n      swap4\n      pop\n        /* \"#utility.yul\":8041:8106   */\n      tag_230\n        /* \"#utility.yul\":8099:8105   */\n      dup2\n        /* \"#utility.yul\":8094:8097   */\n      dup6\n        /* \"#utility.yul\":8087:8091   */\n      0x20\n        /* \"#utility.yul\":8080:8085   */\n      dup7\n        /* \"#utility.yul\":8076:8092   */\n      add\n        /* \"#utility.yul\":8041:8106   */\n      tag_101\n      jump\t// in\n    tag_230:\n        /* \"#utility.yul\":8131:8160   */\n      tag_231\n        /* \"#utility.yul\":8153:8159   */\n      dup2\n        /* \"#utility.yul\":8131:8160   */\n      tag_81\n      jump\t// in\n    tag_231:\n        /* \"#utility.yul\":8126:8129   */\n      dup5\n        /* \"#utility.yul\":8122:8161   */\n      add\n        /* \"#utility.yul\":8115:8161   */\n      swap2\n      pop\n        /* \"#utility.yul\":7882:8167   */\n      pop\n        /* \"#utility.yul\":7790:8167   */\n      swap3\n      swap2\n      pop\n      pop\n      jump\t// out\n        /* \"#utility.yul\":8173:8291   */\n    tag_103:\n        /* \"#utility.yul\":8260:8284   */\n      tag_233\n        /* \"#utility.yul\":8278:8283   */\n      dup2\n        /* \"#utility.yul\":8260:8284   */\n      tag_87\n      jump\t// in\n    tag_233:\n        /* \"#utility.yul\":8255:8258   */\n      dup3\n        /* \"#utility.yul\":8248:8285   */\n      mstore\n        /* \"#utility.yul\":8173:8291   */\n      pop\n      pop\n      jump\t// out\n        /* \"#utility.yul\":8297:8477   */\n    tag_50:\n        /* \"#utility.yul\":8345:8422   */\n      0x4e487b7100000000000000000000000000000000000000000000000000000000\n        /* \"#utility.yul\":8342:8343   */\n      0x00\n        /* \"#utility.yul\":8335:8423   */\n      mstore\n        /* \"#utility.yul\":8442:8446   */\n      0x21\n        /* \"#utility.yul\":8439:8440   */\n      0x04\n        /* \"#utility.yul\":8432:8447   */\n      mstore\n        /* \"#utility.yul\":8466:8470   */\n      0x24\n        /* \"#utility.yul\":8463:8464   */\n      0x00\n        /* \"#utility.yul\":8456:8471   */\n      revert\n        /* \"#utility.yul\":8483:8598   */\n    tag_104:\n        /* \"#utility.yul\":8566:8567   */\n      0x06\n        /* \"#utility.yul\":8559:8564   */\n      dup2\n        /* \"#utility.yul\":8556:8568   */\n      lt\n        /* \"#utility.yul\":8546:8592   */\n      tag_236\n      jumpi\n        /* \"#utility.yul\":8572:8590   */\n      tag_237\n      tag_50\n      jump\t// in\n    tag_237:\n        /* \"#utility.yul\":8546:8592   */\n    tag_236:\n        /* \"#utility.yul\":8483:8598   */\n      pop\n      jump\t// out\n        /* \"#utility.yul\":8604:8735   */\n    tag_105:\n        /* \"#utility.yul\":8651:8658   */\n      0x00\n        /* \"#utility.yul\":8680:8685   */\n      dup2\n        /* \"#utility.yul\":8669:8685   */\n      swap1\n      pop\n        /* \"#utility.yul\":8686:8729   */\n      tag_239\n        /* \"#utility.yul\":8723:8728   */\n      dup3\n        /* \"#utility.yul\":8686:8729   */\n      tag_104\n      jump\t// in\n    tag_239:\n        /* \"#utility.yul\":8604:8735   */\n      swap2\n      swap1\n      pop\n      jump\t// out\n        /* \"#utility.yul\":8741:8872   */\n    tag_106:\n        /* \"#utility.yul\":8799:8808   */\n      0x00\n        /* \"#utility.yul\":8832:8866   */\n      tag_241\n        /* \"#utility.yul\":8860:8865   */\n      dup3\n        /* \"#utility.yul\":8832:8866   */\n      tag_105\n      jump\t// in\n    tag_241:\n        /* \"#utility.yul\":8819:8866   */\n      swap1\n      pop\n        /* \"#utility.yul\":8741:8872   */\n      swap2\n      swap1\n      pop\n      jump\t// out\n        /* \"#utility.yul\":8878:9025   */\n    tag_107:\n        /* \"#utility.yul\":8973:9018   */\n      tag_243\n        /* \"#utility.yul\":9012:9017   */\n      dup2\n        /* \"#utility.yul\":8973:9018   */\n      tag_106\n      jump\t// in\n    tag_243:\n        /* \"#utility.yul\":8968:8971   */\n      dup3\n        /* \"#utility.yul\":8961:9019   */\n      mstore\n        /* \"#utility.yul\":8878:9025   */\n      pop\n      pop\n      jump\t// out\n        /* \"#utility.yul\":9031:9580   */\n    tag_24:\n        /* \"#utility.yul\":9208:9212   */\n      0x00\n        /* \"#utility.yul\":9246:9248   */\n      0x60\n        /* \"#utility.yul\":9235:9244   */\n      dup3\n        /* \"#utility.yul\":9231:9249   */\n      add\n        /* \"#utility.yul\":9223:9249   */\n      swap1\n      pop\n        /* \"#utility.yul\":9295:9304   */\n      dup2\n        /* \"#utility.yul\":9289:9293   */\n      dup2\n        /* \"#utility.yul\":9285:9305   */\n      sub\n        /* \"#utility.yul\":9281:9282   */\n      0x00\n        /* \"#utility.yul\":9270:9279   */\n      dup4\n        /* \"#utility.yul\":9266:9283   */\n      add\n        /* \"#utility.yul\":9259:9306   */\n      mstore\n        /* \"#utility.yul\":9323:9401   */\n      tag_245\n        /* \"#utility.yul\":9396:9400   */\n      dup2\n        /* \"#utility.yul\":9387:9393   */\n      dup7\n        /* \"#utility.yul\":9323:9401   */\n      tag_102\n      jump\t// in\n    tag_245:\n        /* \"#utility.yul\":9315:9401   */\n      swap1\n      pop\n        /* \"#utility.yul\":9411:9483   */\n      tag_246\n        /* \"#utility.yul\":9479:9481   */\n      0x20\n        /* \"#utility.yul\":9468:9477   */\n      dup4\n        /* \"#utility.yul\":9464:9482   */\n      add\n        /* \"#utility.yul\":9455:9461   */\n      dup6\n        /* \"#utility.yul\":9411:9483   */\n      tag_103\n      jump\t// in\n    tag_246:\n        /* \"#utility.yul\":9493:9573   */\n      tag_247\n        /* \"#utility.yul\":9569:9571   */\n      0x40\n        /* \"#utility.yul\":9558:9567   */\n      dup4\n        /* \"#utility.yul\":9554:9572   */\n      add\n        /* \"#utility.yul\":9545:9551   */\n      dup5\n        /* \"#utility.yul\":9493:9573   */\n      tag_107\n      jump\t// in\n    tag_247:\n        /* \"#utility.yul\":9031:9580   */\n      swap5\n      swap4\n      pop\n      pop\n      pop\n      pop\n      jump\t// out\n        /* \"#utility.yul\":9586:9745   */\n    tag_108:\n        /* \"#utility.yul\":9660:9671   */\n      0x00\n        /* \"#utility.yul\":9694:9700   */\n      dup3\n        /* \"#utility.yul\":9689:9692   */\n      dup3\n        /* \"#utility.yul\":9682:9701   */\n      mstore\n        /* \"#utility.yul\":9734:9738   */\n      0x20\n        /* \"#utility.yul\":9729:9732   */\n      dup3\n        /* \"#utility.yul\":9725:9739   */\n      add\n        /* \"#utility.yul\":9710:9739   */\n      swap1\n      pop\n        /* \"#utility.yul\":9586:9745   */\n      swap3\n      swap2\n      pop\n      pop\n      jump\t// out\n        /* \"#utility.yul\":9751:10108   */\n    tag_109:\n        /* \"#utility.yul\":9829:9832   */\n      0x00\n        /* \"#utility.yul\":9857:9896   */\n      tag_250\n        /* \"#utility.yul\":9890:9895   */\n      dup3\n        /* \"#utility.yul\":9857:9896   */\n      tag_99\n      jump\t// in\n    tag_250:\n        /* \"#utility.yul\":9912:9973   */\n      tag_251\n        /* \"#utility.yul\":9966:9972   */\n      dup2\n        /* \"#utility.yul\":9961:9964   */\n      dup6\n        /* \"#utility.yul\":9912:9973   */\n      tag_108\n      jump\t// in\n    tag_251:\n        /* \"#utility.yul\":9905:9973   */\n      swap4\n      pop\n        /* \"#utility.yul\":9982:10047   */\n      tag_252\n        /* \"#utility.yul\":10040:10046   */\n      dup2\n        /* \"#utility.yul\":10035:10038   */\n      dup6\n        /* \"#utility.yul\":10028:10032   */\n      0x20\n        /* \"#utility.yul\":10021:10026   */\n      dup7\n        /* \"#utility.yul\":10017:10033   */\n      add\n        /* \"#utility.yul\":9982:10047   */\n      tag_101\n      jump\t// in\n    tag_252:\n        /* \"#utility.yul\":10072:10101   */\n      tag_253\n        /* \"#utility.yul\":10094:10100   */\n      dup2\n        /* \"#utility.yul\":10072:10101   */\n      tag_81\n      jump\t// in\n    tag_253:\n        /* \"#utility.yul\":10067:10070   */\n      dup5\n        /* \"#utility.yul\":10063:10102   */\n      add\n        /* \"#utility.yul\":10056:10102   */\n      swap2\n      pop\n        /* \"#utility.yul\":9833:10108   */\n      pop\n        /* \"#utility.yul\":9751:10108   */\n      swap3\n      swap2\n      pop\n      pop\n      jump\t// out\n        /* \"#utility.yul\":10114:10222   */\n    tag_110:\n        /* \"#utility.yul\":10191:10215   */\n      tag_255\n        /* \"#utility.yul\":10209:10214   */\n      dup2\n        /* \"#utility.yul\":10191:10215   */\n      tag_87\n      jump\t// in\n    tag_255:\n        /* \"#utility.yul\":10186:10189   */\n      dup3\n        /* \"#utility.yul\":10179:10216   */\n      mstore\n        /* \"#utility.yul\":10114:10222   */\n      pop\n      pop\n      jump\t// out\n        /* \"#utility.yul\":10228:10365   */\n    tag_111:\n        /* \"#utility.yul\":10313:10358   */\n      tag_257\n        /* \"#utility.yul\":10352:10357   */\n      dup2\n        /* \"#utility.yul\":10313:10358   */\n      tag_106\n      jump\t// in\n    tag_257:\n        /* \"#utility.yul\":10308:10311   */\n      dup3\n        /* \"#utility.yul\":10301:10359   */\n      mstore\n        /* \"#utility.yul\":10228:10365   */\n      pop\n      pop\n      jump\t// out\n        /* \"#utility.yul\":10371:10485   */\n    tag_112:\n        /* \"#utility.yul\":10438:10444   */\n      0x00\n        /* \"#utility.yul\":10472:10477   */\n      dup2\n        /* \"#utility.yul\":10466:10478   */\n      mload\n        /* \"#utility.yul\":10456:10478   */\n      swap1\n      pop\n        /* \"#utility.yul\":10371:10485   */\n      swap2\n      swap1\n      pop\n      jump\t// out\n        /* \"#utility.yul\":10491:10665   */\n    tag_113:\n        /* \"#utility.yul\":10580:10591   */\n      0x00\n        /* \"#utility.yul\":10614:10620   */\n      dup3\n        /* \"#utility.yul\":10609:10612   */\n      dup3\n        /* \"#utility.yul\":10602:10621   */\n      mstore\n        /* \"#utility.yul\":10654:10658   */\n      0x20\n        /* \"#utility.yul\":10649:10652   */\n      dup3\n        /* \"#utility.yul\":10645:10659   */\n      add\n        /* \"#utility.yul\":10630:10659   */\n      swap1\n      pop\n        /* \"#utility.yul\":10491:10665   */\n      swap3\n      swap2\n      pop\n      pop\n      jump\t// out\n        /* \"#utility.yul\":10671:10803   */\n    tag_114:\n        /* \"#utility.yul\":10738:10742   */\n      0x00\n        /* \"#utility.yul\":10761:10764   */\n      dup2\n        /* \"#utility.yul\":10753:10764   */\n      swap1\n      pop\n        /* \"#utility.yul\":10791:10795   */\n      0x20\n        /* \"#utility.yul\":10786:10789   */\n      dup3\n        /* \"#utility.yul\":10782:10796   */\n      add\n        /* \"#utility.yul\":10774:10796   */\n      swap1\n      pop\n        /* \"#utility.yul\":10671:10803   */\n      swap2\n      swap1\n      pop\n      jump\t// out\n        /* \"#utility.yul\":10809:10988   */\n    tag_115:\n        /* \"#utility.yul\":10878:10888   */\n      0x00\n        /* \"#utility.yul\":10899:10945   */\n      tag_262\n        /* \"#utility.yul\":10941:10944   */\n      dup4\n        /* \"#utility.yul\":10933:10939   */\n      dup4\n        /* \"#utility.yul\":10899:10945   */\n      tag_110\n      jump\t// in\n    tag_262:\n        /* \"#utility.yul\":10977:10981   */\n      0x20\n        /* \"#utility.yul\":10972:10975   */\n      dup4\n        /* \"#utility.yul\":10968:10982   */\n      add\n        /* \"#utility.yul\":10954:10982   */\n      swap1\n      pop\n        /* \"#utility.yul\":10809:10988   */\n      swap3\n      swap2\n      pop\n      pop\n      jump\t// out\n        /* \"#utility.yul\":10994:11107   */\n    tag_116:\n        /* \"#utility.yul\":11064:11068   */\n      0x00\n        /* \"#utility.yul\":11096:11100   */\n      0x20\n        /* \"#utility.yul\":11091:11094   */\n      dup3\n        /* \"#utility.yul\":11087:11101   */\n      add\n        /* \"#utility.yul\":11079:11101   */\n      swap1\n      pop\n        /* \"#utility.yul\":10994:11107   */\n      swap2\n      swap1\n      pop\n      jump\t// out\n        /* \"#utility.yul\":11143:11855   */\n    tag_117:\n        /* \"#utility.yul\":11252:11255   */\n      0x00\n        /* \"#utility.yul\":11281:11335   */\n      tag_265\n        /* \"#utility.yul\":11329:11334   */\n      dup3\n        /* \"#utility.yul\":11281:11335   */\n      tag_112\n      jump\t// in\n    tag_265:\n        /* \"#utility.yul\":11351:11427   */\n      tag_266\n        /* \"#utility.yul\":11420:11426   */\n      dup2\n        /* \"#utility.yul\":11415:11418   */\n      dup6\n        /* \"#utility.yul\":11351:11427   */\n      tag_113\n      jump\t// in\n    tag_266:\n        /* \"#utility.yul\":11344:11427   */\n      swap4\n      pop\n        /* \"#utility.yul\":11451:11507   */\n      tag_267\n        /* \"#utility.yul\":11501:11506   */\n      dup4\n        /* \"#utility.yul\":11451:11507   */\n      tag_114\n      jump\t// in\n    tag_267:\n        /* \"#utility.yul\":11530:11537   */\n      dup1\n        /* \"#utility.yul\":11561:11562   */\n      0x00\n        /* \"#utility.yul\":11546:11830   */\n    tag_268:\n        /* \"#utility.yul\":11571:11577   */\n      dup4\n        /* \"#utility.yul\":11568:11569   */\n      dup2\n        /* \"#utility.yul\":11565:11578   */\n      lt\n        /* \"#utility.yul\":11546:11830   */\n      iszero\n      tag_270\n      jumpi\n        /* \"#utility.yul\":11647:11653   */\n      dup2\n        /* \"#utility.yul\":11641:11654   */\n      mload\n        /* \"#utility.yul\":11674:11737   */\n      tag_271\n        /* \"#utility.yul\":11733:11736   */\n      dup9\n        /* \"#utility.yul\":11718:11731   */\n      dup3\n        /* \"#utility.yul\":11674:11737   */\n      tag_115\n      jump\t// in\n    tag_271:\n        /* \"#utility.yul\":11667:11737   */\n      swap8\n      pop\n        /* \"#utility.yul\":11760:11820   */\n      tag_272\n        /* \"#utility.yul\":11813:11819   */\n      dup4\n        /* \"#utility.yul\":11760:11820   */\n      tag_116\n      jump\t// in\n    tag_272:\n        /* \"#utility.yul\":11750:11820   */\n      swap3\n      pop\n        /* \"#utility.yul\":11606:11830   */\n      pop\n        /* \"#utility.yul\":11593:11594   */\n      0x01\n        /* \"#utility.yul\":11590:11591   */\n      dup2\n        /* \"#utility.yul\":11586:11595   */\n      add\n        /* \"#utility.yul\":11581:11595   */\n      swap1\n      pop\n        /* \"#utility.yul\":11546:11830   */\n      jump(tag_268)\n    tag_270:\n        /* \"#utility.yul\":11550:11564   */\n      pop\n        /* \"#utility.yul\":11846:11849   */\n      dup6\n        /* \"#utility.yul\":11839:11849   */\n      swap4\n      pop\n        /* \"#utility.yul\":11257:11855   */\n      pop\n      pop\n      pop\n        /* \"#utility.yul\":11143:11855   */\n      swap3\n      swap2\n      pop\n      pop\n      jump\t// out\n        /* \"#utility.yul\":11905:12956   */\n    tag_118:\n        /* \"#utility.yul\":12012:12015   */\n      0x00\n        /* \"#utility.yul\":12048:12052   */\n      0x80\n        /* \"#utility.yul\":12043:12046   */\n      dup4\n        /* \"#utility.yul\":12039:12053   */\n      add\n        /* \"#utility.yul\":12135:12139   */\n      0x00\n        /* \"#utility.yul\":12128:12133   */\n      dup4\n        /* \"#utility.yul\":12124:12140   */\n      add\n        /* \"#utility.yul\":12118:12141   */\n      mload\n        /* \"#utility.yul\":12188:12191   */\n      dup5\n        /* \"#utility.yul\":12182:12186   */\n      dup3\n        /* \"#utility.yul\":12178:12192   */\n      sub\n        /* \"#utility.yul\":12171:12175   */\n      0x00\n        /* \"#utility.yul\":12166:12169   */\n      dup7\n        /* \"#utility.yul\":12162:12176   */\n      add\n        /* \"#utility.yul\":12155:12193   */\n      mstore\n        /* \"#utility.yul\":12214:12287   */\n      tag_274\n        /* \"#utility.yul\":12282:12286   */\n      dup3\n        /* \"#utility.yul\":12268:12280   */\n      dup3\n        /* \"#utility.yul\":12214:12287   */\n      tag_109\n      jump\t// in\n    tag_274:\n        /* \"#utility.yul\":12206:12287   */\n      swap2\n      pop\n        /* \"#utility.yul\":12063:12298   */\n      pop\n        /* \"#utility.yul\":12379:12383   */\n      0x20\n        /* \"#utility.yul\":12372:12377   */\n      dup4\n        /* \"#utility.yul\":12368:12384   */\n      add\n        /* \"#utility.yul\":12362:12385   */\n      mload\n        /* \"#utility.yul\":12398:12461   */\n      tag_275\n        /* \"#utility.yul\":12455:12459   */\n      0x20\n        /* \"#utility.yul\":12450:12453   */\n      dup7\n        /* \"#utility.yul\":12446:12460   */\n      add\n        /* \"#utility.yul\":12432:12444   */\n      dup3\n        /* \"#utility.yul\":12398:12461   */\n      tag_110\n      jump\t// in\n    tag_275:\n        /* \"#utility.yul\":12308:12471   */\n      pop\n        /* \"#utility.yul\":12553:12557   */\n      0x40\n        /* \"#utility.yul\":12546:12551   */\n      dup4\n        /* \"#utility.yul\":12542:12558   */\n      add\n        /* \"#utility.yul\":12536:12559   */\n      mload\n        /* \"#utility.yul\":12572:12643   */\n      tag_276\n        /* \"#utility.yul\":12637:12641   */\n      0x40\n        /* \"#utility.yul\":12632:12635   */\n      dup7\n        /* \"#utility.yul\":12628:12642   */\n      add\n        /* \"#utility.yul\":12614:12626   */\n      dup3\n        /* \"#utility.yul\":12572:12643   */\n      tag_111\n      jump\t// in\n    tag_276:\n        /* \"#utility.yul\":12481:12653   */\n      pop\n        /* \"#utility.yul\":12736:12740   */\n      0x60\n        /* \"#utility.yul\":12729:12734   */\n      dup4\n        /* \"#utility.yul\":12725:12741   */\n      add\n        /* \"#utility.yul\":12719:12742   */\n      mload\n        /* \"#utility.yul\":12789:12792   */\n      dup5\n        /* \"#utility.yul\":12783:12787   */\n      dup3\n        /* \"#utility.yul\":12779:12793   */\n      sub\n        /* \"#utility.yul\":12772:12776   */\n      0x60\n        /* \"#utility.yul\":12767:12770   */\n      dup7\n        /* \"#utility.yul\":12763:12777   */\n      add\n        /* \"#utility.yul\":12756:12794   */\n      mstore\n        /* \"#utility.yul\":12815:12918   */\n      tag_277\n        /* \"#utility.yul\":12913:12917   */\n      dup3\n        /* \"#utility.yul\":12899:12911   */\n      dup3\n        /* \"#utility.yul\":12815:12918   */\n      tag_117\n      jump\t// in\n    tag_277:\n        /* \"#utility.yul\":12807:12918   */\n      swap2\n      pop\n        /* \"#utility.yul\":12663:12929   */\n      pop\n        /* \"#utility.yul\":12946:12950   */\n      dup1\n        /* \"#utility.yul\":12939:12950   */\n      swap2\n      pop\n        /* \"#utility.yul\":12017:12956   */\n      pop\n        /* \"#utility.yul\":11905:12956   */\n      swap3\n      swap2\n      pop\n      pop\n      jump\t// out\n        /* \"#utility.yul\":12962:13311   */\n    tag_29:\n        /* \"#utility.yul\":13093:13097   */\n      0x00\n        /* \"#utility.yul\":13131:13133   */\n      0x20\n        /* \"#utility.yul\":13120:13129   */\n      dup3\n        /* \"#utility.yul\":13116:13134   */\n      add\n        /* \"#utility.yul\":13108:13134   */\n      swap1\n      pop\n        /* \"#utility.yul\":13180:13189   */\n      dup2\n        /* \"#utility.yul\":13174:13178   */\n      dup2\n        /* \"#utility.yul\":13170:13190   */\n      sub\n        /* \"#utility.yul\":13166:13167   */\n      0x00\n        /* \"#utility.yul\":13155:13164   */\n      dup4\n        /* \"#utility.yul\":13151:13168   */\n      add\n        /* \"#utility.yul\":13144:13191   */\n      mstore\n        /* \"#utility.yul\":13208:13304   */\n      tag_279\n        /* \"#utility.yul\":13299:13303   */\n      dup2\n        /* \"#utility.yul\":13290:13296   */\n      dup5\n        /* \"#utility.yul\":13208:13304   */\n      tag_118\n      jump\t// in\n    tag_279:\n        /* \"#utility.yul\":13200:13304   */\n      swap1\n      pop\n        /* \"#utility.yul\":12962:13311   */\n      swap3\n      swap2\n      pop\n      pop\n      jump\t// out\n        /* \"#utility.yul\":13317:13497   */\n    tag_36:\n        /* \"#utility.yul\":13365:13442   */\n      0x4e487b7100000000000000000000000000000000000000000000000000000000\n        /* \"#utility.yul\":13362:13363   */\n      0x00\n        /* \"#utility.yul\":13355:13443   */\n      mstore\n        /* \"#utility.yul\":13462:13466   */\n      0x32\n        /* \"#utility.yul\":13459:13460   */\n      0x04\n        /* \"#utility.yul\":13452:13467   */\n      mstore\n        /* \"#utility.yul\":13486:13490   */\n      0x24\n        /* \"#utility.yul\":13483:13484   */\n      0x00\n        /* \"#utility.yul\":13476:13491   */\n      revert\n        /* \"#utility.yul\":13503:13683   */\n    tag_119:\n        /* \"#utility.yul\":13551:13628   */\n      0x4e487b7100000000000000000000000000000000000000000000000000000000\n        /* \"#utility.yul\":13548:13549   */\n      0x00\n        /* \"#utility.yul\":13541:13629   */\n      mstore\n        /* \"#utility.yul\":13648:13652   */\n      0x11\n        /* \"#utility.yul\":13645:13646   */\n      0x04\n        /* \"#utility.yul\":13638:13653   */\n      mstore\n        /* \"#utility.yul\":13672:13676   */\n      0x24\n        /* \"#utility.yul\":13669:13670   */\n      0x00\n        /* \"#utility.yul\":13662:13677   */\n      revert\n        /* \"#utility.yul\":13689:13922   */\n    tag_39:\n        /* \"#utility.yul\":13728:13731   */\n      0x00\n        /* \"#utility.yul\":13751:13775   */\n      tag_283\n        /* \"#utility.yul\":13769:13774   */\n      dup3\n        /* \"#utility.yul\":13751:13775   */\n      tag_87\n      jump\t// in\n    tag_283:\n        /* \"#utility.yul\":13742:13775   */\n      swap2\n      pop\n        /* \"#utility.yul\":13797:13863   */\n      0xffffffffffffffffffffffffffffffffffffffffffffffffffffffffffffffff\n        /* \"#utility.yul\":13790:13795   */\n      dup3\n        /* \"#utility.yul\":13787:13864   */\n      sub\n        /* \"#utility.yul\":13784:13887   */\n      tag_284\n      jumpi\n        /* \"#utility.yul\":13867:13885   */\n      tag_285\n      tag_119\n      jump\t// in\n    tag_285:\n        /* \"#utility.yul\":13784:13887   */\n    tag_284:\n        /* \"#utility.yul\":13914:13915   */\n      0x01\n        /* \"#utility.yul\":13907:13912   */\n      dup3\n        /* \"#utility.yul\":13903:13916   */\n      add\n        /* \"#utility.yul\":13896:13916   */\n      swap1\n      pop\n        /* \"#utility.yul\":13689:13922   */\n      swap2\n      swap1\n      pop\n      jump\t// out\n        /* \"#utility.yul\":13928:14108   */\n    tag_43:\n        /* \"#utility.yul\":13976:14053   */\n      0x4e487b7100000000000000000000000000000000000000000000000000000000\n        /* \"#utility.yul\":13973:13974   */\n      0x00\n        /* \"#utility.yul\":13966:14054   */\n      mstore\n        /* \"#utility.yul\":14073:14077   */\n      0x31\n        /* \"#utility.yul\":14070:14071   */\n      0x04\n        /* \"#utility.yul\":14063:14078   */\n      mstore\n        /* \"#utility.yul\":14097:14101   */\n      0x24\n        /* \"#utility.yul\":14094:14095   */\n      0x00\n        /* \"#utility.yul\":14087:14102   */\n      revert\n        /* \"#utility.yul\":14114:14294   */\n    tag_120:\n        /* \"#utility.yul\":14162:14239   */\n      0x4e487b7100000000000000000000000000000000000000000000000000000000\n        /* \"#utility.yul\":14159:14160   */\n      0x00\n        /* \"#utility.yul\":14152:14240   */\n      mstore\n        /* \"#utility.yul\":14259:14263   */\n      0x22\n        /* \"#utility.yul\":14256:14257   */\n      0x04\n        /* \"#utility.yul\":14249:14264   */\n      mstore\n        /* \"#utility.yul\":14283:14287   */\n      0x24\n        /* \"#utility.yul\":14280:14281   */\n      0x00\n        /* \"#utility.yul\":14273:14288   */\n      revert\n        /* \"#utility.yul\":14300:14620   */\n    tag_52:\n        /* \"#utility.yul\":14344:14350   */\n      0x00\n        /* \"#utility.yul\":14381:14382   */\n      0x02\n        /* \"#utility.yul\":14375:14379   */\n      dup3\n        /* \"#utility.yul\":14371:14383   */\n      div\n        /* \"#utility.yul\":14361:14383   */\n      swap1\n      pop\n        /* \"#utility.yul\":14428:14429   */\n      0x01\n        /* \"#utility.yul\":14422:14426   */\n      dup3\n        /* \"#utility.yul\":14418:14430   */\n      and\n        /* \"#utility.yul\":14449:14467   */\n      dup1\n        /* \"#utility.yul\":14439:14520   */\n      tag_289\n      jumpi\n        /* \"#utility.yul\":14505:14509   */\n      0x7f\n        /* \"#utility.yul\":14497:14503   */\n      dup3\n        /* \"#utility.yul\":14493:14510   */\n      and\n        /* \"#utility.yul\":14483:14510   */\n      swap2\n      pop\n        /* \"#utility.yul\":14439:14520   */\n    tag_289:\n        /* \"#utility.yul\":14567:14569   */\n      0x20\n        /* \"#utility.yul\":14559:14565   */\n      dup3\n        /* \"#utility.yul\":14556:14570   */\n      lt\n        /* \"#utility.yul\":14536:14554   */\n      dup2\n        /* \"#utility.yul\":14533:14571   */\n      sub\n        /* \"#utility.yul\":14530:14614   */\n      tag_290\n      jumpi\n        /* \"#utility.yul\":14586:14604   */\n      tag_291\n      tag_120\n      jump\t// in\n    tag_291:\n        /* \"#utility.yul\":14530:14614   */\n    tag_290:\n        /* \"#utility.yul\":14351:14620   */\n      pop\n        /* \"#utility.yul\":14300:14620   */\n      swap2\n      swap1\n      pop\n      jump\t// out\n        /* \"#utility.yul\":14626:14767   */\n    tag_121:\n        /* \"#utility.yul\":14675:14679   */\n      0x00\n        /* \"#utility.yul\":14698:14701   */\n      dup2\n        /* \"#utility.yul\":14690:14701   */\n      swap1\n      pop\n        /* \"#utility.yul\":14721:14724   */\n      dup2\n        /* \"#utility.yul\":14718:14719   */\n      0x00\n        /* \"#utility.yul\":14711:14725   */\n      mstore\n        /* \"#utility.yul\":14755:14759   */\n      0x20\n        /* \"#utility.yul\":14752:14753   */\n      0x00\n        /* \"#utility.yul\":14742:14760   */\n      keccak256\n        /* \"#utility.yul\":14734:14760   */\n      swap1\n      pop\n        /* \"#utility.yul\":14626:14767   */\n      swap2\n      swap1\n      pop\n      jump\t// out\n        /* \"#utility.yul\":14773:14866   */\n    tag_122:\n        /* \"#utility.yul\":14810:14816   */\n      0x00\n        /* \"#utility.yul\":14857:14859   */\n      0x20\n        /* \"#utility.yul\":14852:14854   */\n      0x1f\n        /* \"#utility.yul\":14845:14850   */\n      dup4\n        /* \"#utility.yul\":14841:14855   */\n      add\n        /* \"#utility.yul\":14837:14860   */\n      div\n        /* \"#utility.yul\":14827:14860   */\n      swap1\n      pop\n        /* \"#utility.yul\":14773:14866   */\n      swap2\n      swap1\n      pop\n      jump\t// out\n        /* \"#utility.yul\":14872:14979   */\n    tag_123:\n        /* \"#utility.yul\":14916:14924   */\n      0x00\n        /* \"#utility.yul\":14966:14971   */\n      dup3\n        /* \"#utility.yul\":14960:14964   */\n      dup3\n        /* \"#utility.yul\":14956:14972   */\n      shl\n        /* \"#utility.yul\":14935:14972   */\n      swap1\n      pop\n        /* \"#utility.yul\":14872:14979   */\n      swap3\n      swap2\n      pop\n      pop\n      jump\t// out\n        /* \"#utility.yul\":14985:15378   */\n    tag_124:\n        /* \"#utility.yul\":15054:15060   */\n      0x00\n        /* \"#utility.yul\":15104:15105   */\n      0x08\n        /* \"#utility.yul\":15092:15102   */\n      dup4\n        /* \"#utility.yul\":15088:15106   */\n      mul\n        /* \"#utility.yul\":15127:15224   */\n      tag_296\n        /* \"#utility.yul\":15157:15223   */\n      0xffffffffffffffffffffffffffffffffffffffffffffffffffffffffffffffff\n        /* \"#utility.yul\":15146:15155   */\n      dup3\n        /* \"#utility.yul\":15127:15224   */\n      tag_123\n      jump\t// in\n    tag_296:\n        /* \"#utility.yul\":15245:15284   */\n      tag_297\n        /* \"#utility.yul\":15275:15283   */\n      dup7\n        /* \"#utility.yul\":15264:15273   */\n      dup4\n        /* \"#utility.yul\":15245:15284   */\n      tag_123\n      jump\t// in\n    tag_297:\n        /* \"#utility.yul\":15233:15284   */\n      swap6\n      pop\n        /* \"#utility.yul\":15317:15321   */\n      dup1\n        /* \"#utility.yul\":15313:15322   */\n      not\n        /* \"#utility.yul\":15306:15311   */\n      dup5\n        /* \"#utility.yul\":15302:15323   */\n      and\n        /* \"#utility.yul\":15293:15323   */\n      swap4\n      pop\n        /* \"#utility.yul\":15366:15370   */\n      dup1\n        /* \"#utility.yul\":15356:15364   */\n      dup7\n        /* \"#utility.yul\":15352:15371   */\n      and\n        /* \"#utility.yul\":15345:15350   */\n      dup5\n        /* \"#utility.yul\":15342:15372   */\n      or\n        /* \"#utility.yul\":15332:15372   */\n      swap3\n      pop\n        /* \"#utility.yul\":15061:15378   */\n      pop\n      pop\n        /* \"#utility.yul\":14985:15378   */\n      swap4\n      swap3\n      pop\n      pop\n      pop\n      jump\t// out\n        /* \"#utility.yul\":15384:15444   */\n    tag_125:\n        /* \"#utility.yul\":15412:15415   */\n      0x00\n        /* \"#utility.yul\":15433:15438   */\n      dup2\n        /* \"#utility.yul\":15426:15438   */\n      swap1\n      pop\n        /* \"#utility.yul\":15384:15444   */\n      swap2\n      swap1\n      pop\n      jump\t// out\n        /* \"#utility.yul\":15450:15592   */\n    tag_126:\n        /* \"#utility.yul\":15500:15509   */\n      0x00\n        /* \"#utility.yul\":15533:15586   */\n      tag_300\n        /* \"#utility.yul\":15551:15585   */\n      tag_301\n        /* \"#utility.yul\":15560:15584   */\n      tag_302\n        /* \"#utility.yul\":15578:15583   */\n      dup5\n        /* \"#utility.yul\":15560:15584   */\n      tag_87\n      jump\t// in\n    tag_302:\n        /* \"#utility.yul\":15551:15585   */\n      tag_125\n      jump\t// in\n    tag_301:\n        /* \"#utility.yul\":15533:15586   */\n      tag_87\n      jump\t// in\n    tag_300:\n        /* \"#utility.yul\":15520:15586   */\n      swap1\n      pop\n        /* \"#utility.yul\":15450:15592   */\n      swap2\n      swap1\n      pop\n      jump\t// out\n        /* \"#utility.yul\":15598:15673   */\n    tag_127:\n        /* \"#utility.yul\":15641:15644   */\n      0x00\n        /* \"#utility.yul\":15662:15667   */\n      dup2\n        /* \"#utility.yul\":15655:15667   */\n      swap1\n      pop\n        /* \"#utility.yul\":15598:15673   */\n      swap2\n      swap1\n      pop\n      jump\t// out\n        /* \"#utility.yul\":15679:15948   */\n    tag_128:\n        /* \"#utility.yul\":15789:15828   */\n      tag_305\n        /* \"#utility.yul\":15820:15827   */\n      dup4\n        /* \"#utility.yul\":15789:15828   */\n      tag_126\n      jump\t// in\n    tag_305:\n        /* \"#utility.yul\":15850:15941   */\n      tag_306\n        /* \"#utility.yul\":15899:15940   */\n      tag_307\n        /* \"#utility.yul\":15923:15939   */\n      dup3\n        /* \"#utility.yul\":15899:15940   */\n      tag_127\n      jump\t// in\n    tag_307:\n        /* \"#utility.yul\":15891:15897   */\n      dup5\n        /* \"#utility.yul\":15884:15888   */\n      dup5\n        /* \"#utility.yul\":15878:15889   */\n      sload\n        /* \"#utility.yul\":15850:15941   */\n      tag_124\n      jump\t// in\n    tag_306:\n        /* \"#utility.yul\":15844:15848   */\n      dup3\n        /* \"#utility.yul\":15837:15942   */\n      sstore\n        /* \"#utility.yul\":15755:15948   */\n      pop\n        /* \"#utility.yul\":15679:15948   */\n      pop\n      pop\n      pop\n      jump\t// out\n        /* \"#utility.yul\":15954:16027   */\n    tag_129:\n        /* \"#utility.yul\":15999:16002   */\n      0x00\n        /* \"#utility.yul\":15954:16027   */\n      swap1\n      jump\t// out\n        /* \"#utility.yul\":16033:16222   */\n    tag_130:\n        /* \"#utility.yul\":16110:16142   */\n      tag_310\n      tag_129\n      jump\t// in\n    tag_310:\n        /* \"#utility.yul\":16151:16216   */\n      tag_311\n        /* \"#utility.yul\":16209:16215   */\n      dup2\n        /* \"#utility.yul\":16201:16207   */\n      dup5\n        /* \"#utility.yul\":16195:16199   */\n      dup5\n        /* \"#utility.yul\":16151:16216   */\n      tag_128\n      jump\t// in\n    tag_311:\n        /* \"#utility.yul\":16086:16222   */\n      pop\n        /* \"#utility.yul\":16033:16222   */\n      pop\n      pop\n      jump\t// out\n        /* \"#utility.yul\":16228:16414   */\n    tag_131:\n        /* \"#utility.yul\":16288:16408   */\n    tag_313:\n        /* \"#utility.yul\":16305:16308   */\n      dup2\n        /* \"#utility.yul\":16298:16303   */\n      dup2\n        /* \"#utility.yul\":16295:16309   */\n      lt\n        /* \"#utility.yul\":16288:16408   */\n      iszero\n      tag_315\n      jumpi\n        /* \"#utility.yul\":16359:16398   */\n      tag_316\n        /* \"#utility.yul\":16396:16397   */\n      0x00\n        /* \"#utility.yul\":16389:16394   */\n      dup3\n        /* \"#utility.yul\":16359:16398   */\n      tag_130\n      jump\t// in\n    tag_316:\n        /* \"#utility.yul\":16332:16333   */\n      0x01\n        /* \"#utility.yul\":16325:16330   */\n      dup2\n        /* \"#utility.yul\":16321:16334   */\n      add\n        /* \"#utility.yul\":16312:16334   */\n      swap1\n      pop\n        /* \"#utility.yul\":16288:16408   */\n      jump(tag_313)\n    tag_315:\n        /* \"#utility.yul\":16228:16414   */\n      pop\n      pop\n      jump\t// out\n        /* \"#utility.yul\":16420:16963   */\n    tag_132:\n        /* \"#utility.yul\":16521:16523   */\n      0x1f\n        /* \"#utility.yul\":16516:16519   */\n      dup3\n        /* \"#utility.yul\":16513:16524   */\n      gt\n        /* \"#utility.yul\":16510:16956   */\n      iszero\n      tag_318\n      jumpi\n        /* \"#utility.yul\":16555:16593   */\n      tag_319\n        /* \"#utility.yul\":16587:16592   */\n      dup2\n        /* \"#utility.yul\":16555:16593   */\n      tag_121\n      jump\t// in\n    tag_319:\n        /* \"#utility.yul\":16639:16668   */\n      tag_320\n        /* \"#utility.yul\":16657:16667   */\n      dup5\n        /* \"#utility.yul\":16639:16668   */\n      tag_122\n      jump\t// in\n    tag_320:\n        /* \"#utility.yul\":16629:16637   */\n      dup2\n        /* \"#utility.yul\":16625:16669   */\n      add\n        /* \"#utility.yul\":16822:16824   */\n      0x20\n        /* \"#utility.yul\":16810:16820   */\n      dup6\n        /* \"#utility.yul\":16807:16825   */\n      lt\n        /* \"#utility.yul\":16804:16853   */\n      iszero\n      tag_321\n      jumpi\n        /* \"#utility.yul\":16843:16851   */\n      dup2\n        /* \"#utility.yul\":16828:16851   */\n      swap1\n      pop\n        /* \"#utility.yul\":16804:16853   */\n    tag_321:\n        /* \"#utility.yul\":16866:16946   */\n      tag_322\n        /* \"#utility.yul\":16922:16944   */\n      tag_323\n        /* \"#utility.yul\":16940:16943   */\n      dup6\n        /* \"#utility.yul\":16922:16944   */\n      tag_122\n      jump\t// in\n    tag_323:\n        /* \"#utility.yul\":16912:16920   */\n      dup4\n        /* \"#utility.yul\":16908:16945   */\n      add\n        /* \"#utility.yul\":16895:16906   */\n      dup3\n        /* \"#utility.yul\":16866:16946   */\n      tag_131\n      jump\t// in\n    tag_322:\n        /* \"#utility.yul\":16525:16956   */\n      pop\n      pop\n        /* \"#utility.yul\":16510:16956   */\n    tag_318:\n        /* \"#utility.yul\":16420:16963   */\n      pop\n      pop\n      pop\n      jump\t// out\n        /* \"#utility.yul\":16969:17086   */\n    tag_133:\n        /* \"#utility.yul\":17023:17031   */\n      0x00\n        /* \"#utility.yul\":17073:17078   */\n      dup3\n        /* \"#utility.yul\":17067:17071   */\n      dup3\n        /* \"#utility.yul\":17063:17079   */\n      shr\n        /* \"#utility.yul\":17042:17079   */\n      swap1\n      pop\n        /* \"#utility.yul\":16969:17086   */\n      swap3\n      swap2\n      pop\n      pop\n      jump\t// out\n        /* \"#utility.yul\":17092:17261   */\n    tag_134:\n        /* \"#utility.yul\":17136:17142   */\n      0x00\n        /* \"#utility.yul\":17169:17220   */\n      tag_326\n        /* \"#utility.yul\":17217:17218   */\n      0x00\n        /* \"#utility.yul\":17213:17219   */\n      not\n        /* \"#utility.yul\":17205:17210   */\n      dup5\n        /* \"#utility.yul\":17202:17203   */\n      0x08\n        /* \"#utility.yul\":17198:17211   */\n      mul\n        /* \"#utility.yul\":17169:17220   */\n      tag_133\n      jump\t// in\n    tag_326:\n        /* \"#utility.yul\":17165:17221   */\n      not\n        /* \"#utility.yul\":17250:17254   */\n      dup1\n        /* \"#utility.yul\":17244:17248   */\n      dup4\n        /* \"#utility.yul\":17240:17255   */\n      and\n        /* \"#utility.yul\":17230:17255   */\n      swap2\n      pop\n        /* \"#utility.yul\":17143:17261   */\n      pop\n        /* \"#utility.yul\":17092:17261   */\n      swap3\n      swap2\n      pop\n      pop\n      jump\t// out\n        /* \"#utility.yul\":17266:17561   */\n    tag_135:\n        /* \"#utility.yul\":17342:17346   */\n      0x00\n        /* \"#utility.yul\":17488:17517   */\n      tag_328\n        /* \"#utility.yul\":17513:17516   */\n      dup4\n        /* \"#utility.yul\":17507:17511   */\n      dup4\n        /* \"#utility.yul\":17488:17517   */\n      tag_134\n      jump\t// in\n    tag_328:\n        /* \"#utility.yul\":17480:17517   */\n      swap2\n      pop\n        /* \"#utility.yul\":17550:17553   */\n      dup3\n        /* \"#utility.yul\":17547:17548   */\n      0x02\n        /* \"#utility.yul\":17543:17554   */\n      mul\n        /* \"#utility.yul\":17537:17541   */\n      dup3\n        /* \"#utility.yul\":17534:17555   */\n      or\n        /* \"#utility.yul\":17526:17555   */\n      swap1\n      pop\n        /* \"#utility.yul\":17266:17561   */\n      swap3\n      swap2\n      pop\n      pop\n      jump\t// out\n        /* \"#utility.yul\":17566:18961   */\n    tag_47:\n        /* \"#utility.yul\":17683:17720   */\n      tag_330\n        /* \"#utility.yul\":17716:17719   */\n      dup3\n        /* \"#utility.yul\":17683:17720   */\n      tag_99\n      jump\t// in\n    tag_330:\n        /* \"#utility.yul\":17785:17803   */\n      0xffffffffffffffff\n        /* \"#utility.yul\":17777:17783   */\n      dup2\n        /* \"#utility.yul\":17774:17804   */\n      gt\n        /* \"#utility.yul\":17771:17827   */\n      iszero\n      tag_331\n      jumpi\n        /* \"#utility.yul\":17807:17825   */\n      tag_332\n      tag_82\n      jump\t// in\n    tag_332:\n        /* \"#utility.yul\":17771:17827   */\n    tag_331:\n        /* \"#utility.yul\":17851:17889   */\n      tag_333\n        /* \"#utility.yul\":17883:17887   */\n      dup3\n        /* \"#utility.yul\":17877:17888   */\n      sload\n        /* \"#utility.yul\":17851:17889   */\n      tag_52\n      jump\t// in\n    tag_333:\n        /* \"#utility.yul\":17936:18003   */\n      tag_334\n        /* \"#utility.yul\":17996:18002   */\n      dup3\n        /* \"#utility.yul\":17988:17994   */\n      dup3\n        /* \"#utility.yul\":17982:17986   */\n      dup6\n        /* \"#utility.yul\":17936:18003   */\n      tag_132\n      jump\t// in\n    tag_334:\n        /* \"#utility.yul\":18030:18031   */\n      0x00\n        /* \"#utility.yul\":18054:18058   */\n      0x20\n        /* \"#utility.yul\":18041:18058   */\n      swap1\n      pop\n        /* \"#utility.yul\":18086:18088   */\n      0x1f\n        /* \"#utility.yul\":18078:18084   */\n      dup4\n        /* \"#utility.yul\":18075:18089   */\n      gt\n        /* \"#utility.yul\":18103:18104   */\n      0x01\n        /* \"#utility.yul\":18098:18716   */\n      dup2\n      eq\n      tag_336\n      jumpi\n        /* \"#utility.yul\":18760:18761   */\n      0x00\n        /* \"#utility.yul\":18777:18783   */\n      dup5\n        /* \"#utility.yul\":18774:18851   */\n      iszero\n      tag_337\n      jumpi\n        /* \"#utility.yul\":18826:18835   */\n      dup3\n        /* \"#utility.yul\":18821:18824   */\n      dup8\n        /* \"#utility.yul\":18817:18836   */\n      add\n        /* \"#utility.yul\":18811:18837   */\n      mload\n        /* \"#utility.yul\":18802:18837   */\n      swap1\n      pop\n        /* \"#utility.yul\":18774:18851   */\n    tag_337:\n        /* \"#utility.yul\":18877:18944   */\n      tag_338\n        /* \"#utility.yul\":18937:18943   */\n      dup6\n        /* \"#utility.yul\":18930:18935   */\n      dup3\n        /* \"#utility.yul\":18877:18944   */\n      tag_135\n      jump\t// in\n    tag_338:\n        /* \"#utility.yul\":18871:18875   */\n      dup7\n        /* \"#utility.yul\":18864:18945   */\n      sstore\n        /* \"#utility.yul\":18733:18955   */\n      pop\n        /* \"#utility.yul\":18068:18955   */\n      jump(tag_335)\n        /* \"#utility.yul\":18098:18716   */\n    tag_336:\n        /* \"#utility.yul\":18150:18154   */\n      0x1f\n        /* \"#utility.yul\":18146:18155   */\n      not\n        /* \"#utility.yul\":18138:18144   */\n      dup5\n        /* \"#utility.yul\":18134:18156   */\n      and\n        /* \"#utility.yul\":18184:18221   */\n      tag_339\n        /* \"#utility.yul\":18216:18220   */\n      dup7\n        /* \"#utility.yul\":18184:18221   */\n      tag_121\n      jump\t// in\n    tag_339:\n        /* \"#utility.yul\":18243:18244   */\n      0x00\n        /* \"#utility.yul\":18257:18465   */\n    tag_340:\n        /* \"#utility.yul\":18271:18278   */\n      dup3\n        /* \"#utility.yul\":18268:18269   */\n      dup2\n        /* \"#utility.yul\":18265:18279   */\n      lt\n        /* \"#utility.yul\":18257:18465   */\n      iszero\n      tag_342\n      jumpi\n        /* \"#utility.yul\":18350:18359   */\n      dup5\n        /* \"#utility.yul\":18345:18348   */\n      dup10\n        /* \"#utility.yul\":18341:18360   */\n      add\n        /* \"#utility.yul\":18335:18361   */\n      mload\n        /* \"#utility.yul\":18327:18333   */\n      dup3\n        /* \"#utility.yul\":18320:18362   */\n      sstore\n        /* \"#utility.yul\":18401:18402   */\n      0x01\n        /* \"#utility.yul\":18393:18399   */\n      dup3\n        /* \"#utility.yul\":18389:18403   */\n      add\n        /* \"#utility.yul\":18379:18403   */\n      swap2\n      pop\n        /* \"#utility.yul\":18448:18450   */\n      0x20\n        /* \"#utility.yul\":18437:18446   */\n      dup6\n        /* \"#utility.yul\":18433:18451   */\n      add\n        /* \"#utility.yul\":18420:18451   */\n      swap5\n      pop\n        /* \"#utility.yul\":18294:18298   */\n      0x20\n        /* \"#utility.yul\":18291:18292   */\n      dup2\n        /* \"#utility.yul\":18287:18299   */\n      add\n        /* \"#utility.yul\":18282:18299   */\n      swap1\n      pop\n        /* \"#utility.yul\":18257:18465   */\n      jump(tag_340)\n    tag_342:\n        /* \"#utility.yul\":18493:18499   */\n      dup7\n        /* \"#utility.yul\":18484:18491   */\n      dup4\n        /* \"#utility.yul\":18481:18500   */\n      lt\n        /* \"#utility.yul\":18478:18657   */\n      iszero\n      tag_343\n      jumpi\n        /* \"#utility.yul\":18551:18560   */\n      dup5\n        /* \"#utility.yul\":18546:18549   */\n      dup10\n        /* \"#utility.yul\":18542:18561   */\n      add\n        /* \"#utility.yul\":18536:18562   */\n      mload\n        /* \"#utility.yul\":18594:18642   */\n      tag_344\n        /* \"#utility.yul\":18636:18640   */\n      0x1f\n        /* \"#utility.yul\":18628:18634   */\n      dup10\n        /* \"#utility.yul\":18624:18641   */\n      and\n        /* \"#utility.yul\":18613:18622   */\n      dup3\n        /* \"#utility.yul\":18594:18642   */\n      tag_134\n      jump\t// in\n    tag_344:\n        /* \"#utility.yul\":18586:18592   */\n      dup4\n        /* \"#utility.yul\":18579:18643   */\n      sstore\n        /* \"#utility.yul\":18501:18657   */\n      pop\n        /* \"#utility.yul\":18478:18657   */\n    tag_343:\n        /* \"#utility.yul\":18703:18704   */\n      0x01\n        /* \"#utility.yul\":18699:18700   */\n      0x02\n        /* \"#utility.yul\":18691:18697   */\n      dup9\n        /* \"#utility.yul\":18687:18701   */\n      mul\n        /* \"#utility.yul\":18683:18705   */\n      add\n        /* \"#utility.yul\":18677:18681   */\n      dup9\n        /* \"#utility.yul\":18670:18706   */\n      sstore\n        /* \"#utility.yul\":18105:18716   */\n      pop\n      pop\n      pop\n        /* \"#utility.yul\":18068:18955   */\n    tag_335:\n      pop\n        /* \"#utility.yul\":17658:18961   */\n      pop\n      pop\n      pop\n        /* \"#utility.yul\":17566:18961   */\n      pop\n      pop\n      jump\t// out\n\n    auxdata: 0xa264697066735822122010a3d174bfb550fed7bbb73a03c2b90a17ee4eeb76b0b69d43b1cb916362baca64736f6c63430008120033\n}\n",
				"bytecode": {
					"linkReferences": {},
					"object": "608060405234801561001057600080fd5b50611068806100206000396000f3fe608060405234801561001057600080fd5b50600436106100575760003560e01c80636d4c9c231461005c578063a98ac96014610078578063ae97b84614610094578063ec5b5932146100b0578063f88b1641146100e2575b600080fd5b610076600480360381019061007191906107b3565b610112565b005b610092600480360381019061008d919061080f565b6101bf565b005b6100ae60048036038101906100a99190610916565b61022a565b005b6100ca60048036038101906100c5919061080f565b610331565b6040516100d993929190610a9e565b60405180910390f35b6100fc60048036038101906100f7919061080f565b6103f0565b6040516101099190610c5d565b60405180910390f35b6000600160008473ffffffffffffffffffffffffffffffffffffffff1673ffffffffffffffffffffffffffffffffffffffff168152602001908152602001600020600301905060005b82518110156101b9578183828151811061017857610177610c7f565b5b6020026020010151908060018154018082558091505060019003906000526020600020016000909190919091505580806101b190610cdd565b91505061015b565b50505050565b600160008273ffffffffffffffffffffffffffffffffffffffff1673ffffffffffffffffffffffffffffffffffffffff16815260200190815260200160002060030180548061021157610210610d25565b5b6001900381819060005260206000200160009055905550565b82600160008673ffffffffffffffffffffffffffffffffffffffff1673ffffffffffffffffffffffffffffffffffffffff16815260200190815260200160002060000190816102799190610f60565b5081600160008673ffffffffffffffffffffffffffffffffffffffff1673ffffffffffffffffffffffffffffffffffffffff1681526020019081526020016000206001018190555080600160008673ffffffffffffffffffffffffffffffffffffffff1673ffffffffffffffffffffffffffffffffffffffff16815260200190815260200160002060020160006101000a81548160ff0219169083600581111561032657610325610a27565b5b021790555050505050565b600160205280600052604060002060009150905080600001805461035490610d83565b80601f016020809104026020016040519081016040528092919081815260200182805461038090610d83565b80156103cd5780601f106103a2576101008083540402835291602001916103cd565b820191906000526020600020905b8154815290600101906020018083116103b057829003601f168201915b5050505050908060010154908060020160009054906101000a900460ff16905083565b6103f8610578565b600160008373ffffffffffffffffffffffffffffffffffffffff1673ffffffffffffffffffffffffffffffffffffffff16815260200190815260200160002060405180608001604052908160008201805461045290610d83565b80601f016020809104026020016040519081016040528092919081815260200182805461047e90610d83565b80156104cb5780601f106104a0576101008083540402835291602001916104cb565b820191906000526020600020905b8154815290600101906020018083116104ae57829003601f168201915b50505050508152602001600182015481526020016002820160009054906101000a900460ff16600581111561050357610502610a27565b5b600581111561051557610514610a27565b5b81526020016003820180548060200260200160405190810160405280929190818152602001828054801561056857602002820191906000526020600020905b815481526020019060010190808311610554575b5050505050815250509050919050565b60405180608001604052806060815260200160008152602001600060058111156105a5576105a4610a27565b5b8152602001606081525090565b6000604051905090565b600080fd5b600080fd5b600073ffffffffffffffffffffffffffffffffffffffff82169050919050565b60006105f1826105c6565b9050919050565b610601816105e6565b811461060c57600080fd5b50565b60008135905061061e816105f8565b92915050565b600080fd5b6000601f19601f8301169050919050565b7f4e487b7100000000000000000000000000000000000000000000000000000000600052604160045260246000fd5b61067282610629565b810181811067ffffffffffffffff821117156106915761069061063a565b5b80604052505050565b60006106a46105b2565b90506106b08282610669565b919050565b600067ffffffffffffffff8211156106d0576106cf61063a565b5b602082029050602081019050919050565b600080fd5b6000819050919050565b6106f9816106e6565b811461070457600080fd5b50565b600081359050610716816106f0565b92915050565b600061072f61072a846106b5565b61069a565b90508083825260208201905060208402830185811115610752576107516106e1565b5b835b8181101561077b57806107678882610707565b845260208401935050602081019050610754565b5050509392505050565b600082601f83011261079a57610799610624565b5b81356107aa84826020860161071c565b91505092915050565b600080604083850312156107ca576107c96105bc565b5b60006107d88582860161060f565b925050602083013567ffffffffffffffff8111156107f9576107f86105c1565b5b61080585828601610785565b9150509250929050565b600060208284031215610825576108246105bc565b5b60006108338482850161060f565b91505092915050565b600080fd5b600067ffffffffffffffff82111561085c5761085b61063a565b5b61086582610629565b9050602081019050919050565b82818337600083830152505050565b600061089461088f84610841565b61069a565b9050828152602081018484840111156108b0576108af61083c565b5b6108bb848285610872565b509392505050565b600082601f8301126108d8576108d7610624565b5b81356108e8848260208601610881565b91505092915050565b600681106108fe57600080fd5b50565b600081359050610910816108f1565b92915050565b600080600080608085870312156109305761092f6105bc565b5b600061093e8782880161060f565b945050602085013567ffffffffffffffff81111561095f5761095e6105c1565b5b61096b878288016108c3565b935050604061097c87828801610707565b925050606061098d87828801610901565b91505092959194509250565b600081519050919050565b600082825260208201905092915050565b60005b838110156109d35780820151818401526020810190506109b8565b60008484015250505050565b60006109ea82610999565b6109f481856109a4565b9350610a048185602086016109b5565b610a0d81610629565b840191505092915050565b610a21816106e6565b82525050565b7f4e487b7100000000000000000000000000000000000000000000000000000000600052602160045260246000fd5b60068110610a6757610a66610a27565b5b50565b6000819050610a7882610a56565b919050565b6000610a8882610a6a565b9050919050565b610a9881610a7d565b82525050565b60006060820190508181036000830152610ab881866109df565b9050610ac76020830185610a18565b610ad46040830184610a8f565b949350505050565b600082825260208201905092915050565b6000610af882610999565b610b028185610adc565b9350610b128185602086016109b5565b610b1b81610629565b840191505092915050565b610b2f816106e6565b82525050565b610b3e81610a7d565b82525050565b600081519050919050565b600082825260208201905092915050565b6000819050602082019050919050565b6000610b7c8383610b26565b60208301905092915050565b6000602082019050919050565b6000610ba082610b44565b610baa8185610b4f565b9350610bb583610b60565b8060005b83811015610be6578151610bcd8882610b70565b9750610bd883610b88565b925050600181019050610bb9565b5085935050505092915050565b60006080830160008301518482036000860152610c108282610aed565b9150506020830151610c256020860182610b26565b506040830151610c386040860182610b35565b5060608301518482036060860152610c508282610b95565b9150508091505092915050565b60006020820190508181036000830152610c778184610bf3565b905092915050565b7f4e487b7100000000000000000000000000000000000000000000000000000000600052603260045260246000fd5b7f4e487b7100000000000000000000000000000000000000000000000000000000600052601160045260246000fd5b6000610ce8826106e6565b91507fffffffffffffffffffffffffffffffffffffffffffffffffffffffffffffffff8203610d1a57610d19610cae565b5b600182019050919050565b7f4e487b7100000000000000000000000000000000000000000000000000000000600052603160045260246000fd5b7f4e487b7100000000000000000000000000000000000000000000000000000000600052602260045260246000fd5b60006002820490506001821680610d9b57607f821691505b602082108103610dae57610dad610d54565b5b50919050565b60008190508160005260206000209050919050565b60006020601f8301049050919050565b600082821b905092915050565b600060088302610e167fffffffffffffffffffffffffffffffffffffffffffffffffffffffffffffffff82610dd9565b610e208683610dd9565b95508019841693508086168417925050509392505050565b6000819050919050565b6000610e5d610e58610e53846106e6565b610e38565b6106e6565b9050919050565b6000819050919050565b610e7783610e42565b610e8b610e8382610e64565b848454610de6565b825550505050565b600090565b610ea0610e93565b610eab818484610e6e565b505050565b5b81811015610ecf57610ec4600082610e98565b600181019050610eb1565b5050565b601f821115610f1457610ee581610db4565b610eee84610dc9565b81016020851015610efd578190505b610f11610f0985610dc9565b830182610eb0565b50505b505050565b600082821c905092915050565b6000610f3760001984600802610f19565b1980831691505092915050565b6000610f508383610f26565b9150826002028217905092915050565b610f6982610999565b67ffffffffffffffff811115610f8257610f8161063a565b5b610f8c8254610d83565b610f97828285610ed3565b600060209050601f831160018114610fca5760008415610fb8578287015190505b610fc28582610f44565b86555061102a565b601f198416610fd886610db4565b60005b8281101561100057848901518255600182019150602085019450602081019050610fdb565b8683101561101d5784890151611019601f891682610f26565b8355505b6001600288020188555050505b50505050505056fea264697066735822122010a3d174bfb550fed7bbb73a03c2b90a17ee4eeb76b0b69d43b1cb916362baca64736f6c63430008120033",
					"opcodes": "PUSH1 0x80 PUSH1 0x40 MSTORE CALLVALUE DUP1 ISZERO PUSH2 0x10 JUMPI PUSH1 0x0 DUP1 REVERT JUMPDEST POP PUSH2 0x1068 DUP1 PUSH2 0x20 PUSH1 0x0 CODECOPY PUSH1 0x0 RETURN INVALID PUSH1 0x80 PUSH1 0x40 MSTORE CALLVALUE DUP1 ISZERO PUSH2 0x10 JUMPI PUSH1 0x0 DUP1 REVERT JUMPDEST POP PUSH1 0x4 CALLDATASIZE LT PUSH2 0x57 JUMPI PUSH1 0x0 CALLDATALOAD PUSH1 0xE0 SHR DUP1 PUSH4 0x6D4C9C23 EQ PUSH2 0x5C JUMPI DUP1 PUSH4 0xA98AC960 EQ PUSH2 0x78 JUMPI DUP1 PUSH4 0xAE97B846 EQ PUSH2 0x94 JUMPI DUP1 PUSH4 0xEC5B5932 EQ PUSH2 0xB0 JUMPI DUP1 PUSH4 0xF88B1641 EQ PUSH2 0xE2 JUMPI JUMPDEST PUSH1 0x0 DUP1 REVERT JUMPDEST PUSH2 0x76 PUSH1 0x4 DUP1 CALLDATASIZE SUB DUP2 ADD SWAP1 PUSH2 0x71 SWAP2 SWAP1 PUSH2 0x7B3 JUMP JUMPDEST PUSH2 0x112 JUMP JUMPDEST STOP JUMPDEST PUSH2 0x92 PUSH1 0x4 DUP1 CALLDATASIZE SUB DUP2 ADD SWAP1 PUSH2 0x8D SWAP2 SWAP1 PUSH2 0x80F JUMP JUMPDEST PUSH2 0x1BF JUMP JUMPDEST STOP JUMPDEST PUSH2 0xAE PUSH1 0x4 DUP1 CALLDATASIZE SUB DUP2 ADD SWAP1 PUSH2 0xA9 SWAP2 SWAP1 PUSH2 0x916 JUMP JUMPDEST PUSH2 0x22A JUMP JUMPDEST STOP JUMPDEST PUSH2 0xCA PUSH1 0x4 DUP1 CALLDATASIZE SUB DUP2 ADD SWAP1 PUSH2 0xC5 SWAP2 SWAP1 PUSH2 0x80F JUMP JUMPDEST PUSH2 0x331 JUMP JUMPDEST PUSH1 0x40 MLOAD PUSH2 0xD9 SWAP4 SWAP3 SWAP2 SWAP1 PUSH2 0xA9E JUMP JUMPDEST PUSH1 0x40 MLOAD DUP1 SWAP2 SUB SWAP1 RETURN JUMPDEST PUSH2 0xFC PUSH1 0x4 DUP1 CALLDATASIZE SUB DUP2 ADD SWAP1 PUSH2 0xF7 SWAP2 SWAP1 PUSH2 0x80F JUMP JUMPDEST PUSH2 0x3F0 JUMP JUMPDEST PUSH1 0x40 MLOAD PUSH2 0x109 SWAP2 SWAP1 PUSH2 0xC5D JUMP JUMPDEST PUSH1 0x40 MLOAD DUP1 SWAP2 SUB SWAP1 RETURN JUMPDEST PUSH1 0x0 PUSH1 0x1 PUSH1 0x0 DUP5 PUSH20 0xFFFFFFFFFFFFFFFFFFFFFFFFFFFFFFFFFFFFFFFF AND PUSH20 0xFFFFFFFFFFFFFFFFFFFFFFFFFFFFFFFFFFFFFFFF AND DUP2 MSTORE PUSH1 0x20 ADD SWAP1 DUP2 MSTORE PUSH1 0x20 ADD PUSH1 0x0 KECCAK256 PUSH1 0x3 ADD SWAP1 POP PUSH1 0x0 JUMPDEST DUP3 MLOAD DUP2 LT ISZERO PUSH2 0x1B9 JUMPI DUP2 DUP4 DUP3 DUP2 MLOAD DUP2 LT PUSH2 0x178 JUMPI PUSH2 0x177 PUSH2 0xC7F JUMP JUMPDEST JUMPDEST PUSH1 0x20 MUL PUSH1 0x20 ADD ADD MLOAD SWAP1 DUP1 PUSH1 0x1 DUP2 SLOAD ADD DUP1 DUP3 SSTORE DUP1 SWAP2 POP POP PUSH1 0x1 SWAP1 SUB SWAP1 PUSH1 0x0 MSTORE PUSH1 0x20 PUSH1 0x0 KECCAK256 ADD PUSH1 0x0 SWAP1 SWAP2 SWAP1 SWAP2 SWAP1 SWAP2 POP SSTORE DUP1 DUP1 PUSH2 0x1B1 SWAP1 PUSH2 0xCDD JUMP JUMPDEST SWAP2 POP POP PUSH2 0x15B JUMP JUMPDEST POP POP POP POP JUMP JUMPDEST PUSH1 0x1 PUSH1 0x0 DUP3 PUSH20 0xFFFFFFFFFFFFFFFFFFFFFFFFFFFFFFFFFFFFFFFF AND PUSH20 0xFFFFFFFFFFFFFFFFFFFFFFFFFFFFFFFFFFFFFFFF AND DUP2 MSTORE PUSH1 0x20 ADD SWAP1 DUP2 MSTORE PUSH1 0x20 ADD PUSH1 0x0 KECCAK256 PUSH1 0x3 ADD DUP1 SLOAD DUP1 PUSH2 0x211 JUMPI PUSH2 0x210 PUSH2 0xD25 JUMP JUMPDEST JUMPDEST PUSH1 0x1 SWAP1 SUB DUP2 DUP2 SWAP1 PUSH1 0x0 MSTORE PUSH1 0x20 PUSH1 0x0 KECCAK256 ADD PUSH1 0x0 SWAP1 SSTORE SWAP1 SSTORE POP JUMP JUMPDEST DUP3 PUSH1 0x1 PUSH1 0x0 DUP7 PUSH20 0xFFFFFFFFFFFFFFFFFFFFFFFFFFFFFFFFFFFFFFFF AND PUSH20 0xFFFFFFFFFFFFFFFFFFFFFFFFFFFFFFFFFFFFFFFF AND DUP2 MSTORE PUSH1 0x20 ADD SWAP1 DUP2 MSTORE PUSH1 0x20 ADD PUSH1 0x0 KECCAK256 PUSH1 0x0 ADD SWAP1 DUP2 PUSH2 0x279 SWAP2 SWAP1 PUSH2 0xF60 JUMP JUMPDEST POP DUP2 PUSH1 0x1 PUSH1 0x0 DUP7 PUSH20 0xFFFFFFFFFFFFFFFFFFFFFFFFFFFFFFFFFFFFFFFF AND PUSH20 0xFFFFFFFFFFFFFFFFFFFFFFFFFFFFFFFFFFFFFFFF AND DUP2 MSTORE PUSH1 0x20 ADD SWAP1 DUP2 MSTORE PUSH1 0x20 ADD PUSH1 0x0 KECCAK256 PUSH1 0x1 ADD DUP2 SWAP1 SSTORE POP DUP1 PUSH1 0x1 PUSH1 0x0 DUP7 PUSH20 0xFFFFFFFFFFFFFFFFFFFFFFFFFFFFFFFFFFFFFFFF AND PUSH20 0xFFFFFFFFFFFFFFFFFFFFFFFFFFFFFFFFFFFFFFFF AND DUP2 MSTORE PUSH1 0x20 ADD SWAP1 DUP2 MSTORE PUSH1 0x20 ADD PUSH1 0x0 KECCAK256 PUSH1 0x2 ADD PUSH1 0x0 PUSH2 0x100 EXP DUP2 SLOAD DUP2 PUSH1 0xFF MUL NOT AND SWAP1 DUP4 PUSH1 0x5 DUP2 GT ISZERO PUSH2 0x326 JUMPI PUSH2 0x325 PUSH2 0xA27 JUMP JUMPDEST JUMPDEST MUL OR SWAP1 SSTORE POP POP POP POP POP JUMP JUMPDEST PUSH1 0x1 PUSH1 0x20 MSTORE DUP1 PUSH1 0x0 MSTORE PUSH1 0x40 PUSH1 0x0 KECCAK256 PUSH1 0x0 SWAP2 POP SWAP1 POP DUP1 PUSH1 0x0 ADD DUP1 SLOAD PUSH2 0x354 SWAP1 PUSH2 0xD83 JUMP JUMPDEST DUP1 PUSH1 0x1F ADD PUSH1 0x20 DUP1 SWAP2 DIV MUL PUSH1 0x20 ADD PUSH1 0x40 MLOAD SWAP1 DUP2 ADD PUSH1 0x40 MSTORE DUP1 SWAP3 SWAP2 SWAP1 DUP2 DUP2 MSTORE PUSH1 0x20 ADD DUP3 DUP1 SLOAD PUSH2 0x380 SWAP1 PUSH2 0xD83 JUMP JUMPDEST DUP1 ISZERO PUSH2 0x3CD JUMPI DUP1 PUSH1 0x1F LT PUSH2 0x3A2 JUMPI PUSH2 0x100 DUP1 DUP4 SLOAD DIV MUL DUP4 MSTORE SWAP2 PUSH1 0x20 ADD SWAP2 PUSH2 0x3CD JUMP JUMPDEST DUP3 ADD SWAP2 SWAP1 PUSH1 0x0 MSTORE PUSH1 0x20 PUSH1 0x0 KECCAK256 SWAP1 JUMPDEST DUP2 SLOAD DUP2 MSTORE SWAP1 PUSH1 0x1 ADD SWAP1 PUSH1 0x20 ADD DUP1 DUP4 GT PUSH2 0x3B0 JUMPI DUP3 SWAP1 SUB PUSH1 0x1F AND DUP3 ADD SWAP2 JUMPDEST POP POP POP POP POP SWAP1 DUP1 PUSH1 0x1 ADD SLOAD SWAP1 DUP1 PUSH1 0x2 ADD PUSH1 0x0 SWAP1 SLOAD SWAP1 PUSH2 0x100 EXP SWAP1 DIV PUSH1 0xFF AND SWAP1 POP DUP4 JUMP JUMPDEST PUSH2 0x3F8 PUSH2 0x578 JUMP JUMPDEST PUSH1 0x1 PUSH1 0x0 DUP4 PUSH20 0xFFFFFFFFFFFFFFFFFFFFFFFFFFFFFFFFFFFFFFFF AND PUSH20 0xFFFFFFFFFFFFFFFFFFFFFFFFFFFFFFFFFFFFFFFF AND DUP2 MSTORE PUSH1 0x20 ADD SWAP1 DUP2 MSTORE PUSH1 0x20 ADD PUSH1 0x0 KECCAK256 PUSH1 0x40 MLOAD DUP1 PUSH1 0x80 ADD PUSH1 0x40 MSTORE SWAP1 DUP2 PUSH1 0x0 DUP3 ADD DUP1 SLOAD PUSH2 0x452 SWAP1 PUSH2 0xD83 JUMP JUMPDEST DUP1 PUSH1 0x1F ADD PUSH1 0x20 DUP1 SWAP2 DIV MUL PUSH1 0x20 ADD PUSH1 0x40 MLOAD SWAP1 DUP2 ADD PUSH1 0x40 MSTORE DUP1 SWAP3 SWAP2 SWAP1 DUP2 DUP2 MSTORE PUSH1 0x20 ADD DUP3 DUP1 SLOAD PUSH2 0x47E SWAP1 PUSH2 0xD83 JUMP JUMPDEST DUP1 ISZERO PUSH2 0x4CB JUMPI DUP1 PUSH1 0x1F LT PUSH2 0x4A0 JUMPI PUSH2 0x100 DUP1 DUP4 SLOAD DIV MUL DUP4 MSTORE SWAP2 PUSH1 0x20 ADD SWAP2 PUSH2 0x4CB JUMP JUMPDEST DUP3 ADD SWAP2 SWAP1 PUSH1 0x0 MSTORE PUSH1 0x20 PUSH1 0x0 KECCAK256 SWAP1 JUMPDEST DUP2 SLOAD DUP2 MSTORE SWAP1 PUSH1 0x1 ADD SWAP1 PUSH1 0x20 ADD DUP1 DUP4 GT PUSH2 0x4AE JUMPI DUP3 SWAP1 SUB PUSH1 0x1F AND DUP3 ADD SWAP2 JUMPDEST POP POP POP POP POP DUP2 MSTORE PUSH1 0x20 ADD PUSH1 0x1 DUP3 ADD SLOAD DUP2 MSTORE PUSH1 0x20 ADD PUSH1 0x2 DUP3 ADD PUSH1 0x0 SWAP1 SLOAD SWAP1 PUSH2 0x100 EXP SWAP1 DIV PUSH1 0xFF AND PUSH1 0x5 DUP2 GT ISZERO PUSH2 0x503 JUMPI PUSH2 0x502 PUSH2 0xA27 JUMP JUMPDEST JUMPDEST PUSH1 0x5 DUP2 GT ISZERO PUSH2 0x515 JUMPI PUSH2 0x514 PUSH2 0xA27 JUMP JUMPDEST JUMPDEST DUP2 MSTORE PUSH1 0x20 ADD PUSH1 0x3 DUP3 ADD DUP1 SLOAD DUP1 PUSH1 0x20 MUL PUSH1 0x20 ADD PUSH1 0x40 MLOAD SWAP1 DUP2 ADD PUSH1 0x40 MSTORE DUP1 SWAP3 SWAP2 SWAP1 DUP2 DUP2 MSTORE PUSH1 0x20 ADD DUP3 DUP1 SLOAD DUP1 ISZERO PUSH2 0x568 JUMPI PUSH1 0x20 MUL DUP3 ADD SWAP2 SWAP1 PUSH1 0x0 MSTORE PUSH1 0x20 PUSH1 0x0 KECCAK256 SWAP1 JUMPDEST DUP2 SLOAD DUP2 MSTORE PUSH1 0x20 ADD SWAP1 PUSH1 0x1 ADD SWAP1 DUP1 DUP4 GT PUSH2 0x554 JUMPI JUMPDEST POP POP POP POP POP DUP2 MSTORE POP POP SWAP1 POP SWAP2 SWAP1 POP JUMP JUMPDEST PUSH1 0x40 MLOAD DUP1 PUSH1 0x80 ADD PUSH1 0x40 MSTORE DUP1 PUSH1 0x60 DUP2 MSTORE PUSH1 0x20 ADD PUSH1 0x0 DUP2 MSTORE PUSH1 0x20 ADD PUSH1 0x0 PUSH1 0x5 DUP2 GT ISZERO PUSH2 0x5A5 JUMPI PUSH2 0x5A4 PUSH2 0xA27 JUMP JUMPDEST JUMPDEST DUP2 MSTORE PUSH1 0x20 ADD PUSH1 0x60 DUP2 MSTORE POP SWAP1 JUMP JUMPDEST PUSH1 0x0 PUSH1 0x40 MLOAD SWAP1 POP SWAP1 JUMP JUMPDEST PUSH1 0x0 DUP1 REVERT JUMPDEST PUSH1 0x0 DUP1 REVERT JUMPDEST PUSH1 0x0 PUSH20 0xFFFFFFFFFFFFFFFFFFFFFFFFFFFFFFFFFFFFFFFF DUP3 AND SWAP1 POP SWAP2 SWAP1 POP JUMP JUMPDEST PUSH1 0x0 PUSH2 0x5F1 DUP3 PUSH2 0x5C6 JUMP JUMPDEST SWAP1 POP SWAP2 SWAP1 POP JUMP JUMPDEST PUSH2 0x601 DUP2 PUSH2 0x5E6 JUMP JUMPDEST DUP2 EQ PUSH2 0x60C JUMPI PUSH1 0x0 DUP1 REVERT JUMPDEST POP JUMP JUMPDEST PUSH1 0x0 DUP2 CALLDATALOAD SWAP1 POP PUSH2 0x61E DUP2 PUSH2 0x5F8 JUMP JUMPDEST SWAP3 SWAP2 POP POP JUMP JUMPDEST PUSH1 0x0 DUP1 REVERT JUMPDEST PUSH1 0x0 PUSH1 0x1F NOT PUSH1 0x1F DUP4 ADD AND SWAP1 POP SWAP2 SWAP1 POP JUMP JUMPDEST PUSH32 0x4E487B7100000000000000000000000000000000000000000000000000000000 PUSH1 0x0 MSTORE PUSH1 0x41 PUSH1 0x4 MSTORE PUSH1 0x24 PUSH1 0x0 REVERT JUMPDEST PUSH2 0x672 DUP3 PUSH2 0x629 JUMP JUMPDEST DUP2 ADD DUP2 DUP2 LT PUSH8 0xFFFFFFFFFFFFFFFF DUP3 GT OR ISZERO PUSH2 0x691 JUMPI PUSH2 0x690 PUSH2 0x63A JUMP JUMPDEST JUMPDEST DUP1 PUSH1 0x40 MSTORE POP POP POP JUMP JUMPDEST PUSH1 0x0 PUSH2 0x6A4 PUSH2 0x5B2 JUMP JUMPDEST SWAP1 POP PUSH2 0x6B0 DUP3 DUP3 PUSH2 0x669 JUMP JUMPDEST SWAP2 SWAP1 POP JUMP JUMPDEST PUSH1 0x0 PUSH8 0xFFFFFFFFFFFFFFFF DUP3 GT ISZERO PUSH2 0x6D0 JUMPI PUSH2 0x6CF PUSH2 0x63A JUMP JUMPDEST JUMPDEST PUSH1 0x20 DUP3 MUL SWAP1 POP PUSH1 0x20 DUP2 ADD SWAP1 POP SWAP2 SWAP1 POP JUMP JUMPDEST PUSH1 0x0 DUP1 REVERT JUMPDEST PUSH1 0x0 DUP2 SWAP1 POP SWAP2 SWAP1 POP JUMP JUMPDEST PUSH2 0x6F9 DUP2 PUSH2 0x6E6 JUMP JUMPDEST DUP2 EQ PUSH2 0x704 JUMPI PUSH1 0x0 DUP1 REVERT JUMPDEST POP JUMP JUMPDEST PUSH1 0x0 DUP2 CALLDATALOAD SWAP1 POP PUSH2 0x716 DUP2 PUSH2 0x6F0 JUMP JUMPDEST SWAP3 SWAP2 POP POP JUMP JUMPDEST PUSH1 0x0 PUSH2 0x72F PUSH2 0x72A DUP5 PUSH2 0x6B5 JUMP JUMPDEST PUSH2 0x69A JUMP JUMPDEST SWAP1 POP DUP1 DUP4 DUP3 MSTORE PUSH1 0x20 DUP3 ADD SWAP1 POP PUSH1 0x20 DUP5 MUL DUP4 ADD DUP6 DUP2 GT ISZERO PUSH2 0x752 JUMPI PUSH2 0x751 PUSH2 0x6E1 JUMP JUMPDEST JUMPDEST DUP4 JUMPDEST DUP2 DUP2 LT ISZERO PUSH2 0x77B JUMPI DUP1 PUSH2 0x767 DUP9 DUP3 PUSH2 0x707 JUMP JUMPDEST DUP5 MSTORE PUSH1 0x20 DUP5 ADD SWAP4 POP POP PUSH1 0x20 DUP2 ADD SWAP1 POP PUSH2 0x754 JUMP JUMPDEST POP POP POP SWAP4 SWAP3 POP POP POP JUMP JUMPDEST PUSH1 0x0 DUP3 PUSH1 0x1F DUP4 ADD SLT PUSH2 0x79A JUMPI PUSH2 0x799 PUSH2 0x624 JUMP JUMPDEST JUMPDEST DUP2 CALLDATALOAD PUSH2 0x7AA DUP5 DUP3 PUSH1 0x20 DUP7 ADD PUSH2 0x71C JUMP JUMPDEST SWAP2 POP POP SWAP3 SWAP2 POP POP JUMP JUMPDEST PUSH1 0x0 DUP1 PUSH1 0x40 DUP4 DUP6 SUB SLT ISZERO PUSH2 0x7CA JUMPI PUSH2 0x7C9 PUSH2 0x5BC JUMP JUMPDEST JUMPDEST PUSH1 0x0 PUSH2 0x7D8 DUP6 DUP3 DUP7 ADD PUSH2 0x60F JUMP JUMPDEST SWAP3 POP POP PUSH1 0x20 DUP4 ADD CALLDATALOAD PUSH8 0xFFFFFFFFFFFFFFFF DUP2 GT ISZERO PUSH2 0x7F9 JUMPI PUSH2 0x7F8 PUSH2 0x5C1 JUMP JUMPDEST JUMPDEST PUSH2 0x805 DUP6 DUP3 DUP7 ADD PUSH2 0x785 JUMP JUMPDEST SWAP2 POP POP SWAP3 POP SWAP3 SWAP1 POP JUMP JUMPDEST PUSH1 0x0 PUSH1 0x20 DUP3 DUP5 SUB SLT ISZERO PUSH2 0x825 JUMPI PUSH2 0x824 PUSH2 0x5BC JUMP JUMPDEST JUMPDEST PUSH1 0x0 PUSH2 0x833 DUP5 DUP3 DUP6 ADD PUSH2 0x60F JUMP JUMPDEST SWAP2 POP POP SWAP3 SWAP2 POP POP JUMP JUMPDEST PUSH1 0x0 DUP1 REVERT JUMPDEST PUSH1 0x0 PUSH8 0xFFFFFFFFFFFFFFFF DUP3 GT ISZERO PUSH2 0x85C JUMPI PUSH2 0x85B PUSH2 0x63A JUMP JUMPDEST JUMPDEST PUSH2 0x865 DUP3 PUSH2 0x629 JUMP JUMPDEST SWAP1 POP PUSH1 0x20 DUP2 ADD SWAP1 POP SWAP2 SWAP1 POP JUMP JUMPDEST DUP3 DUP2 DUP4 CALLDATACOPY PUSH1 0x0 DUP4 DUP4 ADD MSTORE POP POP POP JUMP JUMPDEST PUSH1 0x0 PUSH2 0x894 PUSH2 0x88F DUP5 PUSH2 0x841 JUMP JUMPDEST PUSH2 0x69A JUMP JUMPDEST SWAP1 POP DUP3 DUP2 MSTORE PUSH1 0x20 DUP2 ADD DUP5 DUP5 DUP5 ADD GT ISZERO PUSH2 0x8B0 JUMPI PUSH2 0x8AF PUSH2 0x83C JUMP JUMPDEST JUMPDEST PUSH2 0x8BB DUP5 DUP3 DUP6 PUSH2 0x872 JUMP JUMPDEST POP SWAP4 SWAP3 POP POP POP JUMP JUMPDEST PUSH1 0x0 DUP3 PUSH1 0x1F DUP4 ADD SLT PUSH2 0x8D8 JUMPI PUSH2 0x8D7 PUSH2 0x624 JUMP JUMPDEST JUMPDEST DUP2 CALLDATALOAD PUSH2 0x8E8 DUP5 DUP3 PUSH1 0x20 DUP7 ADD PUSH2 0x881 JUMP JUMPDEST SWAP2 POP POP SWAP3 SWAP2 POP POP JUMP JUMPDEST PUSH1 0x6 DUP2 LT PUSH2 0x8FE JUMPI PUSH1 0x0 DUP1 REVERT JUMPDEST POP JUMP JUMPDEST PUSH1 0x0 DUP2 CALLDATALOAD SWAP1 POP PUSH2 0x910 DUP2 PUSH2 0x8F1 JUMP JUMPDEST SWAP3 SWAP2 POP POP JUMP JUMPDEST PUSH1 0x0 DUP1 PUSH1 0x0 DUP1 PUSH1 0x80 DUP6 DUP8 SUB SLT ISZERO PUSH2 0x930 JUMPI PUSH2 0x92F PUSH2 0x5BC JUMP JUMPDEST JUMPDEST PUSH1 0x0 PUSH2 0x93E DUP8 DUP3 DUP9 ADD PUSH2 0x60F JUMP JUMPDEST SWAP5 POP POP PUSH1 0x20 DUP6 ADD CALLDATALOAD PUSH8 0xFFFFFFFFFFFFFFFF DUP2 GT ISZERO PUSH2 0x95F JUMPI PUSH2 0x95E PUSH2 0x5C1 JUMP JUMPDEST JUMPDEST PUSH2 0x96B DUP8 DUP3 DUP9 ADD PUSH2 0x8C3 JUMP JUMPDEST SWAP4 POP POP PUSH1 0x40 PUSH2 0x97C DUP8 DUP3 DUP9 ADD PUSH2 0x707 JUMP JUMPDEST SWAP3 POP POP PUSH1 0x60 PUSH2 0x98D DUP8 DUP3 DUP9 ADD PUSH2 0x901 JUMP JUMPDEST SWAP2 POP POP SWAP3 SWAP6 SWAP2 SWAP5 POP SWAP3 POP JUMP JUMPDEST PUSH1 0x0 DUP2 MLOAD SWAP1 POP SWAP2 SWAP1 POP JUMP JUMPDEST PUSH1 0x0 DUP3 DUP3 MSTORE PUSH1 0x20 DUP3 ADD SWAP1 POP SWAP3 SWAP2 POP POP JUMP JUMPDEST PUSH1 0x0 JUMPDEST DUP4 DUP2 LT ISZERO PUSH2 0x9D3 JUMPI DUP1 DUP3 ADD MLOAD DUP2 DUP5 ADD MSTORE PUSH1 0x20 DUP2 ADD SWAP1 POP PUSH2 0x9B8 JUMP JUMPDEST PUSH1 0x0 DUP5 DUP5 ADD MSTORE POP POP POP POP JUMP JUMPDEST PUSH1 0x0 PUSH2 0x9EA DUP3 PUSH2 0x999 JUMP JUMPDEST PUSH2 0x9F4 DUP2 DUP6 PUSH2 0x9A4 JUMP JUMPDEST SWAP4 POP PUSH2 0xA04 DUP2 DUP6 PUSH1 0x20 DUP7 ADD PUSH2 0x9B5 JUMP JUMPDEST PUSH2 0xA0D DUP2 PUSH2 0x629 JUMP JUMPDEST DUP5 ADD SWAP2 POP POP SWAP3 SWAP2 POP POP JUMP JUMPDEST PUSH2 0xA21 DUP2 PUSH2 0x6E6 JUMP JUMPDEST DUP3 MSTORE POP POP JUMP JUMPDEST PUSH32 0x4E487B7100000000000000000000000000000000000000000000000000000000 PUSH1 0x0 MSTORE PUSH1 0x21 PUSH1 0x4 MSTORE PUSH1 0x24 PUSH1 0x0 REVERT JUMPDEST PUSH1 0x6 DUP2 LT PUSH2 0xA67 JUMPI PUSH2 0xA66 PUSH2 0xA27 JUMP JUMPDEST JUMPDEST POP JUMP JUMPDEST PUSH1 0x0 DUP2 SWAP1 POP PUSH2 0xA78 DUP3 PUSH2 0xA56 JUMP JUMPDEST SWAP2 SWAP1 POP JUMP JUMPDEST PUSH1 0x0 PUSH2 0xA88 DUP3 PUSH2 0xA6A JUMP JUMPDEST SWAP1 POP SWAP2 SWAP1 POP JUMP JUMPDEST PUSH2 0xA98 DUP2 PUSH2 0xA7D JUMP JUMPDEST DUP3 MSTORE POP POP JUMP JUMPDEST PUSH1 0x0 PUSH1 0x60 DUP3 ADD SWAP1 POP DUP2 DUP2 SUB PUSH1 0x0 DUP4 ADD MSTORE PUSH2 0xAB8 DUP2 DUP7 PUSH2 0x9DF JUMP JUMPDEST SWAP1 POP PUSH2 0xAC7 PUSH1 0x20 DUP4 ADD DUP6 PUSH2 0xA18 JUMP JUMPDEST PUSH2 0xAD4 PUSH1 0x40 DUP4 ADD DUP5 PUSH2 0xA8F JUMP JUMPDEST SWAP5 SWAP4 POP POP POP POP JUMP JUMPDEST PUSH1 0x0 DUP3 DUP3 MSTORE PUSH1 0x20 DUP3 ADD SWAP1 POP SWAP3 SWAP2 POP POP JUMP JUMPDEST PUSH1 0x0 PUSH2 0xAF8 DUP3 PUSH2 0x999 JUMP JUMPDEST PUSH2 0xB02 DUP2 DUP6 PUSH2 0xADC JUMP JUMPDEST SWAP4 POP PUSH2 0xB12 DUP2 DUP6 PUSH1 0x20 DUP7 ADD PUSH2 0x9B5 JUMP JUMPDEST PUSH2 0xB1B DUP2 PUSH2 0x629 JUMP JUMPDEST DUP5 ADD SWAP2 POP POP SWAP3 SWAP2 POP POP JUMP JUMPDEST PUSH2 0xB2F DUP2 PUSH2 0x6E6 JUMP JUMPDEST DUP3 MSTORE POP POP JUMP JUMPDEST PUSH2 0xB3E DUP2 PUSH2 0xA7D JUMP JUMPDEST DUP3 MSTORE POP POP JUMP JUMPDEST PUSH1 0x0 DUP2 MLOAD SWAP1 POP SWAP2 SWAP1 POP JUMP JUMPDEST PUSH1 0x0 DUP3 DUP3 MSTORE PUSH1 0x20 DUP3 ADD SWAP1 POP SWAP3 SWAP2 POP POP JUMP JUMPDEST PUSH1 0x0 DUP2 SWAP1 POP PUSH1 0x20 DUP3 ADD SWAP1 POP SWAP2 SWAP1 POP JUMP JUMPDEST PUSH1 0x0 PUSH2 0xB7C DUP4 DUP4 PUSH2 0xB26 JUMP JUMPDEST PUSH1 0x20 DUP4 ADD SWAP1 POP SWAP3 SWAP2 POP POP JUMP JUMPDEST PUSH1 0x0 PUSH1 0x20 DUP3 ADD SWAP1 POP SWAP2 SWAP1 POP JUMP JUMPDEST PUSH1 0x0 PUSH2 0xBA0 DUP3 PUSH2 0xB44 JUMP JUMPDEST PUSH2 0xBAA DUP2 DUP6 PUSH2 0xB4F JUMP JUMPDEST SWAP4 POP PUSH2 0xBB5 DUP4 PUSH2 0xB60 JUMP JUMPDEST DUP1 PUSH1 0x0 JUMPDEST DUP4 DUP2 LT ISZERO PUSH2 0xBE6 JUMPI DUP2 MLOAD PUSH2 0xBCD DUP9 DUP3 PUSH2 0xB70 JUMP JUMPDEST SWAP8 POP PUSH2 0xBD8 DUP4 PUSH2 0xB88 JUMP JUMPDEST SWAP3 POP POP PUSH1 0x1 DUP2 ADD SWAP1 POP PUSH2 0xBB9 JUMP JUMPDEST POP DUP6 SWAP4 POP POP POP POP SWAP3 SWAP2 POP POP JUMP JUMPDEST PUSH1 0x0 PUSH1 0x80 DUP4 ADD PUSH1 0x0 DUP4 ADD MLOAD DUP5 DUP3 SUB PUSH1 0x0 DUP7 ADD MSTORE PUSH2 0xC10 DUP3 DUP3 PUSH2 0xAED JUMP JUMPDEST SWAP2 POP POP PUSH1 0x20 DUP4 ADD MLOAD PUSH2 0xC25 PUSH1 0x20 DUP7 ADD DUP3 PUSH2 0xB26 JUMP JUMPDEST POP PUSH1 0x40 DUP4 ADD MLOAD PUSH2 0xC38 PUSH1 0x40 DUP7 ADD DUP3 PUSH2 0xB35 JUMP JUMPDEST POP PUSH1 0x60 DUP4 ADD MLOAD DUP5 DUP3 SUB PUSH1 0x60 DUP7 ADD MSTORE PUSH2 0xC50 DUP3 DUP3 PUSH2 0xB95 JUMP JUMPDEST SWAP2 POP POP DUP1 SWAP2 POP POP SWAP3 SWAP2 POP POP JUMP JUMPDEST PUSH1 0x0 PUSH1 0x20 DUP3 ADD SWAP1 POP DUP2 DUP2 SUB PUSH1 0x0 DUP4 ADD MSTORE PUSH2 0xC77 DUP2 DUP5 PUSH2 0xBF3 JUMP JUMPDEST SWAP1 POP SWAP3 SWAP2 POP POP JUMP JUMPDEST PUSH32 0x4E487B7100000000000000000000000000000000000000000000000000000000 PUSH1 0x0 MSTORE PUSH1 0x32 PUSH1 0x4 MSTORE PUSH1 0x24 PUSH1 0x0 REVERT JUMPDEST PUSH32 0x4E487B7100000000000000000000000000000000000000000000000000000000 PUSH1 0x0 MSTORE PUSH1 0x11 PUSH1 0x4 MSTORE PUSH1 0x24 PUSH1 0x0 REVERT JUMPDEST PUSH1 0x0 PUSH2 0xCE8 DUP3 PUSH2 0x6E6 JUMP JUMPDEST SWAP2 POP PUSH32 0xFFFFFFFFFFFFFFFFFFFFFFFFFFFFFFFFFFFFFFFFFFFFFFFFFFFFFFFFFFFFFFFF DUP3 SUB PUSH2 0xD1A JUMPI PUSH2 0xD19 PUSH2 0xCAE JUMP JUMPDEST JUMPDEST PUSH1 0x1 DUP3 ADD SWAP1 POP SWAP2 SWAP1 POP JUMP JUMPDEST PUSH32 0x4E487B7100000000000000000000000000000000000000000000000000000000 PUSH1 0x0 MSTORE PUSH1 0x31 PUSH1 0x4 MSTORE PUSH1 0x24 PUSH1 0x0 REVERT JUMPDEST PUSH32 0x4E487B7100000000000000000000000000000000000000000000000000000000 PUSH1 0x0 MSTORE PUSH1 0x22 PUSH1 0x4 MSTORE PUSH1 0x24 PUSH1 0x0 REVERT JUMPDEST PUSH1 0x0 PUSH1 0x2 DUP3 DIV SWAP1 POP PUSH1 0x1 DUP3 AND DUP1 PUSH2 0xD9B JUMPI PUSH1 0x7F DUP3 AND SWAP2 POP JUMPDEST PUSH1 0x20 DUP3 LT DUP2 SUB PUSH2 0xDAE JUMPI PUSH2 0xDAD PUSH2 0xD54 JUMP JUMPDEST JUMPDEST POP SWAP2 SWAP1 POP JUMP JUMPDEST PUSH1 0x0 DUP2 SWAP1 POP DUP2 PUSH1 0x0 MSTORE PUSH1 0x20 PUSH1 0x0 KECCAK256 SWAP1 POP SWAP2 SWAP1 POP JUMP JUMPDEST PUSH1 0x0 PUSH1 0x20 PUSH1 0x1F DUP4 ADD DIV SWAP1 POP SWAP2 SWAP1 POP JUMP JUMPDEST PUSH1 0x0 DUP3 DUP3 SHL SWAP1 POP SWAP3 SWAP2 POP POP JUMP JUMPDEST PUSH1 0x0 PUSH1 0x8 DUP4 MUL PUSH2 0xE16 PUSH32 0xFFFFFFFFFFFFFFFFFFFFFFFFFFFFFFFFFFFFFFFFFFFFFFFFFFFFFFFFFFFFFFFF DUP3 PUSH2 0xDD9 JUMP JUMPDEST PUSH2 0xE20 DUP7 DUP4 PUSH2 0xDD9 JUMP JUMPDEST SWAP6 POP DUP1 NOT DUP5 AND SWAP4 POP DUP1 DUP7 AND DUP5 OR SWAP3 POP POP POP SWAP4 SWAP3 POP POP POP JUMP JUMPDEST PUSH1 0x0 DUP2 SWAP1 POP SWAP2 SWAP1 POP JUMP JUMPDEST PUSH1 0x0 PUSH2 0xE5D PUSH2 0xE58 PUSH2 0xE53 DUP5 PUSH2 0x6E6 JUMP JUMPDEST PUSH2 0xE38 JUMP JUMPDEST PUSH2 0x6E6 JUMP JUMPDEST SWAP1 POP SWAP2 SWAP1 POP JUMP JUMPDEST PUSH1 0x0 DUP2 SWAP1 POP SWAP2 SWAP1 POP JUMP JUMPDEST PUSH2 0xE77 DUP4 PUSH2 0xE42 JUMP JUMPDEST PUSH2 0xE8B PUSH2 0xE83 DUP3 PUSH2 0xE64 JUMP JUMPDEST DUP5 DUP5 SLOAD PUSH2 0xDE6 JUMP JUMPDEST DUP3 SSTORE POP POP POP POP JUMP JUMPDEST PUSH1 0x0 SWAP1 JUMP JUMPDEST PUSH2 0xEA0 PUSH2 0xE93 JUMP JUMPDEST PUSH2 0xEAB DUP2 DUP5 DUP5 PUSH2 0xE6E JUMP JUMPDEST POP POP POP JUMP JUMPDEST JUMPDEST DUP2 DUP2 LT ISZERO PUSH2 0xECF JUMPI PUSH2 0xEC4 PUSH1 0x0 DUP3 PUSH2 0xE98 JUMP JUMPDEST PUSH1 0x1 DUP2 ADD SWAP1 POP PUSH2 0xEB1 JUMP JUMPDEST POP POP JUMP JUMPDEST PUSH1 0x1F DUP3 GT ISZERO PUSH2 0xF14 JUMPI PUSH2 0xEE5 DUP2 PUSH2 0xDB4 JUMP JUMPDEST PUSH2 0xEEE DUP5 PUSH2 0xDC9 JUMP JUMPDEST DUP2 ADD PUSH1 0x20 DUP6 LT ISZERO PUSH2 0xEFD JUMPI DUP2 SWAP1 POP JUMPDEST PUSH2 0xF11 PUSH2 0xF09 DUP6 PUSH2 0xDC9 JUMP JUMPDEST DUP4 ADD DUP3 PUSH2 0xEB0 JUMP JUMPDEST POP POP JUMPDEST POP POP POP JUMP JUMPDEST PUSH1 0x0 DUP3 DUP3 SHR SWAP1 POP SWAP3 SWAP2 POP POP JUMP JUMPDEST PUSH1 0x0 PUSH2 0xF37 PUSH1 0x0 NOT DUP5 PUSH1 0x8 MUL PUSH2 0xF19 JUMP JUMPDEST NOT DUP1 DUP4 AND SWAP2 POP POP SWAP3 SWAP2 POP POP JUMP JUMPDEST PUSH1 0x0 PUSH2 0xF50 DUP4 DUP4 PUSH2 0xF26 JUMP JUMPDEST SWAP2 POP DUP3 PUSH1 0x2 MUL DUP3 OR SWAP1 POP SWAP3 SWAP2 POP POP JUMP JUMPDEST PUSH2 0xF69 DUP3 PUSH2 0x999 JUMP JUMPDEST PUSH8 0xFFFFFFFFFFFFFFFF DUP2 GT ISZERO PUSH2 0xF82 JUMPI PUSH2 0xF81 PUSH2 0x63A JUMP JUMPDEST JUMPDEST PUSH2 0xF8C DUP3 SLOAD PUSH2 0xD83 JUMP JUMPDEST PUSH2 0xF97 DUP3 DUP3 DUP6 PUSH2 0xED3 JUMP JUMPDEST PUSH1 0x0 PUSH1 0x20 SWAP1 POP PUSH1 0x1F DUP4 GT PUSH1 0x1 DUP2 EQ PUSH2 0xFCA JUMPI PUSH1 0x0 DUP5 ISZERO PUSH2 0xFB8 JUMPI DUP3 DUP8 ADD MLOAD SWAP1 POP JUMPDEST PUSH2 0xFC2 DUP6 DUP3 PUSH2 0xF44 JUMP JUMPDEST DUP7 SSTORE POP PUSH2 0x102A JUMP JUMPDEST PUSH1 0x1F NOT DUP5 AND PUSH2 0xFD8 DUP7 PUSH2 0xDB4 JUMP JUMPDEST PUSH1 0x0 JUMPDEST DUP3 DUP2 LT ISZERO PUSH2 0x1000 JUMPI DUP5 DUP10 ADD MLOAD DUP3 SSTORE PUSH1 0x1 DUP3 ADD SWAP2 POP PUSH1 0x20 DUP6 ADD SWAP5 POP PUSH1 0x20 DUP2 ADD SWAP1 POP PUSH2 0xFDB JUMP JUMPDEST DUP7 DUP4 LT ISZERO PUSH2 0x101D JUMPI DUP5 DUP10 ADD MLOAD PUSH2 0x1019 PUSH1 0x1F DUP10 AND DUP3 PUSH2 0xF26 JUMP JUMPDEST DUP4 SSTORE POP JUMPDEST PUSH1 0x1 PUSH1 0x2 DUP9 MUL ADD DUP9 SSTORE POP POP POP JUMPDEST POP POP POP POP POP POP JUMP INVALID LOG2 PUSH5 0x6970667358 0x22 SLT KECCAK256 LT LOG3 0xD1 PUSH21 0xBFB550FED7BBB73A03C2B90A17EE4EEB76B0B69D43 0xB1 0xCB SWAP2 PUSH4 0x62BACA64 PUSH20 0x6F6C634300081200330000000000000000000000 "
				},
				"gasEstimates": {
					"creation": {
						"codeDepositCost": "840000",
						"executionCost": "877",
						"totalCost": "840877"
					},
					"external": {
						"detail(address)": "infinite",
						"getter(address)": "infinite",
						"popElement(address)": "29852",
						"pushElement(address,uint256[])": "infinite",
						"setter(address,string,uint256,uint8)": "infinite"
					}
				},
				"methodIdentifiers": {
					"detail(address)": "ec5b5932",
					"getter(address)": "f88b1641",
					"popElement(address)": "a98ac960",
					"pushElement(address,uint256[])": "6d4c9c23",
					"setter(address,string,uint256,uint8)": "ae97b846"
				}
			},
			"storageLayout": {
				"storage": [
					{
						"astId": 13,
						"contract": "contracts/enumsAndStructPractice.sol:enums",
						"label": "officers",
						"offset": 0,
						"slot": "0",
						"type": "t_mapping(t_address,t_enum(weekdays)8)"
					},
					{
						"astId": 29,
						"contract": "contracts/enumsAndStructPractice.sol:enums",
						"label": "detail",
						"offset": 0,
						"slot": "1",
						"type": "t_mapping(t_address,t_struct(abc)24_storage)"
					}
				],
				"types": {
					"t_address": {
						"encoding": "inplace",
						"label": "address",
						"numberOfBytes": "20"
					},
					"t_array(t_uint256)dyn_storage": {
						"base": "t_uint256",
						"encoding": "dynamic_array",
						"label": "uint256[]",
						"numberOfBytes": "32"
					},
					"t_enum(weekdays)8": {
						"encoding": "inplace",
						"label": "enum enums.weekdays",
						"numberOfBytes": "1"
					},
					"t_mapping(t_address,t_enum(weekdays)8)": {
						"encoding": "mapping",
						"key": "t_address",
						"label": "mapping(address => enum enums.weekdays)",
						"numberOfBytes": "32",
						"value": "t_enum(weekdays)8"
					},
					"t_mapping(t_address,t_struct(abc)24_storage)": {
						"encoding": "mapping",
						"key": "t_address",
						"label": "mapping(address => struct enums.abc)",
						"numberOfBytes": "32",
						"value": "t_struct(abc)24_storage"
					},
					"t_string_storage": {
						"encoding": "bytes",
						"label": "string",
						"numberOfBytes": "32"
					},
					"t_struct(abc)24_storage": {
						"encoding": "inplace",
						"label": "struct enums.abc",
						"members": [
							{
								"astId": 15,
								"contract": "contracts/enumsAndStructPractice.sol:enums",
								"label": "name",
								"offset": 0,
								"slot": "0",
								"type": "t_string_storage"
							},
							{
								"astId": 17,
								"contract": "contracts/enumsAndStructPractice.sol:enums",
								"label": "age",
								"offset": 0,
								"slot": "1",
								"type": "t_uint256"
							},
							{
								"astId": 20,
								"contract": "contracts/enumsAndStructPractice.sol:enums",
								"label": "week",
								"offset": 0,
								"slot": "2",
								"type": "t_enum(weekdays)8"
							},
							{
								"astId": 23,
								"contract": "contracts/enumsAndStructPractice.sol:enums",
								"label": "array",
								"offset": 0,
								"slot": "3",
								"type": "t_array(t_uint256)dyn_storage"
							}
						],
						"numberOfBytes": "128"
					},
					"t_uint256": {
						"encoding": "inplace",
						"label": "uint256",
						"numberOfBytes": "32"
					}
				}
			},
			"userdoc": {
				"kind": "user",
				"methods": {},
				"version": 1
			}
		}
	}
}