{
	"contracts/intVar.sol": {
		"intVariation": {
			"abi": [
				{
					"inputs": [],
					"name": "int128max",
					"outputs": [
						{
							"internalType": "int128",
							"name": "",
							"type": "int128"
						}
					],
					"stateMutability": "view",
					"type": "function"
				},
				{
					"inputs": [],
					"name": "int128min",
					"outputs": [
						{
							"internalType": "int128",
							"name": "",
							"type": "int128"
						}
					],
					"stateMutability": "view",
					"type": "function"
				},
				{
					"inputs": [],
					"name": "int16max",
					"outputs": [
						{
							"internalType": "int16",
							"name": "",
							"type": "int16"
						}
					],
					"stateMutability": "view",
					"type": "function"
				},
				{
					"inputs": [],
					"name": "int16min",
					"outputs": [
						{
							"internalType": "int16",
							"name": "",
							"type": "int16"
						}
					],
					"stateMutability": "view",
					"type": "function"
				},
				{
					"inputs": [],
					"name": "int256max",
					"outputs": [
						{
							"internalType": "int256",
							"name": "",
							"type": "int256"
						}
					],
					"stateMutability": "view",
					"type": "function"
				},
				{
					"inputs": [],
					"name": "int256min",
					"outputs": [
						{
							"internalType": "int256",
							"name": "",
							"type": "int256"
						}
					],
					"stateMutability": "view",
					"type": "function"
				},
				{
					"inputs": [],
					"name": "int32max",
					"outputs": [
						{
							"internalType": "int32",
							"name": "",
							"type": "int32"
						}
					],
					"stateMutability": "view",
					"type": "function"
				},
				{
					"inputs": [],
					"name": "int32min",
					"outputs": [
						{
							"internalType": "int32",
							"name": "",
							"type": "int32"
						}
					],
					"stateMutability": "view",
					"type": "function"
				},
				{
					"inputs": [],
					"name": "int64max",
					"outputs": [
						{
							"internalType": "int64",
							"name": "",
							"type": "int64"
						}
					],
					"stateMutability": "view",
					"type": "function"
				},
				{
					"inputs": [],
					"name": "int64min",
					"outputs": [
						{
							"internalType": "int64",
							"name": "",
							"type": "int64"
						}
					],
					"stateMutability": "view",
					"type": "function"
				},
				{
					"inputs": [],
					"name": "int8Max",
					"outputs": [
						{
							"internalType": "int8",
							"name": "",
							"type": "int8"
						}
					],
					"stateMutability": "view",
					"type": "function"
				},
				{
					"inputs": [],
					"name": "int8Min",
					"outputs": [
						{
							"internalType": "int8",
							"name": "",
							"type": "int8"
						}
					],
					"stateMutability": "view",
					"type": "function"
				},
				{
					"inputs": [],
					"name": "uint8Max",
					"outputs": [
						{
							"internalType": "uint8",
							"name": "",
							"type": "uint8"
						}
					],
					"stateMutability": "view",
					"type": "function"
				},
				{
					"inputs": [],
					"name": "uint8Min",
					"outputs": [
						{
							"internalType": "uint8",
							"name": "",
							"type": "uint8"
						}
					],
					"stateMutability": "view",
					"type": "function"
				}
			],
			"devdoc": {
				"kind": "dev",
				"methods": {},
				"version": 1
			},
			"evm": {
				"assembly": "    /* \"contracts/intVar.sol\":58:675  contract intVariation{... */\n  mstore(0x40, 0x80)\n    /* \"contracts/intVar.sol\":103:117  type(int8).min */\n  0xffffffffffffffffffffffffffffffffffffffffffffffffffffffffffffff80\n    /* \"contracts/intVar.sol\":82:117  int8 public int8Min= type(int8).min */\n  0x00\n  dup1\n  0x0100\n  exp\n  dup2\n  sload\n  dup2\n  0xff\n  mul\n  not\n  and\n  swap1\n  dup4\n  0x00\n  signextend\n  0xff\n  and\n  mul\n  or\n  swap1\n  sstore\n  pop\n    /* \"contracts/intVar.sol\":142:156  type(int8).max */\n  0x7f\n    /* \"contracts/intVar.sol\":120:156  int8 public int8Max = type(int8).max */\n  0x00\n  exp(0x0100, 0x01)\n  dup2\n  sload\n  dup2\n  0xff\n  mul\n  not\n  and\n  swap1\n  dup4\n  0x00\n  signextend\n  0xff\n  and\n  mul\n  or\n  swap1\n  sstore\n  pop\n    /* \"contracts/intVar.sol\":182:197  type(uint8).min */\n  0x00\n    /* \"contracts/intVar.sol\":159:197  uint8 public uint8Min= type(uint8).min */\n  dup1\n  exp(0x0100, 0x02)\n  dup2\n  sload\n  dup2\n  0xff\n  mul\n  not\n  and\n  swap1\n  dup4\n  0xff\n  and\n  mul\n  or\n  swap1\n  sstore\n  pop\n    /* \"contracts/intVar.sol\":224:239  type(uint8).max */\n  0xff\n    /* \"contracts/intVar.sol\":200:239  uint8 public uint8Max = type(uint8).max */\n  0x00\n  exp(0x0100, 0x03)\n  dup2\n  sload\n  dup2\n  0xff\n  mul\n  not\n  and\n  swap1\n  dup4\n  0xff\n  and\n  mul\n  or\n  swap1\n  sstore\n  pop\n    /* \"contracts/intVar.sol\":266:281  type(int16).min */\n  0xffffffffffffffffffffffffffffffffffffffffffffffffffffffffffff8000\n    /* \"contracts/intVar.sol\":242:281  int16 public int16min = type(int16).min */\n  0x00\n  exp(0x0100, 0x04)\n  dup2\n  sload\n  dup2\n  0xffff\n  mul\n  not\n  and\n  swap1\n  dup4\n  0x01\n  signextend\n  0xffff\n  and\n  mul\n  or\n  swap1\n  sstore\n  pop\n    /* \"contracts/intVar.sol\":308:323  type(int16).max */\n  0x7fff\n    /* \"contracts/intVar.sol\":284:323  int16 public int16max = type(int16).max */\n  0x00\n  exp(0x0100, 0x06)\n  dup2\n  sload\n  dup2\n  0xffff\n  mul\n  not\n  and\n  swap1\n  dup4\n  0x01\n  signextend\n  0xffff\n  and\n  mul\n  or\n  swap1\n  sstore\n  pop\n    /* \"contracts/intVar.sol\":350:365  type(int32).min */\n  0xffffffffffffffffffffffffffffffffffffffffffffffffffffffff80000000\n    /* \"contracts/intVar.sol\":326:365  int32 public int32min = type(int32).min */\n  0x00\n  exp(0x0100, 0x08)\n  dup2\n  sload\n  dup2\n  0xffffffff\n  mul\n  not\n  and\n  swap1\n  dup4\n  0x03\n  signextend\n  0xffffffff\n  and\n  mul\n  or\n  swap1\n  sstore\n  pop\n    /* \"contracts/intVar.sol\":392:407  type(int32).max */\n  0x7fffffff\n    /* \"contracts/intVar.sol\":368:407  int32 public int32max = type(int32).max */\n  0x00\n  exp(0x0100, 0x0c)\n  dup2\n  sload\n  dup2\n  0xffffffff\n  mul\n  not\n  and\n  swap1\n  dup4\n  0x03\n  signextend\n  0xffffffff\n  and\n  mul\n  or\n  swap1\n  sstore\n  pop\n    /* \"contracts/intVar.sol\":434:449  type(int64).min */\n  0xffffffffffffffffffffffffffffffffffffffffffffffff8000000000000000\n    /* \"contracts/intVar.sol\":410:449  int64 public int64min = type(int64).min */\n  0x00\n  exp(0x0100, 0x10)\n  dup2\n  sload\n  dup2\n  0xffffffffffffffff\n  mul\n  not\n  and\n  swap1\n  dup4\n  0x07\n  signextend\n  0xffffffffffffffff\n  and\n  mul\n  or\n  swap1\n  sstore\n  pop\n    /* \"contracts/intVar.sol\":476:491  type(int64).max */\n  0x7fffffffffffffff\n    /* \"contracts/intVar.sol\":452:491  int64 public int64max = type(int64).max */\n  0x00\n  exp(0x0100, 0x18)\n  dup2\n  sload\n  dup2\n  0xffffffffffffffff\n  mul\n  not\n  and\n  swap1\n  dup4\n  0x07\n  signextend\n  0xffffffffffffffff\n  and\n  mul\n  or\n  swap1\n  sstore\n  pop\n    /* \"contracts/intVar.sol\":520:536  type(int128).min */\n  0xffffffffffffffffffffffffffffffff80000000000000000000000000000000\n    /* \"contracts/intVar.sol\":494:536  int128 public int128min = type(int128).min */\n  0x01\n  exp(0x0100, 0x00)\n  dup2\n  sload\n  dup2\n  0xffffffffffffffffffffffffffffffff\n  mul\n  not\n  and\n  swap1\n  dup4\n  0x0f\n  signextend\n  0xffffffffffffffffffffffffffffffff\n  and\n  mul\n  or\n  swap1\n  sstore\n  pop\n    /* \"contracts/intVar.sol\":565:581  type(int128).max */\n  0x7fffffffffffffffffffffffffffffff\n    /* \"contracts/intVar.sol\":539:581  int128 public int128max = type(int128).max */\n  0x01\n  exp(0x0100, 0x10)\n  dup2\n  sload\n  dup2\n  0xffffffffffffffffffffffffffffffff\n  mul\n  not\n  and\n  swap1\n  dup4\n  0x0f\n  signextend\n  0xffffffffffffffffffffffffffffffff\n  and\n  mul\n  or\n  swap1\n  sstore\n  pop\n    /* \"contracts/intVar.sol\":610:626  type(int256).min */\n  0x8000000000000000000000000000000000000000000000000000000000000000\n    /* \"contracts/intVar.sol\":584:626  int256 public int256min = type(int256).min */\n  0x02\n  sstore\n    /* \"contracts/intVar.sol\":655:671  type(int256).max */\n  0x7fffffffffffffffffffffffffffffffffffffffffffffffffffffffffffffff\n    /* \"contracts/intVar.sol\":629:671  int256 public int256max = type(int256).max */\n  0x03\n  sstore\n    /* \"contracts/intVar.sol\":58:675  contract intVariation{... */\n  callvalue\n  dup1\n  iszero\n  tag_1\n  jumpi\n  0x00\n  dup1\n  revert\ntag_1:\n  pop\n  dataSize(sub_0)\n  dup1\n  dataOffset(sub_0)\n  0x00\n  codecopy\n  0x00\n  return\nstop\n\nsub_0: assembly {\n        /* \"contracts/intVar.sol\":58:675  contract intVariation{... */\n      mstore(0x40, 0x80)\n      callvalue\n      dup1\n      iszero\n      tag_1\n      jumpi\n      0x00\n      dup1\n      revert\n    tag_1:\n      pop\n      jumpi(tag_2, lt(calldatasize, 0x04))\n      shr(0xe0, calldataload(0x00))\n      dup1\n      0x843ed70d\n      gt\n      tag_17\n      jumpi\n      dup1\n      0xcbf144a5\n      gt\n      tag_18\n      jumpi\n      dup1\n      0xcbf144a5\n      eq\n      tag_13\n      jumpi\n      dup1\n      0xd163f0b9\n      eq\n      tag_14\n      jumpi\n      dup1\n      0xeb8db1f0\n      eq\n      tag_15\n      jumpi\n      dup1\n      0xee5eb961\n      eq\n      tag_16\n      jumpi\n      jump(tag_2)\n    tag_18:\n      dup1\n      0x843ed70d\n      eq\n      tag_10\n      jumpi\n      dup1\n      0x8ce273c7\n      eq\n      tag_11\n      jumpi\n      dup1\n      0xc977b820\n      eq\n      tag_12\n      jumpi\n      jump(tag_2)\n    tag_17:\n      dup1\n      0x56461fab\n      gt\n      tag_19\n      jumpi\n      dup1\n      0x56461fab\n      eq\n      tag_6\n      jumpi\n      dup1\n      0x5bba5d75\n      eq\n      tag_7\n      jumpi\n      dup1\n      0x6a58ca87\n      eq\n      tag_8\n      jumpi\n      dup1\n      0x70ad9343\n      eq\n      tag_9\n      jumpi\n      jump(tag_2)\n    tag_19:\n      dup1\n      0x38d75cd3\n      eq\n      tag_3\n      jumpi\n      dup1\n      0x3fdda9b7\n      eq\n      tag_4\n      jumpi\n      dup1\n      0x460526fb\n      eq\n      tag_5\n      jumpi\n    tag_2:\n      0x00\n      dup1\n      revert\n        /* \"contracts/intVar.sol\":584:626  int256 public int256min = type(int256).min */\n    tag_3:\n      tag_20\n      tag_21\n      jump\t// in\n    tag_20:\n      mload(0x40)\n      tag_22\n      swap2\n      swap1\n      tag_23\n      jump\t// in\n    tag_22:\n      mload(0x40)\n      dup1\n      swap2\n      sub\n      swap1\n      return\n        /* \"contracts/intVar.sol\":368:407  int32 public int32max = type(int32).max */\n    tag_4:\n      tag_24\n      tag_25\n      jump\t// in\n    tag_24:\n      mload(0x40)\n      tag_26\n      swap2\n      swap1\n      tag_27\n      jump\t// in\n    tag_26:\n      mload(0x40)\n      dup1\n      swap2\n      sub\n      swap1\n      return\n        /* \"contracts/intVar.sol\":284:323  int16 public int16max = type(int16).max */\n    tag_5:\n      tag_28\n      tag_29\n      jump\t// in\n    tag_28:\n      mload(0x40)\n      tag_30\n      swap2\n      swap1\n      tag_31\n      jump\t// in\n    tag_30:\n      mload(0x40)\n      dup1\n      swap2\n      sub\n      swap1\n      return\n        /* \"contracts/intVar.sol\":629:671  int256 public int256max = type(int256).max */\n    tag_6:\n      tag_32\n      tag_33\n      jump\t// in\n    tag_32:\n      mload(0x40)\n      tag_34\n      swap2\n      swap1\n      tag_23\n      jump\t// in\n    tag_34:\n      mload(0x40)\n      dup1\n      swap2\n      sub\n      swap1\n      return\n        /* \"contracts/intVar.sol\":242:281  int16 public int16min = type(int16).min */\n    tag_7:\n      tag_35\n      tag_36\n      jump\t// in\n    tag_35:\n      mload(0x40)\n      tag_37\n      swap2\n      swap1\n      tag_31\n      jump\t// in\n    tag_37:\n      mload(0x40)\n      dup1\n      swap2\n      sub\n      swap1\n      return\n        /* \"contracts/intVar.sol\":452:491  int64 public int64max = type(int64).max */\n    tag_8:\n      tag_38\n      tag_39\n      jump\t// in\n    tag_38:\n      mload(0x40)\n      tag_40\n      swap2\n      swap1\n      tag_41\n      jump\t// in\n    tag_40:\n      mload(0x40)\n      dup1\n      swap2\n      sub\n      swap1\n      return\n        /* \"contracts/intVar.sol\":200:239  uint8 public uint8Max = type(uint8).max */\n    tag_9:\n      tag_42\n      tag_43\n      jump\t// in\n    tag_42:\n      mload(0x40)\n      tag_44\n      swap2\n      swap1\n      tag_45\n      jump\t// in\n    tag_44:\n      mload(0x40)\n      dup1\n      swap2\n      sub\n      swap1\n      return\n        /* \"contracts/intVar.sol\":326:365  int32 public int32min = type(int32).min */\n    tag_10:\n      tag_46\n      tag_47\n      jump\t// in\n    tag_46:\n      mload(0x40)\n      tag_48\n      swap2\n      swap1\n      tag_27\n      jump\t// in\n    tag_48:\n      mload(0x40)\n      dup1\n      swap2\n      sub\n      swap1\n      return\n        /* \"contracts/intVar.sol\":539:581  int128 public int128max = type(int128).max */\n    tag_11:\n      tag_49\n      tag_50\n      jump\t// in\n    tag_49:\n      mload(0x40)\n      tag_51\n      swap2\n      swap1\n      tag_52\n      jump\t// in\n    tag_51:\n      mload(0x40)\n      dup1\n      swap2\n      sub\n      swap1\n      return\n        /* \"contracts/intVar.sol\":159:197  uint8 public uint8Min= type(uint8).min */\n    tag_12:\n      tag_53\n      tag_54\n      jump\t// in\n    tag_53:\n      mload(0x40)\n      tag_55\n      swap2\n      swap1\n      tag_45\n      jump\t// in\n    tag_55:\n      mload(0x40)\n      dup1\n      swap2\n      sub\n      swap1\n      return\n        /* \"contracts/intVar.sol\":120:156  int8 public int8Max = type(int8).max */\n    tag_13:\n      tag_56\n      tag_57\n      jump\t// in\n    tag_56:\n      mload(0x40)\n      tag_58\n      swap2\n      swap1\n      tag_59\n      jump\t// in\n    tag_58:\n      mload(0x40)\n      dup1\n      swap2\n      sub\n      swap1\n      return\n        /* \"contracts/intVar.sol\":82:117  int8 public int8Min= type(int8).min */\n    tag_14:\n      tag_60\n      tag_61\n      jump\t// in\n    tag_60:\n      mload(0x40)\n      tag_62\n      swap2\n      swap1\n      tag_59\n      jump\t// in\n    tag_62:\n      mload(0x40)\n      dup1\n      swap2\n      sub\n      swap1\n      return\n        /* \"contracts/intVar.sol\":410:449  int64 public int64min = type(int64).min */\n    tag_15:\n      tag_63\n      tag_64\n      jump\t// in\n    tag_63:\n      mload(0x40)\n      tag_65\n      swap2\n      swap1\n      tag_41\n      jump\t// in\n    tag_65:\n      mload(0x40)\n      dup1\n      swap2\n      sub\n      swap1\n      return\n        /* \"contracts/intVar.sol\":494:536  int128 public int128min = type(int128).min */\n    tag_16:\n      tag_66\n      tag_67\n      jump\t// in\n    tag_66:\n      mload(0x40)\n      tag_68\n      swap2\n      swap1\n      tag_52\n      jump\t// in\n    tag_68:\n      mload(0x40)\n      dup1\n      swap2\n      sub\n      swap1\n      return\n        /* \"contracts/intVar.sol\":584:626  int256 public int256min = type(int256).min */\n    tag_21:\n      sload(0x02)\n      dup2\n      jump\t// out\n        /* \"contracts/intVar.sol\":368:407  int32 public int32max = type(int32).max */\n    tag_25:\n      0x00\n      0x0c\n      swap1\n      sload\n      swap1\n      0x0100\n      exp\n      swap1\n      div\n      0x03\n      signextend\n      dup2\n      jump\t// out\n        /* \"contracts/intVar.sol\":284:323  int16 public int16max = type(int16).max */\n    tag_29:\n      0x00\n      0x06\n      swap1\n      sload\n      swap1\n      0x0100\n      exp\n      swap1\n      div\n      0x01\n      signextend\n      dup2\n      jump\t// out\n        /* \"contracts/intVar.sol\":629:671  int256 public int256max = type(int256).max */\n    tag_33:\n      sload(0x03)\n      dup2\n      jump\t// out\n        /* \"contracts/intVar.sol\":242:281  int16 public int16min = type(int16).min */\n    tag_36:\n      0x00\n      0x04\n      swap1\n      sload\n      swap1\n      0x0100\n      exp\n      swap1\n      div\n      0x01\n      signextend\n      dup2\n      jump\t// out\n        /* \"contracts/intVar.sol\":452:491  int64 public int64max = type(int64).max */\n    tag_39:\n      0x00\n      0x18\n      swap1\n      sload\n      swap1\n      0x0100\n      exp\n      swap1\n      div\n      0x07\n      signextend\n      dup2\n      jump\t// out\n        /* \"contracts/intVar.sol\":200:239  uint8 public uint8Max = type(uint8).max */\n    tag_43:\n      0x00\n      0x03\n      swap1\n      sload\n      swap1\n      0x0100\n      exp\n      swap1\n      div\n      0xff\n      and\n      dup2\n      jump\t// out\n        /* \"contracts/intVar.sol\":326:365  int32 public int32min = type(int32).min */\n    tag_47:\n      0x00\n      0x08\n      swap1\n      sload\n      swap1\n      0x0100\n      exp\n      swap1\n      div\n      0x03\n      signextend\n      dup2\n      jump\t// out\n        /* \"contracts/intVar.sol\":539:581  int128 public int128max = type(int128).max */\n    tag_50:\n      0x01\n      0x10\n      swap1\n      sload\n      swap1\n      0x0100\n      exp\n      swap1\n      div\n      0x0f\n      signextend\n      dup2\n      jump\t// out\n        /* \"contracts/intVar.sol\":159:197  uint8 public uint8Min= type(uint8).min */\n    tag_54:\n      0x00\n      0x02\n      swap1\n      sload\n      swap1\n      0x0100\n      exp\n      swap1\n      div\n      0xff\n      and\n      dup2\n      jump\t// out\n        /* \"contracts/intVar.sol\":120:156  int8 public int8Max = type(int8).max */\n    tag_57:\n      0x00\n      0x01\n      swap1\n      sload\n      swap1\n      0x0100\n      exp\n      swap1\n      div\n      0x00\n      signextend\n      dup2\n      jump\t// out\n        /* \"contracts/intVar.sol\":82:117  int8 public int8Min= type(int8).min */\n    tag_61:\n      0x00\n      dup1\n      sload\n      swap1\n      0x0100\n      exp\n      swap1\n      div\n      0x00\n      signextend\n      dup2\n      jump\t// out\n        /* \"contracts/intVar.sol\":410:449  int64 public int64min = type(int64).min */\n    tag_64:\n      0x00\n      0x10\n      swap1\n      sload\n      swap1\n      0x0100\n      exp\n      swap1\n      div\n      0x07\n      signextend\n      dup2\n      jump\t// out\n        /* \"contracts/intVar.sol\":494:536  int128 public int128min = type(int128).min */\n    tag_67:\n      0x01\n      0x00\n      swap1\n      sload\n      swap1\n      0x0100\n      exp\n      swap1\n      div\n      0x0f\n      signextend\n      dup2\n      jump\t// out\n        /* \"#utility.yul\":7:83   */\n    tag_69:\n        /* \"#utility.yul\":43:50   */\n      0x00\n        /* \"#utility.yul\":72:77   */\n      dup2\n        /* \"#utility.yul\":61:77   */\n      swap1\n      pop\n        /* \"#utility.yul\":7:83   */\n      swap2\n      swap1\n      pop\n      jump\t// out\n        /* \"#utility.yul\":89:204   */\n    tag_70:\n        /* \"#utility.yul\":174:197   */\n      tag_86\n        /* \"#utility.yul\":191:196   */\n      dup2\n        /* \"#utility.yul\":174:197   */\n      tag_69\n      jump\t// in\n    tag_86:\n        /* \"#utility.yul\":169:172   */\n      dup3\n        /* \"#utility.yul\":162:198   */\n      mstore\n        /* \"#utility.yul\":89:204   */\n      pop\n      pop\n      jump\t// out\n        /* \"#utility.yul\":210:428   */\n    tag_23:\n        /* \"#utility.yul\":301:305   */\n      0x00\n        /* \"#utility.yul\":339:341   */\n      0x20\n        /* \"#utility.yul\":328:337   */\n      dup3\n        /* \"#utility.yul\":324:342   */\n      add\n        /* \"#utility.yul\":316:342   */\n      swap1\n      pop\n        /* \"#utility.yul\":352:421   */\n      tag_88\n        /* \"#utility.yul\":418:419   */\n      0x00\n        /* \"#utility.yul\":407:416   */\n      dup4\n        /* \"#utility.yul\":403:420   */\n      add\n        /* \"#utility.yul\":394:400   */\n      dup5\n        /* \"#utility.yul\":352:421   */\n      tag_70\n      jump\t// in\n    tag_88:\n        /* \"#utility.yul\":210:428   */\n      swap3\n      swap2\n      pop\n      pop\n      jump\t// out\n        /* \"#utility.yul\":434:524   */\n    tag_71:\n        /* \"#utility.yul\":469:476   */\n      0x00\n        /* \"#utility.yul\":512:517   */\n      dup2\n        /* \"#utility.yul\":509:510   */\n      0x03\n        /* \"#utility.yul\":498:518   */\n      signextend\n        /* \"#utility.yul\":487:518   */\n      swap1\n      pop\n        /* \"#utility.yul\":434:524   */\n      swap2\n      swap1\n      pop\n      jump\t// out\n        /* \"#utility.yul\":530:642   */\n    tag_72:\n        /* \"#utility.yul\":613:635   */\n      tag_91\n        /* \"#utility.yul\":629:634   */\n      dup2\n        /* \"#utility.yul\":613:635   */\n      tag_71\n      jump\t// in\n    tag_91:\n        /* \"#utility.yul\":608:611   */\n      dup3\n        /* \"#utility.yul\":601:636   */\n      mstore\n        /* \"#utility.yul\":530:642   */\n      pop\n      pop\n      jump\t// out\n        /* \"#utility.yul\":648:862   */\n    tag_27:\n        /* \"#utility.yul\":737:741   */\n      0x00\n        /* \"#utility.yul\":775:777   */\n      0x20\n        /* \"#utility.yul\":764:773   */\n      dup3\n        /* \"#utility.yul\":760:778   */\n      add\n        /* \"#utility.yul\":752:778   */\n      swap1\n      pop\n        /* \"#utility.yul\":788:855   */\n      tag_93\n        /* \"#utility.yul\":852:853   */\n      0x00\n        /* \"#utility.yul\":841:850   */\n      dup4\n        /* \"#utility.yul\":837:854   */\n      add\n        /* \"#utility.yul\":828:834   */\n      dup5\n        /* \"#utility.yul\":788:855   */\n      tag_72\n      jump\t// in\n    tag_93:\n        /* \"#utility.yul\":648:862   */\n      swap3\n      swap2\n      pop\n      pop\n      jump\t// out\n        /* \"#utility.yul\":868:958   */\n    tag_73:\n        /* \"#utility.yul\":903:910   */\n      0x00\n        /* \"#utility.yul\":946:951   */\n      dup2\n        /* \"#utility.yul\":943:944   */\n      0x01\n        /* \"#utility.yul\":932:952   */\n      signextend\n        /* \"#utility.yul\":921:952   */\n      swap1\n      pop\n        /* \"#utility.yul\":868:958   */\n      swap2\n      swap1\n      pop\n      jump\t// out\n        /* \"#utility.yul\":964:1076   */\n    tag_74:\n        /* \"#utility.yul\":1047:1069   */\n      tag_96\n        /* \"#utility.yul\":1063:1068   */\n      dup2\n        /* \"#utility.yul\":1047:1069   */\n      tag_73\n      jump\t// in\n    tag_96:\n        /* \"#utility.yul\":1042:1045   */\n      dup3\n        /* \"#utility.yul\":1035:1070   */\n      mstore\n        /* \"#utility.yul\":964:1076   */\n      pop\n      pop\n      jump\t// out\n        /* \"#utility.yul\":1082:1296   */\n    tag_31:\n        /* \"#utility.yul\":1171:1175   */\n      0x00\n        /* \"#utility.yul\":1209:1211   */\n      0x20\n        /* \"#utility.yul\":1198:1207   */\n      dup3\n        /* \"#utility.yul\":1194:1212   */\n      add\n        /* \"#utility.yul\":1186:1212   */\n      swap1\n      pop\n        /* \"#utility.yul\":1222:1289   */\n      tag_98\n        /* \"#utility.yul\":1286:1287   */\n      0x00\n        /* \"#utility.yul\":1275:1284   */\n      dup4\n        /* \"#utility.yul\":1271:1288   */\n      add\n        /* \"#utility.yul\":1262:1268   */\n      dup5\n        /* \"#utility.yul\":1222:1289   */\n      tag_74\n      jump\t// in\n    tag_98:\n        /* \"#utility.yul\":1082:1296   */\n      swap3\n      swap2\n      pop\n      pop\n      jump\t// out\n        /* \"#utility.yul\":1302:1392   */\n    tag_75:\n        /* \"#utility.yul\":1337:1344   */\n      0x00\n        /* \"#utility.yul\":1380:1385   */\n      dup2\n        /* \"#utility.yul\":1377:1378   */\n      0x07\n        /* \"#utility.yul\":1366:1386   */\n      signextend\n        /* \"#utility.yul\":1355:1386   */\n      swap1\n      pop\n        /* \"#utility.yul\":1302:1392   */\n      swap2\n      swap1\n      pop\n      jump\t// out\n        /* \"#utility.yul\":1398:1510   */\n    tag_76:\n        /* \"#utility.yul\":1481:1503   */\n      tag_101\n        /* \"#utility.yul\":1497:1502   */\n      dup2\n        /* \"#utility.yul\":1481:1503   */\n      tag_75\n      jump\t// in\n    tag_101:\n        /* \"#utility.yul\":1476:1479   */\n      dup3\n        /* \"#utility.yul\":1469:1504   */\n      mstore\n        /* \"#utility.yul\":1398:1510   */\n      pop\n      pop\n      jump\t// out\n        /* \"#utility.yul\":1516:1730   */\n    tag_41:\n        /* \"#utility.yul\":1605:1609   */\n      0x00\n        /* \"#utility.yul\":1643:1645   */\n      0x20\n        /* \"#utility.yul\":1632:1641   */\n      dup3\n        /* \"#utility.yul\":1628:1646   */\n      add\n        /* \"#utility.yul\":1620:1646   */\n      swap1\n      pop\n        /* \"#utility.yul\":1656:1723   */\n      tag_103\n        /* \"#utility.yul\":1720:1721   */\n      0x00\n        /* \"#utility.yul\":1709:1718   */\n      dup4\n        /* \"#utility.yul\":1705:1722   */\n      add\n        /* \"#utility.yul\":1696:1702   */\n      dup5\n        /* \"#utility.yul\":1656:1723   */\n      tag_76\n      jump\t// in\n    tag_103:\n        /* \"#utility.yul\":1516:1730   */\n      swap3\n      swap2\n      pop\n      pop\n      jump\t// out\n        /* \"#utility.yul\":1736:1822   */\n    tag_77:\n        /* \"#utility.yul\":1771:1778   */\n      0x00\n        /* \"#utility.yul\":1811:1815   */\n      0xff\n        /* \"#utility.yul\":1804:1809   */\n      dup3\n        /* \"#utility.yul\":1800:1816   */\n      and\n        /* \"#utility.yul\":1789:1816   */\n      swap1\n      pop\n        /* \"#utility.yul\":1736:1822   */\n      swap2\n      swap1\n      pop\n      jump\t// out\n        /* \"#utility.yul\":1828:1940   */\n    tag_78:\n        /* \"#utility.yul\":1911:1933   */\n      tag_106\n        /* \"#utility.yul\":1927:1932   */\n      dup2\n        /* \"#utility.yul\":1911:1933   */\n      tag_77\n      jump\t// in\n    tag_106:\n        /* \"#utility.yul\":1906:1909   */\n      dup3\n        /* \"#utility.yul\":1899:1934   */\n      mstore\n        /* \"#utility.yul\":1828:1940   */\n      pop\n      pop\n      jump\t// out\n        /* \"#utility.yul\":1946:2160   */\n    tag_45:\n        /* \"#utility.yul\":2035:2039   */\n      0x00\n        /* \"#utility.yul\":2073:2075   */\n      0x20\n        /* \"#utility.yul\":2062:2071   */\n      dup3\n        /* \"#utility.yul\":2058:2076   */\n      add\n        /* \"#utility.yul\":2050:2076   */\n      swap1\n      pop\n        /* \"#utility.yul\":2086:2153   */\n      tag_108\n        /* \"#utility.yul\":2150:2151   */\n      0x00\n        /* \"#utility.yul\":2139:2148   */\n      dup4\n        /* \"#utility.yul\":2135:2152   */\n      add\n        /* \"#utility.yul\":2126:2132   */\n      dup5\n        /* \"#utility.yul\":2086:2153   */\n      tag_78\n      jump\t// in\n    tag_108:\n        /* \"#utility.yul\":1946:2160   */\n      swap3\n      swap2\n      pop\n      pop\n      jump\t// out\n        /* \"#utility.yul\":2166:2258   */\n    tag_79:\n        /* \"#utility.yul\":2202:2209   */\n      0x00\n        /* \"#utility.yul\":2246:2251   */\n      dup2\n        /* \"#utility.yul\":2242:2244   */\n      0x0f\n        /* \"#utility.yul\":2231:2252   */\n      signextend\n        /* \"#utility.yul\":2220:2252   */\n      swap1\n      pop\n        /* \"#utility.yul\":2166:2258   */\n      swap2\n      swap1\n      pop\n      jump\t// out\n        /* \"#utility.yul\":2264:2379   */\n    tag_80:\n        /* \"#utility.yul\":2349:2372   */\n      tag_111\n        /* \"#utility.yul\":2366:2371   */\n      dup2\n        /* \"#utility.yul\":2349:2372   */\n      tag_79\n      jump\t// in\n    tag_111:\n        /* \"#utility.yul\":2344:2347   */\n      dup3\n        /* \"#utility.yul\":2337:2373   */\n      mstore\n        /* \"#utility.yul\":2264:2379   */\n      pop\n      pop\n      jump\t// out\n        /* \"#utility.yul\":2385:2603   */\n    tag_52:\n        /* \"#utility.yul\":2476:2480   */\n      0x00\n        /* \"#utility.yul\":2514:2516   */\n      0x20\n        /* \"#utility.yul\":2503:2512   */\n      dup3\n        /* \"#utility.yul\":2499:2517   */\n      add\n        /* \"#utility.yul\":2491:2517   */\n      swap1\n      pop\n        /* \"#utility.yul\":2527:2596   */\n      tag_113\n        /* \"#utility.yul\":2593:2594   */\n      0x00\n        /* \"#utility.yul\":2582:2591   */\n      dup4\n        /* \"#utility.yul\":2578:2595   */\n      add\n        /* \"#utility.yul\":2569:2575   */\n      dup5\n        /* \"#utility.yul\":2527:2596   */\n      tag_80\n      jump\t// in\n    tag_113:\n        /* \"#utility.yul\":2385:2603   */\n      swap3\n      swap2\n      pop\n      pop\n      jump\t// out\n        /* \"#utility.yul\":2609:2698   */\n    tag_81:\n        /* \"#utility.yul\":2643:2650   */\n      0x00\n        /* \"#utility.yul\":2686:2691   */\n      dup2\n        /* \"#utility.yul\":2683:2684   */\n      0x00\n        /* \"#utility.yul\":2672:2692   */\n      signextend\n        /* \"#utility.yul\":2661:2692   */\n      swap1\n      pop\n        /* \"#utility.yul\":2609:2698   */\n      swap2\n      swap1\n      pop\n      jump\t// out\n        /* \"#utility.yul\":2704:2813   */\n    tag_82:\n        /* \"#utility.yul\":2785:2806   */\n      tag_116\n        /* \"#utility.yul\":2800:2805   */\n      dup2\n        /* \"#utility.yul\":2785:2806   */\n      tag_81\n      jump\t// in\n    tag_116:\n        /* \"#utility.yul\":2780:2783   */\n      dup3\n        /* \"#utility.yul\":2773:2807   */\n      mstore\n        /* \"#utility.yul\":2704:2813   */\n      pop\n      pop\n      jump\t// out\n        /* \"#utility.yul\":2819:3029   */\n    tag_59:\n        /* \"#utility.yul\":2906:2910   */\n      0x00\n        /* \"#utility.yul\":2944:2946   */\n      0x20\n        /* \"#utility.yul\":2933:2942   */\n      dup3\n        /* \"#utility.yul\":2929:2947   */\n      add\n        /* \"#utility.yul\":2921:2947   */\n      swap1\n      pop\n        /* \"#utility.yul\":2957:3022   */\n      tag_118\n        /* \"#utility.yul\":3019:3020   */\n      0x00\n        /* \"#utility.yul\":3008:3017   */\n      dup4\n        /* \"#utility.yul\":3004:3021   */\n      add\n        /* \"#utility.yul\":2995:3001   */\n      dup5\n        /* \"#utility.yul\":2957:3022   */\n      tag_82\n      jump\t// in\n    tag_118:\n        /* \"#utility.yul\":2819:3029   */\n      swap3\n      swap2\n      pop\n      pop\n      jump\t// out\n\n    auxdata: 0xa26469706673582212205b72d44065f673e569c3f74cf5ef75620b22027d114e180e1869d7c91c644a6c64736f6c63430008120033\n}\n",
				"bytecode": {
					"linkReferences": {},
					"object": "60806040527fffffffffffffffffffffffffffffffffffffffffffffffffffffffffffffff806000806101000a81548160ff021916908360000b60ff160217905550607f600060016101000a81548160ff021916908360000b60ff16021790555060008060026101000a81548160ff021916908360ff16021790555060ff600060036101000a81548160ff021916908360ff1602179055507fffffffffffffffffffffffffffffffffffffffffffffffffffffffffffff8000600060046101000a81548161ffff021916908360010b61ffff160217905550617fff600060066101000a81548161ffff021916908360010b61ffff1602179055507fffffffffffffffffffffffffffffffffffffffffffffffffffffffff80000000600060086101000a81548163ffffffff021916908360030b63ffffffff160217905550637fffffff6000600c6101000a81548163ffffffff021916908360030b63ffffffff1602179055507fffffffffffffffffffffffffffffffffffffffffffffffff8000000000000000600060106101000a81548167ffffffffffffffff021916908360070b67ffffffffffffffff160217905550677fffffffffffffff600060186101000a81548167ffffffffffffffff021916908360070b67ffffffffffffffff1602179055507fffffffffffffffffffffffffffffffff80000000000000000000000000000000600160006101000a8154816fffffffffffffffffffffffffffffffff0219169083600f0b6fffffffffffffffffffffffffffffffff1602179055506f7fffffffffffffffffffffffffffffff600160106101000a8154816fffffffffffffffffffffffffffffffff0219169083600f0b6fffffffffffffffffffffffffffffffff1602179055507f80000000000000000000000000000000000000000000000000000000000000006002557f7fffffffffffffffffffffffffffffffffffffffffffffffffffffffffffffff6003553480156102e157600080fd5b50610535806102f16000396000f3fe608060405234801561001057600080fd5b50600436106100ea5760003560e01c8063843ed70d1161008c578063cbf144a511610066578063cbf144a51461021b578063d163f0b914610239578063eb8db1f014610257578063ee5eb96114610275576100ea565b8063843ed70d146101c15780638ce273c7146101df578063c977b820146101fd576100ea565b806356461fab116100c857806356461fab146101495780635bba5d75146101675780636a58ca871461018557806370ad9343146101a3576100ea565b806338d75cd3146100ef5780633fdda9b71461010d578063460526fb1461012b575b600080fd5b6100f7610293565b604051610104919061039a565b60405180910390f35b610115610299565b60405161012291906103d1565b60405180910390f35b6101336102ac565b6040516101409190610408565b60405180910390f35b6101516102bf565b60405161015e919061039a565b60405180910390f35b61016f6102c5565b60405161017c9190610408565b60405180910390f35b61018d6102d8565b60405161019a919061043f565b60405180910390f35b6101ab6102eb565b6040516101b89190610476565b60405180910390f35b6101c96102fe565b6040516101d691906103d1565b60405180910390f35b6101e7610311565b6040516101f491906104ad565b60405180910390f35b610205610324565b6040516102129190610476565b60405180910390f35b610223610337565b60405161023091906104e4565b60405180910390f35b61024161034a565b60405161024e91906104e4565b60405180910390f35b61025f61035b565b60405161026c919061043f565b60405180910390f35b61027d61036e565b60405161028a91906104ad565b60405180910390f35b60025481565b6000600c9054906101000a900460030b81565b600060069054906101000a900460010b81565b60035481565b600060049054906101000a900460010b81565b600060189054906101000a900460070b81565b600060039054906101000a900460ff1681565b600060089054906101000a900460030b81565b600160109054906101000a9004600f0b81565b600060029054906101000a900460ff1681565b600060019054906101000a900460000b81565b60008054906101000a900460000b81565b600060109054906101000a900460070b81565b600160009054906101000a9004600f0b81565b6000819050919050565b61039481610381565b82525050565b60006020820190506103af600083018461038b565b92915050565b60008160030b9050919050565b6103cb816103b5565b82525050565b60006020820190506103e660008301846103c2565b92915050565b60008160010b9050919050565b610402816103ec565b82525050565b600060208201905061041d60008301846103f9565b92915050565b60008160070b9050919050565b61043981610423565b82525050565b60006020820190506104546000830184610430565b92915050565b600060ff82169050919050565b6104708161045a565b82525050565b600060208201905061048b6000830184610467565b92915050565b600081600f0b9050919050565b6104a781610491565b82525050565b60006020820190506104c2600083018461049e565b92915050565b60008160000b9050919050565b6104de816104c8565b82525050565b60006020820190506104f960008301846104d5565b9291505056fea26469706673582212205b72d44065f673e569c3f74cf5ef75620b22027d114e180e1869d7c91c644a6c64736f6c63430008120033",
					"opcodes": "PUSH1 0x80 PUSH1 0x40 MSTORE PUSH32 0xFFFFFFFFFFFFFFFFFFFFFFFFFFFFFFFFFFFFFFFFFFFFFFFFFFFFFFFFFFFFFF80 PUSH1 0x0 DUP1 PUSH2 0x100 EXP DUP2 SLOAD DUP2 PUSH1 0xFF MUL NOT AND SWAP1 DUP4 PUSH1 0x0 SIGNEXTEND PUSH1 0xFF AND MUL OR SWAP1 SSTORE POP PUSH1 0x7F PUSH1 0x0 PUSH1 0x1 PUSH2 0x100 EXP DUP2 SLOAD DUP2 PUSH1 0xFF MUL NOT AND SWAP1 DUP4 PUSH1 0x0 SIGNEXTEND PUSH1 0xFF AND MUL OR SWAP1 SSTORE POP PUSH1 0x0 DUP1 PUSH1 0x2 PUSH2 0x100 EXP DUP2 SLOAD DUP2 PUSH1 0xFF MUL NOT AND SWAP1 DUP4 PUSH1 0xFF AND MUL OR SWAP1 SSTORE POP PUSH1 0xFF PUSH1 0x0 PUSH1 0x3 PUSH2 0x100 EXP DUP2 SLOAD DUP2 PUSH1 0xFF MUL NOT AND SWAP1 DUP4 PUSH1 0xFF AND MUL OR SWAP1 SSTORE POP PUSH32 0xFFFFFFFFFFFFFFFFFFFFFFFFFFFFFFFFFFFFFFFFFFFFFFFFFFFFFFFFFFFF8000 PUSH1 0x0 PUSH1 0x4 PUSH2 0x100 EXP DUP2 SLOAD DUP2 PUSH2 0xFFFF MUL NOT AND SWAP1 DUP4 PUSH1 0x1 SIGNEXTEND PUSH2 0xFFFF AND MUL OR SWAP1 SSTORE POP PUSH2 0x7FFF PUSH1 0x0 PUSH1 0x6 PUSH2 0x100 EXP DUP2 SLOAD DUP2 PUSH2 0xFFFF MUL NOT AND SWAP1 DUP4 PUSH1 0x1 SIGNEXTEND PUSH2 0xFFFF AND MUL OR SWAP1 SSTORE POP PUSH32 0xFFFFFFFFFFFFFFFFFFFFFFFFFFFFFFFFFFFFFFFFFFFFFFFFFFFFFFFF80000000 PUSH1 0x0 PUSH1 0x8 PUSH2 0x100 EXP DUP2 SLOAD DUP2 PUSH4 0xFFFFFFFF MUL NOT AND SWAP1 DUP4 PUSH1 0x3 SIGNEXTEND PUSH4 0xFFFFFFFF AND MUL OR SWAP1 SSTORE POP PUSH4 0x7FFFFFFF PUSH1 0x0 PUSH1 0xC PUSH2 0x100 EXP DUP2 SLOAD DUP2 PUSH4 0xFFFFFFFF MUL NOT AND SWAP1 DUP4 PUSH1 0x3 SIGNEXTEND PUSH4 0xFFFFFFFF AND MUL OR SWAP1 SSTORE POP PUSH32 0xFFFFFFFFFFFFFFFFFFFFFFFFFFFFFFFFFFFFFFFFFFFFFFFF8000000000000000 PUSH1 0x0 PUSH1 0x10 PUSH2 0x100 EXP DUP2 SLOAD DUP2 PUSH8 0xFFFFFFFFFFFFFFFF MUL NOT AND SWAP1 DUP4 PUSH1 0x7 SIGNEXTEND PUSH8 0xFFFFFFFFFFFFFFFF AND MUL OR SWAP1 SSTORE POP PUSH8 0x7FFFFFFFFFFFFFFF PUSH1 0x0 PUSH1 0x18 PUSH2 0x100 EXP DUP2 SLOAD DUP2 PUSH8 0xFFFFFFFFFFFFFFFF MUL NOT AND SWAP1 DUP4 PUSH1 0x7 SIGNEXTEND PUSH8 0xFFFFFFFFFFFFFFFF AND MUL OR SWAP1 SSTORE POP PUSH32 0xFFFFFFFFFFFFFFFFFFFFFFFFFFFFFFFF80000000000000000000000000000000 PUSH1 0x1 PUSH1 0x0 PUSH2 0x100 EXP DUP2 SLOAD DUP2 PUSH16 0xFFFFFFFFFFFFFFFFFFFFFFFFFFFFFFFF MUL NOT AND SWAP1 DUP4 PUSH1 0xF SIGNEXTEND PUSH16 0xFFFFFFFFFFFFFFFFFFFFFFFFFFFFFFFF AND MUL OR SWAP1 SSTORE POP PUSH16 0x7FFFFFFFFFFFFFFFFFFFFFFFFFFFFFFF PUSH1 0x1 PUSH1 0x10 PUSH2 0x100 EXP DUP2 SLOAD DUP2 PUSH16 0xFFFFFFFFFFFFFFFFFFFFFFFFFFFFFFFF MUL NOT AND SWAP1 DUP4 PUSH1 0xF SIGNEXTEND PUSH16 0xFFFFFFFFFFFFFFFFFFFFFFFFFFFFFFFF AND MUL OR SWAP1 SSTORE POP PUSH32 0x8000000000000000000000000000000000000000000000000000000000000000 PUSH1 0x2 SSTORE PUSH32 0x7FFFFFFFFFFFFFFFFFFFFFFFFFFFFFFFFFFFFFFFFFFFFFFFFFFFFFFFFFFFFFFF PUSH1 0x3 SSTORE CALLVALUE DUP1 ISZERO PUSH2 0x2E1 JUMPI PUSH1 0x0 DUP1 REVERT JUMPDEST POP PUSH2 0x535 DUP1 PUSH2 0x2F1 PUSH1 0x0 CODECOPY PUSH1 0x0 RETURN INVALID PUSH1 0x80 PUSH1 0x40 MSTORE CALLVALUE DUP1 ISZERO PUSH2 0x10 JUMPI PUSH1 0x0 DUP1 REVERT JUMPDEST POP PUSH1 0x4 CALLDATASIZE LT PUSH2 0xEA JUMPI PUSH1 0x0 CALLDATALOAD PUSH1 0xE0 SHR DUP1 PUSH4 0x843ED70D GT PUSH2 0x8C JUMPI DUP1 PUSH4 0xCBF144A5 GT PUSH2 0x66 JUMPI DUP1 PUSH4 0xCBF144A5 EQ PUSH2 0x21B JUMPI DUP1 PUSH4 0xD163F0B9 EQ PUSH2 0x239 JUMPI DUP1 PUSH4 0xEB8DB1F0 EQ PUSH2 0x257 JUMPI DUP1 PUSH4 0xEE5EB961 EQ PUSH2 0x275 JUMPI PUSH2 0xEA JUMP JUMPDEST DUP1 PUSH4 0x843ED70D EQ PUSH2 0x1C1 JUMPI DUP1 PUSH4 0x8CE273C7 EQ PUSH2 0x1DF JUMPI DUP1 PUSH4 0xC977B820 EQ PUSH2 0x1FD JUMPI PUSH2 0xEA JUMP JUMPDEST DUP1 PUSH4 0x56461FAB GT PUSH2 0xC8 JUMPI DUP1 PUSH4 0x56461FAB EQ PUSH2 0x149 JUMPI DUP1 PUSH4 0x5BBA5D75 EQ PUSH2 0x167 JUMPI DUP1 PUSH4 0x6A58CA87 EQ PUSH2 0x185 JUMPI DUP1 PUSH4 0x70AD9343 EQ PUSH2 0x1A3 JUMPI PUSH2 0xEA JUMP JUMPDEST DUP1 PUSH4 0x38D75CD3 EQ PUSH2 0xEF JUMPI DUP1 PUSH4 0x3FDDA9B7 EQ PUSH2 0x10D JUMPI DUP1 PUSH4 0x460526FB EQ PUSH2 0x12B JUMPI JUMPDEST PUSH1 0x0 DUP1 REVERT JUMPDEST PUSH2 0xF7 PUSH2 0x293 JUMP JUMPDEST PUSH1 0x40 MLOAD PUSH2 0x104 SWAP2 SWAP1 PUSH2 0x39A JUMP JUMPDEST PUSH1 0x40 MLOAD DUP1 SWAP2 SUB SWAP1 RETURN JUMPDEST PUSH2 0x115 PUSH2 0x299 JUMP JUMPDEST PUSH1 0x40 MLOAD PUSH2 0x122 SWAP2 SWAP1 PUSH2 0x3D1 JUMP JUMPDEST PUSH1 0x40 MLOAD DUP1 SWAP2 SUB SWAP1 RETURN JUMPDEST PUSH2 0x133 PUSH2 0x2AC JUMP JUMPDEST PUSH1 0x40 MLOAD PUSH2 0x140 SWAP2 SWAP1 PUSH2 0x408 JUMP JUMPDEST PUSH1 0x40 MLOAD DUP1 SWAP2 SUB SWAP1 RETURN JUMPDEST PUSH2 0x151 PUSH2 0x2BF JUMP JUMPDEST PUSH1 0x40 MLOAD PUSH2 0x15E SWAP2 SWAP1 PUSH2 0x39A JUMP JUMPDEST PUSH1 0x40 MLOAD DUP1 SWAP2 SUB SWAP1 RETURN JUMPDEST PUSH2 0x16F PUSH2 0x2C5 JUMP JUMPDEST PUSH1 0x40 MLOAD PUSH2 0x17C SWAP2 SWAP1 PUSH2 0x408 JUMP JUMPDEST PUSH1 0x40 MLOAD DUP1 SWAP2 SUB SWAP1 RETURN JUMPDEST PUSH2 0x18D PUSH2 0x2D8 JUMP JUMPDEST PUSH1 0x40 MLOAD PUSH2 0x19A SWAP2 SWAP1 PUSH2 0x43F JUMP JUMPDEST PUSH1 0x40 MLOAD DUP1 SWAP2 SUB SWAP1 RETURN JUMPDEST PUSH2 0x1AB PUSH2 0x2EB JUMP JUMPDEST PUSH1 0x40 MLOAD PUSH2 0x1B8 SWAP2 SWAP1 PUSH2 0x476 JUMP JUMPDEST PUSH1 0x40 MLOAD DUP1 SWAP2 SUB SWAP1 RETURN JUMPDEST PUSH2 0x1C9 PUSH2 0x2FE JUMP JUMPDEST PUSH1 0x40 MLOAD PUSH2 0x1D6 SWAP2 SWAP1 PUSH2 0x3D1 JUMP JUMPDEST PUSH1 0x40 MLOAD DUP1 SWAP2 SUB SWAP1 RETURN JUMPDEST PUSH2 0x1E7 PUSH2 0x311 JUMP JUMPDEST PUSH1 0x40 MLOAD PUSH2 0x1F4 SWAP2 SWAP1 PUSH2 0x4AD JUMP JUMPDEST PUSH1 0x40 MLOAD DUP1 SWAP2 SUB SWAP1 RETURN JUMPDEST PUSH2 0x205 PUSH2 0x324 JUMP JUMPDEST PUSH1 0x40 MLOAD PUSH2 0x212 SWAP2 SWAP1 PUSH2 0x476 JUMP JUMPDEST PUSH1 0x40 MLOAD DUP1 SWAP2 SUB SWAP1 RETURN JUMPDEST PUSH2 0x223 PUSH2 0x337 JUMP JUMPDEST PUSH1 0x40 MLOAD PUSH2 0x230 SWAP2 SWAP1 PUSH2 0x4E4 JUMP JUMPDEST PUSH1 0x40 MLOAD DUP1 SWAP2 SUB SWAP1 RETURN JUMPDEST PUSH2 0x241 PUSH2 0x34A JUMP JUMPDEST PUSH1 0x40 MLOAD PUSH2 0x24E SWAP2 SWAP1 PUSH2 0x4E4 JUMP JUMPDEST PUSH1 0x40 MLOAD DUP1 SWAP2 SUB SWAP1 RETURN JUMPDEST PUSH2 0x25F PUSH2 0x35B JUMP JUMPDEST PUSH1 0x40 MLOAD PUSH2 0x26C SWAP2 SWAP1 PUSH2 0x43F JUMP JUMPDEST PUSH1 0x40 MLOAD DUP1 SWAP2 SUB SWAP1 RETURN JUMPDEST PUSH2 0x27D PUSH2 0x36E JUMP JUMPDEST PUSH1 0x40 MLOAD PUSH2 0x28A SWAP2 SWAP1 PUSH2 0x4AD JUMP JUMPDEST PUSH1 0x40 MLOAD DUP1 SWAP2 SUB SWAP1 RETURN JUMPDEST PUSH1 0x2 SLOAD DUP2 JUMP JUMPDEST PUSH1 0x0 PUSH1 0xC SWAP1 SLOAD SWAP1 PUSH2 0x100 EXP SWAP1 DIV PUSH1 0x3 SIGNEXTEND DUP2 JUMP JUMPDEST PUSH1 0x0 PUSH1 0x6 SWAP1 SLOAD SWAP1 PUSH2 0x100 EXP SWAP1 DIV PUSH1 0x1 SIGNEXTEND DUP2 JUMP JUMPDEST PUSH1 0x3 SLOAD DUP2 JUMP JUMPDEST PUSH1 0x0 PUSH1 0x4 SWAP1 SLOAD SWAP1 PUSH2 0x100 EXP SWAP1 DIV PUSH1 0x1 SIGNEXTEND DUP2 JUMP JUMPDEST PUSH1 0x0 PUSH1 0x18 SWAP1 SLOAD SWAP1 PUSH2 0x100 EXP SWAP1 DIV PUSH1 0x7 SIGNEXTEND DUP2 JUMP JUMPDEST PUSH1 0x0 PUSH1 0x3 SWAP1 SLOAD SWAP1 PUSH2 0x100 EXP SWAP1 DIV PUSH1 0xFF AND DUP2 JUMP JUMPDEST PUSH1 0x0 PUSH1 0x8 SWAP1 SLOAD SWAP1 PUSH2 0x100 EXP SWAP1 DIV PUSH1 0x3 SIGNEXTEND DUP2 JUMP JUMPDEST PUSH1 0x1 PUSH1 0x10 SWAP1 SLOAD SWAP1 PUSH2 0x100 EXP SWAP1 DIV PUSH1 0xF SIGNEXTEND DUP2 JUMP JUMPDEST PUSH1 0x0 PUSH1 0x2 SWAP1 SLOAD SWAP1 PUSH2 0x100 EXP SWAP1 DIV PUSH1 0xFF AND DUP2 JUMP JUMPDEST PUSH1 0x0 PUSH1 0x1 SWAP1 SLOAD SWAP1 PUSH2 0x100 EXP SWAP1 DIV PUSH1 0x0 SIGNEXTEND DUP2 JUMP JUMPDEST PUSH1 0x0 DUP1 SLOAD SWAP1 PUSH2 0x100 EXP SWAP1 DIV PUSH1 0x0 SIGNEXTEND DUP2 JUMP JUMPDEST PUSH1 0x0 PUSH1 0x10 SWAP1 SLOAD SWAP1 PUSH2 0x100 EXP SWAP1 DIV PUSH1 0x7 SIGNEXTEND DUP2 JUMP JUMPDEST PUSH1 0x1 PUSH1 0x0 SWAP1 SLOAD SWAP1 PUSH2 0x100 EXP SWAP1 DIV PUSH1 0xF SIGNEXTEND DUP2 JUMP JUMPDEST PUSH1 0x0 DUP2 SWAP1 POP SWAP2 SWAP1 POP JUMP JUMPDEST PUSH2 0x394 DUP2 PUSH2 0x381 JUMP JUMPDEST DUP3 MSTORE POP POP JUMP JUMPDEST PUSH1 0x0 PUSH1 0x20 DUP3 ADD SWAP1 POP PUSH2 0x3AF PUSH1 0x0 DUP4 ADD DUP5 PUSH2 0x38B JUMP JUMPDEST SWAP3 SWAP2 POP POP JUMP JUMPDEST PUSH1 0x0 DUP2 PUSH1 0x3 SIGNEXTEND SWAP1 POP SWAP2 SWAP1 POP JUMP JUMPDEST PUSH2 0x3CB DUP2 PUSH2 0x3B5 JUMP JUMPDEST DUP3 MSTORE POP POP JUMP JUMPDEST PUSH1 0x0 PUSH1 0x20 DUP3 ADD SWAP1 POP PUSH2 0x3E6 PUSH1 0x0 DUP4 ADD DUP5 PUSH2 0x3C2 JUMP JUMPDEST SWAP3 SWAP2 POP POP JUMP JUMPDEST PUSH1 0x0 DUP2 PUSH1 0x1 SIGNEXTEND SWAP1 POP SWAP2 SWAP1 POP JUMP JUMPDEST PUSH2 0x402 DUP2 PUSH2 0x3EC JUMP JUMPDEST DUP3 MSTORE POP POP JUMP JUMPDEST PUSH1 0x0 PUSH1 0x20 DUP3 ADD SWAP1 POP PUSH2 0x41D PUSH1 0x0 DUP4 ADD DUP5 PUSH2 0x3F9 JUMP JUMPDEST SWAP3 SWAP2 POP POP JUMP JUMPDEST PUSH1 0x0 DUP2 PUSH1 0x7 SIGNEXTEND SWAP1 POP SWAP2 SWAP1 POP JUMP JUMPDEST PUSH2 0x439 DUP2 PUSH2 0x423 JUMP JUMPDEST DUP3 MSTORE POP POP JUMP JUMPDEST PUSH1 0x0 PUSH1 0x20 DUP3 ADD SWAP1 POP PUSH2 0x454 PUSH1 0x0 DUP4 ADD DUP5 PUSH2 0x430 JUMP JUMPDEST SWAP3 SWAP2 POP POP JUMP JUMPDEST PUSH1 0x0 PUSH1 0xFF DUP3 AND SWAP1 POP SWAP2 SWAP1 POP JUMP JUMPDEST PUSH2 0x470 DUP2 PUSH2 0x45A JUMP JUMPDEST DUP3 MSTORE POP POP JUMP JUMPDEST PUSH1 0x0 PUSH1 0x20 DUP3 ADD SWAP1 POP PUSH2 0x48B PUSH1 0x0 DUP4 ADD DUP5 PUSH2 0x467 JUMP JUMPDEST SWAP3 SWAP2 POP POP JUMP JUMPDEST PUSH1 0x0 DUP2 PUSH1 0xF SIGNEXTEND SWAP1 POP SWAP2 SWAP1 POP JUMP JUMPDEST PUSH2 0x4A7 DUP2 PUSH2 0x491 JUMP JUMPDEST DUP3 MSTORE POP POP JUMP JUMPDEST PUSH1 0x0 PUSH1 0x20 DUP3 ADD SWAP1 POP PUSH2 0x4C2 PUSH1 0x0 DUP4 ADD DUP5 PUSH2 0x49E JUMP JUMPDEST SWAP3 SWAP2 POP POP JUMP JUMPDEST PUSH1 0x0 DUP2 PUSH1 0x0 SIGNEXTEND SWAP1 POP SWAP2 SWAP1 POP JUMP JUMPDEST PUSH2 0x4DE DUP2 PUSH2 0x4C8 JUMP JUMPDEST DUP3 MSTORE POP POP JUMP JUMPDEST PUSH1 0x0 PUSH1 0x20 DUP3 ADD SWAP1 POP PUSH2 0x4F9 PUSH1 0x0 DUP4 ADD DUP5 PUSH2 0x4D5 JUMP JUMPDEST SWAP3 SWAP2 POP POP JUMP INVALID LOG2 PUSH5 0x6970667358 0x22 SLT KECCAK256 JUMPDEST PUSH19 0xD44065F673E569C3F74CF5EF75620B22027D11 0x4E XOR 0xE XOR PUSH10 0xD7C91C644A6C64736F6C PUSH4 0x43000812 STOP CALLER "
				},
				"gasEstimates": {
					"creation": {
						"codeDepositCost": "266600",
						"executionCost": "336302",
						"totalCost": "602902"
					},
					"external": {
						"int128max()": "2570",
						"int128min()": "2563",
						"int16max()": "2593",
						"int16min()": "2570",
						"int256max()": "2452",
						"int256min()": "2453",
						"int32max()": "2571",
						"int32min()": "2548",
						"int64max()": "2592",
						"int64min()": "2591",
						"int8Max()": "2547",
						"int8Min()": "2516",
						"uint8Max()": "2610",
						"uint8Min()": "2588"
					}
				},
				"methodIdentifiers": {
					"int128max()": "8ce273c7",
					"int128min()": "ee5eb961",
					"int16max()": "460526fb",
					"int16min()": "5bba5d75",
					"int256max()": "56461fab",
					"int256min()": "38d75cd3",
					"int32max()": "3fdda9b7",
					"int32min()": "843ed70d",
					"int64max()": "6a58ca87",
					"int64min()": "eb8db1f0",
					"int8Max()": "cbf144a5",
					"int8Min()": "d163f0b9",
					"uint8Max()": "70ad9343",
					"uint8Min()": "c977b820"
				}
			},
			"storageLayout": {
				"storage": [
					{
						"astId": 8,
						"contract": "contracts/intVar.sol:intVariation",
						"label": "int8Min",
						"offset": 0,
						"slot": "0",
						"type": "t_int8"
					},
					{
						"astId": 15,
						"contract": "contracts/intVar.sol:intVariation",
						"label": "int8Max",
						"offset": 1,
						"slot": "0",
						"type": "t_int8"
					},
					{
						"astId": 22,
						"contract": "contracts/intVar.sol:intVariation",
						"label": "uint8Min",
						"offset": 2,
						"slot": "0",
						"type": "t_uint8"
					},
					{
						"astId": 29,
						"contract": "contracts/intVar.sol:intVariation",
						"label": "uint8Max",
						"offset": 3,
						"slot": "0",
						"type": "t_uint8"
					},
					{
						"astId": 36,
						"contract": "contracts/intVar.sol:intVariation",
						"label": "int16min",
						"offset": 4,
						"slot": "0",
						"type": "t_int16"
					},
					{
						"astId": 43,
						"contract": "contracts/intVar.sol:intVariation",
						"label": "int16max",
						"offset": 6,
						"slot": "0",
						"type": "t_int16"
					},
					{
						"astId": 50,
						"contract": "contracts/intVar.sol:intVariation",
						"label": "int32min",
						"offset": 8,
						"slot": "0",
						"type": "t_int32"
					},
					{
						"astId": 57,
						"contract": "contracts/intVar.sol:intVariation",
						"label": "int32max",
						"offset": 12,
						"slot": "0",
						"type": "t_int32"
					},
					{
						"astId": 64,
						"contract": "contracts/intVar.sol:intVariation",
						"label": "int64min",
						"offset": 16,
						"slot": "0",
						"type": "t_int64"
					},
					{
						"astId": 71,
						"contract": "contracts/intVar.sol:intVariation",
						"label": "int64max",
						"offset": 24,
						"slot": "0",
						"type": "t_int64"
					},
					{
						"astId": 78,
						"contract": "contracts/intVar.sol:intVariation",
						"label": "int128min",
						"offset": 0,
						"slot": "1",
						"type": "t_int128"
					},
					{
						"astId": 85,
						"contract": "contracts/intVar.sol:intVariation",
						"label": "int128max",
						"offset": 16,
						"slot": "1",
						"type": "t_int128"
					},
					{
						"astId": 92,
						"contract": "contracts/intVar.sol:intVariation",
						"label": "int256min",
						"offset": 0,
						"slot": "2",
						"type": "t_int256"
					},
					{
						"astId": 99,
						"contract": "contracts/intVar.sol:intVariation",
						"label": "int256max",
						"offset": 0,
						"slot": "3",
						"type": "t_int256"
					}
				],
				"types": {
					"t_int128": {
						"encoding": "inplace",
						"label": "int128",
						"numberOfBytes": "16"
					},
					"t_int16": {
						"encoding": "inplace",
						"label": "int16",
						"numberOfBytes": "2"
					},
					"t_int256": {
						"encoding": "inplace",
						"label": "int256",
						"numberOfBytes": "32"
					},
					"t_int32": {
						"encoding": "inplace",
						"label": "int32",
						"numberOfBytes": "4"
					},
					"t_int64": {
						"encoding": "inplace",
						"label": "int64",
						"numberOfBytes": "8"
					},
					"t_int8": {
						"encoding": "inplace",
						"label": "int8",
						"numberOfBytes": "1"
					},
					"t_uint8": {
						"encoding": "inplace",
						"label": "uint8",
						"numberOfBytes": "1"
					}
				}
			},
			"userdoc": {
				"kind": "user",
				"methods": {},
				"version": 1
			}
		}
	}
}