{
	"contracts/errorHandling.sol": {
		"Name": {
			"abi": [
				{
					"inputs": [
						{
							"internalType": "uint256",
							"name": "amount",
							"type": "uint256"
						}
					],
					"name": "Require",
					"outputs": [],
					"stateMutability": "pure",
					"type": "function"
				},
				{
					"inputs": [
						{
							"internalType": "uint256",
							"name": "amount",
							"type": "uint256"
						}
					],
					"name": "Revert",
					"outputs": [],
					"stateMutability": "pure",
					"type": "function"
				},
				{
					"inputs": [],
					"name": "i",
					"outputs": [
						{
							"internalType": "int256",
							"name": "",
							"type": "int256"
						}
					],
					"stateMutability": "view",
					"type": "function"
				},
				{
					"inputs": [
						{
							"internalType": "uint256",
							"name": "",
							"type": "uint256"
						}
					],
					"name": "int_to_uint",
					"outputs": [
						{
							"internalType": "uint256",
							"name": "",
							"type": "uint256"
						}
					],
					"stateMutability": "view",
					"type": "function"
				},
				{
					"inputs": [
						{
							"internalType": "int256",
							"name": "_i",
							"type": "int256"
						}
					],
					"name": "set",
					"outputs": [],
					"stateMutability": "nonpayable",
					"type": "function"
				}
			],
			"devdoc": {
				"kind": "dev",
				"methods": {},
				"version": 1
			},
			"evm": {
				"assembly": "    /* \"contracts/errorHandling.sol\":60:789  contract Name {... */\n  mstore(0x40, 0x80)\n  callvalue\n  dup1\n  iszero\n  tag_1\n  jumpi\n  0x00\n  dup1\n  revert\ntag_1:\n  pop\n  dataSize(sub_0)\n  dup1\n  dataOffset(sub_0)\n  0x00\n  codecopy\n  0x00\n  return\nstop\n\nsub_0: assembly {\n        /* \"contracts/errorHandling.sol\":60:789  contract Name {... */\n      mstore(0x40, 0x80)\n      callvalue\n      dup1\n      iszero\n      tag_1\n      jumpi\n      0x00\n      dup1\n      revert\n    tag_1:\n      pop\n      jumpi(tag_2, lt(calldatasize, 0x04))\n      shr(0xe0, calldataload(0x00))\n      dup1\n      0x9d434160\n      eq\n      tag_3\n      jumpi\n      dup1\n      0xd792b544\n      eq\n      tag_4\n      jumpi\n      dup1\n      0xe5aa3d58\n      eq\n      tag_5\n      jumpi\n      dup1\n      0xe5c19b2d\n      eq\n      tag_6\n      jumpi\n      dup1\n      0xe65d7ef0\n      eq\n      tag_7\n      jumpi\n    tag_2:\n      0x00\n      dup1\n      revert\n        /* \"contracts/errorHandling.sol\":392:538  function Revert(uint amount) public pure {... */\n    tag_3:\n      tag_8\n      0x04\n      dup1\n      calldatasize\n      sub\n      dup2\n      add\n      swap1\n      tag_9\n      swap2\n      swap1\n      tag_10\n      jump\t// in\n    tag_9:\n      tag_11\n      jump\t// in\n    tag_8:\n      stop\n        /* \"contracts/errorHandling.sol\":547:784  function Require(uint amount) public pure {... */\n    tag_4:\n      tag_12\n      0x04\n      dup1\n      calldatasize\n      sub\n      dup2\n      add\n      swap1\n      tag_13\n      swap2\n      swap1\n      tag_10\n      jump\t// in\n    tag_13:\n      tag_14\n      jump\t// in\n    tag_12:\n      stop\n        /* \"contracts/errorHandling.sol\":83:95  int public i */\n    tag_5:\n      tag_15\n      tag_16\n      jump\t// in\n    tag_15:\n      mload(0x40)\n      tag_17\n      swap2\n      swap1\n      tag_18\n      jump\t// in\n    tag_17:\n      mload(0x40)\n      dup1\n      swap2\n      sub\n      swap1\n      return\n        /* \"contracts/errorHandling.sol\":104:157  function set(int _i)public  {... */\n    tag_6:\n      tag_19\n      0x04\n      dup1\n      calldatasize\n      sub\n      dup2\n      add\n      swap1\n      tag_20\n      swap2\n      swap1\n      tag_21\n      jump\t// in\n    tag_20:\n      tag_22\n      jump\t// in\n    tag_19:\n      stop\n        /* \"contracts/errorHandling.sol\":165:377  function int_to_uint(uint) public view returns (uint){... */\n    tag_7:\n      tag_23\n      0x04\n      dup1\n      calldatasize\n      sub\n      dup2\n      add\n      swap1\n      tag_24\n      swap2\n      swap1\n      tag_10\n      jump\t// in\n    tag_24:\n      tag_25\n      jump\t// in\n    tag_23:\n      mload(0x40)\n      tag_26\n      swap2\n      swap1\n      tag_27\n      jump\t// in\n    tag_26:\n      mload(0x40)\n      dup1\n      swap2\n      sub\n      swap1\n      return\n        /* \"contracts/errorHandling.sol\":392:538  function Revert(uint amount) public pure {... */\n    tag_11:\n        /* \"contracts/errorHandling.sol\":452:455  100 */\n      0x64\n        /* \"contracts/errorHandling.sol\":443:449  amount */\n      dup2\n        /* \"contracts/errorHandling.sol\":443:455  amount > 100 */\n      gt\n        /* \"contracts/errorHandling.sol\":440:495  if(amount > 100){... */\n      iszero\n      tag_29\n      jumpi\n        /* \"contracts/errorHandling.sol\":467:487  revert(\"some error\") */\n      mload(0x40)\n      0x08c379a000000000000000000000000000000000000000000000000000000000\n      dup2\n      mstore\n      0x04\n      add\n      tag_30\n      swap1\n      tag_31\n      jump\t// in\n    tag_30:\n      mload(0x40)\n      dup1\n      swap2\n      sub\n      swap1\n      revert\n        /* \"contracts/errorHandling.sol\":440:495  if(amount > 100){... */\n    tag_29:\n        /* \"contracts/errorHandling.sol\":392:538  function Revert(uint amount) public pure {... */\n      pop\n      jump\t// out\n        /* \"contracts/errorHandling.sol\":547:784  function Require(uint amount) public pure {... */\n    tag_14:\n        /* \"contracts/errorHandling.sol\":723:726  100 */\n      0x64\n        /* \"contracts/errorHandling.sol\":716:722  amount */\n      dup2\n        /* \"contracts/errorHandling.sol\":716:726  amount<100 */\n      lt\n        /* \"contracts/errorHandling.sol\":714:727  !(amount<100) */\n      iszero\n        /* \"contracts/errorHandling.sol\":706:743  require(!(amount<100) , \"some error\") */\n      tag_33\n      jumpi\n      mload(0x40)\n      0x08c379a000000000000000000000000000000000000000000000000000000000\n      dup2\n      mstore\n      0x04\n      add\n      tag_34\n      swap1\n      tag_31\n      jump\t// in\n    tag_34:\n      mload(0x40)\n      dup1\n      swap2\n      sub\n      swap1\n      revert\n    tag_33:\n        /* \"contracts/errorHandling.sol\":547:784  function Require(uint amount) public pure {... */\n      pop\n      jump\t// out\n        /* \"contracts/errorHandling.sol\":83:95  int public i */\n    tag_16:\n      sload(0x00)\n      dup2\n      jump\t// out\n        /* \"contracts/errorHandling.sol\":104:157  function set(int _i)public  {... */\n    tag_22:\n        /* \"contracts/errorHandling.sol\":147:149  _i */\n      dup1\n        /* \"contracts/errorHandling.sol\":143:144  i */\n      0x00\n        /* \"contracts/errorHandling.sol\":143:149  i = _i */\n      dup2\n      swap1\n      sstore\n      pop\n        /* \"contracts/errorHandling.sol\":104:157  function set(int _i)public  {... */\n      pop\n      jump\t// out\n        /* \"contracts/errorHandling.sol\":165:377  function int_to_uint(uint) public view returns (uint){... */\n    tag_25:\n        /* \"contracts/errorHandling.sol\":213:217  uint */\n      0x00\n        /* \"contracts/errorHandling.sol\":242:243  0 */\n      dup1\n        /* \"contracts/errorHandling.sol\":240:241  i */\n      sload(0x00)\n        /* \"contracts/errorHandling.sol\":240:243  i>0 */\n      sgt\n        /* \"contracts/errorHandling.sol\":237:358  if(i>0){... */\n      iszero\n      tag_37\n      jumpi\n        /* \"contracts/errorHandling.sol\":255:263  uint _u1 */\n      0x00\n        /* \"contracts/errorHandling.sol\":271:272  i */\n      dup1\n      sload\n        /* \"contracts/errorHandling.sol\":255:273  uint _u1 = uint(i) */\n      swap1\n      pop\n        /* \"contracts/errorHandling.sol\":292:295  _u1 */\n      dup1\n        /* \"contracts/errorHandling.sol\":284:295  return  _u1 */\n      swap2\n      pop\n      pop\n      jump(tag_36)\n        /* \"contracts/errorHandling.sol\":237:358  if(i>0){... */\n    tag_37:\n        /* \"contracts/errorHandling.sol\":332:346  revert(\"sads\") */\n      mload(0x40)\n      0x08c379a000000000000000000000000000000000000000000000000000000000\n      dup2\n      mstore\n      0x04\n      add\n      tag_39\n      swap1\n      tag_40\n      jump\t// in\n    tag_39:\n      mload(0x40)\n      dup1\n      swap2\n      sub\n      swap1\n      revert\n        /* \"contracts/errorHandling.sol\":165:377  function int_to_uint(uint) public view returns (uint){... */\n    tag_36:\n      swap2\n      swap1\n      pop\n      jump\t// out\n        /* \"#utility.yul\":88:205   */\n    tag_42:\n        /* \"#utility.yul\":197:198   */\n      0x00\n        /* \"#utility.yul\":194:195   */\n      dup1\n        /* \"#utility.yul\":187:199   */\n      revert\n        /* \"#utility.yul\":334:411   */\n    tag_44:\n        /* \"#utility.yul\":371:378   */\n      0x00\n        /* \"#utility.yul\":400:405   */\n      dup2\n        /* \"#utility.yul\":389:405   */\n      swap1\n      pop\n        /* \"#utility.yul\":334:411   */\n      swap2\n      swap1\n      pop\n      jump\t// out\n        /* \"#utility.yul\":417:539   */\n    tag_45:\n        /* \"#utility.yul\":490:514   */\n      tag_63\n        /* \"#utility.yul\":508:513   */\n      dup2\n        /* \"#utility.yul\":490:514   */\n      tag_44\n      jump\t// in\n    tag_63:\n        /* \"#utility.yul\":483:488   */\n      dup2\n        /* \"#utility.yul\":480:515   */\n      eq\n        /* \"#utility.yul\":470:533   */\n      tag_64\n      jumpi\n        /* \"#utility.yul\":529:530   */\n      0x00\n        /* \"#utility.yul\":526:527   */\n      dup1\n        /* \"#utility.yul\":519:531   */\n      revert\n        /* \"#utility.yul\":470:533   */\n    tag_64:\n        /* \"#utility.yul\":417:539   */\n      pop\n      jump\t// out\n        /* \"#utility.yul\":545:684   */\n    tag_46:\n        /* \"#utility.yul\":591:596   */\n      0x00\n        /* \"#utility.yul\":629:635   */\n      dup2\n        /* \"#utility.yul\":616:636   */\n      calldataload\n        /* \"#utility.yul\":607:636   */\n      swap1\n      pop\n        /* \"#utility.yul\":645:678   */\n      tag_66\n        /* \"#utility.yul\":672:677   */\n      dup2\n        /* \"#utility.yul\":645:678   */\n      tag_45\n      jump\t// in\n    tag_66:\n        /* \"#utility.yul\":545:684   */\n      swap3\n      swap2\n      pop\n      pop\n      jump\t// out\n        /* \"#utility.yul\":690:1019   */\n    tag_10:\n        /* \"#utility.yul\":749:755   */\n      0x00\n        /* \"#utility.yul\":798:800   */\n      0x20\n        /* \"#utility.yul\":786:795   */\n      dup3\n        /* \"#utility.yul\":777:784   */\n      dup5\n        /* \"#utility.yul\":773:796   */\n      sub\n        /* \"#utility.yul\":769:801   */\n      slt\n        /* \"#utility.yul\":766:885   */\n      iszero\n      tag_68\n      jumpi\n        /* \"#utility.yul\":804:883   */\n      tag_69\n      tag_42\n      jump\t// in\n    tag_69:\n        /* \"#utility.yul\":766:885   */\n    tag_68:\n        /* \"#utility.yul\":924:925   */\n      0x00\n        /* \"#utility.yul\":949:1002   */\n      tag_70\n        /* \"#utility.yul\":994:1001   */\n      dup5\n        /* \"#utility.yul\":985:991   */\n      dup3\n        /* \"#utility.yul\":974:983   */\n      dup6\n        /* \"#utility.yul\":970:992   */\n      add\n        /* \"#utility.yul\":949:1002   */\n      tag_46\n      jump\t// in\n    tag_70:\n        /* \"#utility.yul\":939:1002   */\n      swap2\n      pop\n        /* \"#utility.yul\":895:1012   */\n      pop\n        /* \"#utility.yul\":690:1019   */\n      swap3\n      swap2\n      pop\n      pop\n      jump\t// out\n        /* \"#utility.yul\":1025:1101   */\n    tag_47:\n        /* \"#utility.yul\":1061:1068   */\n      0x00\n        /* \"#utility.yul\":1090:1095   */\n      dup2\n        /* \"#utility.yul\":1079:1095   */\n      swap1\n      pop\n        /* \"#utility.yul\":1025:1101   */\n      swap2\n      swap1\n      pop\n      jump\t// out\n        /* \"#utility.yul\":1107:1222   */\n    tag_48:\n        /* \"#utility.yul\":1192:1215   */\n      tag_73\n        /* \"#utility.yul\":1209:1214   */\n      dup2\n        /* \"#utility.yul\":1192:1215   */\n      tag_47\n      jump\t// in\n    tag_73:\n        /* \"#utility.yul\":1187:1190   */\n      dup3\n        /* \"#utility.yul\":1180:1216   */\n      mstore\n        /* \"#utility.yul\":1107:1222   */\n      pop\n      pop\n      jump\t// out\n        /* \"#utility.yul\":1228:1446   */\n    tag_18:\n        /* \"#utility.yul\":1319:1323   */\n      0x00\n        /* \"#utility.yul\":1357:1359   */\n      0x20\n        /* \"#utility.yul\":1346:1355   */\n      dup3\n        /* \"#utility.yul\":1342:1360   */\n      add\n        /* \"#utility.yul\":1334:1360   */\n      swap1\n      pop\n        /* \"#utility.yul\":1370:1439   */\n      tag_75\n        /* \"#utility.yul\":1436:1437   */\n      0x00\n        /* \"#utility.yul\":1425:1434   */\n      dup4\n        /* \"#utility.yul\":1421:1438   */\n      add\n        /* \"#utility.yul\":1412:1418   */\n      dup5\n        /* \"#utility.yul\":1370:1439   */\n      tag_48\n      jump\t// in\n    tag_75:\n        /* \"#utility.yul\":1228:1446   */\n      swap3\n      swap2\n      pop\n      pop\n      jump\t// out\n        /* \"#utility.yul\":1452:1572   */\n    tag_49:\n        /* \"#utility.yul\":1524:1547   */\n      tag_77\n        /* \"#utility.yul\":1541:1546   */\n      dup2\n        /* \"#utility.yul\":1524:1547   */\n      tag_47\n      jump\t// in\n    tag_77:\n        /* \"#utility.yul\":1517:1522   */\n      dup2\n        /* \"#utility.yul\":1514:1548   */\n      eq\n        /* \"#utility.yul\":1504:1566   */\n      tag_78\n      jumpi\n        /* \"#utility.yul\":1562:1563   */\n      0x00\n        /* \"#utility.yul\":1559:1560   */\n      dup1\n        /* \"#utility.yul\":1552:1564   */\n      revert\n        /* \"#utility.yul\":1504:1566   */\n    tag_78:\n        /* \"#utility.yul\":1452:1572   */\n      pop\n      jump\t// out\n        /* \"#utility.yul\":1578:1715   */\n    tag_50:\n        /* \"#utility.yul\":1623:1628   */\n      0x00\n        /* \"#utility.yul\":1661:1667   */\n      dup2\n        /* \"#utility.yul\":1648:1668   */\n      calldataload\n        /* \"#utility.yul\":1639:1668   */\n      swap1\n      pop\n        /* \"#utility.yul\":1677:1709   */\n      tag_80\n        /* \"#utility.yul\":1703:1708   */\n      dup2\n        /* \"#utility.yul\":1677:1709   */\n      tag_49\n      jump\t// in\n    tag_80:\n        /* \"#utility.yul\":1578:1715   */\n      swap3\n      swap2\n      pop\n      pop\n      jump\t// out\n        /* \"#utility.yul\":1721:2048   */\n    tag_21:\n        /* \"#utility.yul\":1779:1785   */\n      0x00\n        /* \"#utility.yul\":1828:1830   */\n      0x20\n        /* \"#utility.yul\":1816:1825   */\n      dup3\n        /* \"#utility.yul\":1807:1814   */\n      dup5\n        /* \"#utility.yul\":1803:1826   */\n      sub\n        /* \"#utility.yul\":1799:1831   */\n      slt\n        /* \"#utility.yul\":1796:1915   */\n      iszero\n      tag_82\n      jumpi\n        /* \"#utility.yul\":1834:1913   */\n      tag_83\n      tag_42\n      jump\t// in\n    tag_83:\n        /* \"#utility.yul\":1796:1915   */\n    tag_82:\n        /* \"#utility.yul\":1954:1955   */\n      0x00\n        /* \"#utility.yul\":1979:2031   */\n      tag_84\n        /* \"#utility.yul\":2023:2030   */\n      dup5\n        /* \"#utility.yul\":2014:2020   */\n      dup3\n        /* \"#utility.yul\":2003:2012   */\n      dup6\n        /* \"#utility.yul\":1999:2021   */\n      add\n        /* \"#utility.yul\":1979:2031   */\n      tag_50\n      jump\t// in\n    tag_84:\n        /* \"#utility.yul\":1969:2031   */\n      swap2\n      pop\n        /* \"#utility.yul\":1925:2041   */\n      pop\n        /* \"#utility.yul\":1721:2048   */\n      swap3\n      swap2\n      pop\n      pop\n      jump\t// out\n        /* \"#utility.yul\":2054:2172   */\n    tag_51:\n        /* \"#utility.yul\":2141:2165   */\n      tag_86\n        /* \"#utility.yul\":2159:2164   */\n      dup2\n        /* \"#utility.yul\":2141:2165   */\n      tag_44\n      jump\t// in\n    tag_86:\n        /* \"#utility.yul\":2136:2139   */\n      dup3\n        /* \"#utility.yul\":2129:2166   */\n      mstore\n        /* \"#utility.yul\":2054:2172   */\n      pop\n      pop\n      jump\t// out\n        /* \"#utility.yul\":2178:2400   */\n    tag_27:\n        /* \"#utility.yul\":2271:2275   */\n      0x00\n        /* \"#utility.yul\":2309:2311   */\n      0x20\n        /* \"#utility.yul\":2298:2307   */\n      dup3\n        /* \"#utility.yul\":2294:2312   */\n      add\n        /* \"#utility.yul\":2286:2312   */\n      swap1\n      pop\n        /* \"#utility.yul\":2322:2393   */\n      tag_88\n        /* \"#utility.yul\":2390:2391   */\n      0x00\n        /* \"#utility.yul\":2379:2388   */\n      dup4\n        /* \"#utility.yul\":2375:2392   */\n      add\n        /* \"#utility.yul\":2366:2372   */\n      dup5\n        /* \"#utility.yul\":2322:2393   */\n      tag_51\n      jump\t// in\n    tag_88:\n        /* \"#utility.yul\":2178:2400   */\n      swap3\n      swap2\n      pop\n      pop\n      jump\t// out\n        /* \"#utility.yul\":2406:2575   */\n    tag_52:\n        /* \"#utility.yul\":2490:2501   */\n      0x00\n        /* \"#utility.yul\":2524:2530   */\n      dup3\n        /* \"#utility.yul\":2519:2522   */\n      dup3\n        /* \"#utility.yul\":2512:2531   */\n      mstore\n        /* \"#utility.yul\":2564:2568   */\n      0x20\n        /* \"#utility.yul\":2559:2562   */\n      dup3\n        /* \"#utility.yul\":2555:2569   */\n      add\n        /* \"#utility.yul\":2540:2569   */\n      swap1\n      pop\n        /* \"#utility.yul\":2406:2575   */\n      swap3\n      swap2\n      pop\n      pop\n      jump\t// out\n        /* \"#utility.yul\":2581:2741   */\n    tag_53:\n        /* \"#utility.yul\":2721:2733   */\n      0x736f6d65206572726f7200000000000000000000000000000000000000000000\n        /* \"#utility.yul\":2717:2718   */\n      0x00\n        /* \"#utility.yul\":2709:2715   */\n      dup3\n        /* \"#utility.yul\":2705:2719   */\n      add\n        /* \"#utility.yul\":2698:2734   */\n      mstore\n        /* \"#utility.yul\":2581:2741   */\n      pop\n      jump\t// out\n        /* \"#utility.yul\":2747:3113   */\n    tag_54:\n        /* \"#utility.yul\":2889:2892   */\n      0x00\n        /* \"#utility.yul\":2910:2977   */\n      tag_92\n        /* \"#utility.yul\":2974:2976   */\n      0x0a\n        /* \"#utility.yul\":2969:2972   */\n      dup4\n        /* \"#utility.yul\":2910:2977   */\n      tag_52\n      jump\t// in\n    tag_92:\n        /* \"#utility.yul\":2903:2977   */\n      swap2\n      pop\n        /* \"#utility.yul\":2986:3079   */\n      tag_93\n        /* \"#utility.yul\":3075:3078   */\n      dup3\n        /* \"#utility.yul\":2986:3079   */\n      tag_53\n      jump\t// in\n    tag_93:\n        /* \"#utility.yul\":3104:3106   */\n      0x20\n        /* \"#utility.yul\":3099:3102   */\n      dup3\n        /* \"#utility.yul\":3095:3107   */\n      add\n        /* \"#utility.yul\":3088:3107   */\n      swap1\n      pop\n        /* \"#utility.yul\":2747:3113   */\n      swap2\n      swap1\n      pop\n      jump\t// out\n        /* \"#utility.yul\":3119:3538   */\n    tag_31:\n        /* \"#utility.yul\":3285:3289   */\n      0x00\n        /* \"#utility.yul\":3323:3325   */\n      0x20\n        /* \"#utility.yul\":3312:3321   */\n      dup3\n        /* \"#utility.yul\":3308:3326   */\n      add\n        /* \"#utility.yul\":3300:3326   */\n      swap1\n      pop\n        /* \"#utility.yul\":3372:3381   */\n      dup2\n        /* \"#utility.yul\":3366:3370   */\n      dup2\n        /* \"#utility.yul\":3362:3382   */\n      sub\n        /* \"#utility.yul\":3358:3359   */\n      0x00\n        /* \"#utility.yul\":3347:3356   */\n      dup4\n        /* \"#utility.yul\":3343:3360   */\n      add\n        /* \"#utility.yul\":3336:3383   */\n      mstore\n        /* \"#utility.yul\":3400:3531   */\n      tag_95\n        /* \"#utility.yul\":3526:3530   */\n      dup2\n        /* \"#utility.yul\":3400:3531   */\n      tag_54\n      jump\t// in\n    tag_95:\n        /* \"#utility.yul\":3392:3531   */\n      swap1\n      pop\n        /* \"#utility.yul\":3119:3538   */\n      swap2\n      swap1\n      pop\n      jump\t// out\n        /* \"#utility.yul\":3544:3698   */\n    tag_55:\n        /* \"#utility.yul\":3684:3690   */\n      0x7361647300000000000000000000000000000000000000000000000000000000\n        /* \"#utility.yul\":3680:3681   */\n      0x00\n        /* \"#utility.yul\":3672:3678   */\n      dup3\n        /* \"#utility.yul\":3668:3682   */\n      add\n        /* \"#utility.yul\":3661:3691   */\n      mstore\n        /* \"#utility.yul\":3544:3698   */\n      pop\n      jump\t// out\n        /* \"#utility.yul\":3704:4069   */\n    tag_56:\n        /* \"#utility.yul\":3846:3849   */\n      0x00\n        /* \"#utility.yul\":3867:3933   */\n      tag_98\n        /* \"#utility.yul\":3931:3932   */\n      0x04\n        /* \"#utility.yul\":3926:3929   */\n      dup4\n        /* \"#utility.yul\":3867:3933   */\n      tag_52\n      jump\t// in\n    tag_98:\n        /* \"#utility.yul\":3860:3933   */\n      swap2\n      pop\n        /* \"#utility.yul\":3942:4035   */\n      tag_99\n        /* \"#utility.yul\":4031:4034   */\n      dup3\n        /* \"#utility.yul\":3942:4035   */\n      tag_55\n      jump\t// in\n    tag_99:\n        /* \"#utility.yul\":4060:4062   */\n      0x20\n        /* \"#utility.yul\":4055:4058   */\n      dup3\n        /* \"#utility.yul\":4051:4063   */\n      add\n        /* \"#utility.yul\":4044:4063   */\n      swap1\n      pop\n        /* \"#utility.yul\":3704:4069   */\n      swap2\n      swap1\n      pop\n      jump\t// out\n        /* \"#utility.yul\":4075:4494   */\n    tag_40:\n        /* \"#utility.yul\":4241:4245   */\n      0x00\n        /* \"#utility.yul\":4279:4281   */\n      0x20\n        /* \"#utility.yul\":4268:4277   */\n      dup3\n        /* \"#utility.yul\":4264:4282   */\n      add\n        /* \"#utility.yul\":4256:4282   */\n      swap1\n      pop\n        /* \"#utility.yul\":4328:4337   */\n      dup2\n        /* \"#utility.yul\":4322:4326   */\n      dup2\n        /* \"#utility.yul\":4318:4338   */\n      sub\n        /* \"#utility.yul\":4314:4315   */\n      0x00\n        /* \"#utility.yul\":4303:4312   */\n      dup4\n        /* \"#utility.yul\":4299:4316   */\n      add\n        /* \"#utility.yul\":4292:4339   */\n      mstore\n        /* \"#utility.yul\":4356:4487   */\n      tag_101\n        /* \"#utility.yul\":4482:4486   */\n      dup2\n        /* \"#utility.yul\":4356:4487   */\n      tag_56\n      jump\t// in\n    tag_101:\n        /* \"#utility.yul\":4348:4487   */\n      swap1\n      pop\n        /* \"#utility.yul\":4075:4494   */\n      swap2\n      swap1\n      pop\n      jump\t// out\n\n    auxdata: 0xa264697066735822122049e2efe4ad7c3ebd7d8fd3866633d90216e99aa6f332e3857329d0842229040664736f6c63430008120033\n}\n",
				"bytecode": {
					"linkReferences": {},
					"object": "608060405234801561001057600080fd5b50610435806100206000396000f3fe608060405234801561001057600080fd5b50600436106100575760003560e01c80639d4341601461005c578063d792b54414610078578063e5aa3d5814610094578063e5c19b2d146100b2578063e65d7ef0146100ce575b600080fd5b61007660048036038101906100719190610232565b6100fe565b005b610092600480360381019061008d9190610232565b610145565b005b61009c61018c565b6040516100a99190610278565b60405180910390f35b6100cc60048036038101906100c791906102bf565b610192565b005b6100e860048036038101906100e39190610232565b61019c565b6040516100f591906102fb565b60405180910390f35b6064811115610142576040517f08c379a000000000000000000000000000000000000000000000000000000000815260040161013990610373565b60405180910390fd5b50565b6064811015610189576040517f08c379a000000000000000000000000000000000000000000000000000000000815260040161018090610373565b60405180910390fd5b50565b60005481565b8060008190555050565b60008060005413156101b757600080549050809150506101f2565b6040517f08c379a00000000000000000000000000000000000000000000000000000000081526004016101e9906103df565b60405180910390fd5b919050565b600080fd5b6000819050919050565b61020f816101fc565b811461021a57600080fd5b50565b60008135905061022c81610206565b92915050565b600060208284031215610248576102476101f7565b5b60006102568482850161021d565b91505092915050565b6000819050919050565b6102728161025f565b82525050565b600060208201905061028d6000830184610269565b92915050565b61029c8161025f565b81146102a757600080fd5b50565b6000813590506102b981610293565b92915050565b6000602082840312156102d5576102d46101f7565b5b60006102e3848285016102aa565b91505092915050565b6102f5816101fc565b82525050565b600060208201905061031060008301846102ec565b92915050565b600082825260208201905092915050565b7f736f6d65206572726f7200000000000000000000000000000000000000000000600082015250565b600061035d600a83610316565b915061036882610327565b602082019050919050565b6000602082019050818103600083015261038c81610350565b9050919050565b7f7361647300000000000000000000000000000000000000000000000000000000600082015250565b60006103c9600483610316565b91506103d482610393565b602082019050919050565b600060208201905081810360008301526103f8816103bc565b905091905056fea264697066735822122049e2efe4ad7c3ebd7d8fd3866633d90216e99aa6f332e3857329d0842229040664736f6c63430008120033",
					"opcodes": "PUSH1 0x80 PUSH1 0x40 MSTORE CALLVALUE DUP1 ISZERO PUSH2 0x10 JUMPI PUSH1 0x0 DUP1 REVERT JUMPDEST POP PUSH2 0x435 DUP1 PUSH2 0x20 PUSH1 0x0 CODECOPY PUSH1 0x0 RETURN INVALID PUSH1 0x80 PUSH1 0x40 MSTORE CALLVALUE DUP1 ISZERO PUSH2 0x10 JUMPI PUSH1 0x0 DUP1 REVERT JUMPDEST POP PUSH1 0x4 CALLDATASIZE LT PUSH2 0x57 JUMPI PUSH1 0x0 CALLDATALOAD PUSH1 0xE0 SHR DUP1 PUSH4 0x9D434160 EQ PUSH2 0x5C JUMPI DUP1 PUSH4 0xD792B544 EQ PUSH2 0x78 JUMPI DUP1 PUSH4 0xE5AA3D58 EQ PUSH2 0x94 JUMPI DUP1 PUSH4 0xE5C19B2D EQ PUSH2 0xB2 JUMPI DUP1 PUSH4 0xE65D7EF0 EQ PUSH2 0xCE JUMPI JUMPDEST PUSH1 0x0 DUP1 REVERT JUMPDEST PUSH2 0x76 PUSH1 0x4 DUP1 CALLDATASIZE SUB DUP2 ADD SWAP1 PUSH2 0x71 SWAP2 SWAP1 PUSH2 0x232 JUMP JUMPDEST PUSH2 0xFE JUMP JUMPDEST STOP JUMPDEST PUSH2 0x92 PUSH1 0x4 DUP1 CALLDATASIZE SUB DUP2 ADD SWAP1 PUSH2 0x8D SWAP2 SWAP1 PUSH2 0x232 JUMP JUMPDEST PUSH2 0x145 JUMP JUMPDEST STOP JUMPDEST PUSH2 0x9C PUSH2 0x18C JUMP JUMPDEST PUSH1 0x40 MLOAD PUSH2 0xA9 SWAP2 SWAP1 PUSH2 0x278 JUMP JUMPDEST PUSH1 0x40 MLOAD DUP1 SWAP2 SUB SWAP1 RETURN JUMPDEST PUSH2 0xCC PUSH1 0x4 DUP1 CALLDATASIZE SUB DUP2 ADD SWAP1 PUSH2 0xC7 SWAP2 SWAP1 PUSH2 0x2BF JUMP JUMPDEST PUSH2 0x192 JUMP JUMPDEST STOP JUMPDEST PUSH2 0xE8 PUSH1 0x4 DUP1 CALLDATASIZE SUB DUP2 ADD SWAP1 PUSH2 0xE3 SWAP2 SWAP1 PUSH2 0x232 JUMP JUMPDEST PUSH2 0x19C JUMP JUMPDEST PUSH1 0x40 MLOAD PUSH2 0xF5 SWAP2 SWAP1 PUSH2 0x2FB JUMP JUMPDEST PUSH1 0x40 MLOAD DUP1 SWAP2 SUB SWAP1 RETURN JUMPDEST PUSH1 0x64 DUP2 GT ISZERO PUSH2 0x142 JUMPI PUSH1 0x40 MLOAD PUSH32 0x8C379A000000000000000000000000000000000000000000000000000000000 DUP2 MSTORE PUSH1 0x4 ADD PUSH2 0x139 SWAP1 PUSH2 0x373 JUMP JUMPDEST PUSH1 0x40 MLOAD DUP1 SWAP2 SUB SWAP1 REVERT JUMPDEST POP JUMP JUMPDEST PUSH1 0x64 DUP2 LT ISZERO PUSH2 0x189 JUMPI PUSH1 0x40 MLOAD PUSH32 0x8C379A000000000000000000000000000000000000000000000000000000000 DUP2 MSTORE PUSH1 0x4 ADD PUSH2 0x180 SWAP1 PUSH2 0x373 JUMP JUMPDEST PUSH1 0x40 MLOAD DUP1 SWAP2 SUB SWAP1 REVERT JUMPDEST POP JUMP JUMPDEST PUSH1 0x0 SLOAD DUP2 JUMP JUMPDEST DUP1 PUSH1 0x0 DUP2 SWAP1 SSTORE POP POP JUMP JUMPDEST PUSH1 0x0 DUP1 PUSH1 0x0 SLOAD SGT ISZERO PUSH2 0x1B7 JUMPI PUSH1 0x0 DUP1 SLOAD SWAP1 POP DUP1 SWAP2 POP POP PUSH2 0x1F2 JUMP JUMPDEST PUSH1 0x40 MLOAD PUSH32 0x8C379A000000000000000000000000000000000000000000000000000000000 DUP2 MSTORE PUSH1 0x4 ADD PUSH2 0x1E9 SWAP1 PUSH2 0x3DF JUMP JUMPDEST PUSH1 0x40 MLOAD DUP1 SWAP2 SUB SWAP1 REVERT JUMPDEST SWAP2 SWAP1 POP JUMP JUMPDEST PUSH1 0x0 DUP1 REVERT JUMPDEST PUSH1 0x0 DUP2 SWAP1 POP SWAP2 SWAP1 POP JUMP JUMPDEST PUSH2 0x20F DUP2 PUSH2 0x1FC JUMP JUMPDEST DUP2 EQ PUSH2 0x21A JUMPI PUSH1 0x0 DUP1 REVERT JUMPDEST POP JUMP JUMPDEST PUSH1 0x0 DUP2 CALLDATALOAD SWAP1 POP PUSH2 0x22C DUP2 PUSH2 0x206 JUMP JUMPDEST SWAP3 SWAP2 POP POP JUMP JUMPDEST PUSH1 0x0 PUSH1 0x20 DUP3 DUP5 SUB SLT ISZERO PUSH2 0x248 JUMPI PUSH2 0x247 PUSH2 0x1F7 JUMP JUMPDEST JUMPDEST PUSH1 0x0 PUSH2 0x256 DUP5 DUP3 DUP6 ADD PUSH2 0x21D JUMP JUMPDEST SWAP2 POP POP SWAP3 SWAP2 POP POP JUMP JUMPDEST PUSH1 0x0 DUP2 SWAP1 POP SWAP2 SWAP1 POP JUMP JUMPDEST PUSH2 0x272 DUP2 PUSH2 0x25F JUMP JUMPDEST DUP3 MSTORE POP POP JUMP JUMPDEST PUSH1 0x0 PUSH1 0x20 DUP3 ADD SWAP1 POP PUSH2 0x28D PUSH1 0x0 DUP4 ADD DUP5 PUSH2 0x269 JUMP JUMPDEST SWAP3 SWAP2 POP POP JUMP JUMPDEST PUSH2 0x29C DUP2 PUSH2 0x25F JUMP JUMPDEST DUP2 EQ PUSH2 0x2A7 JUMPI PUSH1 0x0 DUP1 REVERT JUMPDEST POP JUMP JUMPDEST PUSH1 0x0 DUP2 CALLDATALOAD SWAP1 POP PUSH2 0x2B9 DUP2 PUSH2 0x293 JUMP JUMPDEST SWAP3 SWAP2 POP POP JUMP JUMPDEST PUSH1 0x0 PUSH1 0x20 DUP3 DUP5 SUB SLT ISZERO PUSH2 0x2D5 JUMPI PUSH2 0x2D4 PUSH2 0x1F7 JUMP JUMPDEST JUMPDEST PUSH1 0x0 PUSH2 0x2E3 DUP5 DUP3 DUP6 ADD PUSH2 0x2AA JUMP JUMPDEST SWAP2 POP POP SWAP3 SWAP2 POP POP JUMP JUMPDEST PUSH2 0x2F5 DUP2 PUSH2 0x1FC JUMP JUMPDEST DUP3 MSTORE POP POP JUMP JUMPDEST PUSH1 0x0 PUSH1 0x20 DUP3 ADD SWAP1 POP PUSH2 0x310 PUSH1 0x0 DUP4 ADD DUP5 PUSH2 0x2EC JUMP JUMPDEST SWAP3 SWAP2 POP POP JUMP JUMPDEST PUSH1 0x0 DUP3 DUP3 MSTORE PUSH1 0x20 DUP3 ADD SWAP1 POP SWAP3 SWAP2 POP POP JUMP JUMPDEST PUSH32 0x736F6D65206572726F7200000000000000000000000000000000000000000000 PUSH1 0x0 DUP3 ADD MSTORE POP JUMP JUMPDEST PUSH1 0x0 PUSH2 0x35D PUSH1 0xA DUP4 PUSH2 0x316 JUMP JUMPDEST SWAP2 POP PUSH2 0x368 DUP3 PUSH2 0x327 JUMP JUMPDEST PUSH1 0x20 DUP3 ADD SWAP1 POP SWAP2 SWAP1 POP JUMP JUMPDEST PUSH1 0x0 PUSH1 0x20 DUP3 ADD SWAP1 POP DUP2 DUP2 SUB PUSH1 0x0 DUP4 ADD MSTORE PUSH2 0x38C DUP2 PUSH2 0x350 JUMP JUMPDEST SWAP1 POP SWAP2 SWAP1 POP JUMP JUMPDEST PUSH32 0x7361647300000000000000000000000000000000000000000000000000000000 PUSH1 0x0 DUP3 ADD MSTORE POP JUMP JUMPDEST PUSH1 0x0 PUSH2 0x3C9 PUSH1 0x4 DUP4 PUSH2 0x316 JUMP JUMPDEST SWAP2 POP PUSH2 0x3D4 DUP3 PUSH2 0x393 JUMP JUMPDEST PUSH1 0x20 DUP3 ADD SWAP1 POP SWAP2 SWAP1 POP JUMP JUMPDEST PUSH1 0x0 PUSH1 0x20 DUP3 ADD SWAP1 POP DUP2 DUP2 SUB PUSH1 0x0 DUP4 ADD MSTORE PUSH2 0x3F8 DUP2 PUSH2 0x3BC JUMP JUMPDEST SWAP1 POP SWAP2 SWAP1 POP JUMP INVALID LOG2 PUSH5 0x6970667358 0x22 SLT KECCAK256 0x49 0xE2 0xEF 0xE4 0xAD PUSH29 0x3EBD7D8FD3866633D90216E99AA6F332E3857329D0842229040664736F PUSH13 0x63430008120033000000000000 "
				},
				"gasEstimates": {
					"creation": {
						"codeDepositCost": "215400",
						"executionCost": "257",
						"totalCost": "215657"
					},
					"external": {
						"Require(uint256)": "719",
						"Revert(uint256)": "697",
						"i()": "2451",
						"int_to_uint(uint256)": "infinite",
						"set(int256)": "22564"
					}
				},
				"methodIdentifiers": {
					"Require(uint256)": "d792b544",
					"Revert(uint256)": "9d434160",
					"i()": "e5aa3d58",
					"int_to_uint(uint256)": "e65d7ef0",
					"set(int256)": "e5c19b2d"
				}
			},
			"storageLayout": {
				"storage": [
					{
						"astId": 3,
						"contract": "contracts/errorHandling.sol:Name",
						"label": "i",
						"offset": 0,
						"slot": "0",
						"type": "t_int256"
					}
				],
				"types": {
					"t_int256": {
						"encoding": "inplace",
						"label": "int256",
						"numberOfBytes": "32"
					}
				}
			},
			"userdoc": {
				"kind": "user",
				"methods": {},
				"version": 1
			}
		}
	}
}