{
	"contracts/enumsPractice.sol": {
		"enums": {
			"abi": [
				{
					"inputs": [
						{
							"internalType": "address",
							"name": "addr",
							"type": "address"
						}
					],
					"name": "get",
					"outputs": [
						{
							"internalType": "enum enums.weekdays",
							"name": "",
							"type": "uint8"
						}
					],
					"stateMutability": "view",
					"type": "function"
				},
				{
					"inputs": [
						{
							"internalType": "address",
							"name": "addr",
							"type": "address"
						},
						{
							"internalType": "enum enums.weekdays",
							"name": "day",
							"type": "uint8"
						}
					],
					"name": "set",
					"outputs": [],
					"stateMutability": "nonpayable",
					"type": "function"
				}
			],
			"devdoc": {
				"kind": "dev",
				"methods": {},
				"version": 1
			},
			"evm": {
				"assembly": "    /* \"contracts/enumsPractice.sol\":60:483  contract enums {... */\n  mstore(0x40, 0x80)\n  callvalue\n  dup1\n  iszero\n  tag_1\n  jumpi\n  0x00\n  dup1\n  revert\ntag_1:\n  pop\n  dataSize(sub_0)\n  dup1\n  dataOffset(sub_0)\n  0x00\n  codecopy\n  0x00\n  return\nstop\n\nsub_0: assembly {\n        /* \"contracts/enumsPractice.sol\":60:483  contract enums {... */\n      mstore(0x40, 0x80)\n      callvalue\n      dup1\n      iszero\n      tag_1\n      jumpi\n      0x00\n      dup1\n      revert\n    tag_1:\n      pop\n      jumpi(tag_2, lt(calldatasize, 0x04))\n      shr(0xe0, calldataload(0x00))\n      dup1\n      0x43f9acff\n      eq\n      tag_3\n      jumpi\n      dup1\n      0xc2bc2efc\n      eq\n      tag_4\n      jumpi\n    tag_2:\n      0x00\n      dup1\n      revert\n        /* \"contracts/enumsPractice.sol\":390:478  function set(address addr, weekdays day) public  {... */\n    tag_3:\n      tag_5\n      0x04\n      dup1\n      calldatasize\n      sub\n      dup2\n      add\n      swap1\n      tag_6\n      swap2\n      swap1\n      tag_7\n      jump\t// in\n    tag_6:\n      tag_8\n      jump\t// in\n    tag_5:\n      stop\n        /* \"contracts/enumsPractice.sol\":291:384  function get(address addr) public view returns (weekdays){... */\n    tag_4:\n      tag_9\n      0x04\n      dup1\n      calldatasize\n      sub\n      dup2\n      add\n      swap1\n      tag_10\n      swap2\n      swap1\n      tag_11\n      jump\t// in\n    tag_10:\n      tag_12\n      jump\t// in\n    tag_9:\n      mload(0x40)\n      tag_13\n      swap2\n      swap1\n      tag_14\n      jump\t// in\n    tag_13:\n      mload(0x40)\n      dup1\n      swap2\n      sub\n      swap1\n      return\n        /* \"contracts/enumsPractice.sol\":390:478  function set(address addr, weekdays day) public  {... */\n    tag_8:\n        /* \"contracts/enumsPractice.sol\":467:470  day */\n      dup1\n        /* \"contracts/enumsPractice.sol\":450:458  officers */\n      0x00\n        /* \"contracts/enumsPractice.sol\":450:464  officers[addr] */\n      dup1\n        /* \"contracts/enumsPractice.sol\":459:463  addr */\n      dup5\n        /* \"contracts/enumsPractice.sol\":450:464  officers[addr] */\n      0xffffffffffffffffffffffffffffffffffffffff\n      and\n      0xffffffffffffffffffffffffffffffffffffffff\n      and\n      dup2\n      mstore\n      0x20\n      add\n      swap1\n      dup2\n      mstore\n      0x20\n      add\n      0x00\n      keccak256\n      0x00\n        /* \"contracts/enumsPractice.sol\":450:470  officers[addr] = day */\n      0x0100\n      exp\n      dup2\n      sload\n      dup2\n      0xff\n      mul\n      not\n      and\n      swap1\n      dup4\n      0x04\n      dup2\n      gt\n      iszero\n      tag_16\n      jumpi\n      tag_17\n      tag_18\n      jump\t// in\n    tag_17:\n    tag_16:\n      mul\n      or\n      swap1\n      sstore\n      pop\n        /* \"contracts/enumsPractice.sol\":390:478  function set(address addr, weekdays day) public  {... */\n      pop\n      pop\n      jump\t// out\n        /* \"contracts/enumsPractice.sol\":291:384  function get(address addr) public view returns (weekdays){... */\n    tag_12:\n        /* \"contracts/enumsPractice.sol\":339:347  weekdays */\n      0x00\n        /* \"contracts/enumsPractice.sol\":362:370  officers */\n      dup1\n        /* \"contracts/enumsPractice.sol\":362:376  officers[addr] */\n      0x00\n        /* \"contracts/enumsPractice.sol\":371:375  addr */\n      dup4\n        /* \"contracts/enumsPractice.sol\":362:376  officers[addr] */\n      0xffffffffffffffffffffffffffffffffffffffff\n      and\n      0xffffffffffffffffffffffffffffffffffffffff\n      and\n      dup2\n      mstore\n      0x20\n      add\n      swap1\n      dup2\n      mstore\n      0x20\n      add\n      0x00\n      keccak256\n      0x00\n      swap1\n      sload\n      swap1\n      0x0100\n      exp\n      swap1\n      div\n      0xff\n      and\n        /* \"contracts/enumsPractice.sol\":355:376  return officers[addr] */\n      swap1\n      pop\n        /* \"contracts/enumsPractice.sol\":291:384  function get(address addr) public view returns (weekdays){... */\n      swap2\n      swap1\n      pop\n      jump\t// out\n        /* \"#utility.yul\":88:205   */\n    tag_21:\n        /* \"#utility.yul\":197:198   */\n      0x00\n        /* \"#utility.yul\":194:195   */\n      dup1\n        /* \"#utility.yul\":187:199   */\n      revert\n        /* \"#utility.yul\":334:460   */\n    tag_23:\n        /* \"#utility.yul\":371:378   */\n      0x00\n        /* \"#utility.yul\":411:453   */\n      0xffffffffffffffffffffffffffffffffffffffff\n        /* \"#utility.yul\":404:409   */\n      dup3\n        /* \"#utility.yul\":400:454   */\n      and\n        /* \"#utility.yul\":389:454   */\n      swap1\n      pop\n        /* \"#utility.yul\":334:460   */\n      swap2\n      swap1\n      pop\n      jump\t// out\n        /* \"#utility.yul\":466:562   */\n    tag_24:\n        /* \"#utility.yul\":503:510   */\n      0x00\n        /* \"#utility.yul\":532:556   */\n      tag_39\n        /* \"#utility.yul\":550:555   */\n      dup3\n        /* \"#utility.yul\":532:556   */\n      tag_23\n      jump\t// in\n    tag_39:\n        /* \"#utility.yul\":521:556   */\n      swap1\n      pop\n        /* \"#utility.yul\":466:562   */\n      swap2\n      swap1\n      pop\n      jump\t// out\n        /* \"#utility.yul\":568:690   */\n    tag_25:\n        /* \"#utility.yul\":641:665   */\n      tag_41\n        /* \"#utility.yul\":659:664   */\n      dup2\n        /* \"#utility.yul\":641:665   */\n      tag_24\n      jump\t// in\n    tag_41:\n        /* \"#utility.yul\":634:639   */\n      dup2\n        /* \"#utility.yul\":631:666   */\n      eq\n        /* \"#utility.yul\":621:684   */\n      tag_42\n      jumpi\n        /* \"#utility.yul\":680:681   */\n      0x00\n        /* \"#utility.yul\":677:678   */\n      dup1\n        /* \"#utility.yul\":670:682   */\n      revert\n        /* \"#utility.yul\":621:684   */\n    tag_42:\n        /* \"#utility.yul\":568:690   */\n      pop\n      jump\t// out\n        /* \"#utility.yul\":696:835   */\n    tag_26:\n        /* \"#utility.yul\":742:747   */\n      0x00\n        /* \"#utility.yul\":780:786   */\n      dup2\n        /* \"#utility.yul\":767:787   */\n      calldataload\n        /* \"#utility.yul\":758:787   */\n      swap1\n      pop\n        /* \"#utility.yul\":796:829   */\n      tag_44\n        /* \"#utility.yul\":823:828   */\n      dup2\n        /* \"#utility.yul\":796:829   */\n      tag_25\n      jump\t// in\n    tag_44:\n        /* \"#utility.yul\":696:835   */\n      swap3\n      swap2\n      pop\n      pop\n      jump\t// out\n        /* \"#utility.yul\":841:950   */\n    tag_27:\n        /* \"#utility.yul\":924:925   */\n      0x05\n        /* \"#utility.yul\":917:922   */\n      dup2\n        /* \"#utility.yul\":914:926   */\n      lt\n        /* \"#utility.yul\":904:944   */\n      tag_46\n      jumpi\n        /* \"#utility.yul\":940:941   */\n      0x00\n        /* \"#utility.yul\":937:938   */\n      dup1\n        /* \"#utility.yul\":930:942   */\n      revert\n        /* \"#utility.yul\":904:944   */\n    tag_46:\n        /* \"#utility.yul\":841:950   */\n      pop\n      jump\t// out\n        /* \"#utility.yul\":956:1115   */\n    tag_28:\n        /* \"#utility.yul\":1012:1017   */\n      0x00\n        /* \"#utility.yul\":1050:1056   */\n      dup2\n        /* \"#utility.yul\":1037:1057   */\n      calldataload\n        /* \"#utility.yul\":1028:1057   */\n      swap1\n      pop\n        /* \"#utility.yul\":1066:1109   */\n      tag_48\n        /* \"#utility.yul\":1103:1108   */\n      dup2\n        /* \"#utility.yul\":1066:1109   */\n      tag_27\n      jump\t// in\n    tag_48:\n        /* \"#utility.yul\":956:1115   */\n      swap3\n      swap2\n      pop\n      pop\n      jump\t// out\n        /* \"#utility.yul\":1121:1615   */\n    tag_7:\n        /* \"#utility.yul\":1199:1205   */\n      0x00\n        /* \"#utility.yul\":1207:1213   */\n      dup1\n        /* \"#utility.yul\":1256:1258   */\n      0x40\n        /* \"#utility.yul\":1244:1253   */\n      dup4\n        /* \"#utility.yul\":1235:1242   */\n      dup6\n        /* \"#utility.yul\":1231:1254   */\n      sub\n        /* \"#utility.yul\":1227:1259   */\n      slt\n        /* \"#utility.yul\":1224:1343   */\n      iszero\n      tag_50\n      jumpi\n        /* \"#utility.yul\":1262:1341   */\n      tag_51\n      tag_21\n      jump\t// in\n    tag_51:\n        /* \"#utility.yul\":1224:1343   */\n    tag_50:\n        /* \"#utility.yul\":1382:1383   */\n      0x00\n        /* \"#utility.yul\":1407:1460   */\n      tag_52\n        /* \"#utility.yul\":1452:1459   */\n      dup6\n        /* \"#utility.yul\":1443:1449   */\n      dup3\n        /* \"#utility.yul\":1432:1441   */\n      dup7\n        /* \"#utility.yul\":1428:1450   */\n      add\n        /* \"#utility.yul\":1407:1460   */\n      tag_26\n      jump\t// in\n    tag_52:\n        /* \"#utility.yul\":1397:1460   */\n      swap3\n      pop\n        /* \"#utility.yul\":1353:1470   */\n      pop\n        /* \"#utility.yul\":1509:1511   */\n      0x20\n        /* \"#utility.yul\":1535:1598   */\n      tag_53\n        /* \"#utility.yul\":1590:1597   */\n      dup6\n        /* \"#utility.yul\":1581:1587   */\n      dup3\n        /* \"#utility.yul\":1570:1579   */\n      dup7\n        /* \"#utility.yul\":1566:1588   */\n      add\n        /* \"#utility.yul\":1535:1598   */\n      tag_28\n      jump\t// in\n    tag_53:\n        /* \"#utility.yul\":1525:1598   */\n      swap2\n      pop\n        /* \"#utility.yul\":1480:1608   */\n      pop\n        /* \"#utility.yul\":1121:1615   */\n      swap3\n      pop\n      swap3\n      swap1\n      pop\n      jump\t// out\n        /* \"#utility.yul\":1621:1950   */\n    tag_11:\n        /* \"#utility.yul\":1680:1686   */\n      0x00\n        /* \"#utility.yul\":1729:1731   */\n      0x20\n        /* \"#utility.yul\":1717:1726   */\n      dup3\n        /* \"#utility.yul\":1708:1715   */\n      dup5\n        /* \"#utility.yul\":1704:1727   */\n      sub\n        /* \"#utility.yul\":1700:1732   */\n      slt\n        /* \"#utility.yul\":1697:1816   */\n      iszero\n      tag_55\n      jumpi\n        /* \"#utility.yul\":1735:1814   */\n      tag_56\n      tag_21\n      jump\t// in\n    tag_56:\n        /* \"#utility.yul\":1697:1816   */\n    tag_55:\n        /* \"#utility.yul\":1855:1856   */\n      0x00\n        /* \"#utility.yul\":1880:1933   */\n      tag_57\n        /* \"#utility.yul\":1925:1932   */\n      dup5\n        /* \"#utility.yul\":1916:1922   */\n      dup3\n        /* \"#utility.yul\":1905:1914   */\n      dup6\n        /* \"#utility.yul\":1901:1923   */\n      add\n        /* \"#utility.yul\":1880:1933   */\n      tag_26\n      jump\t// in\n    tag_57:\n        /* \"#utility.yul\":1870:1933   */\n      swap2\n      pop\n        /* \"#utility.yul\":1826:1943   */\n      pop\n        /* \"#utility.yul\":1621:1950   */\n      swap3\n      swap2\n      pop\n      pop\n      jump\t// out\n        /* \"#utility.yul\":1956:2136   */\n    tag_18:\n        /* \"#utility.yul\":2004:2081   */\n      0x4e487b7100000000000000000000000000000000000000000000000000000000\n        /* \"#utility.yul\":2001:2002   */\n      0x00\n        /* \"#utility.yul\":1994:2082   */\n      mstore\n        /* \"#utility.yul\":2101:2105   */\n      0x21\n        /* \"#utility.yul\":2098:2099   */\n      0x04\n        /* \"#utility.yul\":2091:2106   */\n      mstore\n        /* \"#utility.yul\":2125:2129   */\n      0x24\n        /* \"#utility.yul\":2122:2123   */\n      0x00\n        /* \"#utility.yul\":2115:2130   */\n      revert\n        /* \"#utility.yul\":2142:2257   */\n    tag_29:\n        /* \"#utility.yul\":2225:2226   */\n      0x05\n        /* \"#utility.yul\":2218:2223   */\n      dup2\n        /* \"#utility.yul\":2215:2227   */\n      lt\n        /* \"#utility.yul\":2205:2251   */\n      tag_60\n      jumpi\n        /* \"#utility.yul\":2231:2249   */\n      tag_61\n      tag_18\n      jump\t// in\n    tag_61:\n        /* \"#utility.yul\":2205:2251   */\n    tag_60:\n        /* \"#utility.yul\":2142:2257   */\n      pop\n      jump\t// out\n        /* \"#utility.yul\":2263:2394   */\n    tag_30:\n        /* \"#utility.yul\":2310:2317   */\n      0x00\n        /* \"#utility.yul\":2339:2344   */\n      dup2\n        /* \"#utility.yul\":2328:2344   */\n      swap1\n      pop\n        /* \"#utility.yul\":2345:2388   */\n      tag_63\n        /* \"#utility.yul\":2382:2387   */\n      dup3\n        /* \"#utility.yul\":2345:2388   */\n      tag_29\n      jump\t// in\n    tag_63:\n        /* \"#utility.yul\":2263:2394   */\n      swap2\n      swap1\n      pop\n      jump\t// out\n        /* \"#utility.yul\":2400:2531   */\n    tag_31:\n        /* \"#utility.yul\":2458:2467   */\n      0x00\n        /* \"#utility.yul\":2491:2525   */\n      tag_65\n        /* \"#utility.yul\":2519:2524   */\n      dup3\n        /* \"#utility.yul\":2491:2525   */\n      tag_30\n      jump\t// in\n    tag_65:\n        /* \"#utility.yul\":2478:2525   */\n      swap1\n      pop\n        /* \"#utility.yul\":2400:2531   */\n      swap2\n      swap1\n      pop\n      jump\t// out\n        /* \"#utility.yul\":2537:2684   */\n    tag_32:\n        /* \"#utility.yul\":2632:2677   */\n      tag_67\n        /* \"#utility.yul\":2671:2676   */\n      dup2\n        /* \"#utility.yul\":2632:2677   */\n      tag_31\n      jump\t// in\n    tag_67:\n        /* \"#utility.yul\":2627:2630   */\n      dup3\n        /* \"#utility.yul\":2620:2678   */\n      mstore\n        /* \"#utility.yul\":2537:2684   */\n      pop\n      pop\n      jump\t// out\n        /* \"#utility.yul\":2690:2928   */\n    tag_14:\n        /* \"#utility.yul\":2791:2795   */\n      0x00\n        /* \"#utility.yul\":2829:2831   */\n      0x20\n        /* \"#utility.yul\":2818:2827   */\n      dup3\n        /* \"#utility.yul\":2814:2832   */\n      add\n        /* \"#utility.yul\":2806:2832   */\n      swap1\n      pop\n        /* \"#utility.yul\":2842:2921   */\n      tag_69\n        /* \"#utility.yul\":2918:2919   */\n      0x00\n        /* \"#utility.yul\":2907:2916   */\n      dup4\n        /* \"#utility.yul\":2903:2920   */\n      add\n        /* \"#utility.yul\":2894:2900   */\n      dup5\n        /* \"#utility.yul\":2842:2921   */\n      tag_32\n      jump\t// in\n    tag_69:\n        /* \"#utility.yul\":2690:2928   */\n      swap3\n      swap2\n      pop\n      pop\n      jump\t// out\n\n    auxdata: 0xa264697066735822122040668b8ca42aa48642978749b6c34c6fa1948a5ca8af7e2264c0c1cb10f6ec8164736f6c63430008120033\n}\n",
				"bytecode": {
					"linkReferences": {},
					"object": "608060405234801561001057600080fd5b50610303806100206000396000f3fe608060405234801561001057600080fd5b50600436106100365760003560e01c806343f9acff1461003b578063c2bc2efc14610057575b600080fd5b610055600480360381019061005091906101ce565b610087565b005b610071600480360381019061006c919061020e565b6100f1565b60405161007e91906102b2565b60405180910390f35b806000808473ffffffffffffffffffffffffffffffffffffffff1673ffffffffffffffffffffffffffffffffffffffff16815260200190815260200160002060006101000a81548160ff021916908360048111156100e8576100e761023b565b5b02179055505050565b60008060008373ffffffffffffffffffffffffffffffffffffffff1673ffffffffffffffffffffffffffffffffffffffff16815260200190815260200160002060009054906101000a900460ff169050919050565b600080fd5b600073ffffffffffffffffffffffffffffffffffffffff82169050919050565b60006101768261014b565b9050919050565b6101868161016b565b811461019157600080fd5b50565b6000813590506101a38161017d565b92915050565b600581106101b657600080fd5b50565b6000813590506101c8816101a9565b92915050565b600080604083850312156101e5576101e4610146565b5b60006101f385828601610194565b9250506020610204858286016101b9565b9150509250929050565b60006020828403121561022457610223610146565b5b600061023284828501610194565b91505092915050565b7f4e487b7100000000000000000000000000000000000000000000000000000000600052602160045260246000fd5b6005811061027b5761027a61023b565b5b50565b600081905061028c8261026a565b919050565b600061029c8261027e565b9050919050565b6102ac81610291565b82525050565b60006020820190506102c760008301846102a3565b9291505056fea264697066735822122040668b8ca42aa48642978749b6c34c6fa1948a5ca8af7e2264c0c1cb10f6ec8164736f6c63430008120033",
					"opcodes": "PUSH1 0x80 PUSH1 0x40 MSTORE CALLVALUE DUP1 ISZERO PUSH2 0x10 JUMPI PUSH1 0x0 DUP1 REVERT JUMPDEST POP PUSH2 0x303 DUP1 PUSH2 0x20 PUSH1 0x0 CODECOPY PUSH1 0x0 RETURN INVALID PUSH1 0x80 PUSH1 0x40 MSTORE CALLVALUE DUP1 ISZERO PUSH2 0x10 JUMPI PUSH1 0x0 DUP1 REVERT JUMPDEST POP PUSH1 0x4 CALLDATASIZE LT PUSH2 0x36 JUMPI PUSH1 0x0 CALLDATALOAD PUSH1 0xE0 SHR DUP1 PUSH4 0x43F9ACFF EQ PUSH2 0x3B JUMPI DUP1 PUSH4 0xC2BC2EFC EQ PUSH2 0x57 JUMPI JUMPDEST PUSH1 0x0 DUP1 REVERT JUMPDEST PUSH2 0x55 PUSH1 0x4 DUP1 CALLDATASIZE SUB DUP2 ADD SWAP1 PUSH2 0x50 SWAP2 SWAP1 PUSH2 0x1CE JUMP JUMPDEST PUSH2 0x87 JUMP JUMPDEST STOP JUMPDEST PUSH2 0x71 PUSH1 0x4 DUP1 CALLDATASIZE SUB DUP2 ADD SWAP1 PUSH2 0x6C SWAP2 SWAP1 PUSH2 0x20E JUMP JUMPDEST PUSH2 0xF1 JUMP JUMPDEST PUSH1 0x40 MLOAD PUSH2 0x7E SWAP2 SWAP1 PUSH2 0x2B2 JUMP JUMPDEST PUSH1 0x40 MLOAD DUP1 SWAP2 SUB SWAP1 RETURN JUMPDEST DUP1 PUSH1 0x0 DUP1 DUP5 PUSH20 0xFFFFFFFFFFFFFFFFFFFFFFFFFFFFFFFFFFFFFFFF AND PUSH20 0xFFFFFFFFFFFFFFFFFFFFFFFFFFFFFFFFFFFFFFFF AND DUP2 MSTORE PUSH1 0x20 ADD SWAP1 DUP2 MSTORE PUSH1 0x20 ADD PUSH1 0x0 KECCAK256 PUSH1 0x0 PUSH2 0x100 EXP DUP2 SLOAD DUP2 PUSH1 0xFF MUL NOT AND SWAP1 DUP4 PUSH1 0x4 DUP2 GT ISZERO PUSH2 0xE8 JUMPI PUSH2 0xE7 PUSH2 0x23B JUMP JUMPDEST JUMPDEST MUL OR SWAP1 SSTORE POP POP POP JUMP JUMPDEST PUSH1 0x0 DUP1 PUSH1 0x0 DUP4 PUSH20 0xFFFFFFFFFFFFFFFFFFFFFFFFFFFFFFFFFFFFFFFF AND PUSH20 0xFFFFFFFFFFFFFFFFFFFFFFFFFFFFFFFFFFFFFFFF AND DUP2 MSTORE PUSH1 0x20 ADD SWAP1 DUP2 MSTORE PUSH1 0x20 ADD PUSH1 0x0 KECCAK256 PUSH1 0x0 SWAP1 SLOAD SWAP1 PUSH2 0x100 EXP SWAP1 DIV PUSH1 0xFF AND SWAP1 POP SWAP2 SWAP1 POP JUMP JUMPDEST PUSH1 0x0 DUP1 REVERT JUMPDEST PUSH1 0x0 PUSH20 0xFFFFFFFFFFFFFFFFFFFFFFFFFFFFFFFFFFFFFFFF DUP3 AND SWAP1 POP SWAP2 SWAP1 POP JUMP JUMPDEST PUSH1 0x0 PUSH2 0x176 DUP3 PUSH2 0x14B JUMP JUMPDEST SWAP1 POP SWAP2 SWAP1 POP JUMP JUMPDEST PUSH2 0x186 DUP2 PUSH2 0x16B JUMP JUMPDEST DUP2 EQ PUSH2 0x191 JUMPI PUSH1 0x0 DUP1 REVERT JUMPDEST POP JUMP JUMPDEST PUSH1 0x0 DUP2 CALLDATALOAD SWAP1 POP PUSH2 0x1A3 DUP2 PUSH2 0x17D JUMP JUMPDEST SWAP3 SWAP2 POP POP JUMP JUMPDEST PUSH1 0x5 DUP2 LT PUSH2 0x1B6 JUMPI PUSH1 0x0 DUP1 REVERT JUMPDEST POP JUMP JUMPDEST PUSH1 0x0 DUP2 CALLDATALOAD SWAP1 POP PUSH2 0x1C8 DUP2 PUSH2 0x1A9 JUMP JUMPDEST SWAP3 SWAP2 POP POP JUMP JUMPDEST PUSH1 0x0 DUP1 PUSH1 0x40 DUP4 DUP6 SUB SLT ISZERO PUSH2 0x1E5 JUMPI PUSH2 0x1E4 PUSH2 0x146 JUMP JUMPDEST JUMPDEST PUSH1 0x0 PUSH2 0x1F3 DUP6 DUP3 DUP7 ADD PUSH2 0x194 JUMP JUMPDEST SWAP3 POP POP PUSH1 0x20 PUSH2 0x204 DUP6 DUP3 DUP7 ADD PUSH2 0x1B9 JUMP JUMPDEST SWAP2 POP POP SWAP3 POP SWAP3 SWAP1 POP JUMP JUMPDEST PUSH1 0x0 PUSH1 0x20 DUP3 DUP5 SUB SLT ISZERO PUSH2 0x224 JUMPI PUSH2 0x223 PUSH2 0x146 JUMP JUMPDEST JUMPDEST PUSH1 0x0 PUSH2 0x232 DUP5 DUP3 DUP6 ADD PUSH2 0x194 JUMP JUMPDEST SWAP2 POP POP SWAP3 SWAP2 POP POP JUMP JUMPDEST PUSH32 0x4E487B7100000000000000000000000000000000000000000000000000000000 PUSH1 0x0 MSTORE PUSH1 0x21 PUSH1 0x4 MSTORE PUSH1 0x24 PUSH1 0x0 REVERT JUMPDEST PUSH1 0x5 DUP2 LT PUSH2 0x27B JUMPI PUSH2 0x27A PUSH2 0x23B JUMP JUMPDEST JUMPDEST POP JUMP JUMPDEST PUSH1 0x0 DUP2 SWAP1 POP PUSH2 0x28C DUP3 PUSH2 0x26A JUMP JUMPDEST SWAP2 SWAP1 POP JUMP JUMPDEST PUSH1 0x0 PUSH2 0x29C DUP3 PUSH2 0x27E JUMP JUMPDEST SWAP1 POP SWAP2 SWAP1 POP JUMP JUMPDEST PUSH2 0x2AC DUP2 PUSH2 0x291 JUMP JUMPDEST DUP3 MSTORE POP POP JUMP JUMPDEST PUSH1 0x0 PUSH1 0x20 DUP3 ADD SWAP1 POP PUSH2 0x2C7 PUSH1 0x0 DUP4 ADD DUP5 PUSH2 0x2A3 JUMP JUMPDEST SWAP3 SWAP2 POP POP JUMP INVALID LOG2 PUSH5 0x6970667358 0x22 SLT KECCAK256 BLOCKHASH PUSH7 0x8B8CA42AA48642 SWAP8 DUP8 0x49 0xB6 0xC3 0x4C PUSH16 0xA1948A5CA8AF7E2264C0C1CB10F6EC81 PUSH5 0x736F6C6343 STOP ADDMOD SLT STOP CALLER "
				},
				"gasEstimates": {
					"creation": {
						"codeDepositCost": "154200",
						"executionCost": "202",
						"totalCost": "154402"
					},
					"external": {
						"get(address)": "2972",
						"set(address,uint8)": "24940"
					}
				},
				"methodIdentifiers": {
					"get(address)": "c2bc2efc",
					"set(address,uint8)": "43f9acff"
				}
			},
			"storageLayout": {
				"storage": [
					{
						"astId": 12,
						"contract": "contracts/enumsPractice.sol:enums",
						"label": "officers",
						"offset": 0,
						"slot": "0",
						"type": "t_mapping(t_address,t_enum(weekdays)7)"
					}
				],
				"types": {
					"t_address": {
						"encoding": "inplace",
						"label": "address",
						"numberOfBytes": "20"
					},
					"t_enum(weekdays)7": {
						"encoding": "inplace",
						"label": "enum enums.weekdays",
						"numberOfBytes": "1"
					},
					"t_mapping(t_address,t_enum(weekdays)7)": {
						"encoding": "mapping",
						"key": "t_address",
						"label": "mapping(address => enum enums.weekdays)",
						"numberOfBytes": "32",
						"value": "t_enum(weekdays)7"
					}
				}
			},
			"userdoc": {
				"kind": "user",
				"methods": {},
				"version": 1
			}
		}
	}
}