{
	"contracts/ANDGate.sol": {
		"ANDGate": {
			"abi": [
				{
					"inputs": [],
					"name": "_bool",
					"outputs": [
						{
							"internalType": "bool",
							"name": "",
							"type": "bool"
						}
					],
					"stateMutability": "view",
					"type": "function"
				},
				{
					"inputs": [],
					"name": "equality",
					"outputs": [
						{
							"internalType": "bool",
							"name": "",
							"type": "bool"
						}
					],
					"stateMutability": "view",
					"type": "function"
				},
				{
					"inputs": [],
					"name": "inequality",
					"outputs": [
						{
							"internalType": "bool",
							"name": "",
							"type": "bool"
						}
					],
					"stateMutability": "view",
					"type": "function"
				},
				{
					"inputs": [],
					"name": "logicalAnd",
					"outputs": [
						{
							"internalType": "bool",
							"name": "",
							"type": "bool"
						}
					],
					"stateMutability": "view",
					"type": "function"
				},
				{
					"inputs": [],
					"name": "logicalNot",
					"outputs": [
						{
							"internalType": "bool",
							"name": "",
							"type": "bool"
						}
					],
					"stateMutability": "view",
					"type": "function"
				},
				{
					"inputs": [],
					"name": "logicalOr",
					"outputs": [
						{
							"internalType": "bool",
							"name": "",
							"type": "bool"
						}
					],
					"stateMutability": "view",
					"type": "function"
				}
			],
			"devdoc": {
				"kind": "dev",
				"methods": {},
				"version": 1
			},
			"evm": {
				"assembly": "    /* \"contracts/ANDGate.sol\":59:629  contract ANDGate{... */\n  mstore(0x40, 0x80)\n    /* \"contracts/ANDGate.sol\":238:242  true */\n  0x01\n    /* \"contracts/ANDGate.sol\":218:242  bool public _bool = true */\n  0x00\n  dup1\n  0x0100\n  exp\n  dup2\n  sload\n  dup2\n  0xff\n  mul\n  not\n  and\n  swap1\n  dup4\n  iszero\n  iszero\n  mul\n  or\n  swap1\n  sstore\n  pop\n    /* \"contracts/ANDGate.sol\":59:629  contract ANDGate{... */\n  callvalue\n  dup1\n  iszero\n  tag_1\n  jumpi\n  0x00\n  dup1\n  revert\ntag_1:\n  pop\n  dataSize(sub_0)\n  dup1\n  dataOffset(sub_0)\n  0x00\n  codecopy\n  0x00\n  return\nstop\n\nsub_0: assembly {\n        /* \"contracts/ANDGate.sol\":59:629  contract ANDGate{... */\n      mstore(0x40, 0x80)\n      callvalue\n      dup1\n      iszero\n      tag_1\n      jumpi\n      0x00\n      dup1\n      revert\n    tag_1:\n      pop\n      jumpi(tag_2, lt(calldatasize, 0x04))\n      shr(0xe0, calldataload(0x00))\n      dup1\n      0x4462bf5b\n      eq\n      tag_3\n      jumpi\n      dup1\n      0x63770fbc\n      eq\n      tag_4\n      jumpi\n      dup1\n      0x9e6ba9c2\n      eq\n      tag_5\n      jumpi\n      dup1\n      0x9f42cb6f\n      eq\n      tag_6\n      jumpi\n      dup1\n      0xaee44e14\n      eq\n      tag_7\n      jumpi\n      dup1\n      0xba71a962\n      eq\n      tag_8\n      jumpi\n    tag_2:\n      0x00\n      dup1\n      revert\n        /* \"contracts/ANDGate.sol\":472:547  function equality() public view returns (bool) {... */\n    tag_3:\n      tag_9\n      tag_10\n      jump\t// in\n    tag_9:\n      mload(0x40)\n      tag_11\n      swap2\n      swap1\n      tag_12\n      jump\t// in\n    tag_11:\n      mload(0x40)\n      dup1\n      swap2\n      sub\n      swap1\n      return\n        /* \"contracts/ANDGate.sol\":245:313  function logicalNot() public view returns (bool) {... */\n    tag_4:\n      tag_13\n      tag_14\n      jump\t// in\n    tag_13:\n      mload(0x40)\n      tag_15\n      swap2\n      swap1\n      tag_12\n      jump\t// in\n    tag_15:\n      mload(0x40)\n      dup1\n      swap2\n      sub\n      swap1\n      return\n        /* \"contracts/ANDGate.sol\":218:242  bool public _bool = true */\n    tag_5:\n      tag_16\n      tag_17\n      jump\t// in\n    tag_16:\n      mload(0x40)\n      tag_18\n      swap2\n      swap1\n      tag_12\n      jump\t// in\n    tag_18:\n      mload(0x40)\n      dup1\n      swap2\n      sub\n      swap1\n      return\n        /* \"contracts/ANDGate.sol\":315:392  function logicalAnd() public view returns (bool) {... */\n    tag_6:\n      tag_19\n      tag_20\n      jump\t// in\n    tag_19:\n      mload(0x40)\n      tag_21\n      swap2\n      swap1\n      tag_12\n      jump\t// in\n    tag_21:\n      mload(0x40)\n      dup1\n      swap2\n      sub\n      swap1\n      return\n        /* \"contracts/ANDGate.sol\":549:626  function inequality() public view returns (bool) {... */\n    tag_7:\n      tag_22\n      tag_23\n      jump\t// in\n    tag_22:\n      mload(0x40)\n      tag_24\n      swap2\n      swap1\n      tag_12\n      jump\t// in\n    tag_24:\n      mload(0x40)\n      dup1\n      swap2\n      sub\n      swap1\n      return\n        /* \"contracts/ANDGate.sol\":394:470  function logicalOr() public view returns (bool) {... */\n    tag_8:\n      tag_25\n      tag_26\n      jump\t// in\n    tag_25:\n      mload(0x40)\n      tag_27\n      swap2\n      swap1\n      tag_12\n      jump\t// in\n    tag_27:\n      mload(0x40)\n      dup1\n      swap2\n      sub\n      swap1\n      return\n        /* \"contracts/ANDGate.sol\":472:547  function equality() public view returns (bool) {... */\n    tag_10:\n        /* \"contracts/ANDGate.sol\":513:517  bool */\n      0x00\n        /* \"contracts/ANDGate.sol\":539:544  _bool */\n      dup1\n      0x00\n      swap1\n      sload\n      swap1\n      0x0100\n      exp\n      swap1\n      div\n      0xff\n      and\n        /* \"contracts/ANDGate.sol\":538:544  !_bool */\n      iszero\n        /* \"contracts/ANDGate.sol\":529:544  _bool == !_bool */\n      iszero\n      iszero\n        /* \"contracts/ANDGate.sol\":529:534  _bool */\n      0x00\n      dup1\n      sload\n      swap1\n      0x0100\n      exp\n      swap1\n      div\n      0xff\n      and\n        /* \"contracts/ANDGate.sol\":529:544  _bool == !_bool */\n      iszero\n      iszero\n      eq\n        /* \"contracts/ANDGate.sol\":522:544  return _bool == !_bool */\n      swap1\n      pop\n        /* \"contracts/ANDGate.sol\":472:547  function equality() public view returns (bool) {... */\n      swap1\n      jump\t// out\n        /* \"contracts/ANDGate.sol\":245:313  function logicalNot() public view returns (bool) {... */\n    tag_14:\n        /* \"contracts/ANDGate.sol\":288:292  bool */\n      0x00\n        /* \"contracts/ANDGate.sol\":305:310  _bool */\n      dup1\n      0x00\n      swap1\n      sload\n      swap1\n      0x0100\n      exp\n      swap1\n      div\n      0xff\n      and\n        /* \"contracts/ANDGate.sol\":304:310  !_bool */\n      iszero\n        /* \"contracts/ANDGate.sol\":297:310  return !_bool */\n      swap1\n      pop\n        /* \"contracts/ANDGate.sol\":245:313  function logicalNot() public view returns (bool) {... */\n      swap1\n      jump\t// out\n        /* \"contracts/ANDGate.sol\":218:242  bool public _bool = true */\n    tag_17:\n      0x00\n      dup1\n      sload\n      swap1\n      0x0100\n      exp\n      swap1\n      div\n      0xff\n      and\n      dup2\n      jump\t// out\n        /* \"contracts/ANDGate.sol\":315:392  function logicalAnd() public view returns (bool) {... */\n    tag_20:\n        /* \"contracts/ANDGate.sol\":358:362  bool */\n      0x00\n        /* \"contracts/ANDGate.sol\":374:379  _bool */\n      dup1\n      0x00\n      swap1\n      sload\n      swap1\n      0x0100\n      exp\n      swap1\n      div\n      0xff\n      and\n        /* \"contracts/ANDGate.sol\":374:389  _bool && !_bool */\n      dup1\n      iszero\n      tag_31\n      jumpi\n      pop\n        /* \"contracts/ANDGate.sol\":384:389  _bool */\n      0x00\n      dup1\n      sload\n      swap1\n      0x0100\n      exp\n      swap1\n      div\n      0xff\n      and\n        /* \"contracts/ANDGate.sol\":383:389  !_bool */\n      iszero\n        /* \"contracts/ANDGate.sol\":374:389  _bool && !_bool */\n    tag_31:\n        /* \"contracts/ANDGate.sol\":367:389  return _bool && !_bool */\n      swap1\n      pop\n        /* \"contracts/ANDGate.sol\":315:392  function logicalAnd() public view returns (bool) {... */\n      swap1\n      jump\t// out\n        /* \"contracts/ANDGate.sol\":549:626  function inequality() public view returns (bool) {... */\n    tag_23:\n        /* \"contracts/ANDGate.sol\":592:596  bool */\n      0x00\n        /* \"contracts/ANDGate.sol\":618:623  _bool */\n      dup1\n      0x00\n      swap1\n      sload\n      swap1\n      0x0100\n      exp\n      swap1\n      div\n      0xff\n      and\n        /* \"contracts/ANDGate.sol\":617:623  !_bool */\n      iszero\n        /* \"contracts/ANDGate.sol\":608:623  _bool != !_bool */\n      iszero\n      iszero\n        /* \"contracts/ANDGate.sol\":608:613  _bool */\n      0x00\n      dup1\n      sload\n      swap1\n      0x0100\n      exp\n      swap1\n      div\n      0xff\n      and\n        /* \"contracts/ANDGate.sol\":608:623  _bool != !_bool */\n      iszero\n      iszero\n      eq\n      iszero\n        /* \"contracts/ANDGate.sol\":601:623  return _bool != !_bool */\n      swap1\n      pop\n        /* \"contracts/ANDGate.sol\":549:626  function inequality() public view returns (bool) {... */\n      swap1\n      jump\t// out\n        /* \"contracts/ANDGate.sol\":394:470  function logicalOr() public view returns (bool) {... */\n    tag_26:\n        /* \"contracts/ANDGate.sol\":436:440  bool */\n      0x00\n        /* \"contracts/ANDGate.sol\":452:457  _bool */\n      dup1\n      0x00\n      swap1\n      sload\n      swap1\n      0x0100\n      exp\n      swap1\n      div\n      0xff\n      and\n        /* \"contracts/ANDGate.sol\":452:467  _bool || !_bool */\n      dup1\n      tag_34\n      jumpi\n      pop\n        /* \"contracts/ANDGate.sol\":462:467  _bool */\n      0x00\n      dup1\n      sload\n      swap1\n      0x0100\n      exp\n      swap1\n      div\n      0xff\n      and\n        /* \"contracts/ANDGate.sol\":461:467  !_bool */\n      iszero\n        /* \"contracts/ANDGate.sol\":452:467  _bool || !_bool */\n    tag_34:\n        /* \"contracts/ANDGate.sol\":445:467  return _bool || !_bool */\n      swap1\n      pop\n        /* \"contracts/ANDGate.sol\":394:470  function logicalOr() public view returns (bool) {... */\n      swap1\n      jump\t// out\n        /* \"#utility.yul\":7:97   */\n    tag_35:\n        /* \"#utility.yul\":41:48   */\n      0x00\n        /* \"#utility.yul\":84:89   */\n      dup2\n        /* \"#utility.yul\":77:90   */\n      iszero\n        /* \"#utility.yul\":70:91   */\n      iszero\n        /* \"#utility.yul\":59:91   */\n      swap1\n      pop\n        /* \"#utility.yul\":7:97   */\n      swap2\n      swap1\n      pop\n      jump\t// out\n        /* \"#utility.yul\":103:212   */\n    tag_36:\n        /* \"#utility.yul\":184:205   */\n      tag_40\n        /* \"#utility.yul\":199:204   */\n      dup2\n        /* \"#utility.yul\":184:205   */\n      tag_35\n      jump\t// in\n    tag_40:\n        /* \"#utility.yul\":179:182   */\n      dup3\n        /* \"#utility.yul\":172:206   */\n      mstore\n        /* \"#utility.yul\":103:212   */\n      pop\n      pop\n      jump\t// out\n        /* \"#utility.yul\":218:428   */\n    tag_12:\n        /* \"#utility.yul\":305:309   */\n      0x00\n        /* \"#utility.yul\":343:345   */\n      0x20\n        /* \"#utility.yul\":332:341   */\n      dup3\n        /* \"#utility.yul\":328:346   */\n      add\n        /* \"#utility.yul\":320:346   */\n      swap1\n      pop\n        /* \"#utility.yul\":356:421   */\n      tag_42\n        /* \"#utility.yul\":418:419   */\n      0x00\n        /* \"#utility.yul\":407:416   */\n      dup4\n        /* \"#utility.yul\":403:420   */\n      add\n        /* \"#utility.yul\":394:400   */\n      dup5\n        /* \"#utility.yul\":356:421   */\n      tag_36\n      jump\t// in\n    tag_42:\n        /* \"#utility.yul\":218:428   */\n      swap3\n      swap2\n      pop\n      pop\n      jump\t// out\n\n    auxdata: 0xa26469706673582212200352be17327a9def147ddd7b03c5888733cad9c8432e6ba9a5ac77e264739fb064736f6c63430008120033\n}\n",
				"bytecode": {
					"linkReferences": {},
					"object": "608060405260016000806101000a81548160ff02191690831515021790555034801561002a57600080fd5b5061025d8061003a6000396000f3fe608060405234801561001057600080fd5b50600436106100625760003560e01c80634462bf5b1461006757806363770fbc146100855780639e6ba9c2146100a35780639f42cb6f146100c1578063aee44e14146100df578063ba71a962146100fd575b600080fd5b61006f61011b565b60405161007c919061020c565b60405180910390f35b61008d610145565b60405161009a919061020c565b60405180910390f35b6100ab61015c565b6040516100b8919061020c565b60405180910390f35b6100c961016d565b6040516100d6919061020c565b60405180910390f35b6100e761019a565b6040516100f4919061020c565b60405180910390f35b6101056101c5565b604051610112919061020c565b60405180910390f35b60008060009054906101000a900460ff1615151560008054906101000a900460ff16151514905090565b60008060009054906101000a900460ff1615905090565b60008054906101000a900460ff1681565b60008060009054906101000a900460ff168015610195575060008054906101000a900460ff16155b905090565b60008060009054906101000a900460ff1615151560008054906101000a900460ff1615151415905090565b60008060009054906101000a900460ff16806101ec575060008054906101000a900460ff16155b905090565b60008115159050919050565b610206816101f1565b82525050565b600060208201905061022160008301846101fd565b9291505056fea26469706673582212200352be17327a9def147ddd7b03c5888733cad9c8432e6ba9a5ac77e264739fb064736f6c63430008120033",
					"opcodes": "PUSH1 0x80 PUSH1 0x40 MSTORE PUSH1 0x1 PUSH1 0x0 DUP1 PUSH2 0x100 EXP DUP2 SLOAD DUP2 PUSH1 0xFF MUL NOT AND SWAP1 DUP4 ISZERO ISZERO MUL OR SWAP1 SSTORE POP CALLVALUE DUP1 ISZERO PUSH2 0x2A JUMPI PUSH1 0x0 DUP1 REVERT JUMPDEST POP PUSH2 0x25D DUP1 PUSH2 0x3A PUSH1 0x0 CODECOPY PUSH1 0x0 RETURN INVALID PUSH1 0x80 PUSH1 0x40 MSTORE CALLVALUE DUP1 ISZERO PUSH2 0x10 JUMPI PUSH1 0x0 DUP1 REVERT JUMPDEST POP PUSH1 0x4 CALLDATASIZE LT PUSH2 0x62 JUMPI PUSH1 0x0 CALLDATALOAD PUSH1 0xE0 SHR DUP1 PUSH4 0x4462BF5B EQ PUSH2 0x67 JUMPI DUP1 PUSH4 0x63770FBC EQ PUSH2 0x85 JUMPI DUP1 PUSH4 0x9E6BA9C2 EQ PUSH2 0xA3 JUMPI DUP1 PUSH4 0x9F42CB6F EQ PUSH2 0xC1 JUMPI DUP1 PUSH4 0xAEE44E14 EQ PUSH2 0xDF JUMPI DUP1 PUSH4 0xBA71A962 EQ PUSH2 0xFD JUMPI JUMPDEST PUSH1 0x0 DUP1 REVERT JUMPDEST PUSH2 0x6F PUSH2 0x11B JUMP JUMPDEST PUSH1 0x40 MLOAD PUSH2 0x7C SWAP2 SWAP1 PUSH2 0x20C JUMP JUMPDEST PUSH1 0x40 MLOAD DUP1 SWAP2 SUB SWAP1 RETURN JUMPDEST PUSH2 0x8D PUSH2 0x145 JUMP JUMPDEST PUSH1 0x40 MLOAD PUSH2 0x9A SWAP2 SWAP1 PUSH2 0x20C JUMP JUMPDEST PUSH1 0x40 MLOAD DUP1 SWAP2 SUB SWAP1 RETURN JUMPDEST PUSH2 0xAB PUSH2 0x15C JUMP JUMPDEST PUSH1 0x40 MLOAD PUSH2 0xB8 SWAP2 SWAP1 PUSH2 0x20C JUMP JUMPDEST PUSH1 0x40 MLOAD DUP1 SWAP2 SUB SWAP1 RETURN JUMPDEST PUSH2 0xC9 PUSH2 0x16D JUMP JUMPDEST PUSH1 0x40 MLOAD PUSH2 0xD6 SWAP2 SWAP1 PUSH2 0x20C JUMP JUMPDEST PUSH1 0x40 MLOAD DUP1 SWAP2 SUB SWAP1 RETURN JUMPDEST PUSH2 0xE7 PUSH2 0x19A JUMP JUMPDEST PUSH1 0x40 MLOAD PUSH2 0xF4 SWAP2 SWAP1 PUSH2 0x20C JUMP JUMPDEST PUSH1 0x40 MLOAD DUP1 SWAP2 SUB SWAP1 RETURN JUMPDEST PUSH2 0x105 PUSH2 0x1C5 JUMP JUMPDEST PUSH1 0x40 MLOAD PUSH2 0x112 SWAP2 SWAP1 PUSH2 0x20C JUMP JUMPDEST PUSH1 0x40 MLOAD DUP1 SWAP2 SUB SWAP1 RETURN JUMPDEST PUSH1 0x0 DUP1 PUSH1 0x0 SWAP1 SLOAD SWAP1 PUSH2 0x100 EXP SWAP1 DIV PUSH1 0xFF AND ISZERO ISZERO ISZERO PUSH1 0x0 DUP1 SLOAD SWAP1 PUSH2 0x100 EXP SWAP1 DIV PUSH1 0xFF AND ISZERO ISZERO EQ SWAP1 POP SWAP1 JUMP JUMPDEST PUSH1 0x0 DUP1 PUSH1 0x0 SWAP1 SLOAD SWAP1 PUSH2 0x100 EXP SWAP1 DIV PUSH1 0xFF AND ISZERO SWAP1 POP SWAP1 JUMP JUMPDEST PUSH1 0x0 DUP1 SLOAD SWAP1 PUSH2 0x100 EXP SWAP1 DIV PUSH1 0xFF AND DUP2 JUMP JUMPDEST PUSH1 0x0 DUP1 PUSH1 0x0 SWAP1 SLOAD SWAP1 PUSH2 0x100 EXP SWAP1 DIV PUSH1 0xFF AND DUP1 ISZERO PUSH2 0x195 JUMPI POP PUSH1 0x0 DUP1 SLOAD SWAP1 PUSH2 0x100 EXP SWAP1 DIV PUSH1 0xFF AND ISZERO JUMPDEST SWAP1 POP SWAP1 JUMP JUMPDEST PUSH1 0x0 DUP1 PUSH1 0x0 SWAP1 SLOAD SWAP1 PUSH2 0x100 EXP SWAP1 DIV PUSH1 0xFF AND ISZERO ISZERO ISZERO PUSH1 0x0 DUP1 SLOAD SWAP1 PUSH2 0x100 EXP SWAP1 DIV PUSH1 0xFF AND ISZERO ISZERO EQ ISZERO SWAP1 POP SWAP1 JUMP JUMPDEST PUSH1 0x0 DUP1 PUSH1 0x0 SWAP1 SLOAD SWAP1 PUSH2 0x100 EXP SWAP1 DIV PUSH1 0xFF AND DUP1 PUSH2 0x1EC JUMPI POP PUSH1 0x0 DUP1 SLOAD SWAP1 PUSH2 0x100 EXP SWAP1 DIV PUSH1 0xFF AND ISZERO JUMPDEST SWAP1 POP SWAP1 JUMP JUMPDEST PUSH1 0x0 DUP2 ISZERO ISZERO SWAP1 POP SWAP2 SWAP1 POP JUMP JUMPDEST PUSH2 0x206 DUP2 PUSH2 0x1F1 JUMP JUMPDEST DUP3 MSTORE POP POP JUMP JUMPDEST PUSH1 0x0 PUSH1 0x20 DUP3 ADD SWAP1 POP PUSH2 0x221 PUSH1 0x0 DUP4 ADD DUP5 PUSH2 0x1FD JUMP JUMPDEST SWAP3 SWAP2 POP POP JUMP INVALID LOG2 PUSH5 0x6970667358 0x22 SLT KECCAK256 SUB MSTORE 0xBE OR ORIGIN PUSH27 0x9DEF147DDD7B03C5888733CAD9C8432E6BA9A5AC77E264739FB064 PUSH20 0x6F6C634300081200330000000000000000000000 "
				},
				"gasEstimates": {
					"creation": {
						"codeDepositCost": "121000",
						"executionCost": "24432",
						"totalCost": "145432"
					},
					"external": {
						"_bool()": "2490",
						"equality()": "4611",
						"inequality()": "4702",
						"logicalAnd()": "4684",
						"logicalNot()": "2482",
						"logicalOr()": "4725"
					}
				},
				"methodIdentifiers": {
					"_bool()": "9e6ba9c2",
					"equality()": "4462bf5b",
					"inequality()": "aee44e14",
					"logicalAnd()": "9f42cb6f",
					"logicalNot()": "63770fbc",
					"logicalOr()": "ba71a962"
				}
			},
			"storageLayout": {
				"storage": [
					{
						"astId": 4,
						"contract": "contracts/ANDGate.sol:ANDGate",
						"label": "_bool",
						"offset": 0,
						"slot": "0",
						"type": "t_bool"
					}
				],
				"types": {
					"t_bool": {
						"encoding": "inplace",
						"label": "bool",
						"numberOfBytes": "1"
					}
				}
			},
			"userdoc": {
				"kind": "user",
				"methods": {},
				"version": 1
			}
		}
	}
}