{
	"data": {
		"bytecode": {
			"linkReferences": {},
			"object": "608060405234801561001057600080fd5b50610b17806100206000396000f3fe608060405234801561001057600080fd5b506004361061004c5760003560e01c8063163e0f461461005157806350b447121461008157806351db2e76146100b4578063b1d36506146100d0575b600080fd5b61006b600480360381019061006691906103e8565b6100ec565b604051610078919061048c565b60405180910390f35b61009b600480360381019061009691906103e8565b61012d565b6040516100ab949392919061059a565b60405180910390f35b6100ce60048036038101906100c991906103e8565b61021c565b005b6100ea60048036038101906100e59190610765565b61028e565b005b60008060008381548110610103576101026107d4565b5b906000526020600020906002020190508060010160019054906101000a900460ff16915050919050565b6000818154811061013d57600080fd5b906000526020600020906002020160009150905080600001805461016090610832565b80601f016020809104026020016040519081016040528092919081815260200182805461018c90610832565b80156101d95780601f106101ae576101008083540402835291602001916101d9565b820191906000526020600020905b8154815290600101906020018083116101bc57829003601f168201915b5050505050908060010160009054906101000a900460ff16908060010160019054906101000a900460ff16908060010160029054906101000a900460ff16905084565b600081815481106102305761022f6107d4565b5b906000526020600020906002020160010160029054906101000a900460ff1660008281548110610263576102626107d4565b5b906000526020600020906002020160010160026101000a81548160ff02191690831515021790555050565b600060405180608001604052808581526020018360028111156102b4576102b3610415565b5b81526020018460068111156102cc576102cb610415565b5b815260200160001515815250908060018154018082558091505060019003906000526020600020906002020160009091909190915060008201518160000190816103169190610a0f565b5060208201518160010160006101000a81548160ff0219169083600281111561034257610341610415565b5b021790555060408201518160010160016101000a81548160ff0219169083600681111561037257610371610415565b5b021790555060608201518160010160026101000a81548160ff0219169083151502179055505050505050565b6000604051905090565b600080fd5b600080fd5b6000819050919050565b6103c5816103b2565b81146103d057600080fd5b50565b6000813590506103e2816103bc565b92915050565b6000602082840312156103fe576103fd6103a8565b5b600061040c848285016103d3565b91505092915050565b7f4e487b7100000000000000000000000000000000000000000000000000000000600052602160045260246000fd5b6007811061045557610454610415565b5b50565b600081905061046682610444565b919050565b600061047682610458565b9050919050565b6104868161046b565b82525050565b60006020820190506104a1600083018461047d565b92915050565b600081519050919050565b600082825260208201905092915050565b60005b838110156104e15780820151818401526020810190506104c6565b60008484015250505050565b6000601f19601f8301169050919050565b6000610509826104a7565b61051381856104b2565b93506105238185602086016104c3565b61052c816104ed565b840191505092915050565b6003811061054857610547610415565b5b50565b600081905061055982610537565b919050565b60006105698261054b565b9050919050565b6105798161055e565b82525050565b60008115159050919050565b6105948161057f565b82525050565b600060808201905081810360008301526105b481876104fe565b90506105c36020830186610570565b6105d0604083018561047d565b6105dd606083018461058b565b95945050505050565b600080fd5b600080fd5b7f4e487b7100000000000000000000000000000000000000000000000000000000600052604160045260246000fd5b610628826104ed565b810181811067ffffffffffffffff82111715610647576106466105f0565b5b80604052505050565b600061065a61039e565b9050610666828261061f565b919050565b600067ffffffffffffffff821115610686576106856105f0565b5b61068f826104ed565b9050602081019050919050565b82818337600083830152505050565b60006106be6106b98461066b565b610650565b9050828152602081018484840111156106da576106d96105eb565b5b6106e584828561069c565b509392505050565b600082601f830112610702576107016105e6565b5b81356107128482602086016106ab565b91505092915050565b6007811061072857600080fd5b50565b60008135905061073a8161071b565b92915050565b6003811061074d57600080fd5b50565b60008135905061075f81610740565b92915050565b60008060006060848603121561077e5761077d6103a8565b5b600084013567ffffffffffffffff81111561079c5761079b6103ad565b5b6107a8868287016106ed565b93505060206107b98682870161072b565b92505060406107ca86828701610750565b9150509250925092565b7f4e487b7100000000000000000000000000000000000000000000000000000000600052603260045260246000fd5b7f4e487b7100000000000000000000000000000000000000000000000000000000600052602260045260246000fd5b6000600282049050600182168061084a57607f821691505b60208210810361085d5761085c610803565b5b50919050565b60008190508160005260206000209050919050565b60006020601f8301049050919050565b600082821b905092915050565b6000600883026108c57fffffffffffffffffffffffffffffffffffffffffffffffffffffffffffffffff82610888565b6108cf8683610888565b95508019841693508086168417925050509392505050565b6000819050919050565b600061090c610907610902846103b2565b6108e7565b6103b2565b9050919050565b6000819050919050565b610926836108f1565b61093a61093282610913565b848454610895565b825550505050565b600090565b61094f610942565b61095a81848461091d565b505050565b5b8181101561097e57610973600082610947565b600181019050610960565b5050565b601f8211156109c35761099481610863565b61099d84610878565b810160208510156109ac578190505b6109c06109b885610878565b83018261095f565b50505b505050565b600082821c905092915050565b60006109e6600019846008026109c8565b1980831691505092915050565b60006109ff83836109d5565b9150826002028217905092915050565b610a18826104a7565b67ffffffffffffffff811115610a3157610a306105f0565b5b610a3b8254610832565b610a46828285610982565b600060209050601f831160018114610a795760008415610a67578287015190505b610a7185826109f3565b865550610ad9565b601f198416610a8786610863565b60005b82811015610aaf57848901518255600182019150602085019450602081019050610a8a565b86831015610acc5784890151610ac8601f8916826109d5565b8355505b6001600288020188555050505b50505050505056fea26469706673582212206cdc72d1776feef7522c6f8fc6b9597bb3c56d8b4427976c034f83c3f4a0936a64736f6c63430008120033",
			"opcodes": "PUSH1 0x80 PUSH1 0x40 MSTORE CALLVALUE DUP1 ISZERO PUSH2 0x10 JUMPI PUSH1 0x0 DUP1 REVERT JUMPDEST POP PUSH2 0xB17 DUP1 PUSH2 0x20 PUSH1 0x0 CODECOPY PUSH1 0x0 RETURN INVALID PUSH1 0x80 PUSH1 0x40 MSTORE CALLVALUE DUP1 ISZERO PUSH2 0x10 JUMPI PUSH1 0x0 DUP1 REVERT JUMPDEST POP PUSH1 0x4 CALLDATASIZE LT PUSH2 0x4C JUMPI PUSH1 0x0 CALLDATALOAD PUSH1 0xE0 SHR DUP1 PUSH4 0x163E0F46 EQ PUSH2 0x51 JUMPI DUP1 PUSH4 0x50B44712 EQ PUSH2 0x81 JUMPI DUP1 PUSH4 0x51DB2E76 EQ PUSH2 0xB4 JUMPI DUP1 PUSH4 0xB1D36506 EQ PUSH2 0xD0 JUMPI JUMPDEST PUSH1 0x0 DUP1 REVERT JUMPDEST PUSH2 0x6B PUSH1 0x4 DUP1 CALLDATASIZE SUB DUP2 ADD SWAP1 PUSH2 0x66 SWAP2 SWAP1 PUSH2 0x3E8 JUMP JUMPDEST PUSH2 0xEC JUMP JUMPDEST PUSH1 0x40 MLOAD PUSH2 0x78 SWAP2 SWAP1 PUSH2 0x48C JUMP JUMPDEST PUSH1 0x40 MLOAD DUP1 SWAP2 SUB SWAP1 RETURN JUMPDEST PUSH2 0x9B PUSH1 0x4 DUP1 CALLDATASIZE SUB DUP2 ADD SWAP1 PUSH2 0x96 SWAP2 SWAP1 PUSH2 0x3E8 JUMP JUMPDEST PUSH2 0x12D JUMP JUMPDEST PUSH1 0x40 MLOAD PUSH2 0xAB SWAP5 SWAP4 SWAP3 SWAP2 SWAP1 PUSH2 0x59A JUMP JUMPDEST PUSH1 0x40 MLOAD DUP1 SWAP2 SUB SWAP1 RETURN JUMPDEST PUSH2 0xCE PUSH1 0x4 DUP1 CALLDATASIZE SUB DUP2 ADD SWAP1 PUSH2 0xC9 SWAP2 SWAP1 PUSH2 0x3E8 JUMP JUMPDEST PUSH2 0x21C JUMP JUMPDEST STOP JUMPDEST PUSH2 0xEA PUSH1 0x4 DUP1 CALLDATASIZE SUB DUP2 ADD SWAP1 PUSH2 0xE5 SWAP2 SWAP1 PUSH2 0x765 JUMP JUMPDEST PUSH2 0x28E JUMP JUMPDEST STOP JUMPDEST PUSH1 0x0 DUP1 PUSH1 0x0 DUP4 DUP2 SLOAD DUP2 LT PUSH2 0x103 JUMPI PUSH2 0x102 PUSH2 0x7D4 JUMP JUMPDEST JUMPDEST SWAP1 PUSH1 0x0 MSTORE PUSH1 0x20 PUSH1 0x0 KECCAK256 SWAP1 PUSH1 0x2 MUL ADD SWAP1 POP DUP1 PUSH1 0x1 ADD PUSH1 0x1 SWAP1 SLOAD SWAP1 PUSH2 0x100 EXP SWAP1 DIV PUSH1 0xFF AND SWAP2 POP POP SWAP2 SWAP1 POP JUMP JUMPDEST PUSH1 0x0 DUP2 DUP2 SLOAD DUP2 LT PUSH2 0x13D JUMPI PUSH1 0x0 DUP1 REVERT JUMPDEST SWAP1 PUSH1 0x0 MSTORE PUSH1 0x20 PUSH1 0x0 KECCAK256 SWAP1 PUSH1 0x2 MUL ADD PUSH1 0x0 SWAP2 POP SWAP1 POP DUP1 PUSH1 0x0 ADD DUP1 SLOAD PUSH2 0x160 SWAP1 PUSH2 0x832 JUMP JUMPDEST DUP1 PUSH1 0x1F ADD PUSH1 0x20 DUP1 SWAP2 DIV MUL PUSH1 0x20 ADD PUSH1 0x40 MLOAD SWAP1 DUP2 ADD PUSH1 0x40 MSTORE DUP1 SWAP3 SWAP2 SWAP1 DUP2 DUP2 MSTORE PUSH1 0x20 ADD DUP3 DUP1 SLOAD PUSH2 0x18C SWAP1 PUSH2 0x832 JUMP JUMPDEST DUP1 ISZERO PUSH2 0x1D9 JUMPI DUP1 PUSH1 0x1F LT PUSH2 0x1AE JUMPI PUSH2 0x100 DUP1 DUP4 SLOAD DIV MUL DUP4 MSTORE SWAP2 PUSH1 0x20 ADD SWAP2 PUSH2 0x1D9 JUMP JUMPDEST DUP3 ADD SWAP2 SWAP1 PUSH1 0x0 MSTORE PUSH1 0x20 PUSH1 0x0 KECCAK256 SWAP1 JUMPDEST DUP2 SLOAD DUP2 MSTORE SWAP1 PUSH1 0x1 ADD SWAP1 PUSH1 0x20 ADD DUP1 DUP4 GT PUSH2 0x1BC JUMPI DUP3 SWAP1 SUB PUSH1 0x1F AND DUP3 ADD SWAP2 JUMPDEST POP POP POP POP POP SWAP1 DUP1 PUSH1 0x1 ADD PUSH1 0x0 SWAP1 SLOAD SWAP1 PUSH2 0x100 EXP SWAP1 DIV PUSH1 0xFF AND SWAP1 DUP1 PUSH1 0x1 ADD PUSH1 0x1 SWAP1 SLOAD SWAP1 PUSH2 0x100 EXP SWAP1 DIV PUSH1 0xFF AND SWAP1 DUP1 PUSH1 0x1 ADD PUSH1 0x2 SWAP1 SLOAD SWAP1 PUSH2 0x100 EXP SWAP1 DIV PUSH1 0xFF AND SWAP1 POP DUP5 JUMP JUMPDEST PUSH1 0x0 DUP2 DUP2 SLOAD DUP2 LT PUSH2 0x230 JUMPI PUSH2 0x22F PUSH2 0x7D4 JUMP JUMPDEST JUMPDEST SWAP1 PUSH1 0x0 MSTORE PUSH1 0x20 PUSH1 0x0 KECCAK256 SWAP1 PUSH1 0x2 MUL ADD PUSH1 0x1 ADD PUSH1 0x2 SWAP1 SLOAD SWAP1 PUSH2 0x100 EXP SWAP1 DIV PUSH1 0xFF AND PUSH1 0x0 DUP3 DUP2 SLOAD DUP2 LT PUSH2 0x263 JUMPI PUSH2 0x262 PUSH2 0x7D4 JUMP JUMPDEST JUMPDEST SWAP1 PUSH1 0x0 MSTORE PUSH1 0x20 PUSH1 0x0 KECCAK256 SWAP1 PUSH1 0x2 MUL ADD PUSH1 0x1 ADD PUSH1 0x2 PUSH2 0x100 EXP DUP2 SLOAD DUP2 PUSH1 0xFF MUL NOT AND SWAP1 DUP4 ISZERO ISZERO MUL OR SWAP1 SSTORE POP POP JUMP JUMPDEST PUSH1 0x0 PUSH1 0x40 MLOAD DUP1 PUSH1 0x80 ADD PUSH1 0x40 MSTORE DUP1 DUP6 DUP2 MSTORE PUSH1 0x20 ADD DUP4 PUSH1 0x2 DUP2 GT ISZERO PUSH2 0x2B4 JUMPI PUSH2 0x2B3 PUSH2 0x415 JUMP JUMPDEST JUMPDEST DUP2 MSTORE PUSH1 0x20 ADD DUP5 PUSH1 0x6 DUP2 GT ISZERO PUSH2 0x2CC JUMPI PUSH2 0x2CB PUSH2 0x415 JUMP JUMPDEST JUMPDEST DUP2 MSTORE PUSH1 0x20 ADD PUSH1 0x0 ISZERO ISZERO DUP2 MSTORE POP SWAP1 DUP1 PUSH1 0x1 DUP2 SLOAD ADD DUP1 DUP3 SSTORE DUP1 SWAP2 POP POP PUSH1 0x1 SWAP1 SUB SWAP1 PUSH1 0x0 MSTORE PUSH1 0x20 PUSH1 0x0 KECCAK256 SWAP1 PUSH1 0x2 MUL ADD PUSH1 0x0 SWAP1 SWAP2 SWAP1 SWAP2 SWAP1 SWAP2 POP PUSH1 0x0 DUP3 ADD MLOAD DUP2 PUSH1 0x0 ADD SWAP1 DUP2 PUSH2 0x316 SWAP2 SWAP1 PUSH2 0xA0F JUMP JUMPDEST POP PUSH1 0x20 DUP3 ADD MLOAD DUP2 PUSH1 0x1 ADD PUSH1 0x0 PUSH2 0x100 EXP DUP2 SLOAD DUP2 PUSH1 0xFF MUL NOT AND SWAP1 DUP4 PUSH1 0x2 DUP2 GT ISZERO PUSH2 0x342 JUMPI PUSH2 0x341 PUSH2 0x415 JUMP JUMPDEST JUMPDEST MUL OR SWAP1 SSTORE POP PUSH1 0x40 DUP3 ADD MLOAD DUP2 PUSH1 0x1 ADD PUSH1 0x1 PUSH2 0x100 EXP DUP2 SLOAD DUP2 PUSH1 0xFF MUL NOT AND SWAP1 DUP4 PUSH1 0x6 DUP2 GT ISZERO PUSH2 0x372 JUMPI PUSH2 0x371 PUSH2 0x415 JUMP JUMPDEST JUMPDEST MUL OR SWAP1 SSTORE POP PUSH1 0x60 DUP3 ADD MLOAD DUP2 PUSH1 0x1 ADD PUSH1 0x2 PUSH2 0x100 EXP DUP2 SLOAD DUP2 PUSH1 0xFF MUL NOT AND SWAP1 DUP4 ISZERO ISZERO MUL OR SWAP1 SSTORE POP POP POP POP POP POP JUMP JUMPDEST PUSH1 0x0 PUSH1 0x40 MLOAD SWAP1 POP SWAP1 JUMP JUMPDEST PUSH1 0x0 DUP1 REVERT JUMPDEST PUSH1 0x0 DUP1 REVERT JUMPDEST PUSH1 0x0 DUP2 SWAP1 POP SWAP2 SWAP1 POP JUMP JUMPDEST PUSH2 0x3C5 DUP2 PUSH2 0x3B2 JUMP JUMPDEST DUP2 EQ PUSH2 0x3D0 JUMPI PUSH1 0x0 DUP1 REVERT JUMPDEST POP JUMP JUMPDEST PUSH1 0x0 DUP2 CALLDATALOAD SWAP1 POP PUSH2 0x3E2 DUP2 PUSH2 0x3BC JUMP JUMPDEST SWAP3 SWAP2 POP POP JUMP JUMPDEST PUSH1 0x0 PUSH1 0x20 DUP3 DUP5 SUB SLT ISZERO PUSH2 0x3FE JUMPI PUSH2 0x3FD PUSH2 0x3A8 JUMP JUMPDEST JUMPDEST PUSH1 0x0 PUSH2 0x40C DUP5 DUP3 DUP6 ADD PUSH2 0x3D3 JUMP JUMPDEST SWAP2 POP POP SWAP3 SWAP2 POP POP JUMP JUMPDEST PUSH32 0x4E487B7100000000000000000000000000000000000000000000000000000000 PUSH1 0x0 MSTORE PUSH1 0x21 PUSH1 0x4 MSTORE PUSH1 0x24 PUSH1 0x0 REVERT JUMPDEST PUSH1 0x7 DUP2 LT PUSH2 0x455 JUMPI PUSH2 0x454 PUSH2 0x415 JUMP JUMPDEST JUMPDEST POP JUMP JUMPDEST PUSH1 0x0 DUP2 SWAP1 POP PUSH2 0x466 DUP3 PUSH2 0x444 JUMP JUMPDEST SWAP2 SWAP1 POP JUMP JUMPDEST PUSH1 0x0 PUSH2 0x476 DUP3 PUSH2 0x458 JUMP JUMPDEST SWAP1 POP SWAP2 SWAP1 POP JUMP JUMPDEST PUSH2 0x486 DUP2 PUSH2 0x46B JUMP JUMPDEST DUP3 MSTORE POP POP JUMP JUMPDEST PUSH1 0x0 PUSH1 0x20 DUP3 ADD SWAP1 POP PUSH2 0x4A1 PUSH1 0x0 DUP4 ADD DUP5 PUSH2 0x47D JUMP JUMPDEST SWAP3 SWAP2 POP POP JUMP JUMPDEST PUSH1 0x0 DUP2 MLOAD SWAP1 POP SWAP2 SWAP1 POP JUMP JUMPDEST PUSH1 0x0 DUP3 DUP3 MSTORE PUSH1 0x20 DUP3 ADD SWAP1 POP SWAP3 SWAP2 POP POP JUMP JUMPDEST PUSH1 0x0 JUMPDEST DUP4 DUP2 LT ISZERO PUSH2 0x4E1 JUMPI DUP1 DUP3 ADD MLOAD DUP2 DUP5 ADD MSTORE PUSH1 0x20 DUP2 ADD SWAP1 POP PUSH2 0x4C6 JUMP JUMPDEST PUSH1 0x0 DUP5 DUP5 ADD MSTORE POP POP POP POP JUMP JUMPDEST PUSH1 0x0 PUSH1 0x1F NOT PUSH1 0x1F DUP4 ADD AND SWAP1 POP SWAP2 SWAP1 POP JUMP JUMPDEST PUSH1 0x0 PUSH2 0x509 DUP3 PUSH2 0x4A7 JUMP JUMPDEST PUSH2 0x513 DUP2 DUP6 PUSH2 0x4B2 JUMP JUMPDEST SWAP4 POP PUSH2 0x523 DUP2 DUP6 PUSH1 0x20 DUP7 ADD PUSH2 0x4C3 JUMP JUMPDEST PUSH2 0x52C DUP2 PUSH2 0x4ED JUMP JUMPDEST DUP5 ADD SWAP2 POP POP SWAP3 SWAP2 POP POP JUMP JUMPDEST PUSH1 0x3 DUP2 LT PUSH2 0x548 JUMPI PUSH2 0x547 PUSH2 0x415 JUMP JUMPDEST JUMPDEST POP JUMP JUMPDEST PUSH1 0x0 DUP2 SWAP1 POP PUSH2 0x559 DUP3 PUSH2 0x537 JUMP JUMPDEST SWAP2 SWAP1 POP JUMP JUMPDEST PUSH1 0x0 PUSH2 0x569 DUP3 PUSH2 0x54B JUMP JUMPDEST SWAP1 POP SWAP2 SWAP1 POP JUMP JUMPDEST PUSH2 0x579 DUP2 PUSH2 0x55E JUMP JUMPDEST DUP3 MSTORE POP POP JUMP JUMPDEST PUSH1 0x0 DUP2 ISZERO ISZERO SWAP1 POP SWAP2 SWAP1 POP JUMP JUMPDEST PUSH2 0x594 DUP2 PUSH2 0x57F JUMP JUMPDEST DUP3 MSTORE POP POP JUMP JUMPDEST PUSH1 0x0 PUSH1 0x80 DUP3 ADD SWAP1 POP DUP2 DUP2 SUB PUSH1 0x0 DUP4 ADD MSTORE PUSH2 0x5B4 DUP2 DUP8 PUSH2 0x4FE JUMP JUMPDEST SWAP1 POP PUSH2 0x5C3 PUSH1 0x20 DUP4 ADD DUP7 PUSH2 0x570 JUMP JUMPDEST PUSH2 0x5D0 PUSH1 0x40 DUP4 ADD DUP6 PUSH2 0x47D JUMP JUMPDEST PUSH2 0x5DD PUSH1 0x60 DUP4 ADD DUP5 PUSH2 0x58B JUMP JUMPDEST SWAP6 SWAP5 POP POP POP POP POP JUMP JUMPDEST PUSH1 0x0 DUP1 REVERT JUMPDEST PUSH1 0x0 DUP1 REVERT JUMPDEST PUSH32 0x4E487B7100000000000000000000000000000000000000000000000000000000 PUSH1 0x0 MSTORE PUSH1 0x41 PUSH1 0x4 MSTORE PUSH1 0x24 PUSH1 0x0 REVERT JUMPDEST PUSH2 0x628 DUP3 PUSH2 0x4ED JUMP JUMPDEST DUP2 ADD DUP2 DUP2 LT PUSH8 0xFFFFFFFFFFFFFFFF DUP3 GT OR ISZERO PUSH2 0x647 JUMPI PUSH2 0x646 PUSH2 0x5F0 JUMP JUMPDEST JUMPDEST DUP1 PUSH1 0x40 MSTORE POP POP POP JUMP JUMPDEST PUSH1 0x0 PUSH2 0x65A PUSH2 0x39E JUMP JUMPDEST SWAP1 POP PUSH2 0x666 DUP3 DUP3 PUSH2 0x61F JUMP JUMPDEST SWAP2 SWAP1 POP JUMP JUMPDEST PUSH1 0x0 PUSH8 0xFFFFFFFFFFFFFFFF DUP3 GT ISZERO PUSH2 0x686 JUMPI PUSH2 0x685 PUSH2 0x5F0 JUMP JUMPDEST JUMPDEST PUSH2 0x68F DUP3 PUSH2 0x4ED JUMP JUMPDEST SWAP1 POP PUSH1 0x20 DUP2 ADD SWAP1 POP SWAP2 SWAP1 POP JUMP JUMPDEST DUP3 DUP2 DUP4 CALLDATACOPY PUSH1 0x0 DUP4 DUP4 ADD MSTORE POP POP POP JUMP JUMPDEST PUSH1 0x0 PUSH2 0x6BE PUSH2 0x6B9 DUP5 PUSH2 0x66B JUMP JUMPDEST PUSH2 0x650 JUMP JUMPDEST SWAP1 POP DUP3 DUP2 MSTORE PUSH1 0x20 DUP2 ADD DUP5 DUP5 DUP5 ADD GT ISZERO PUSH2 0x6DA JUMPI PUSH2 0x6D9 PUSH2 0x5EB JUMP JUMPDEST JUMPDEST PUSH2 0x6E5 DUP5 DUP3 DUP6 PUSH2 0x69C JUMP JUMPDEST POP SWAP4 SWAP3 POP POP POP JUMP JUMPDEST PUSH1 0x0 DUP3 PUSH1 0x1F DUP4 ADD SLT PUSH2 0x702 JUMPI PUSH2 0x701 PUSH2 0x5E6 JUMP JUMPDEST JUMPDEST DUP2 CALLDATALOAD PUSH2 0x712 DUP5 DUP3 PUSH1 0x20 DUP7 ADD PUSH2 0x6AB JUMP JUMPDEST SWAP2 POP POP SWAP3 SWAP2 POP POP JUMP JUMPDEST PUSH1 0x7 DUP2 LT PUSH2 0x728 JUMPI PUSH1 0x0 DUP1 REVERT JUMPDEST POP JUMP JUMPDEST PUSH1 0x0 DUP2 CALLDATALOAD SWAP1 POP PUSH2 0x73A DUP2 PUSH2 0x71B JUMP JUMPDEST SWAP3 SWAP2 POP POP JUMP JUMPDEST PUSH1 0x3 DUP2 LT PUSH2 0x74D JUMPI PUSH1 0x0 DUP1 REVERT JUMPDEST POP JUMP JUMPDEST PUSH1 0x0 DUP2 CALLDATALOAD SWAP1 POP PUSH2 0x75F DUP2 PUSH2 0x740 JUMP JUMPDEST SWAP3 SWAP2 POP POP JUMP JUMPDEST PUSH1 0x0 DUP1 PUSH1 0x0 PUSH1 0x60 DUP5 DUP7 SUB SLT ISZERO PUSH2 0x77E JUMPI PUSH2 0x77D PUSH2 0x3A8 JUMP JUMPDEST JUMPDEST PUSH1 0x0 DUP5 ADD CALLDATALOAD PUSH8 0xFFFFFFFFFFFFFFFF DUP2 GT ISZERO PUSH2 0x79C JUMPI PUSH2 0x79B PUSH2 0x3AD JUMP JUMPDEST JUMPDEST PUSH2 0x7A8 DUP7 DUP3 DUP8 ADD PUSH2 0x6ED JUMP JUMPDEST SWAP4 POP POP PUSH1 0x20 PUSH2 0x7B9 DUP7 DUP3 DUP8 ADD PUSH2 0x72B JUMP JUMPDEST SWAP3 POP POP PUSH1 0x40 PUSH2 0x7CA DUP7 DUP3 DUP8 ADD PUSH2 0x750 JUMP JUMPDEST SWAP2 POP POP SWAP3 POP SWAP3 POP SWAP3 JUMP JUMPDEST PUSH32 0x4E487B7100000000000000000000000000000000000000000000000000000000 PUSH1 0x0 MSTORE PUSH1 0x32 PUSH1 0x4 MSTORE PUSH1 0x24 PUSH1 0x0 REVERT JUMPDEST PUSH32 0x4E487B7100000000000000000000000000000000000000000000000000000000 PUSH1 0x0 MSTORE PUSH1 0x22 PUSH1 0x4 MSTORE PUSH1 0x24 PUSH1 0x0 REVERT JUMPDEST PUSH1 0x0 PUSH1 0x2 DUP3 DIV SWAP1 POP PUSH1 0x1 DUP3 AND DUP1 PUSH2 0x84A JUMPI PUSH1 0x7F DUP3 AND SWAP2 POP JUMPDEST PUSH1 0x20 DUP3 LT DUP2 SUB PUSH2 0x85D JUMPI PUSH2 0x85C PUSH2 0x803 JUMP JUMPDEST JUMPDEST POP SWAP2 SWAP1 POP JUMP JUMPDEST PUSH1 0x0 DUP2 SWAP1 POP DUP2 PUSH1 0x0 MSTORE PUSH1 0x20 PUSH1 0x0 KECCAK256 SWAP1 POP SWAP2 SWAP1 POP JUMP JUMPDEST PUSH1 0x0 PUSH1 0x20 PUSH1 0x1F DUP4 ADD DIV SWAP1 POP SWAP2 SWAP1 POP JUMP JUMPDEST PUSH1 0x0 DUP3 DUP3 SHL SWAP1 POP SWAP3 SWAP2 POP POP JUMP JUMPDEST PUSH1 0x0 PUSH1 0x8 DUP4 MUL PUSH2 0x8C5 PUSH32 0xFFFFFFFFFFFFFFFFFFFFFFFFFFFFFFFFFFFFFFFFFFFFFFFFFFFFFFFFFFFFFFFF DUP3 PUSH2 0x888 JUMP JUMPDEST PUSH2 0x8CF DUP7 DUP4 PUSH2 0x888 JUMP JUMPDEST SWAP6 POP DUP1 NOT DUP5 AND SWAP4 POP DUP1 DUP7 AND DUP5 OR SWAP3 POP POP POP SWAP4 SWAP3 POP POP POP JUMP JUMPDEST PUSH1 0x0 DUP2 SWAP1 POP SWAP2 SWAP1 POP JUMP JUMPDEST PUSH1 0x0 PUSH2 0x90C PUSH2 0x907 PUSH2 0x902 DUP5 PUSH2 0x3B2 JUMP JUMPDEST PUSH2 0x8E7 JUMP JUMPDEST PUSH2 0x3B2 JUMP JUMPDEST SWAP1 POP SWAP2 SWAP1 POP JUMP JUMPDEST PUSH1 0x0 DUP2 SWAP1 POP SWAP2 SWAP1 POP JUMP JUMPDEST PUSH2 0x926 DUP4 PUSH2 0x8F1 JUMP JUMPDEST PUSH2 0x93A PUSH2 0x932 DUP3 PUSH2 0x913 JUMP JUMPDEST DUP5 DUP5 SLOAD PUSH2 0x895 JUMP JUMPDEST DUP3 SSTORE POP POP POP POP JUMP JUMPDEST PUSH1 0x0 SWAP1 JUMP JUMPDEST PUSH2 0x94F PUSH2 0x942 JUMP JUMPDEST PUSH2 0x95A DUP2 DUP5 DUP5 PUSH2 0x91D JUMP JUMPDEST POP POP POP JUMP JUMPDEST JUMPDEST DUP2 DUP2 LT ISZERO PUSH2 0x97E JUMPI PUSH2 0x973 PUSH1 0x0 DUP3 PUSH2 0x947 JUMP JUMPDEST PUSH1 0x1 DUP2 ADD SWAP1 POP PUSH2 0x960 JUMP JUMPDEST POP POP JUMP JUMPDEST PUSH1 0x1F DUP3 GT ISZERO PUSH2 0x9C3 JUMPI PUSH2 0x994 DUP2 PUSH2 0x863 JUMP JUMPDEST PUSH2 0x99D DUP5 PUSH2 0x878 JUMP JUMPDEST DUP2 ADD PUSH1 0x20 DUP6 LT ISZERO PUSH2 0x9AC JUMPI DUP2 SWAP1 POP JUMPDEST PUSH2 0x9C0 PUSH2 0x9B8 DUP6 PUSH2 0x878 JUMP JUMPDEST DUP4 ADD DUP3 PUSH2 0x95F JUMP JUMPDEST POP POP JUMPDEST POP POP POP JUMP JUMPDEST PUSH1 0x0 DUP3 DUP3 SHR SWAP1 POP SWAP3 SWAP2 POP POP JUMP JUMPDEST PUSH1 0x0 PUSH2 0x9E6 PUSH1 0x0 NOT DUP5 PUSH1 0x8 MUL PUSH2 0x9C8 JUMP JUMPDEST NOT DUP1 DUP4 AND SWAP2 POP POP SWAP3 SWAP2 POP POP JUMP JUMPDEST PUSH1 0x0 PUSH2 0x9FF DUP4 DUP4 PUSH2 0x9D5 JUMP JUMPDEST SWAP2 POP DUP3 PUSH1 0x2 MUL DUP3 OR SWAP1 POP SWAP3 SWAP2 POP POP JUMP JUMPDEST PUSH2 0xA18 DUP3 PUSH2 0x4A7 JUMP JUMPDEST PUSH8 0xFFFFFFFFFFFFFFFF DUP2 GT ISZERO PUSH2 0xA31 JUMPI PUSH2 0xA30 PUSH2 0x5F0 JUMP JUMPDEST JUMPDEST PUSH2 0xA3B DUP3 SLOAD PUSH2 0x832 JUMP JUMPDEST PUSH2 0xA46 DUP3 DUP3 DUP6 PUSH2 0x982 JUMP JUMPDEST PUSH1 0x0 PUSH1 0x20 SWAP1 POP PUSH1 0x1F DUP4 GT PUSH1 0x1 DUP2 EQ PUSH2 0xA79 JUMPI PUSH1 0x0 DUP5 ISZERO PUSH2 0xA67 JUMPI DUP3 DUP8 ADD MLOAD SWAP1 POP JUMPDEST PUSH2 0xA71 DUP6 DUP3 PUSH2 0x9F3 JUMP JUMPDEST DUP7 SSTORE POP PUSH2 0xAD9 JUMP JUMPDEST PUSH1 0x1F NOT DUP5 AND PUSH2 0xA87 DUP7 PUSH2 0x863 JUMP JUMPDEST PUSH1 0x0 JUMPDEST DUP3 DUP2 LT ISZERO PUSH2 0xAAF JUMPI DUP5 DUP10 ADD MLOAD DUP3 SSTORE PUSH1 0x1 DUP3 ADD SWAP2 POP PUSH1 0x20 DUP6 ADD SWAP5 POP PUSH1 0x20 DUP2 ADD SWAP1 POP PUSH2 0xA8A JUMP JUMPDEST DUP7 DUP4 LT ISZERO PUSH2 0xACC JUMPI DUP5 DUP10 ADD MLOAD PUSH2 0xAC8 PUSH1 0x1F DUP10 AND DUP3 PUSH2 0x9D5 JUMP JUMPDEST DUP4 SSTORE POP JUMPDEST PUSH1 0x1 PUSH1 0x2 DUP9 MUL ADD DUP9 SSTORE POP POP POP JUMPDEST POP POP POP POP POP POP JUMP INVALID LOG2 PUSH5 0x6970667358 0x22 SLT KECCAK256 PUSH13 0xDC72D1776FEEF7522C6F8FC6B9 MSIZE PUSH28 0xB3C56D8B4427976C034F83C3F4A0936A64736F6C6343000812003300 "
		},
		"gasEstimates": {
			"creation": {
				"codeDepositCost": "567800",
				"executionCost": "600",
				"totalCost": "568400"
			},
			"external": {
				"bookTicket(string,uint8,uint8)": "infinite",
				"getTicketType(uint256)": "5071",
				"tickets(uint256)": "infinite",
				"toggleStatus(uint256)": "31325"
			}
		},
		"methodIdentifiers": {
			"bookTicket(string,uint8,uint8)": "b1d36506",
			"getTicketType(uint256)": "163e0f46",
			"tickets(uint256)": "50b44712",
			"toggleStatus(uint256)": "51db2e76"
		}
	},
	"abi": [
		{
			"inputs": [
				{
					"internalType": "string",
					"name": "_passenger",
					"type": "string"
				},
				{
					"internalType": "enum TicketBookingSystem.Days",
					"name": "_day",
					"type": "uint8"
				},
				{
					"internalType": "enum TicketBookingSystem.TicketType",
					"name": "_ticketType",
					"type": "uint8"
				}
			],
			"name": "bookTicket",
			"outputs": [],
			"stateMutability": "nonpayable",
			"type": "function"
		},
		{
			"inputs": [
				{
					"internalType": "uint256",
					"name": "_index",
					"type": "uint256"
				}
			],
			"name": "getTicketType",
			"outputs": [
				{
					"internalType": "enum TicketBookingSystem.Days",
					"name": "",
					"type": "uint8"
				}
			],
			"stateMutability": "view",
			"type": "function"
		},
		{
			"inputs": [
				{
					"internalType": "uint256",
					"name": "",
					"type": "uint256"
				}
			],
			"name": "tickets",
			"outputs": [
				{
					"internalType": "string",
					"name": "passengerName",
					"type": "string"
				},
				{
					"internalType": "enum TicketBookingSystem.TicketType",
					"name": "ticketType",
					"type": "uint8"
				},
				{
					"internalType": "enum TicketBookingSystem.Days",
					"name": "day",
					"type": "uint8"
				},
				{
					"internalType": "bool",
					"name": "isBooked",
					"type": "bool"
				}
			],
			"stateMutability": "view",
			"type": "function"
		},
		{
			"inputs": [
				{
					"internalType": "uint256",
					"name": "_index",
					"type": "uint256"
				}
			],
			"name": "toggleStatus",
			"outputs": [],
			"stateMutability": "nonpayable",
			"type": "function"
		}
	]
}