{
	"week8/lab-01-08-2023/BankAccountStruct.sol": {
		"Bank": {
			"abi": [
				{
					"inputs": [
						{
							"internalType": "uint256",
							"name": "",
							"type": "uint256"
						}
					],
					"name": "account",
					"outputs": [
						{
							"internalType": "uint256",
							"name": "accountID",
							"type": "uint256"
						},
						{
							"internalType": "uint256",
							"name": "balance",
							"type": "uint256"
						},
						{
							"internalType": "address",
							"name": "owner",
							"type": "address"
						}
					],
					"stateMutability": "view",
					"type": "function"
				},
				{
					"inputs": [],
					"name": "get",
					"outputs": [
						{
							"internalType": "uint256",
							"name": "id",
							"type": "uint256"
						},
						{
							"internalType": "uint256",
							"name": "bal",
							"type": "uint256"
						},
						{
							"internalType": "address",
							"name": "addr",
							"type": "address"
						}
					],
					"stateMutability": "view",
					"type": "function"
				},
				{
					"inputs": [
						{
							"internalType": "uint256",
							"name": "_index",
							"type": "uint256"
						}
					],
					"name": "getFromArray",
					"outputs": [
						{
							"internalType": "uint256",
							"name": "id",
							"type": "uint256"
						},
						{
							"internalType": "uint256",
							"name": "bal",
							"type": "uint256"
						},
						{
							"internalType": "address",
							"name": "addr",
							"type": "address"
						}
					],
					"stateMutability": "view",
					"type": "function"
				},
				{
					"inputs": [
						{
							"internalType": "uint256",
							"name": "id",
							"type": "uint256"
						},
						{
							"internalType": "uint256",
							"name": "bal",
							"type": "uint256"
						},
						{
							"internalType": "address",
							"name": "addr",
							"type": "address"
						}
					],
					"name": "method1",
					"outputs": [],
					"stateMutability": "pure",
					"type": "function"
				},
				{
					"inputs": [],
					"name": "method11",
					"outputs": [],
					"stateMutability": "nonpayable",
					"type": "function"
				},
				{
					"inputs": [],
					"name": "method2",
					"outputs": [],
					"stateMutability": "nonpayable",
					"type": "function"
				},
				{
					"inputs": [
						{
							"internalType": "uint256",
							"name": "id",
							"type": "uint256"
						},
						{
							"internalType": "uint256",
							"name": "bal",
							"type": "uint256"
						},
						{
							"internalType": "address",
							"name": "addr",
							"type": "address"
						}
					],
					"name": "method3",
					"outputs": [],
					"stateMutability": "nonpayable",
					"type": "function"
				},
				{
					"inputs": [],
					"name": "method33",
					"outputs": [],
					"stateMutability": "nonpayable",
					"type": "function"
				},
				{
					"inputs": [
						{
							"internalType": "uint256",
							"name": "id",
							"type": "uint256"
						},
						{
							"internalType": "uint256",
							"name": "bal",
							"type": "uint256"
						},
						{
							"internalType": "address",
							"name": "addr",
							"type": "address"
						}
					],
					"name": "method4",
					"outputs": [],
					"stateMutability": "nonpayable",
					"type": "function"
				},
				{
					"inputs": [],
					"name": "method44",
					"outputs": [],
					"stateMutability": "nonpayable",
					"type": "function"
				},
				{
					"inputs": [],
					"name": "secondAccount",
					"outputs": [
						{
							"internalType": "uint256",
							"name": "accountID",
							"type": "uint256"
						},
						{
							"internalType": "uint256",
							"name": "balance",
							"type": "uint256"
						},
						{
							"internalType": "address",
							"name": "owner",
							"type": "address"
						}
					],
					"stateMutability": "view",
					"type": "function"
				}
			],
			"devdoc": {
				"kind": "dev",
				"methods": {},
				"version": 1
			},
			"evm": {
				"assembly": "    /* \"week8/lab-01-08-2023/BankAccountStruct.sol\":144:2378  contract Bank {... */\n  mstore(0x40, 0x80)\n  callvalue\n  dup1\n  iszero\n  tag_1\n  jumpi\n  0x00\n  dup1\n  revert\ntag_1:\n  pop\n  dataSize(sub_0)\n  dup1\n  dataOffset(sub_0)\n  0x00\n  codecopy\n  0x00\n  return\nstop\n\nsub_0: assembly {\n        /* \"week8/lab-01-08-2023/BankAccountStruct.sol\":144:2378  contract Bank {... */\n      mstore(0x40, 0x80)\n      callvalue\n      dup1\n      iszero\n      tag_1\n      jumpi\n      0x00\n      dup1\n      revert\n    tag_1:\n      pop\n      jumpi(tag_2, lt(calldatasize, 0x04))\n      shr(0xe0, calldataload(0x00))\n      dup1\n      0x6d4ce63c\n      gt\n      tag_14\n      jumpi\n      dup1\n      0x6d4ce63c\n      eq\n      tag_8\n      jumpi\n      dup1\n      0x730713f6\n      eq\n      tag_9\n      jumpi\n      dup1\n      0x927c48f2\n      eq\n      tag_10\n      jumpi\n      dup1\n      0x96018ce4\n      eq\n      tag_11\n      jumpi\n      dup1\n      0xbb43136b\n      eq\n      tag_12\n      jumpi\n      dup1\n      0xf8a47792\n      eq\n      tag_13\n      jumpi\n      jump(tag_2)\n    tag_14:\n      dup1\n      0x0c977877\n      eq\n      tag_3\n      jumpi\n      dup1\n      0x236b3649\n      eq\n      tag_4\n      jumpi\n      dup1\n      0x2dd7c658\n      eq\n      tag_5\n      jumpi\n      dup1\n      0x35474102\n      eq\n      tag_6\n      jumpi\n      dup1\n      0x35c991ac\n      eq\n      tag_7\n      jumpi\n    tag_2:\n      0x00\n      dup1\n      revert\n        /* \"week8/lab-01-08-2023/BankAccountStruct.sol\":1290:1410  function method3(uint256 id, uint256 bal, address addr) public {... */\n    tag_3:\n      tag_15\n      0x04\n      dup1\n      calldatasize\n      sub\n      dup2\n      add\n      swap1\n      tag_16\n      swap2\n      swap1\n      tag_17\n      jump\t// in\n    tag_16:\n      tag_18\n      jump\t// in\n    tag_15:\n      stop\n        /* \"week8/lab-01-08-2023/BankAccountStruct.sol\":298:506  function method1(uint256 id, uint256 bal, address addr) public pure {... */\n    tag_4:\n      tag_19\n      0x04\n      dup1\n      calldatasize\n      sub\n      dup2\n      add\n      swap1\n      tag_20\n      swap2\n      swap1\n      tag_17\n      jump\t// in\n    tag_20:\n      tag_21\n      jump\t// in\n    tag_19:\n      stop\n        /* \"week8/lab-01-08-2023/BankAccountStruct.sol\":164:192  BankAccount[] public account */\n    tag_5:\n      tag_22\n      0x04\n      dup1\n      calldatasize\n      sub\n      dup2\n      add\n      swap1\n      tag_23\n      swap2\n      swap1\n      tag_24\n      jump\t// in\n    tag_23:\n      tag_25\n      jump\t// in\n    tag_22:\n      mload(0x40)\n      tag_26\n      swap4\n      swap3\n      swap2\n      swap1\n      tag_27\n      jump\t// in\n    tag_26:\n      mload(0x40)\n      dup1\n      swap2\n      sub\n      swap1\n      return\n        /* \"week8/lab-01-08-2023/BankAccountStruct.sol\":1626:1775  function method4(uint256 id, uint256 bal, address addr) public {... */\n    tag_6:\n      tag_28\n      0x04\n      dup1\n      calldatasize\n      sub\n      dup2\n      add\n      swap1\n      tag_29\n      swap2\n      swap1\n      tag_17\n      jump\t// in\n    tag_29:\n      tag_30\n      jump\t// in\n    tag_28:\n      stop\n        /* \"week8/lab-01-08-2023/BankAccountStruct.sol\":1985:2210  function getFromArray(uint256 _index) public view returns (uint id, uint bal, address addr){... */\n    tag_7:\n      tag_31\n      0x04\n      dup1\n      calldatasize\n      sub\n      dup2\n      add\n      swap1\n      tag_32\n      swap2\n      swap1\n      tag_24\n      jump\t// in\n    tag_32:\n      tag_33\n      jump\t// in\n    tag_31:\n      mload(0x40)\n      tag_34\n      swap4\n      swap3\n      swap2\n      swap1\n      tag_27\n      jump\t// in\n    tag_34:\n      mload(0x40)\n      dup1\n      swap2\n      sub\n      swap1\n      return\n        /* \"week8/lab-01-08-2023/BankAccountStruct.sol\":2215:2376  function get() public view returns (uint id, uint bal, address addr){... */\n    tag_8:\n      tag_35\n      tag_36\n      jump\t// in\n    tag_35:\n      mload(0x40)\n      tag_37\n      swap4\n      swap3\n      swap2\n      swap1\n      tag_27\n      jump\t// in\n    tag_37:\n      mload(0x40)\n      dup1\n      swap2\n      sub\n      swap1\n      return\n        /* \"week8/lab-01-08-2023/BankAccountStruct.sol\":1828:1979  function method44() public {... */\n    tag_9:\n      tag_38\n      tag_39\n      jump\t// in\n    tag_38:\n      stop\n        /* \"week8/lab-01-08-2023/BankAccountStruct.sol\":198:230  BankAccount public secondAccount */\n    tag_10:\n      tag_40\n      tag_41\n      jump\t// in\n    tag_40:\n      mload(0x40)\n      tag_42\n      swap4\n      swap3\n      swap2\n      swap1\n      tag_27\n      jump\t// in\n    tag_42:\n      mload(0x40)\n      dup1\n      swap2\n      sub\n      swap1\n      return\n        /* \"week8/lab-01-08-2023/BankAccountStruct.sol\":1453:1574  function method33() public {... */\n    tag_11:\n      tag_43\n      tag_44\n      jump\t// in\n    tag_43:\n      stop\n        /* \"week8/lab-01-08-2023/BankAccountStruct.sol\":573:791  function method11() public {... */\n    tag_12:\n      tag_45\n      tag_46\n      jump\t// in\n    tag_45:\n      stop\n        /* \"week8/lab-01-08-2023/BankAccountStruct.sol\":1062:1249  function method2() public {... */\n    tag_13:\n      tag_47\n      tag_48\n      jump\t// in\n    tag_47:\n      stop\n        /* \"week8/lab-01-08-2023/BankAccountStruct.sol\":1290:1410  function method3(uint256 id, uint256 bal, address addr) public {... */\n    tag_18:\n        /* \"week8/lab-01-08-2023/BankAccountStruct.sol\":1363:1370  account */\n      0x00\n        /* \"week8/lab-01-08-2023/BankAccountStruct.sol\":1376:1402  BankAccount(id, bal, addr) */\n      mload(0x40)\n      dup1\n      0x60\n      add\n      0x40\n      mstore\n      dup1\n        /* \"week8/lab-01-08-2023/BankAccountStruct.sol\":1388:1390  id */\n      dup6\n        /* \"week8/lab-01-08-2023/BankAccountStruct.sol\":1376:1402  BankAccount(id, bal, addr) */\n      dup2\n      mstore\n      0x20\n      add\n        /* \"week8/lab-01-08-2023/BankAccountStruct.sol\":1392:1395  bal */\n      dup5\n        /* \"week8/lab-01-08-2023/BankAccountStruct.sol\":1376:1402  BankAccount(id, bal, addr) */\n      dup2\n      mstore\n      0x20\n      add\n        /* \"week8/lab-01-08-2023/BankAccountStruct.sol\":1397:1401  addr */\n      dup4\n        /* \"week8/lab-01-08-2023/BankAccountStruct.sol\":1376:1402  BankAccount(id, bal, addr) */\n      0xffffffffffffffffffffffffffffffffffffffff\n      and\n      dup2\n      mstore\n      pop\n        /* \"week8/lab-01-08-2023/BankAccountStruct.sol\":1363:1403  account.push(BankAccount(id, bal, addr)) */\n      swap1\n      dup1\n      0x01\n      dup2\n      sload\n      add\n      dup1\n      dup3\n      sstore\n      dup1\n      swap2\n      pop\n      pop\n      0x01\n      swap1\n      sub\n      swap1\n      0x00\n      mstore\n      keccak256(0x00, 0x20)\n      swap1\n      0x03\n      mul\n      add\n      0x00\n      swap1\n      swap2\n      swap1\n      swap2\n      swap1\n      swap2\n      pop\n      0x00\n      dup3\n      add\n      mload\n      dup2\n      0x00\n      add\n      sstore\n      0x20\n      dup3\n      add\n      mload\n      dup2\n      0x01\n      add\n      sstore\n      0x40\n      dup3\n      add\n      mload\n      dup2\n      0x02\n      add\n      exp(0x0100, 0x00)\n      dup2\n      sload\n      dup2\n      0xffffffffffffffffffffffffffffffffffffffff\n      mul\n      not\n      and\n      swap1\n      dup4\n      0xffffffffffffffffffffffffffffffffffffffff\n      and\n      mul\n      or\n      swap1\n      sstore\n      pop\n      pop\n      pop\n        /* \"week8/lab-01-08-2023/BankAccountStruct.sol\":1290:1410  function method3(uint256 id, uint256 bal, address addr) public {... */\n      pop\n      pop\n      pop\n      jump\t// out\n        /* \"week8/lab-01-08-2023/BankAccountStruct.sol\":298:506  function method1(uint256 id, uint256 bal, address addr) public pure {... */\n    tag_21:\n        /* \"week8/lab-01-08-2023/BankAccountStruct.sol\":376:403  BankAccount memory _account */\n      tag_52\n      tag_53\n      jump\t// in\n    tag_52:\n        /* \"week8/lab-01-08-2023/BankAccountStruct.sol\":434:436  id */\n      dup4\n        /* \"week8/lab-01-08-2023/BankAccountStruct.sol\":413:421  _account */\n      dup2\n        /* \"week8/lab-01-08-2023/BankAccountStruct.sol\":413:431  _account.accountID */\n      0x00\n      add\n        /* \"week8/lab-01-08-2023/BankAccountStruct.sol\":413:436  _account.accountID = id */\n      dup2\n      dup2\n      mstore\n      pop\n      pop\n        /* \"week8/lab-01-08-2023/BankAccountStruct.sol\":465:468  bal */\n      dup3\n        /* \"week8/lab-01-08-2023/BankAccountStruct.sol\":446:454  _account */\n      dup2\n        /* \"week8/lab-01-08-2023/BankAccountStruct.sol\":446:462  _account.balance */\n      0x20\n      add\n        /* \"week8/lab-01-08-2023/BankAccountStruct.sol\":446:468  _account.balance = bal */\n      dup2\n      dup2\n      mstore\n      pop\n      pop\n        /* \"week8/lab-01-08-2023/BankAccountStruct.sol\":495:499  addr */\n      dup2\n        /* \"week8/lab-01-08-2023/BankAccountStruct.sol\":478:486  _account */\n      dup2\n        /* \"week8/lab-01-08-2023/BankAccountStruct.sol\":478:492  _account.owner */\n      0x40\n      add\n        /* \"week8/lab-01-08-2023/BankAccountStruct.sol\":478:499  _account.owner = addr */\n      swap1\n      0xffffffffffffffffffffffffffffffffffffffff\n      and\n      swap1\n      dup2\n      0xffffffffffffffffffffffffffffffffffffffff\n      and\n      dup2\n      mstore\n      pop\n      pop\n        /* \"week8/lab-01-08-2023/BankAccountStruct.sol\":366:506  {... */\n      pop\n        /* \"week8/lab-01-08-2023/BankAccountStruct.sol\":298:506  function method1(uint256 id, uint256 bal, address addr) public pure {... */\n      pop\n      pop\n      pop\n      jump\t// out\n        /* \"week8/lab-01-08-2023/BankAccountStruct.sol\":164:192  BankAccount[] public account */\n    tag_25:\n      0x00\n      dup2\n      dup2\n      sload\n      dup2\n      lt\n      tag_54\n      jumpi\n      0x00\n      dup1\n      revert\n    tag_54:\n      swap1\n      0x00\n      mstore\n      keccak256(0x00, 0x20)\n      swap1\n      0x03\n      mul\n      add\n      0x00\n      swap2\n      pop\n      swap1\n      pop\n      dup1\n      0x00\n      add\n      sload\n      swap1\n      dup1\n      0x01\n      add\n      sload\n      swap1\n      dup1\n      0x02\n      add\n      0x00\n      swap1\n      sload\n      swap1\n      0x0100\n      exp\n      swap1\n      div\n      0xffffffffffffffffffffffffffffffffffffffff\n      and\n      swap1\n      pop\n      dup4\n      jump\t// out\n        /* \"week8/lab-01-08-2023/BankAccountStruct.sol\":1626:1775  function method4(uint256 id, uint256 bal, address addr) public {... */\n    tag_30:\n        /* \"week8/lab-01-08-2023/BankAccountStruct.sol\":1699:1706  account */\n      0x00\n        /* \"week8/lab-01-08-2023/BankAccountStruct.sol\":1712:1767  BankAccount({accountID: id, balance: bal, owner: addr}) */\n      mload(0x40)\n      dup1\n      0x60\n      add\n      0x40\n      mstore\n      dup1\n        /* \"week8/lab-01-08-2023/BankAccountStruct.sol\":1736:1738  id */\n      dup6\n        /* \"week8/lab-01-08-2023/BankAccountStruct.sol\":1712:1767  BankAccount({accountID: id, balance: bal, owner: addr}) */\n      dup2\n      mstore\n      0x20\n      add\n        /* \"week8/lab-01-08-2023/BankAccountStruct.sol\":1749:1752  bal */\n      dup5\n        /* \"week8/lab-01-08-2023/BankAccountStruct.sol\":1712:1767  BankAccount({accountID: id, balance: bal, owner: addr}) */\n      dup2\n      mstore\n      0x20\n      add\n        /* \"week8/lab-01-08-2023/BankAccountStruct.sol\":1761:1765  addr */\n      dup4\n        /* \"week8/lab-01-08-2023/BankAccountStruct.sol\":1712:1767  BankAccount({accountID: id, balance: bal, owner: addr}) */\n      0xffffffffffffffffffffffffffffffffffffffff\n      and\n      dup2\n      mstore\n      pop\n        /* \"week8/lab-01-08-2023/BankAccountStruct.sol\":1699:1768  account.push(BankAccount({accountID: id, balance: bal, owner: addr})) */\n      swap1\n      dup1\n      0x01\n      dup2\n      sload\n      add\n      dup1\n      dup3\n      sstore\n      dup1\n      swap2\n      pop\n      pop\n      0x01\n      swap1\n      sub\n      swap1\n      0x00\n      mstore\n      keccak256(0x00, 0x20)\n      swap1\n      0x03\n      mul\n      add\n      0x00\n      swap1\n      swap2\n      swap1\n      swap2\n      swap1\n      swap2\n      pop\n      0x00\n      dup3\n      add\n      mload\n      dup2\n      0x00\n      add\n      sstore\n      0x20\n      dup3\n      add\n      mload\n      dup2\n      0x01\n      add\n      sstore\n      0x40\n      dup3\n      add\n      mload\n      dup2\n      0x02\n      add\n      exp(0x0100, 0x00)\n      dup2\n      sload\n      dup2\n      0xffffffffffffffffffffffffffffffffffffffff\n      mul\n      not\n      and\n      swap1\n      dup4\n      0xffffffffffffffffffffffffffffffffffffffff\n      and\n      mul\n      or\n      swap1\n      sstore\n      pop\n      pop\n      pop\n        /* \"week8/lab-01-08-2023/BankAccountStruct.sol\":1626:1775  function method4(uint256 id, uint256 bal, address addr) public {... */\n      pop\n      pop\n      pop\n      jump\t// out\n        /* \"week8/lab-01-08-2023/BankAccountStruct.sol\":1985:2210  function getFromArray(uint256 _index) public view returns (uint id, uint bal, address addr){... */\n    tag_33:\n        /* \"week8/lab-01-08-2023/BankAccountStruct.sol\":2044:2051  uint id */\n      0x00\n        /* \"week8/lab-01-08-2023/BankAccountStruct.sol\":2053:2061  uint bal */\n      dup1\n        /* \"week8/lab-01-08-2023/BankAccountStruct.sol\":2063:2075  address addr */\n      0x00\n        /* \"week8/lab-01-08-2023/BankAccountStruct.sol\":2086:2114  BankAccount storage _account */\n      dup1\n        /* \"week8/lab-01-08-2023/BankAccountStruct.sol\":2117:2124  account */\n      0x00\n        /* \"week8/lab-01-08-2023/BankAccountStruct.sol\":2125:2131  _index */\n      dup6\n        /* \"week8/lab-01-08-2023/BankAccountStruct.sol\":2117:2132  account[_index] */\n      dup2\n      sload\n      dup2\n      lt\n      tag_59\n      jumpi\n      tag_60\n      tag_61\n      jump\t// in\n    tag_60:\n    tag_59:\n      swap1\n      0x00\n      mstore\n      keccak256(0x00, 0x20)\n      swap1\n      0x03\n      mul\n      add\n        /* \"week8/lab-01-08-2023/BankAccountStruct.sol\":2086:2132  BankAccount storage _account = account[_index] */\n      swap1\n      pop\n        /* \"week8/lab-01-08-2023/BankAccountStruct.sol\":2150:2158  _account */\n      dup1\n        /* \"week8/lab-01-08-2023/BankAccountStruct.sol\":2150:2168  _account.accountID */\n      0x00\n      add\n      sload\n        /* \"week8/lab-01-08-2023/BankAccountStruct.sol\":2170:2178  _account */\n      dup2\n        /* \"week8/lab-01-08-2023/BankAccountStruct.sol\":2170:2186  _account.balance */\n      0x01\n      add\n      sload\n        /* \"week8/lab-01-08-2023/BankAccountStruct.sol\":2188:2196  _account */\n      dup3\n        /* \"week8/lab-01-08-2023/BankAccountStruct.sol\":2188:2202  _account.owner */\n      0x02\n      add\n      0x00\n      swap1\n      sload\n      swap1\n      0x0100\n      exp\n      swap1\n      div\n      0xffffffffffffffffffffffffffffffffffffffff\n      and\n        /* \"week8/lab-01-08-2023/BankAccountStruct.sol\":2142:2203  return (_account.accountID, _account.balance, _account.owner) */\n      swap4\n      pop\n      swap4\n      pop\n      swap4\n      pop\n      pop\n        /* \"week8/lab-01-08-2023/BankAccountStruct.sol\":1985:2210  function getFromArray(uint256 _index) public view returns (uint id, uint bal, address addr){... */\n      swap2\n      swap4\n      swap1\n      swap3\n      pop\n      jump\t// out\n        /* \"week8/lab-01-08-2023/BankAccountStruct.sol\":2215:2376  function get() public view returns (uint id, uint bal, address addr){... */\n    tag_36:\n        /* \"week8/lab-01-08-2023/BankAccountStruct.sol\":2251:2258  uint id */\n      0x00\n        /* \"week8/lab-01-08-2023/BankAccountStruct.sol\":2260:2268  uint bal */\n      dup1\n        /* \"week8/lab-01-08-2023/BankAccountStruct.sol\":2270:2282  address addr */\n      0x00\n        /* \"week8/lab-01-08-2023/BankAccountStruct.sol\":2301:2314  secondAccount */\n      0x01\n        /* \"week8/lab-01-08-2023/BankAccountStruct.sol\":2301:2324  secondAccount.accountID */\n      0x00\n      add\n      sload\n        /* \"week8/lab-01-08-2023/BankAccountStruct.sol\":2326:2339  secondAccount */\n      0x01\n        /* \"week8/lab-01-08-2023/BankAccountStruct.sol\":2326:2347  secondAccount.balance */\n      dup1\n      add\n      sload\n        /* \"week8/lab-01-08-2023/BankAccountStruct.sol\":2349:2362  secondAccount */\n      0x01\n        /* \"week8/lab-01-08-2023/BankAccountStruct.sol\":2349:2368  secondAccount.owner */\n      0x02\n      add\n      0x00\n      swap1\n      sload\n      swap1\n      0x0100\n      exp\n      swap1\n      div\n      0xffffffffffffffffffffffffffffffffffffffff\n      and\n        /* \"week8/lab-01-08-2023/BankAccountStruct.sol\":2293:2369  return (secondAccount.accountID, secondAccount.balance, secondAccount.owner) */\n      swap3\n      pop\n      swap3\n      pop\n      swap3\n      pop\n        /* \"week8/lab-01-08-2023/BankAccountStruct.sol\":2215:2376  function get() public view returns (uint id, uint bal, address addr){... */\n      swap1\n      swap2\n      swap3\n      jump\t// out\n        /* \"week8/lab-01-08-2023/BankAccountStruct.sol\":1828:1979  function method44() public {... */\n    tag_39:\n        /* \"week8/lab-01-08-2023/BankAccountStruct.sol\":1881:1972  BankAccount({accountID: 4, balance: 60, owner: 0x5B38Da6a701c568545dCfcB03FcB875f56beddC4}) */\n      mload(0x40)\n      dup1\n      0x60\n      add\n      0x40\n      mstore\n      dup1\n        /* \"week8/lab-01-08-2023/BankAccountStruct.sol\":1905:1906  4 */\n      0x04\n        /* \"week8/lab-01-08-2023/BankAccountStruct.sol\":1881:1972  BankAccount({accountID: 4, balance: 60, owner: 0x5B38Da6a701c568545dCfcB03FcB875f56beddC4}) */\n      dup2\n      mstore\n      0x20\n      add\n        /* \"week8/lab-01-08-2023/BankAccountStruct.sol\":1917:1919  60 */\n      0x3c\n        /* \"week8/lab-01-08-2023/BankAccountStruct.sol\":1881:1972  BankAccount({accountID: 4, balance: 60, owner: 0x5B38Da6a701c568545dCfcB03FcB875f56beddC4}) */\n      dup2\n      mstore\n      0x20\n      add\n        /* \"week8/lab-01-08-2023/BankAccountStruct.sol\":1928:1970  0x5B38Da6a701c568545dCfcB03FcB875f56beddC4 */\n      0x5b38da6a701c568545dcfcb03fcb875f56beddc4\n        /* \"week8/lab-01-08-2023/BankAccountStruct.sol\":1881:1972  BankAccount({accountID: 4, balance: 60, owner: 0x5B38Da6a701c568545dCfcB03FcB875f56beddC4}) */\n      0xffffffffffffffffffffffffffffffffffffffff\n      and\n      dup2\n      mstore\n      pop\n        /* \"week8/lab-01-08-2023/BankAccountStruct.sol\":1865:1878  secondAccount */\n      0x01\n        /* \"week8/lab-01-08-2023/BankAccountStruct.sol\":1865:1972  secondAccount = BankAccount({accountID: 4, balance: 60, owner: 0x5B38Da6a701c568545dCfcB03FcB875f56beddC4}) */\n      0x00\n      dup3\n      add\n      mload\n      dup2\n      0x00\n      add\n      sstore\n      0x20\n      dup3\n      add\n      mload\n      dup2\n      0x01\n      add\n      sstore\n      0x40\n      dup3\n      add\n      mload\n      dup2\n      0x02\n      add\n      exp(0x0100, 0x00)\n      dup2\n      sload\n      dup2\n      0xffffffffffffffffffffffffffffffffffffffff\n      mul\n      not\n      and\n      swap1\n      dup4\n      0xffffffffffffffffffffffffffffffffffffffff\n      and\n      mul\n      or\n      swap1\n      sstore\n      pop\n      swap1\n      pop\n      pop\n        /* \"week8/lab-01-08-2023/BankAccountStruct.sol\":1828:1979  function method44() public {... */\n      jump\t// out\n        /* \"week8/lab-01-08-2023/BankAccountStruct.sol\":198:230  BankAccount public secondAccount */\n    tag_41:\n      0x01\n      dup1\n      0x00\n      add\n      sload\n      swap1\n      dup1\n      0x01\n      add\n      sload\n      swap1\n      dup1\n      0x02\n      add\n      0x00\n      swap1\n      sload\n      swap1\n      0x0100\n      exp\n      swap1\n      div\n      0xffffffffffffffffffffffffffffffffffffffff\n      and\n      swap1\n      pop\n      dup4\n      jump\t// out\n        /* \"week8/lab-01-08-2023/BankAccountStruct.sol\":1453:1574  function method33() public {... */\n    tag_44:\n        /* \"week8/lab-01-08-2023/BankAccountStruct.sol\":1506:1567  BankAccount(3, 90,0x5B38Da6a701c568545dCfcB03FcB875f56beddC4) */\n      mload(0x40)\n      dup1\n      0x60\n      add\n      0x40\n      mstore\n      dup1\n        /* \"week8/lab-01-08-2023/BankAccountStruct.sol\":1518:1519  3 */\n      0x03\n        /* \"week8/lab-01-08-2023/BankAccountStruct.sol\":1506:1567  BankAccount(3, 90,0x5B38Da6a701c568545dCfcB03FcB875f56beddC4) */\n      dup2\n      mstore\n      0x20\n      add\n        /* \"week8/lab-01-08-2023/BankAccountStruct.sol\":1521:1523  90 */\n      0x5a\n        /* \"week8/lab-01-08-2023/BankAccountStruct.sol\":1506:1567  BankAccount(3, 90,0x5B38Da6a701c568545dCfcB03FcB875f56beddC4) */\n      dup2\n      mstore\n      0x20\n      add\n        /* \"week8/lab-01-08-2023/BankAccountStruct.sol\":1524:1566  0x5B38Da6a701c568545dCfcB03FcB875f56beddC4 */\n      0x5b38da6a701c568545dcfcb03fcb875f56beddc4\n        /* \"week8/lab-01-08-2023/BankAccountStruct.sol\":1506:1567  BankAccount(3, 90,0x5B38Da6a701c568545dCfcB03FcB875f56beddC4) */\n      0xffffffffffffffffffffffffffffffffffffffff\n      and\n      dup2\n      mstore\n      pop\n        /* \"week8/lab-01-08-2023/BankAccountStruct.sol\":1490:1503  secondAccount */\n      0x01\n        /* \"week8/lab-01-08-2023/BankAccountStruct.sol\":1490:1567  secondAccount = BankAccount(3, 90,0x5B38Da6a701c568545dCfcB03FcB875f56beddC4) */\n      0x00\n      dup3\n      add\n      mload\n      dup2\n      0x00\n      add\n      sstore\n      0x20\n      dup3\n      add\n      mload\n      dup2\n      0x01\n      add\n      sstore\n      0x40\n      dup3\n      add\n      mload\n      dup2\n      0x02\n      add\n      exp(0x0100, 0x00)\n      dup2\n      sload\n      dup2\n      0xffffffffffffffffffffffffffffffffffffffff\n      mul\n      not\n      and\n      swap1\n      dup4\n      0xffffffffffffffffffffffffffffffffffffffff\n      and\n      mul\n      or\n      swap1\n      sstore\n      pop\n      swap1\n      pop\n      pop\n        /* \"week8/lab-01-08-2023/BankAccountStruct.sol\":1453:1574  function method33() public {... */\n      jump\t// out\n        /* \"week8/lab-01-08-2023/BankAccountStruct.sol\":573:791  function method11() public {... */\n    tag_46:\n        /* \"week8/lab-01-08-2023/BankAccountStruct.sol\":608:637  BankAccount storage _account2 */\n      0x00\n        /* \"week8/lab-01-08-2023/BankAccountStruct.sol\":640:653  secondAccount */\n      0x01\n        /* \"week8/lab-01-08-2023/BankAccountStruct.sol\":608:653  BankAccount storage _account2 = secondAccount */\n      swap1\n      pop\n        /* \"week8/lab-01-08-2023/BankAccountStruct.sol\":685:686  1 */\n      0x01\n        /* \"week8/lab-01-08-2023/BankAccountStruct.sol\":663:672  _account2 */\n      dup2\n        /* \"week8/lab-01-08-2023/BankAccountStruct.sol\":663:682  _account2.accountID */\n      0x00\n      add\n        /* \"week8/lab-01-08-2023/BankAccountStruct.sol\":663:686  _account2.accountID = 1 */\n      dup2\n      swap1\n      sstore\n      pop\n        /* \"week8/lab-01-08-2023/BankAccountStruct.sol\":716:718  10 */\n      0x0a\n        /* \"week8/lab-01-08-2023/BankAccountStruct.sol\":696:705  _account2 */\n      dup2\n        /* \"week8/lab-01-08-2023/BankAccountStruct.sol\":696:713  _account2.balance */\n      0x01\n      add\n        /* \"week8/lab-01-08-2023/BankAccountStruct.sol\":696:718  _account2.balance = 10 */\n      dup2\n      swap1\n      sstore\n      pop\n        /* \"week8/lab-01-08-2023/BankAccountStruct.sol\":746:788  0x5B38Da6a701c568545dCfcB03FcB875f56beddC4 */\n      0x5b38da6a701c568545dcfcb03fcb875f56beddc4\n        /* \"week8/lab-01-08-2023/BankAccountStruct.sol\":728:737  _account2 */\n      dup2\n        /* \"week8/lab-01-08-2023/BankAccountStruct.sol\":728:743  _account2.owner */\n      0x02\n      add\n      0x00\n        /* \"week8/lab-01-08-2023/BankAccountStruct.sol\":728:788  _account2.owner = 0x5B38Da6a701c568545dCfcB03FcB875f56beddC4 */\n      0x0100\n      exp\n      dup2\n      sload\n      dup2\n      0xffffffffffffffffffffffffffffffffffffffff\n      mul\n      not\n      and\n      swap1\n      dup4\n      0xffffffffffffffffffffffffffffffffffffffff\n      and\n      mul\n      or\n      swap1\n      sstore\n      pop\n        /* \"week8/lab-01-08-2023/BankAccountStruct.sol\":600:791  {... */\n      pop\n        /* \"week8/lab-01-08-2023/BankAccountStruct.sol\":573:791  function method11() public {... */\n      jump\t// out\n        /* \"week8/lab-01-08-2023/BankAccountStruct.sol\":1062:1249  function method2() public {... */\n    tag_48:\n        /* \"week8/lab-01-08-2023/BankAccountStruct.sol\":1132:1133  2 */\n      0x02\n        /* \"week8/lab-01-08-2023/BankAccountStruct.sol\":1106:1119  secondAccount */\n      0x01\n        /* \"week8/lab-01-08-2023/BankAccountStruct.sol\":1106:1129  secondAccount.accountID */\n      0x00\n      add\n        /* \"week8/lab-01-08-2023/BankAccountStruct.sol\":1106:1133  secondAccount.accountID = 2 */\n      dup2\n      swap1\n      sstore\n      pop\n        /* \"week8/lab-01-08-2023/BankAccountStruct.sol\":1166:1168  20 */\n      0x14\n        /* \"week8/lab-01-08-2023/BankAccountStruct.sol\":1142:1155  secondAccount */\n      0x01\n        /* \"week8/lab-01-08-2023/BankAccountStruct.sol\":1142:1163  secondAccount.balance */\n      dup1\n      add\n        /* \"week8/lab-01-08-2023/BankAccountStruct.sol\":1142:1168  secondAccount.balance = 20 */\n      dup2\n      swap1\n      sstore\n      pop\n        /* \"week8/lab-01-08-2023/BankAccountStruct.sol\":1199:1241  0x5B38Da6a701c568545dCfcB03FcB875f56beddC4 */\n      0x5b38da6a701c568545dcfcb03fcb875f56beddc4\n        /* \"week8/lab-01-08-2023/BankAccountStruct.sol\":1177:1190  secondAccount */\n      0x01\n        /* \"week8/lab-01-08-2023/BankAccountStruct.sol\":1177:1196  secondAccount.owner */\n      0x02\n      add\n      0x00\n        /* \"week8/lab-01-08-2023/BankAccountStruct.sol\":1177:1241  secondAccount.owner = 0x5B38Da6a701c568545dCfcB03FcB875f56beddC4 */\n      0x0100\n      exp\n      dup2\n      sload\n      dup2\n      0xffffffffffffffffffffffffffffffffffffffff\n      mul\n      not\n      and\n      swap1\n      dup4\n      0xffffffffffffffffffffffffffffffffffffffff\n      and\n      mul\n      or\n      swap1\n      sstore\n      pop\n        /* \"week8/lab-01-08-2023/BankAccountStruct.sol\":1062:1249  function method2() public {... */\n      jump\t// out\n    tag_53:\n      mload(0x40)\n      dup1\n      0x60\n      add\n      0x40\n      mstore\n      dup1\n      0x00\n      dup2\n      mstore\n      0x20\n      add\n      0x00\n      dup2\n      mstore\n      0x20\n      add\n      and(0xffffffffffffffffffffffffffffffffffffffff, 0x00)\n      dup2\n      mstore\n      pop\n      swap1\n      jump\t// out\n        /* \"#utility.yul\":88:205   */\n    tag_69:\n        /* \"#utility.yul\":197:198   */\n      0x00\n        /* \"#utility.yul\":194:195   */\n      dup1\n        /* \"#utility.yul\":187:199   */\n      revert\n        /* \"#utility.yul\":334:411   */\n    tag_71:\n        /* \"#utility.yul\":371:378   */\n      0x00\n        /* \"#utility.yul\":400:405   */\n      dup2\n        /* \"#utility.yul\":389:405   */\n      swap1\n      pop\n        /* \"#utility.yul\":334:411   */\n      swap2\n      swap1\n      pop\n      jump\t// out\n        /* \"#utility.yul\":417:539   */\n    tag_72:\n        /* \"#utility.yul\":490:514   */\n      tag_86\n        /* \"#utility.yul\":508:513   */\n      dup2\n        /* \"#utility.yul\":490:514   */\n      tag_71\n      jump\t// in\n    tag_86:\n        /* \"#utility.yul\":483:488   */\n      dup2\n        /* \"#utility.yul\":480:515   */\n      eq\n        /* \"#utility.yul\":470:533   */\n      tag_87\n      jumpi\n        /* \"#utility.yul\":529:530   */\n      0x00\n        /* \"#utility.yul\":526:527   */\n      dup1\n        /* \"#utility.yul\":519:531   */\n      revert\n        /* \"#utility.yul\":470:533   */\n    tag_87:\n        /* \"#utility.yul\":417:539   */\n      pop\n      jump\t// out\n        /* \"#utility.yul\":545:684   */\n    tag_73:\n        /* \"#utility.yul\":591:596   */\n      0x00\n        /* \"#utility.yul\":629:635   */\n      dup2\n        /* \"#utility.yul\":616:636   */\n      calldataload\n        /* \"#utility.yul\":607:636   */\n      swap1\n      pop\n        /* \"#utility.yul\":645:678   */\n      tag_89\n        /* \"#utility.yul\":672:677   */\n      dup2\n        /* \"#utility.yul\":645:678   */\n      tag_72\n      jump\t// in\n    tag_89:\n        /* \"#utility.yul\":545:684   */\n      swap3\n      swap2\n      pop\n      pop\n      jump\t// out\n        /* \"#utility.yul\":690:816   */\n    tag_74:\n        /* \"#utility.yul\":727:734   */\n      0x00\n        /* \"#utility.yul\":767:809   */\n      0xffffffffffffffffffffffffffffffffffffffff\n        /* \"#utility.yul\":760:765   */\n      dup3\n        /* \"#utility.yul\":756:810   */\n      and\n        /* \"#utility.yul\":745:810   */\n      swap1\n      pop\n        /* \"#utility.yul\":690:816   */\n      swap2\n      swap1\n      pop\n      jump\t// out\n        /* \"#utility.yul\":822:918   */\n    tag_75:\n        /* \"#utility.yul\":859:866   */\n      0x00\n        /* \"#utility.yul\":888:912   */\n      tag_92\n        /* \"#utility.yul\":906:911   */\n      dup3\n        /* \"#utility.yul\":888:912   */\n      tag_74\n      jump\t// in\n    tag_92:\n        /* \"#utility.yul\":877:912   */\n      swap1\n      pop\n        /* \"#utility.yul\":822:918   */\n      swap2\n      swap1\n      pop\n      jump\t// out\n        /* \"#utility.yul\":924:1046   */\n    tag_76:\n        /* \"#utility.yul\":997:1021   */\n      tag_94\n        /* \"#utility.yul\":1015:1020   */\n      dup2\n        /* \"#utility.yul\":997:1021   */\n      tag_75\n      jump\t// in\n    tag_94:\n        /* \"#utility.yul\":990:995   */\n      dup2\n        /* \"#utility.yul\":987:1022   */\n      eq\n        /* \"#utility.yul\":977:1040   */\n      tag_95\n      jumpi\n        /* \"#utility.yul\":1036:1037   */\n      0x00\n        /* \"#utility.yul\":1033:1034   */\n      dup1\n        /* \"#utility.yul\":1026:1038   */\n      revert\n        /* \"#utility.yul\":977:1040   */\n    tag_95:\n        /* \"#utility.yul\":924:1046   */\n      pop\n      jump\t// out\n        /* \"#utility.yul\":1052:1191   */\n    tag_77:\n        /* \"#utility.yul\":1098:1103   */\n      0x00\n        /* \"#utility.yul\":1136:1142   */\n      dup2\n        /* \"#utility.yul\":1123:1143   */\n      calldataload\n        /* \"#utility.yul\":1114:1143   */\n      swap1\n      pop\n        /* \"#utility.yul\":1152:1185   */\n      tag_97\n        /* \"#utility.yul\":1179:1184   */\n      dup2\n        /* \"#utility.yul\":1152:1185   */\n      tag_76\n      jump\t// in\n    tag_97:\n        /* \"#utility.yul\":1052:1191   */\n      swap3\n      swap2\n      pop\n      pop\n      jump\t// out\n        /* \"#utility.yul\":1197:1816   */\n    tag_17:\n        /* \"#utility.yul\":1274:1280   */\n      0x00\n        /* \"#utility.yul\":1282:1288   */\n      dup1\n        /* \"#utility.yul\":1290:1296   */\n      0x00\n        /* \"#utility.yul\":1339:1341   */\n      0x60\n        /* \"#utility.yul\":1327:1336   */\n      dup5\n        /* \"#utility.yul\":1318:1325   */\n      dup7\n        /* \"#utility.yul\":1314:1337   */\n      sub\n        /* \"#utility.yul\":1310:1342   */\n      slt\n        /* \"#utility.yul\":1307:1426   */\n      iszero\n      tag_99\n      jumpi\n        /* \"#utility.yul\":1345:1424   */\n      tag_100\n      tag_69\n      jump\t// in\n    tag_100:\n        /* \"#utility.yul\":1307:1426   */\n    tag_99:\n        /* \"#utility.yul\":1465:1466   */\n      0x00\n        /* \"#utility.yul\":1490:1543   */\n      tag_101\n        /* \"#utility.yul\":1535:1542   */\n      dup7\n        /* \"#utility.yul\":1526:1532   */\n      dup3\n        /* \"#utility.yul\":1515:1524   */\n      dup8\n        /* \"#utility.yul\":1511:1533   */\n      add\n        /* \"#utility.yul\":1490:1543   */\n      tag_73\n      jump\t// in\n    tag_101:\n        /* \"#utility.yul\":1480:1543   */\n      swap4\n      pop\n        /* \"#utility.yul\":1436:1553   */\n      pop\n        /* \"#utility.yul\":1592:1594   */\n      0x20\n        /* \"#utility.yul\":1618:1671   */\n      tag_102\n        /* \"#utility.yul\":1663:1670   */\n      dup7\n        /* \"#utility.yul\":1654:1660   */\n      dup3\n        /* \"#utility.yul\":1643:1652   */\n      dup8\n        /* \"#utility.yul\":1639:1661   */\n      add\n        /* \"#utility.yul\":1618:1671   */\n      tag_73\n      jump\t// in\n    tag_102:\n        /* \"#utility.yul\":1608:1671   */\n      swap3\n      pop\n        /* \"#utility.yul\":1563:1681   */\n      pop\n        /* \"#utility.yul\":1720:1722   */\n      0x40\n        /* \"#utility.yul\":1746:1799   */\n      tag_103\n        /* \"#utility.yul\":1791:1798   */\n      dup7\n        /* \"#utility.yul\":1782:1788   */\n      dup3\n        /* \"#utility.yul\":1771:1780   */\n      dup8\n        /* \"#utility.yul\":1767:1789   */\n      add\n        /* \"#utility.yul\":1746:1799   */\n      tag_77\n      jump\t// in\n    tag_103:\n        /* \"#utility.yul\":1736:1799   */\n      swap2\n      pop\n        /* \"#utility.yul\":1691:1809   */\n      pop\n        /* \"#utility.yul\":1197:1816   */\n      swap3\n      pop\n      swap3\n      pop\n      swap3\n      jump\t// out\n        /* \"#utility.yul\":1822:2151   */\n    tag_24:\n        /* \"#utility.yul\":1881:1887   */\n      0x00\n        /* \"#utility.yul\":1930:1932   */\n      0x20\n        /* \"#utility.yul\":1918:1927   */\n      dup3\n        /* \"#utility.yul\":1909:1916   */\n      dup5\n        /* \"#utility.yul\":1905:1928   */\n      sub\n        /* \"#utility.yul\":1901:1933   */\n      slt\n        /* \"#utility.yul\":1898:2017   */\n      iszero\n      tag_105\n      jumpi\n        /* \"#utility.yul\":1936:2015   */\n      tag_106\n      tag_69\n      jump\t// in\n    tag_106:\n        /* \"#utility.yul\":1898:2017   */\n    tag_105:\n        /* \"#utility.yul\":2056:2057   */\n      0x00\n        /* \"#utility.yul\":2081:2134   */\n      tag_107\n        /* \"#utility.yul\":2126:2133   */\n      dup5\n        /* \"#utility.yul\":2117:2123   */\n      dup3\n        /* \"#utility.yul\":2106:2115   */\n      dup6\n        /* \"#utility.yul\":2102:2124   */\n      add\n        /* \"#utility.yul\":2081:2134   */\n      tag_73\n      jump\t// in\n    tag_107:\n        /* \"#utility.yul\":2071:2134   */\n      swap2\n      pop\n        /* \"#utility.yul\":2027:2144   */\n      pop\n        /* \"#utility.yul\":1822:2151   */\n      swap3\n      swap2\n      pop\n      pop\n      jump\t// out\n        /* \"#utility.yul\":2157:2275   */\n    tag_78:\n        /* \"#utility.yul\":2244:2268   */\n      tag_109\n        /* \"#utility.yul\":2262:2267   */\n      dup2\n        /* \"#utility.yul\":2244:2268   */\n      tag_71\n      jump\t// in\n    tag_109:\n        /* \"#utility.yul\":2239:2242   */\n      dup3\n        /* \"#utility.yul\":2232:2269   */\n      mstore\n        /* \"#utility.yul\":2157:2275   */\n      pop\n      pop\n      jump\t// out\n        /* \"#utility.yul\":2281:2399   */\n    tag_79:\n        /* \"#utility.yul\":2368:2392   */\n      tag_111\n        /* \"#utility.yul\":2386:2391   */\n      dup2\n        /* \"#utility.yul\":2368:2392   */\n      tag_75\n      jump\t// in\n    tag_111:\n        /* \"#utility.yul\":2363:2366   */\n      dup3\n        /* \"#utility.yul\":2356:2393   */\n      mstore\n        /* \"#utility.yul\":2281:2399   */\n      pop\n      pop\n      jump\t// out\n        /* \"#utility.yul\":2405:2847   */\n    tag_27:\n        /* \"#utility.yul\":2554:2558   */\n      0x00\n        /* \"#utility.yul\":2592:2594   */\n      0x60\n        /* \"#utility.yul\":2581:2590   */\n      dup3\n        /* \"#utility.yul\":2577:2595   */\n      add\n        /* \"#utility.yul\":2569:2595   */\n      swap1\n      pop\n        /* \"#utility.yul\":2605:2676   */\n      tag_113\n        /* \"#utility.yul\":2673:2674   */\n      0x00\n        /* \"#utility.yul\":2662:2671   */\n      dup4\n        /* \"#utility.yul\":2658:2675   */\n      add\n        /* \"#utility.yul\":2649:2655   */\n      dup7\n        /* \"#utility.yul\":2605:2676   */\n      tag_78\n      jump\t// in\n    tag_113:\n        /* \"#utility.yul\":2686:2758   */\n      tag_114\n        /* \"#utility.yul\":2754:2756   */\n      0x20\n        /* \"#utility.yul\":2743:2752   */\n      dup4\n        /* \"#utility.yul\":2739:2757   */\n      add\n        /* \"#utility.yul\":2730:2736   */\n      dup6\n        /* \"#utility.yul\":2686:2758   */\n      tag_78\n      jump\t// in\n    tag_114:\n        /* \"#utility.yul\":2768:2840   */\n      tag_115\n        /* \"#utility.yul\":2836:2838   */\n      0x40\n        /* \"#utility.yul\":2825:2834   */\n      dup4\n        /* \"#utility.yul\":2821:2839   */\n      add\n        /* \"#utility.yul\":2812:2818   */\n      dup5\n        /* \"#utility.yul\":2768:2840   */\n      tag_79\n      jump\t// in\n    tag_115:\n        /* \"#utility.yul\":2405:2847   */\n      swap5\n      swap4\n      pop\n      pop\n      pop\n      pop\n      jump\t// out\n        /* \"#utility.yul\":2853:3033   */\n    tag_61:\n        /* \"#utility.yul\":2901:2978   */\n      0x4e487b7100000000000000000000000000000000000000000000000000000000\n        /* \"#utility.yul\":2898:2899   */\n      0x00\n        /* \"#utility.yul\":2891:2979   */\n      mstore\n        /* \"#utility.yul\":2998:3002   */\n      0x32\n        /* \"#utility.yul\":2995:2996   */\n      0x04\n        /* \"#utility.yul\":2988:3003   */\n      mstore\n        /* \"#utility.yul\":3022:3026   */\n      0x24\n        /* \"#utility.yul\":3019:3020   */\n      0x00\n        /* \"#utility.yul\":3012:3027   */\n      revert\n\n    auxdata: 0xa2646970667358221220cda819e4cab9e43a0117dc62fabdb5715cb8234ec62c4aa005f261c72e254d4764736f6c63430008120033\n}\n",
				"bytecode": {
					"linkReferences": {},
					"object": "608060405234801561001057600080fd5b5061091d806100206000396000f3fe608060405234801561001057600080fd5b50600436106100a95760003560e01c80636d4ce63c116100715780636d4ce63c14610166578063730713f614610186578063927c48f21461019057806396018ce4146101b0578063bb43136b146101ba578063f8a47792146101c4576100a9565b80630c977877146100ae578063236b3649146100ca5780632dd7c658146100e6578063354741021461011857806335c991ac14610134575b600080fd5b6100c860048036038101906100c391906107e3565b6101ce565b005b6100e460048036038101906100df91906107e3565b61028c565b005b61010060048036038101906100fb9190610836565b6102e6565b60405161010f93929190610881565b60405180910390f35b610132600480360381019061012d91906107e3565b610340565b005b61014e60048036038101906101499190610836565b6103fe565b60405161015d93929190610881565b60405180910390f35b61016e610465565b60405161017d93929190610881565b60405180910390f35b61018e6104a6565b005b61019861054f565b6040516101a793929190610881565b60405180910390f35b6101b8610587565b005b6101c2610630565b005b6101cc6106a4565b005b600060405180606001604052808581526020018481526020018373ffffffffffffffffffffffffffffffffffffffff168152509080600181540180825580915050600190039060005260206000209060030201600090919091909150600082015181600001556020820151816001015560408201518160020160006101000a81548173ffffffffffffffffffffffffffffffffffffffff021916908373ffffffffffffffffffffffffffffffffffffffff1602179055505050505050565b610294610713565b838160000181815250508281602001818152505081816040019073ffffffffffffffffffffffffffffffffffffffff16908173ffffffffffffffffffffffffffffffffffffffff168152505050505050565b600081815481106102f657600080fd5b90600052602060002090600302016000915090508060000154908060010154908060020160009054906101000a900473ffffffffffffffffffffffffffffffffffffffff16905083565b600060405180606001604052808581526020018481526020018373ffffffffffffffffffffffffffffffffffffffff168152509080600181540180825580915050600190039060005260206000209060030201600090919091909150600082015181600001556020820151816001015560408201518160020160006101000a81548173ffffffffffffffffffffffffffffffffffffffff021916908373ffffffffffffffffffffffffffffffffffffffff1602179055505050505050565b60008060008060008581548110610418576104176108b8565b5b90600052602060002090600302019050806000015481600101548260020160009054906101000a900473ffffffffffffffffffffffffffffffffffffffff16935093509350509193909250565b60008060006001600001546001800154600160020160009054906101000a900473ffffffffffffffffffffffffffffffffffffffff16925092509250909192565b604051806060016040528060048152602001603c8152602001735b38da6a701c568545dcfcb03fcb875f56beddc473ffffffffffffffffffffffffffffffffffffffff168152506001600082015181600001556020820151816001015560408201518160020160006101000a81548173ffffffffffffffffffffffffffffffffffffffff021916908373ffffffffffffffffffffffffffffffffffffffff160217905550905050565b60018060000154908060010154908060020160009054906101000a900473ffffffffffffffffffffffffffffffffffffffff16905083565b604051806060016040528060038152602001605a8152602001735b38da6a701c568545dcfcb03fcb875f56beddc473ffffffffffffffffffffffffffffffffffffffff168152506001600082015181600001556020820151816001015560408201518160020160006101000a81548173ffffffffffffffffffffffffffffffffffffffff021916908373ffffffffffffffffffffffffffffffffffffffff160217905550905050565b60006001905060018160000181905550600a8160010181905550735b38da6a701c568545dcfcb03fcb875f56beddc48160020160006101000a81548173ffffffffffffffffffffffffffffffffffffffff021916908373ffffffffffffffffffffffffffffffffffffffff16021790555050565b600260016000018190555060146001800181905550735b38da6a701c568545dcfcb03fcb875f56beddc4600160020160006101000a81548173ffffffffffffffffffffffffffffffffffffffff021916908373ffffffffffffffffffffffffffffffffffffffff160217905550565b60405180606001604052806000815260200160008152602001600073ffffffffffffffffffffffffffffffffffffffff1681525090565b600080fd5b6000819050919050565b6107628161074f565b811461076d57600080fd5b50565b60008135905061077f81610759565b92915050565b600073ffffffffffffffffffffffffffffffffffffffff82169050919050565b60006107b082610785565b9050919050565b6107c0816107a5565b81146107cb57600080fd5b50565b6000813590506107dd816107b7565b92915050565b6000806000606084860312156107fc576107fb61074a565b5b600061080a86828701610770565b935050602061081b86828701610770565b925050604061082c868287016107ce565b9150509250925092565b60006020828403121561084c5761084b61074a565b5b600061085a84828501610770565b91505092915050565b61086c8161074f565b82525050565b61087b816107a5565b82525050565b60006060820190506108966000830186610863565b6108a36020830185610863565b6108b06040830184610872565b949350505050565b7f4e487b7100000000000000000000000000000000000000000000000000000000600052603260045260246000fdfea2646970667358221220cda819e4cab9e43a0117dc62fabdb5715cb8234ec62c4aa005f261c72e254d4764736f6c63430008120033",
					"opcodes": "PUSH1 0x80 PUSH1 0x40 MSTORE CALLVALUE DUP1 ISZERO PUSH2 0x10 JUMPI PUSH1 0x0 DUP1 REVERT JUMPDEST POP PUSH2 0x91D DUP1 PUSH2 0x20 PUSH1 0x0 CODECOPY PUSH1 0x0 RETURN INVALID PUSH1 0x80 PUSH1 0x40 MSTORE CALLVALUE DUP1 ISZERO PUSH2 0x10 JUMPI PUSH1 0x0 DUP1 REVERT JUMPDEST POP PUSH1 0x4 CALLDATASIZE LT PUSH2 0xA9 JUMPI PUSH1 0x0 CALLDATALOAD PUSH1 0xE0 SHR DUP1 PUSH4 0x6D4CE63C GT PUSH2 0x71 JUMPI DUP1 PUSH4 0x6D4CE63C EQ PUSH2 0x166 JUMPI DUP1 PUSH4 0x730713F6 EQ PUSH2 0x186 JUMPI DUP1 PUSH4 0x927C48F2 EQ PUSH2 0x190 JUMPI DUP1 PUSH4 0x96018CE4 EQ PUSH2 0x1B0 JUMPI DUP1 PUSH4 0xBB43136B EQ PUSH2 0x1BA JUMPI DUP1 PUSH4 0xF8A47792 EQ PUSH2 0x1C4 JUMPI PUSH2 0xA9 JUMP JUMPDEST DUP1 PUSH4 0xC977877 EQ PUSH2 0xAE JUMPI DUP1 PUSH4 0x236B3649 EQ PUSH2 0xCA JUMPI DUP1 PUSH4 0x2DD7C658 EQ PUSH2 0xE6 JUMPI DUP1 PUSH4 0x35474102 EQ PUSH2 0x118 JUMPI DUP1 PUSH4 0x35C991AC EQ PUSH2 0x134 JUMPI JUMPDEST PUSH1 0x0 DUP1 REVERT JUMPDEST PUSH2 0xC8 PUSH1 0x4 DUP1 CALLDATASIZE SUB DUP2 ADD SWAP1 PUSH2 0xC3 SWAP2 SWAP1 PUSH2 0x7E3 JUMP JUMPDEST PUSH2 0x1CE JUMP JUMPDEST STOP JUMPDEST PUSH2 0xE4 PUSH1 0x4 DUP1 CALLDATASIZE SUB DUP2 ADD SWAP1 PUSH2 0xDF SWAP2 SWAP1 PUSH2 0x7E3 JUMP JUMPDEST PUSH2 0x28C JUMP JUMPDEST STOP JUMPDEST PUSH2 0x100 PUSH1 0x4 DUP1 CALLDATASIZE SUB DUP2 ADD SWAP1 PUSH2 0xFB SWAP2 SWAP1 PUSH2 0x836 JUMP JUMPDEST PUSH2 0x2E6 JUMP JUMPDEST PUSH1 0x40 MLOAD PUSH2 0x10F SWAP4 SWAP3 SWAP2 SWAP1 PUSH2 0x881 JUMP JUMPDEST PUSH1 0x40 MLOAD DUP1 SWAP2 SUB SWAP1 RETURN JUMPDEST PUSH2 0x132 PUSH1 0x4 DUP1 CALLDATASIZE SUB DUP2 ADD SWAP1 PUSH2 0x12D SWAP2 SWAP1 PUSH2 0x7E3 JUMP JUMPDEST PUSH2 0x340 JUMP JUMPDEST STOP JUMPDEST PUSH2 0x14E PUSH1 0x4 DUP1 CALLDATASIZE SUB DUP2 ADD SWAP1 PUSH2 0x149 SWAP2 SWAP1 PUSH2 0x836 JUMP JUMPDEST PUSH2 0x3FE JUMP JUMPDEST PUSH1 0x40 MLOAD PUSH2 0x15D SWAP4 SWAP3 SWAP2 SWAP1 PUSH2 0x881 JUMP JUMPDEST PUSH1 0x40 MLOAD DUP1 SWAP2 SUB SWAP1 RETURN JUMPDEST PUSH2 0x16E PUSH2 0x465 JUMP JUMPDEST PUSH1 0x40 MLOAD PUSH2 0x17D SWAP4 SWAP3 SWAP2 SWAP1 PUSH2 0x881 JUMP JUMPDEST PUSH1 0x40 MLOAD DUP1 SWAP2 SUB SWAP1 RETURN JUMPDEST PUSH2 0x18E PUSH2 0x4A6 JUMP JUMPDEST STOP JUMPDEST PUSH2 0x198 PUSH2 0x54F JUMP JUMPDEST PUSH1 0x40 MLOAD PUSH2 0x1A7 SWAP4 SWAP3 SWAP2 SWAP1 PUSH2 0x881 JUMP JUMPDEST PUSH1 0x40 MLOAD DUP1 SWAP2 SUB SWAP1 RETURN JUMPDEST PUSH2 0x1B8 PUSH2 0x587 JUMP JUMPDEST STOP JUMPDEST PUSH2 0x1C2 PUSH2 0x630 JUMP JUMPDEST STOP JUMPDEST PUSH2 0x1CC PUSH2 0x6A4 JUMP JUMPDEST STOP JUMPDEST PUSH1 0x0 PUSH1 0x40 MLOAD DUP1 PUSH1 0x60 ADD PUSH1 0x40 MSTORE DUP1 DUP6 DUP2 MSTORE PUSH1 0x20 ADD DUP5 DUP2 MSTORE PUSH1 0x20 ADD DUP4 PUSH20 0xFFFFFFFFFFFFFFFFFFFFFFFFFFFFFFFFFFFFFFFF AND DUP2 MSTORE POP SWAP1 DUP1 PUSH1 0x1 DUP2 SLOAD ADD DUP1 DUP3 SSTORE DUP1 SWAP2 POP POP PUSH1 0x1 SWAP1 SUB SWAP1 PUSH1 0x0 MSTORE PUSH1 0x20 PUSH1 0x0 KECCAK256 SWAP1 PUSH1 0x3 MUL ADD PUSH1 0x0 SWAP1 SWAP2 SWAP1 SWAP2 SWAP1 SWAP2 POP PUSH1 0x0 DUP3 ADD MLOAD DUP2 PUSH1 0x0 ADD SSTORE PUSH1 0x20 DUP3 ADD MLOAD DUP2 PUSH1 0x1 ADD SSTORE PUSH1 0x40 DUP3 ADD MLOAD DUP2 PUSH1 0x2 ADD PUSH1 0x0 PUSH2 0x100 EXP DUP2 SLOAD DUP2 PUSH20 0xFFFFFFFFFFFFFFFFFFFFFFFFFFFFFFFFFFFFFFFF MUL NOT AND SWAP1 DUP4 PUSH20 0xFFFFFFFFFFFFFFFFFFFFFFFFFFFFFFFFFFFFFFFF AND MUL OR SWAP1 SSTORE POP POP POP POP POP POP JUMP JUMPDEST PUSH2 0x294 PUSH2 0x713 JUMP JUMPDEST DUP4 DUP2 PUSH1 0x0 ADD DUP2 DUP2 MSTORE POP POP DUP3 DUP2 PUSH1 0x20 ADD DUP2 DUP2 MSTORE POP POP DUP2 DUP2 PUSH1 0x40 ADD SWAP1 PUSH20 0xFFFFFFFFFFFFFFFFFFFFFFFFFFFFFFFFFFFFFFFF AND SWAP1 DUP2 PUSH20 0xFFFFFFFFFFFFFFFFFFFFFFFFFFFFFFFFFFFFFFFF AND DUP2 MSTORE POP POP POP POP POP POP JUMP JUMPDEST PUSH1 0x0 DUP2 DUP2 SLOAD DUP2 LT PUSH2 0x2F6 JUMPI PUSH1 0x0 DUP1 REVERT JUMPDEST SWAP1 PUSH1 0x0 MSTORE PUSH1 0x20 PUSH1 0x0 KECCAK256 SWAP1 PUSH1 0x3 MUL ADD PUSH1 0x0 SWAP2 POP SWAP1 POP DUP1 PUSH1 0x0 ADD SLOAD SWAP1 DUP1 PUSH1 0x1 ADD SLOAD SWAP1 DUP1 PUSH1 0x2 ADD PUSH1 0x0 SWAP1 SLOAD SWAP1 PUSH2 0x100 EXP SWAP1 DIV PUSH20 0xFFFFFFFFFFFFFFFFFFFFFFFFFFFFFFFFFFFFFFFF AND SWAP1 POP DUP4 JUMP JUMPDEST PUSH1 0x0 PUSH1 0x40 MLOAD DUP1 PUSH1 0x60 ADD PUSH1 0x40 MSTORE DUP1 DUP6 DUP2 MSTORE PUSH1 0x20 ADD DUP5 DUP2 MSTORE PUSH1 0x20 ADD DUP4 PUSH20 0xFFFFFFFFFFFFFFFFFFFFFFFFFFFFFFFFFFFFFFFF AND DUP2 MSTORE POP SWAP1 DUP1 PUSH1 0x1 DUP2 SLOAD ADD DUP1 DUP3 SSTORE DUP1 SWAP2 POP POP PUSH1 0x1 SWAP1 SUB SWAP1 PUSH1 0x0 MSTORE PUSH1 0x20 PUSH1 0x0 KECCAK256 SWAP1 PUSH1 0x3 MUL ADD PUSH1 0x0 SWAP1 SWAP2 SWAP1 SWAP2 SWAP1 SWAP2 POP PUSH1 0x0 DUP3 ADD MLOAD DUP2 PUSH1 0x0 ADD SSTORE PUSH1 0x20 DUP3 ADD MLOAD DUP2 PUSH1 0x1 ADD SSTORE PUSH1 0x40 DUP3 ADD MLOAD DUP2 PUSH1 0x2 ADD PUSH1 0x0 PUSH2 0x100 EXP DUP2 SLOAD DUP2 PUSH20 0xFFFFFFFFFFFFFFFFFFFFFFFFFFFFFFFFFFFFFFFF MUL NOT AND SWAP1 DUP4 PUSH20 0xFFFFFFFFFFFFFFFFFFFFFFFFFFFFFFFFFFFFFFFF AND MUL OR SWAP1 SSTORE POP POP POP POP POP POP JUMP JUMPDEST PUSH1 0x0 DUP1 PUSH1 0x0 DUP1 PUSH1 0x0 DUP6 DUP2 SLOAD DUP2 LT PUSH2 0x418 JUMPI PUSH2 0x417 PUSH2 0x8B8 JUMP JUMPDEST JUMPDEST SWAP1 PUSH1 0x0 MSTORE PUSH1 0x20 PUSH1 0x0 KECCAK256 SWAP1 PUSH1 0x3 MUL ADD SWAP1 POP DUP1 PUSH1 0x0 ADD SLOAD DUP2 PUSH1 0x1 ADD SLOAD DUP3 PUSH1 0x2 ADD PUSH1 0x0 SWAP1 SLOAD SWAP1 PUSH2 0x100 EXP SWAP1 DIV PUSH20 0xFFFFFFFFFFFFFFFFFFFFFFFFFFFFFFFFFFFFFFFF AND SWAP4 POP SWAP4 POP SWAP4 POP POP SWAP2 SWAP4 SWAP1 SWAP3 POP JUMP JUMPDEST PUSH1 0x0 DUP1 PUSH1 0x0 PUSH1 0x1 PUSH1 0x0 ADD SLOAD PUSH1 0x1 DUP1 ADD SLOAD PUSH1 0x1 PUSH1 0x2 ADD PUSH1 0x0 SWAP1 SLOAD SWAP1 PUSH2 0x100 EXP SWAP1 DIV PUSH20 0xFFFFFFFFFFFFFFFFFFFFFFFFFFFFFFFFFFFFFFFF AND SWAP3 POP SWAP3 POP SWAP3 POP SWAP1 SWAP2 SWAP3 JUMP JUMPDEST PUSH1 0x40 MLOAD DUP1 PUSH1 0x60 ADD PUSH1 0x40 MSTORE DUP1 PUSH1 0x4 DUP2 MSTORE PUSH1 0x20 ADD PUSH1 0x3C DUP2 MSTORE PUSH1 0x20 ADD PUSH20 0x5B38DA6A701C568545DCFCB03FCB875F56BEDDC4 PUSH20 0xFFFFFFFFFFFFFFFFFFFFFFFFFFFFFFFFFFFFFFFF AND DUP2 MSTORE POP PUSH1 0x1 PUSH1 0x0 DUP3 ADD MLOAD DUP2 PUSH1 0x0 ADD SSTORE PUSH1 0x20 DUP3 ADD MLOAD DUP2 PUSH1 0x1 ADD SSTORE PUSH1 0x40 DUP3 ADD MLOAD DUP2 PUSH1 0x2 ADD PUSH1 0x0 PUSH2 0x100 EXP DUP2 SLOAD DUP2 PUSH20 0xFFFFFFFFFFFFFFFFFFFFFFFFFFFFFFFFFFFFFFFF MUL NOT AND SWAP1 DUP4 PUSH20 0xFFFFFFFFFFFFFFFFFFFFFFFFFFFFFFFFFFFFFFFF AND MUL OR SWAP1 SSTORE POP SWAP1 POP POP JUMP JUMPDEST PUSH1 0x1 DUP1 PUSH1 0x0 ADD SLOAD SWAP1 DUP1 PUSH1 0x1 ADD SLOAD SWAP1 DUP1 PUSH1 0x2 ADD PUSH1 0x0 SWAP1 SLOAD SWAP1 PUSH2 0x100 EXP SWAP1 DIV PUSH20 0xFFFFFFFFFFFFFFFFFFFFFFFFFFFFFFFFFFFFFFFF AND SWAP1 POP DUP4 JUMP JUMPDEST PUSH1 0x40 MLOAD DUP1 PUSH1 0x60 ADD PUSH1 0x40 MSTORE DUP1 PUSH1 0x3 DUP2 MSTORE PUSH1 0x20 ADD PUSH1 0x5A DUP2 MSTORE PUSH1 0x20 ADD PUSH20 0x5B38DA6A701C568545DCFCB03FCB875F56BEDDC4 PUSH20 0xFFFFFFFFFFFFFFFFFFFFFFFFFFFFFFFFFFFFFFFF AND DUP2 MSTORE POP PUSH1 0x1 PUSH1 0x0 DUP3 ADD MLOAD DUP2 PUSH1 0x0 ADD SSTORE PUSH1 0x20 DUP3 ADD MLOAD DUP2 PUSH1 0x1 ADD SSTORE PUSH1 0x40 DUP3 ADD MLOAD DUP2 PUSH1 0x2 ADD PUSH1 0x0 PUSH2 0x100 EXP DUP2 SLOAD DUP2 PUSH20 0xFFFFFFFFFFFFFFFFFFFFFFFFFFFFFFFFFFFFFFFF MUL NOT AND SWAP1 DUP4 PUSH20 0xFFFFFFFFFFFFFFFFFFFFFFFFFFFFFFFFFFFFFFFF AND MUL OR SWAP1 SSTORE POP SWAP1 POP POP JUMP JUMPDEST PUSH1 0x0 PUSH1 0x1 SWAP1 POP PUSH1 0x1 DUP2 PUSH1 0x0 ADD DUP2 SWAP1 SSTORE POP PUSH1 0xA DUP2 PUSH1 0x1 ADD DUP2 SWAP1 SSTORE POP PUSH20 0x5B38DA6A701C568545DCFCB03FCB875F56BEDDC4 DUP2 PUSH1 0x2 ADD PUSH1 0x0 PUSH2 0x100 EXP DUP2 SLOAD DUP2 PUSH20 0xFFFFFFFFFFFFFFFFFFFFFFFFFFFFFFFFFFFFFFFF MUL NOT AND SWAP1 DUP4 PUSH20 0xFFFFFFFFFFFFFFFFFFFFFFFFFFFFFFFFFFFFFFFF AND MUL OR SWAP1 SSTORE POP POP JUMP JUMPDEST PUSH1 0x2 PUSH1 0x1 PUSH1 0x0 ADD DUP2 SWAP1 SSTORE POP PUSH1 0x14 PUSH1 0x1 DUP1 ADD DUP2 SWAP1 SSTORE POP PUSH20 0x5B38DA6A701C568545DCFCB03FCB875F56BEDDC4 PUSH1 0x1 PUSH1 0x2 ADD PUSH1 0x0 PUSH2 0x100 EXP DUP2 SLOAD DUP2 PUSH20 0xFFFFFFFFFFFFFFFFFFFFFFFFFFFFFFFFFFFFFFFF MUL NOT AND SWAP1 DUP4 PUSH20 0xFFFFFFFFFFFFFFFFFFFFFFFFFFFFFFFFFFFFFFFF AND MUL OR SWAP1 SSTORE POP JUMP JUMPDEST PUSH1 0x40 MLOAD DUP1 PUSH1 0x60 ADD PUSH1 0x40 MSTORE DUP1 PUSH1 0x0 DUP2 MSTORE PUSH1 0x20 ADD PUSH1 0x0 DUP2 MSTORE PUSH1 0x20 ADD PUSH1 0x0 PUSH20 0xFFFFFFFFFFFFFFFFFFFFFFFFFFFFFFFFFFFFFFFF AND DUP2 MSTORE POP SWAP1 JUMP JUMPDEST PUSH1 0x0 DUP1 REVERT JUMPDEST PUSH1 0x0 DUP2 SWAP1 POP SWAP2 SWAP1 POP JUMP JUMPDEST PUSH2 0x762 DUP2 PUSH2 0x74F JUMP JUMPDEST DUP2 EQ PUSH2 0x76D JUMPI PUSH1 0x0 DUP1 REVERT JUMPDEST POP JUMP JUMPDEST PUSH1 0x0 DUP2 CALLDATALOAD SWAP1 POP PUSH2 0x77F DUP2 PUSH2 0x759 JUMP JUMPDEST SWAP3 SWAP2 POP POP JUMP JUMPDEST PUSH1 0x0 PUSH20 0xFFFFFFFFFFFFFFFFFFFFFFFFFFFFFFFFFFFFFFFF DUP3 AND SWAP1 POP SWAP2 SWAP1 POP JUMP JUMPDEST PUSH1 0x0 PUSH2 0x7B0 DUP3 PUSH2 0x785 JUMP JUMPDEST SWAP1 POP SWAP2 SWAP1 POP JUMP JUMPDEST PUSH2 0x7C0 DUP2 PUSH2 0x7A5 JUMP JUMPDEST DUP2 EQ PUSH2 0x7CB JUMPI PUSH1 0x0 DUP1 REVERT JUMPDEST POP JUMP JUMPDEST PUSH1 0x0 DUP2 CALLDATALOAD SWAP1 POP PUSH2 0x7DD DUP2 PUSH2 0x7B7 JUMP JUMPDEST SWAP3 SWAP2 POP POP JUMP JUMPDEST PUSH1 0x0 DUP1 PUSH1 0x0 PUSH1 0x60 DUP5 DUP7 SUB SLT ISZERO PUSH2 0x7FC JUMPI PUSH2 0x7FB PUSH2 0x74A JUMP JUMPDEST JUMPDEST PUSH1 0x0 PUSH2 0x80A DUP7 DUP3 DUP8 ADD PUSH2 0x770 JUMP JUMPDEST SWAP4 POP POP PUSH1 0x20 PUSH2 0x81B DUP7 DUP3 DUP8 ADD PUSH2 0x770 JUMP JUMPDEST SWAP3 POP POP PUSH1 0x40 PUSH2 0x82C DUP7 DUP3 DUP8 ADD PUSH2 0x7CE JUMP JUMPDEST SWAP2 POP POP SWAP3 POP SWAP3 POP SWAP3 JUMP JUMPDEST PUSH1 0x0 PUSH1 0x20 DUP3 DUP5 SUB SLT ISZERO PUSH2 0x84C JUMPI PUSH2 0x84B PUSH2 0x74A JUMP JUMPDEST JUMPDEST PUSH1 0x0 PUSH2 0x85A DUP5 DUP3 DUP6 ADD PUSH2 0x770 JUMP JUMPDEST SWAP2 POP POP SWAP3 SWAP2 POP POP JUMP JUMPDEST PUSH2 0x86C DUP2 PUSH2 0x74F JUMP JUMPDEST DUP3 MSTORE POP POP JUMP JUMPDEST PUSH2 0x87B DUP2 PUSH2 0x7A5 JUMP JUMPDEST DUP3 MSTORE POP POP JUMP JUMPDEST PUSH1 0x0 PUSH1 0x60 DUP3 ADD SWAP1 POP PUSH2 0x896 PUSH1 0x0 DUP4 ADD DUP7 PUSH2 0x863 JUMP JUMPDEST PUSH2 0x8A3 PUSH1 0x20 DUP4 ADD DUP6 PUSH2 0x863 JUMP JUMPDEST PUSH2 0x8B0 PUSH1 0x40 DUP4 ADD DUP5 PUSH2 0x872 JUMP JUMPDEST SWAP5 SWAP4 POP POP POP POP JUMP JUMPDEST PUSH32 0x4E487B7100000000000000000000000000000000000000000000000000000000 PUSH1 0x0 MSTORE PUSH1 0x32 PUSH1 0x4 MSTORE PUSH1 0x24 PUSH1 0x0 REVERT INVALID LOG2 PUSH5 0x6970667358 0x22 SLT KECCAK256 0xCD 0xA8 NOT 0xE4 0xCA 0xB9 0xE4 GASPRICE ADD OR 0xDC PUSH3 0xFABDB5 PUSH18 0x5CB8234EC62C4AA005F261C72E254D476473 PUSH16 0x6C634300081200330000000000000000 "
				},
				"gasEstimates": {
					"creation": {
						"codeDepositCost": "466600",
						"executionCost": "499",
						"totalCost": "467099"
					},
					"external": {
						"account(uint256)": "infinite",
						"get()": "infinite",
						"getFromArray(uint256)": "infinite",
						"method1(uint256,uint256,address)": "infinite",
						"method11()": "68758",
						"method2()": "68767",
						"method3(uint256,uint256,address)": "infinite",
						"method33()": "68827",
						"method4(uint256,uint256,address)": "infinite",
						"method44()": "68783",
						"secondAccount()": "infinite"
					}
				},
				"methodIdentifiers": {
					"account(uint256)": "2dd7c658",
					"get()": "6d4ce63c",
					"getFromArray(uint256)": "35c991ac",
					"method1(uint256,uint256,address)": "236b3649",
					"method11()": "bb43136b",
					"method2()": "f8a47792",
					"method3(uint256,uint256,address)": "0c977877",
					"method33()": "96018ce4",
					"method4(uint256,uint256,address)": "35474102",
					"method44()": "730713f6",
					"secondAccount()": "927c48f2"
				}
			},
			"storageLayout": {
				"storage": [
					{
						"astId": 12,
						"contract": "week8/lab-01-08-2023/BankAccountStruct.sol:Bank",
						"label": "account",
						"offset": 0,
						"slot": "0",
						"type": "t_array(t_struct(BankAccount)8_storage)dyn_storage"
					},
					{
						"astId": 15,
						"contract": "week8/lab-01-08-2023/BankAccountStruct.sol:Bank",
						"label": "secondAccount",
						"offset": 0,
						"slot": "1",
						"type": "t_struct(BankAccount)8_storage"
					}
				],
				"types": {
					"t_address": {
						"encoding": "inplace",
						"label": "address",
						"numberOfBytes": "20"
					},
					"t_array(t_struct(BankAccount)8_storage)dyn_storage": {
						"base": "t_struct(BankAccount)8_storage",
						"encoding": "dynamic_array",
						"label": "struct BankAccount[]",
						"numberOfBytes": "32"
					},
					"t_struct(BankAccount)8_storage": {
						"encoding": "inplace",
						"label": "struct BankAccount",
						"members": [
							{
								"astId": 3,
								"contract": "week8/lab-01-08-2023/BankAccountStruct.sol:Bank",
								"label": "accountID",
								"offset": 0,
								"slot": "0",
								"type": "t_uint256"
							},
							{
								"astId": 5,
								"contract": "week8/lab-01-08-2023/BankAccountStruct.sol:Bank",
								"label": "balance",
								"offset": 0,
								"slot": "1",
								"type": "t_uint256"
							},
							{
								"astId": 7,
								"contract": "week8/lab-01-08-2023/BankAccountStruct.sol:Bank",
								"label": "owner",
								"offset": 0,
								"slot": "2",
								"type": "t_address"
							}
						],
						"numberOfBytes": "96"
					},
					"t_uint256": {
						"encoding": "inplace",
						"label": "uint256",
						"numberOfBytes": "32"
					}
				}
			},
			"userdoc": {
				"kind": "user",
				"methods": {},
				"version": 1
			}
		}
	}
}