{
	"week8/lab-01-08-2023/pizzaDeli.sol": {
		"PizzaDeli": {
			"abi": [
				{
					"inputs": [],
					"name": "P1",
					"outputs": [
						{
							"internalType": "enum PizzaDeli.pizzaOrder",
							"name": "",
							"type": "uint8"
						}
					],
					"stateMutability": "view",
					"type": "function"
				},
				{
					"inputs": [],
					"name": "P2",
					"outputs": [
						{
							"internalType": "enum PizzaDeli.pizzaOrder",
							"name": "",
							"type": "uint8"
						}
					],
					"stateMutability": "view",
					"type": "function"
				},
				{
					"inputs": [],
					"name": "P3",
					"outputs": [
						{
							"internalType": "enum PizzaDeli.pizzaOrder",
							"name": "",
							"type": "uint8"
						}
					],
					"stateMutability": "view",
					"type": "function"
				},
				{
					"inputs": [],
					"name": "getter",
					"outputs": [
						{
							"internalType": "enum PizzaDeli.pizzaOrder",
							"name": "",
							"type": "uint8"
						},
						{
							"internalType": "enum PizzaDeli.pizzaOrder",
							"name": "",
							"type": "uint8"
						},
						{
							"internalType": "enum PizzaDeli.pizzaOrder",
							"name": "",
							"type": "uint8"
						}
					],
					"stateMutability": "view",
					"type": "function"
				},
				{
					"inputs": [
						{
							"internalType": "enum PizzaDeli.pizzaOrder",
							"name": "_s",
							"type": "uint8"
						}
					],
					"name": "setter",
					"outputs": [],
					"stateMutability": "nonpayable",
					"type": "function"
				}
			],
			"devdoc": {
				"kind": "dev",
				"methods": {},
				"version": 1
			},
			"evm": {
				"assembly": "    /* \"week8/lab-01-08-2023/pizzaDeli.sol\":60:1042  contract PizzaDeli {... */\n  mstore(0x40, 0x80)\n    /* \"week8/lab-01-08-2023/pizzaDeli.sol\":551:571  pizzaOrder.Preparing */\n  0x01\n    /* \"week8/lab-01-08-2023/pizzaDeli.sol\":528:571  pizzaOrder public P2 = pizzaOrder.Preparing */\n  0x00\n  exp(0x0100, 0x01)\n  dup2\n  sload\n  dup2\n  0xff\n  mul\n  not\n  and\n  swap1\n  dup4\n  0x03\n  dup2\n  gt\n  iszero\n  tag_1\n  jumpi\n  tag_2\n  tag_3\n  jump\t// in\ntag_2:\ntag_1:\n  mul\n  or\n  swap1\n  sstore\n  pop\n    /* \"week8/lab-01-08-2023/pizzaDeli.sol\":612:613  3 */\n  0x03\n    /* \"week8/lab-01-08-2023/pizzaDeli.sol\":601:614  pizzaOrder(3) */\n  dup1\n  dup2\n  gt\n  iszero\n  tag_4\n  jumpi\n  tag_5\n  tag_3\n  jump\t// in\ntag_5:\ntag_4:\n    /* \"week8/lab-01-08-2023/pizzaDeli.sol\":578:614  pizzaOrder public P3 = pizzaOrder(3) */\n  0x00\n  exp(0x0100, 0x02)\n  dup2\n  sload\n  dup2\n  0xff\n  mul\n  not\n  and\n  swap1\n  dup4\n  0x03\n  dup2\n  gt\n  iszero\n  tag_6\n  jumpi\n  tag_7\n  tag_3\n  jump\t// in\ntag_7:\ntag_6:\n  mul\n  or\n  swap1\n  sstore\n  pop\n    /* \"week8/lab-01-08-2023/pizzaDeli.sol\":60:1042  contract PizzaDeli {... */\n  callvalue\n  dup1\n  iszero\n  tag_8\n  jumpi\n  0x00\n  dup1\n  revert\ntag_8:\n  pop\n  jump(tag_9)\n    /* \"#utility.yul\":7:187   */\ntag_3:\n    /* \"#utility.yul\":55:132   */\n  0x4e487b7100000000000000000000000000000000000000000000000000000000\n    /* \"#utility.yul\":52:53   */\n  0x00\n    /* \"#utility.yul\":45:133   */\n  mstore\n    /* \"#utility.yul\":152:156   */\n  0x21\n    /* \"#utility.yul\":149:150   */\n  0x04\n    /* \"#utility.yul\":142:157   */\n  mstore\n    /* \"#utility.yul\":176:180   */\n  0x24\n    /* \"#utility.yul\":173:174   */\n  0x00\n    /* \"#utility.yul\":166:181   */\n  revert\n    /* \"week8/lab-01-08-2023/pizzaDeli.sol\":60:1042  contract PizzaDeli {... */\ntag_9:\n  dataSize(sub_0)\n  dup1\n  dataOffset(sub_0)\n  0x00\n  codecopy\n  0x00\n  return\nstop\n\nsub_0: assembly {\n        /* \"week8/lab-01-08-2023/pizzaDeli.sol\":60:1042  contract PizzaDeli {... */\n      mstore(0x40, 0x80)\n      callvalue\n      dup1\n      iszero\n      tag_1\n      jumpi\n      0x00\n      dup1\n      revert\n    tag_1:\n      pop\n      jumpi(tag_2, lt(calldatasize, 0x04))\n      shr(0xe0, calldataload(0x00))\n      dup1\n      0x1de21b76\n      eq\n      tag_3\n      jumpi\n      dup1\n      0x30332aea\n      eq\n      tag_4\n      jumpi\n      dup1\n      0x723d71d4\n      eq\n      tag_5\n      jumpi\n      dup1\n      0x993a04b7\n      eq\n      tag_6\n      jumpi\n      dup1\n      0xa85e9c83\n      eq\n      tag_7\n      jumpi\n    tag_2:\n      0x00\n      dup1\n      revert\n        /* \"week8/lab-01-08-2023/pizzaDeli.sol\":501:521  pizzaOrder public P1 */\n    tag_3:\n      tag_8\n      tag_9\n      jump\t// in\n    tag_8:\n      mload(0x40)\n      tag_10\n      swap2\n      swap1\n      tag_11\n      jump\t// in\n    tag_10:\n      mload(0x40)\n      dup1\n      swap2\n      sub\n      swap1\n      return\n        /* \"week8/lab-01-08-2023/pizzaDeli.sol\":528:571  pizzaOrder public P2 = pizzaOrder.Preparing */\n    tag_4:\n      tag_12\n      tag_13\n      jump\t// in\n    tag_12:\n      mload(0x40)\n      tag_14\n      swap2\n      swap1\n      tag_11\n      jump\t// in\n    tag_14:\n      mload(0x40)\n      dup1\n      swap2\n      sub\n      swap1\n      return\n        /* \"week8/lab-01-08-2023/pizzaDeli.sol\":859:923  function setter(pizzaOrder _s) public {... */\n    tag_5:\n      tag_15\n      0x04\n      dup1\n      calldatasize\n      sub\n      dup2\n      add\n      swap1\n      tag_16\n      swap2\n      swap1\n      tag_17\n      jump\t// in\n    tag_16:\n      tag_18\n      jump\t// in\n    tag_15:\n      stop\n        /* \"week8/lab-01-08-2023/pizzaDeli.sol\":931:1039  function getter() public view returns(pizzaOrder, pizzaOrder,pizzaOrder ) {... */\n    tag_6:\n      tag_19\n      tag_20\n      jump\t// in\n    tag_19:\n      mload(0x40)\n      tag_21\n      swap4\n      swap3\n      swap2\n      swap1\n      tag_22\n      jump\t// in\n    tag_21:\n      mload(0x40)\n      dup1\n      swap2\n      sub\n      swap1\n      return\n        /* \"week8/lab-01-08-2023/pizzaDeli.sol\":578:614  pizzaOrder public P3 = pizzaOrder(3) */\n    tag_7:\n      tag_23\n      tag_24\n      jump\t// in\n    tag_23:\n      mload(0x40)\n      tag_25\n      swap2\n      swap1\n      tag_11\n      jump\t// in\n    tag_25:\n      mload(0x40)\n      dup1\n      swap2\n      sub\n      swap1\n      return\n        /* \"week8/lab-01-08-2023/pizzaDeli.sol\":501:521  pizzaOrder public P1 */\n    tag_9:\n      0x00\n      dup1\n      sload\n      swap1\n      0x0100\n      exp\n      swap1\n      div\n      0xff\n      and\n      dup2\n      jump\t// out\n        /* \"week8/lab-01-08-2023/pizzaDeli.sol\":528:571  pizzaOrder public P2 = pizzaOrder.Preparing */\n    tag_13:\n      0x00\n      0x01\n      swap1\n      sload\n      swap1\n      0x0100\n      exp\n      swap1\n      div\n      0xff\n      and\n      dup2\n      jump\t// out\n        /* \"week8/lab-01-08-2023/pizzaDeli.sol\":859:923  function setter(pizzaOrder _s) public {... */\n    tag_18:\n        /* \"week8/lab-01-08-2023/pizzaDeli.sol\":913:915  _s */\n      dup1\n        /* \"week8/lab-01-08-2023/pizzaDeli.sol\":908:910  P1 */\n      0x00\n      dup1\n        /* \"week8/lab-01-08-2023/pizzaDeli.sol\":908:915  P1 = _s */\n      0x0100\n      exp\n      dup2\n      sload\n      dup2\n      0xff\n      mul\n      not\n      and\n      swap1\n      dup4\n      0x03\n      dup2\n      gt\n      iszero\n      tag_27\n      jumpi\n      tag_28\n      tag_29\n      jump\t// in\n    tag_28:\n    tag_27:\n      mul\n      or\n      swap1\n      sstore\n      pop\n        /* \"week8/lab-01-08-2023/pizzaDeli.sol\":859:923  function setter(pizzaOrder _s) public {... */\n      pop\n      jump\t// out\n        /* \"week8/lab-01-08-2023/pizzaDeli.sol\":931:1039  function getter() public view returns(pizzaOrder, pizzaOrder,pizzaOrder ) {... */\n    tag_20:\n        /* \"week8/lab-01-08-2023/pizzaDeli.sol\":969:979  pizzaOrder */\n      0x00\n        /* \"week8/lab-01-08-2023/pizzaDeli.sol\":981:991  pizzaOrder */\n      dup1\n        /* \"week8/lab-01-08-2023/pizzaDeli.sol\":992:1002  pizzaOrder */\n      0x00\n        /* \"week8/lab-01-08-2023/pizzaDeli.sol\":1020:1022  P1 */\n      dup1\n      0x00\n      swap1\n      sload\n      swap1\n      0x0100\n      exp\n      swap1\n      div\n      0xff\n      and\n        /* \"week8/lab-01-08-2023/pizzaDeli.sol\":1024:1026  P2 */\n      0x00\n      0x01\n      swap1\n      sload\n      swap1\n      0x0100\n      exp\n      swap1\n      div\n      0xff\n      and\n        /* \"week8/lab-01-08-2023/pizzaDeli.sol\":1028:1030  P3 */\n      0x00\n      0x02\n      swap1\n      sload\n      swap1\n      0x0100\n      exp\n      swap1\n      div\n      0xff\n      and\n        /* \"week8/lab-01-08-2023/pizzaDeli.sol\":1012:1031  return (P1, P2, P3) */\n      swap3\n      pop\n      swap3\n      pop\n      swap3\n      pop\n        /* \"week8/lab-01-08-2023/pizzaDeli.sol\":931:1039  function getter() public view returns(pizzaOrder, pizzaOrder,pizzaOrder ) {... */\n      swap1\n      swap2\n      swap3\n      jump\t// out\n        /* \"week8/lab-01-08-2023/pizzaDeli.sol\":578:614  pizzaOrder public P3 = pizzaOrder(3) */\n    tag_24:\n      0x00\n      0x02\n      swap1\n      sload\n      swap1\n      0x0100\n      exp\n      swap1\n      div\n      0xff\n      and\n      dup2\n      jump\t// out\n        /* \"#utility.yul\":7:187   */\n    tag_29:\n        /* \"#utility.yul\":55:132   */\n      0x4e487b7100000000000000000000000000000000000000000000000000000000\n        /* \"#utility.yul\":52:53   */\n      0x00\n        /* \"#utility.yul\":45:133   */\n      mstore\n        /* \"#utility.yul\":152:156   */\n      0x21\n        /* \"#utility.yul\":149:150   */\n      0x04\n        /* \"#utility.yul\":142:157   */\n      mstore\n        /* \"#utility.yul\":176:180   */\n      0x24\n        /* \"#utility.yul\":173:174   */\n      0x00\n        /* \"#utility.yul\":166:181   */\n      revert\n        /* \"#utility.yul\":193:310   */\n    tag_31:\n        /* \"#utility.yul\":278:279   */\n      0x04\n        /* \"#utility.yul\":271:276   */\n      dup2\n        /* \"#utility.yul\":268:280   */\n      lt\n        /* \"#utility.yul\":258:304   */\n      tag_43\n      jumpi\n        /* \"#utility.yul\":284:302   */\n      tag_44\n      tag_29\n      jump\t// in\n    tag_44:\n        /* \"#utility.yul\":258:304   */\n    tag_43:\n        /* \"#utility.yul\":193:310   */\n      pop\n      jump\t// out\n        /* \"#utility.yul\":316:451   */\n    tag_32:\n        /* \"#utility.yul\":365:372   */\n      0x00\n        /* \"#utility.yul\":394:399   */\n      dup2\n        /* \"#utility.yul\":383:399   */\n      swap1\n      pop\n        /* \"#utility.yul\":400:445   */\n      tag_46\n        /* \"#utility.yul\":439:444   */\n      dup3\n        /* \"#utility.yul\":400:445   */\n      tag_31\n      jump\t// in\n    tag_46:\n        /* \"#utility.yul\":316:451   */\n      swap2\n      swap1\n      pop\n      jump\t// out\n        /* \"#utility.yul\":457:592   */\n    tag_33:\n        /* \"#utility.yul\":517:526   */\n      0x00\n        /* \"#utility.yul\":550:586   */\n      tag_48\n        /* \"#utility.yul\":580:585   */\n      dup3\n        /* \"#utility.yul\":550:586   */\n      tag_32\n      jump\t// in\n    tag_48:\n        /* \"#utility.yul\":537:586   */\n      swap1\n      pop\n        /* \"#utility.yul\":457:592   */\n      swap2\n      swap1\n      pop\n      jump\t// out\n        /* \"#utility.yul\":598:749   */\n    tag_34:\n        /* \"#utility.yul\":695:742   */\n      tag_50\n        /* \"#utility.yul\":736:741   */\n      dup2\n        /* \"#utility.yul\":695:742   */\n      tag_33\n      jump\t// in\n    tag_50:\n        /* \"#utility.yul\":690:693   */\n      dup3\n        /* \"#utility.yul\":683:743   */\n      mstore\n        /* \"#utility.yul\":598:749   */\n      pop\n      pop\n      jump\t// out\n        /* \"#utility.yul\":755:997   */\n    tag_11:\n        /* \"#utility.yul\":858:862   */\n      0x00\n        /* \"#utility.yul\":896:898   */\n      0x20\n        /* \"#utility.yul\":885:894   */\n      dup3\n        /* \"#utility.yul\":881:899   */\n      add\n        /* \"#utility.yul\":873:899   */\n      swap1\n      pop\n        /* \"#utility.yul\":909:990   */\n      tag_52\n        /* \"#utility.yul\":987:988   */\n      0x00\n        /* \"#utility.yul\":976:985   */\n      dup4\n        /* \"#utility.yul\":972:989   */\n      add\n        /* \"#utility.yul\":963:969   */\n      dup5\n        /* \"#utility.yul\":909:990   */\n      tag_34\n      jump\t// in\n    tag_52:\n        /* \"#utility.yul\":755:997   */\n      swap3\n      swap2\n      pop\n      pop\n      jump\t// out\n        /* \"#utility.yul\":1084:1201   */\n    tag_36:\n        /* \"#utility.yul\":1193:1194   */\n      0x00\n        /* \"#utility.yul\":1190:1191   */\n      dup1\n        /* \"#utility.yul\":1183:1195   */\n      revert\n        /* \"#utility.yul\":1330:1441   */\n    tag_38:\n        /* \"#utility.yul\":1415:1416   */\n      0x04\n        /* \"#utility.yul\":1408:1413   */\n      dup2\n        /* \"#utility.yul\":1405:1417   */\n      lt\n        /* \"#utility.yul\":1395:1435   */\n      tag_57\n      jumpi\n        /* \"#utility.yul\":1431:1432   */\n      0x00\n        /* \"#utility.yul\":1428:1429   */\n      dup1\n        /* \"#utility.yul\":1421:1433   */\n      revert\n        /* \"#utility.yul\":1395:1435   */\n    tag_57:\n        /* \"#utility.yul\":1330:1441   */\n      pop\n      jump\t// out\n        /* \"#utility.yul\":1447:1610   */\n    tag_39:\n        /* \"#utility.yul\":1505:1510   */\n      0x00\n        /* \"#utility.yul\":1543:1549   */\n      dup2\n        /* \"#utility.yul\":1530:1550   */\n      calldataload\n        /* \"#utility.yul\":1521:1550   */\n      swap1\n      pop\n        /* \"#utility.yul\":1559:1604   */\n      tag_59\n        /* \"#utility.yul\":1598:1603   */\n      dup2\n        /* \"#utility.yul\":1559:1604   */\n      tag_38\n      jump\t// in\n    tag_59:\n        /* \"#utility.yul\":1447:1610   */\n      swap3\n      swap2\n      pop\n      pop\n      jump\t// out\n        /* \"#utility.yul\":1616:1969   */\n    tag_17:\n        /* \"#utility.yul\":1687:1693   */\n      0x00\n        /* \"#utility.yul\":1736:1738   */\n      0x20\n        /* \"#utility.yul\":1724:1733   */\n      dup3\n        /* \"#utility.yul\":1715:1722   */\n      dup5\n        /* \"#utility.yul\":1711:1734   */\n      sub\n        /* \"#utility.yul\":1707:1739   */\n      slt\n        /* \"#utility.yul\":1704:1823   */\n      iszero\n      tag_61\n      jumpi\n        /* \"#utility.yul\":1742:1821   */\n      tag_62\n      tag_36\n      jump\t// in\n    tag_62:\n        /* \"#utility.yul\":1704:1823   */\n    tag_61:\n        /* \"#utility.yul\":1862:1863   */\n      0x00\n        /* \"#utility.yul\":1887:1952   */\n      tag_63\n        /* \"#utility.yul\":1944:1951   */\n      dup5\n        /* \"#utility.yul\":1935:1941   */\n      dup3\n        /* \"#utility.yul\":1924:1933   */\n      dup6\n        /* \"#utility.yul\":1920:1942   */\n      add\n        /* \"#utility.yul\":1887:1952   */\n      tag_39\n      jump\t// in\n    tag_63:\n        /* \"#utility.yul\":1877:1952   */\n      swap2\n      pop\n        /* \"#utility.yul\":1833:1962   */\n      pop\n        /* \"#utility.yul\":1616:1969   */\n      swap3\n      swap2\n      pop\n      pop\n      jump\t// out\n        /* \"#utility.yul\":1975:2477   */\n    tag_22:\n        /* \"#utility.yul\":2154:2158   */\n      0x00\n        /* \"#utility.yul\":2192:2194   */\n      0x60\n        /* \"#utility.yul\":2181:2190   */\n      dup3\n        /* \"#utility.yul\":2177:2195   */\n      add\n        /* \"#utility.yul\":2169:2195   */\n      swap1\n      pop\n        /* \"#utility.yul\":2205:2286   */\n      tag_65\n        /* \"#utility.yul\":2283:2284   */\n      0x00\n        /* \"#utility.yul\":2272:2281   */\n      dup4\n        /* \"#utility.yul\":2268:2285   */\n      add\n        /* \"#utility.yul\":2259:2265   */\n      dup7\n        /* \"#utility.yul\":2205:2286   */\n      tag_34\n      jump\t// in\n    tag_65:\n        /* \"#utility.yul\":2296:2378   */\n      tag_66\n        /* \"#utility.yul\":2374:2376   */\n      0x20\n        /* \"#utility.yul\":2363:2372   */\n      dup4\n        /* \"#utility.yul\":2359:2377   */\n      add\n        /* \"#utility.yul\":2350:2356   */\n      dup6\n        /* \"#utility.yul\":2296:2378   */\n      tag_34\n      jump\t// in\n    tag_66:\n        /* \"#utility.yul\":2388:2470   */\n      tag_67\n        /* \"#utility.yul\":2466:2468   */\n      0x40\n        /* \"#utility.yul\":2455:2464   */\n      dup4\n        /* \"#utility.yul\":2451:2469   */\n      add\n        /* \"#utility.yul\":2442:2448   */\n      dup5\n        /* \"#utility.yul\":2388:2470   */\n      tag_34\n      jump\t// in\n    tag_67:\n        /* \"#utility.yul\":1975:2477   */\n      swap5\n      swap4\n      pop\n      pop\n      pop\n      pop\n      jump\t// out\n\n    auxdata: 0xa26469706673582212206643c6c3e8535eceaee29638ab9a757d1416c8f6673436c734d509e159d30bdd64736f6c63430008120033\n}\n",
				"bytecode": {
					"linkReferences": {},
					"object": "60806040526001600060016101000a81548160ff0219169083600381111561002a5761002961007d565b5b02179055506003808111156100425761004161007d565b5b600060026101000a81548160ff021916908360038111156100665761006561007d565b5b021790555034801561007757600080fd5b506100ac565b7f4e487b7100000000000000000000000000000000000000000000000000000000600052602160045260246000fd5b6102ea806100bb6000396000f3fe608060405234801561001057600080fd5b50600436106100575760003560e01c80631de21b761461005c57806330332aea1461007a578063723d71d414610098578063993a04b7146100b4578063a85e9c83146100d4575b600080fd5b6100646100f2565b604051610071919061020b565b60405180910390f35b610082610103565b60405161008f919061020b565b60405180910390f35b6100b260048036038101906100ad9190610250565b610116565b005b6100bc610142565b6040516100cb9392919061027d565b60405180910390f35b6100dc610181565b6040516100e9919061020b565b60405180910390f35b60008054906101000a900460ff1681565b600060019054906101000a900460ff1681565b806000806101000a81548160ff0219169083600381111561013a57610139610194565b5b021790555050565b60008060008060009054906101000a900460ff16600060019054906101000a900460ff16600060029054906101000a900460ff16925092509250909192565b600060029054906101000a900460ff1681565b7f4e487b7100000000000000000000000000000000000000000000000000000000600052602160045260246000fd5b600481106101d4576101d3610194565b5b50565b60008190506101e5826101c3565b919050565b60006101f5826101d7565b9050919050565b610205816101ea565b82525050565b600060208201905061022060008301846101fc565b92915050565b600080fd5b6004811061023857600080fd5b50565b60008135905061024a8161022b565b92915050565b60006020828403121561026657610265610226565b5b60006102748482850161023b565b91505092915050565b600060608201905061029260008301866101fc565b61029f60208301856101fc565b6102ac60408301846101fc565b94935050505056fea26469706673582212206643c6c3e8535eceaee29638ab9a757d1416c8f6673436c734d509e159d30bdd64736f6c63430008120033",
					"opcodes": "PUSH1 0x80 PUSH1 0x40 MSTORE PUSH1 0x1 PUSH1 0x0 PUSH1 0x1 PUSH2 0x100 EXP DUP2 SLOAD DUP2 PUSH1 0xFF MUL NOT AND SWAP1 DUP4 PUSH1 0x3 DUP2 GT ISZERO PUSH2 0x2A JUMPI PUSH2 0x29 PUSH2 0x7D JUMP JUMPDEST JUMPDEST MUL OR SWAP1 SSTORE POP PUSH1 0x3 DUP1 DUP2 GT ISZERO PUSH2 0x42 JUMPI PUSH2 0x41 PUSH2 0x7D JUMP JUMPDEST JUMPDEST PUSH1 0x0 PUSH1 0x2 PUSH2 0x100 EXP DUP2 SLOAD DUP2 PUSH1 0xFF MUL NOT AND SWAP1 DUP4 PUSH1 0x3 DUP2 GT ISZERO PUSH2 0x66 JUMPI PUSH2 0x65 PUSH2 0x7D JUMP JUMPDEST JUMPDEST MUL OR SWAP1 SSTORE POP CALLVALUE DUP1 ISZERO PUSH2 0x77 JUMPI PUSH1 0x0 DUP1 REVERT JUMPDEST POP PUSH2 0xAC JUMP JUMPDEST PUSH32 0x4E487B7100000000000000000000000000000000000000000000000000000000 PUSH1 0x0 MSTORE PUSH1 0x21 PUSH1 0x4 MSTORE PUSH1 0x24 PUSH1 0x0 REVERT JUMPDEST PUSH2 0x2EA DUP1 PUSH2 0xBB PUSH1 0x0 CODECOPY PUSH1 0x0 RETURN INVALID PUSH1 0x80 PUSH1 0x40 MSTORE CALLVALUE DUP1 ISZERO PUSH2 0x10 JUMPI PUSH1 0x0 DUP1 REVERT JUMPDEST POP PUSH1 0x4 CALLDATASIZE LT PUSH2 0x57 JUMPI PUSH1 0x0 CALLDATALOAD PUSH1 0xE0 SHR DUP1 PUSH4 0x1DE21B76 EQ PUSH2 0x5C JUMPI DUP1 PUSH4 0x30332AEA EQ PUSH2 0x7A JUMPI DUP1 PUSH4 0x723D71D4 EQ PUSH2 0x98 JUMPI DUP1 PUSH4 0x993A04B7 EQ PUSH2 0xB4 JUMPI DUP1 PUSH4 0xA85E9C83 EQ PUSH2 0xD4 JUMPI JUMPDEST PUSH1 0x0 DUP1 REVERT JUMPDEST PUSH2 0x64 PUSH2 0xF2 JUMP JUMPDEST PUSH1 0x40 MLOAD PUSH2 0x71 SWAP2 SWAP1 PUSH2 0x20B JUMP JUMPDEST PUSH1 0x40 MLOAD DUP1 SWAP2 SUB SWAP1 RETURN JUMPDEST PUSH2 0x82 PUSH2 0x103 JUMP JUMPDEST PUSH1 0x40 MLOAD PUSH2 0x8F SWAP2 SWAP1 PUSH2 0x20B JUMP JUMPDEST PUSH1 0x40 MLOAD DUP1 SWAP2 SUB SWAP1 RETURN JUMPDEST PUSH2 0xB2 PUSH1 0x4 DUP1 CALLDATASIZE SUB DUP2 ADD SWAP1 PUSH2 0xAD SWAP2 SWAP1 PUSH2 0x250 JUMP JUMPDEST PUSH2 0x116 JUMP JUMPDEST STOP JUMPDEST PUSH2 0xBC PUSH2 0x142 JUMP JUMPDEST PUSH1 0x40 MLOAD PUSH2 0xCB SWAP4 SWAP3 SWAP2 SWAP1 PUSH2 0x27D JUMP JUMPDEST PUSH1 0x40 MLOAD DUP1 SWAP2 SUB SWAP1 RETURN JUMPDEST PUSH2 0xDC PUSH2 0x181 JUMP JUMPDEST PUSH1 0x40 MLOAD PUSH2 0xE9 SWAP2 SWAP1 PUSH2 0x20B JUMP JUMPDEST PUSH1 0x40 MLOAD DUP1 SWAP2 SUB SWAP1 RETURN JUMPDEST PUSH1 0x0 DUP1 SLOAD SWAP1 PUSH2 0x100 EXP SWAP1 DIV PUSH1 0xFF AND DUP2 JUMP JUMPDEST PUSH1 0x0 PUSH1 0x1 SWAP1 SLOAD SWAP1 PUSH2 0x100 EXP SWAP1 DIV PUSH1 0xFF AND DUP2 JUMP JUMPDEST DUP1 PUSH1 0x0 DUP1 PUSH2 0x100 EXP DUP2 SLOAD DUP2 PUSH1 0xFF MUL NOT AND SWAP1 DUP4 PUSH1 0x3 DUP2 GT ISZERO PUSH2 0x13A JUMPI PUSH2 0x139 PUSH2 0x194 JUMP JUMPDEST JUMPDEST MUL OR SWAP1 SSTORE POP POP JUMP JUMPDEST PUSH1 0x0 DUP1 PUSH1 0x0 DUP1 PUSH1 0x0 SWAP1 SLOAD SWAP1 PUSH2 0x100 EXP SWAP1 DIV PUSH1 0xFF AND PUSH1 0x0 PUSH1 0x1 SWAP1 SLOAD SWAP1 PUSH2 0x100 EXP SWAP1 DIV PUSH1 0xFF AND PUSH1 0x0 PUSH1 0x2 SWAP1 SLOAD SWAP1 PUSH2 0x100 EXP SWAP1 DIV PUSH1 0xFF AND SWAP3 POP SWAP3 POP SWAP3 POP SWAP1 SWAP2 SWAP3 JUMP JUMPDEST PUSH1 0x0 PUSH1 0x2 SWAP1 SLOAD SWAP1 PUSH2 0x100 EXP SWAP1 DIV PUSH1 0xFF AND DUP2 JUMP JUMPDEST PUSH32 0x4E487B7100000000000000000000000000000000000000000000000000000000 PUSH1 0x0 MSTORE PUSH1 0x21 PUSH1 0x4 MSTORE PUSH1 0x24 PUSH1 0x0 REVERT JUMPDEST PUSH1 0x4 DUP2 LT PUSH2 0x1D4 JUMPI PUSH2 0x1D3 PUSH2 0x194 JUMP JUMPDEST JUMPDEST POP JUMP JUMPDEST PUSH1 0x0 DUP2 SWAP1 POP PUSH2 0x1E5 DUP3 PUSH2 0x1C3 JUMP JUMPDEST SWAP2 SWAP1 POP JUMP JUMPDEST PUSH1 0x0 PUSH2 0x1F5 DUP3 PUSH2 0x1D7 JUMP JUMPDEST SWAP1 POP SWAP2 SWAP1 POP JUMP JUMPDEST PUSH2 0x205 DUP2 PUSH2 0x1EA JUMP JUMPDEST DUP3 MSTORE POP POP JUMP JUMPDEST PUSH1 0x0 PUSH1 0x20 DUP3 ADD SWAP1 POP PUSH2 0x220 PUSH1 0x0 DUP4 ADD DUP5 PUSH2 0x1FC JUMP JUMPDEST SWAP3 SWAP2 POP POP JUMP JUMPDEST PUSH1 0x0 DUP1 REVERT JUMPDEST PUSH1 0x4 DUP2 LT PUSH2 0x238 JUMPI PUSH1 0x0 DUP1 REVERT JUMPDEST POP JUMP JUMPDEST PUSH1 0x0 DUP2 CALLDATALOAD SWAP1 POP PUSH2 0x24A DUP2 PUSH2 0x22B JUMP JUMPDEST SWAP3 SWAP2 POP POP JUMP JUMPDEST PUSH1 0x0 PUSH1 0x20 DUP3 DUP5 SUB SLT ISZERO PUSH2 0x266 JUMPI PUSH2 0x265 PUSH2 0x226 JUMP JUMPDEST JUMPDEST PUSH1 0x0 PUSH2 0x274 DUP5 DUP3 DUP6 ADD PUSH2 0x23B JUMP JUMPDEST SWAP2 POP POP SWAP3 SWAP2 POP POP JUMP JUMPDEST PUSH1 0x0 PUSH1 0x60 DUP3 ADD SWAP1 POP PUSH2 0x292 PUSH1 0x0 DUP4 ADD DUP7 PUSH2 0x1FC JUMP JUMPDEST PUSH2 0x29F PUSH1 0x20 DUP4 ADD DUP6 PUSH2 0x1FC JUMP JUMPDEST PUSH2 0x2AC PUSH1 0x40 DUP4 ADD DUP5 PUSH2 0x1FC JUMP JUMPDEST SWAP5 SWAP4 POP POP POP POP JUMP INVALID LOG2 PUSH5 0x6970667358 0x22 SLT KECCAK256 PUSH7 0x43C6C3E8535ECE 0xAE 0xE2 SWAP7 CODESIZE 0xAB SWAP11 PUSH22 0x7D1416C8F6673436C734D509E159D30BDD64736F6C63 NUMBER STOP ADDMOD SLT STOP CALLER "
				},
				"gasEstimates": {
					"creation": {
						"codeDepositCost": "149200",
						"executionCost": "48908",
						"totalCost": "198108"
					},
					"external": {
						"P1()": "2535",
						"P2()": "2610",
						"P3()": "2676",
						"getter()": "infinite",
						"setter(uint8)": "24672"
					}
				},
				"methodIdentifiers": {
					"P1()": "1de21b76",
					"P2()": "30332aea",
					"P3()": "a85e9c83",
					"getter()": "993a04b7",
					"setter(uint8)": "723d71d4"
				}
			},
			"storageLayout": {
				"storage": [
					{
						"astId": 9,
						"contract": "week8/lab-01-08-2023/pizzaDeli.sol:PizzaDeli",
						"label": "P1",
						"offset": 0,
						"slot": "0",
						"type": "t_enum(pizzaOrder)6"
					},
					{
						"astId": 14,
						"contract": "week8/lab-01-08-2023/pizzaDeli.sol:PizzaDeli",
						"label": "P2",
						"offset": 1,
						"slot": "0",
						"type": "t_enum(pizzaOrder)6"
					},
					{
						"astId": 20,
						"contract": "week8/lab-01-08-2023/pizzaDeli.sol:PizzaDeli",
						"label": "P3",
						"offset": 2,
						"slot": "0",
						"type": "t_enum(pizzaOrder)6"
					}
				],
				"types": {
					"t_enum(pizzaOrder)6": {
						"encoding": "inplace",
						"label": "enum PizzaDeli.pizzaOrder",
						"numberOfBytes": "1"
					}
				}
			},
			"userdoc": {
				"kind": "user",
				"methods": {},
				"version": 1
			}
		}
	}
}