{
	"week8/lab-01-08-2023/example1_4.sol": {
		"Enum": {
			"abi": [
				{
					"inputs": [],
					"name": "Fail",
					"outputs": [],
					"stateMutability": "nonpayable",
					"type": "function"
				},
				{
					"inputs": [],
					"name": "Scholarship",
					"outputs": [],
					"stateMutability": "nonpayable",
					"type": "function"
				},
				{
					"inputs": [],
					"name": "e1",
					"outputs": [
						{
							"internalType": "enum Enum.Exam",
							"name": "",
							"type": "uint8"
						}
					],
					"stateMutability": "view",
					"type": "function"
				},
				{
					"inputs": [],
					"name": "e3",
					"outputs": [
						{
							"internalType": "enum Enum.Exam",
							"name": "",
							"type": "uint8"
						}
					],
					"stateMutability": "view",
					"type": "function"
				},
				{
					"inputs": [],
					"name": "idelete",
					"outputs": [],
					"stateMutability": "nonpayable",
					"type": "function"
				}
			],
			"devdoc": {
				"kind": "dev",
				"methods": {},
				"version": 1
			},
			"evm": {
				"assembly": "    /* \"week8/lab-01-08-2023/example1_4.sol\":57:1139  contract Enum {... */\n  mstore(0x40, 0x80)\n    /* \"week8/lab-01-08-2023/example1_4.sol\":99:100  0 */\n  0x00\n    /* \"week8/lab-01-08-2023/example1_4.sol\":94:101  Exam(0) */\n  0x03\n  dup2\n  gt\n  iszero\n  tag_1\n  jumpi\n  tag_2\n  tag_3\n  jump\t// in\ntag_2:\ntag_1:\n    /* \"week8/lab-01-08-2023/example1_4.sol\":77:101  Exam public e1 = Exam(0) */\n  0x00\n  dup1\n  0x0100\n  exp\n  dup2\n  sload\n  dup2\n  0xff\n  mul\n  not\n  and\n  swap1\n  dup4\n  0x03\n  dup2\n  gt\n  iszero\n  tag_4\n  jumpi\n  tag_5\n  tag_3\n  jump\t// in\ntag_5:\ntag_4:\n  mul\n  or\n  swap1\n  sstore\n  pop\n    /* \"week8/lab-01-08-2023/example1_4.sol\":260:261  3 */\n  0x03\n    /* \"week8/lab-01-08-2023/example1_4.sol\":255:262  Exam(3) */\n  dup1\n  dup2\n  gt\n  iszero\n  tag_6\n  jumpi\n  tag_7\n  tag_3\n  jump\t// in\ntag_7:\ntag_6:\n    /* \"week8/lab-01-08-2023/example1_4.sol\":238:262  Exam public e3 = Exam(3) */\n  0x00\n  exp(0x0100, 0x01)\n  dup2\n  sload\n  dup2\n  0xff\n  mul\n  not\n  and\n  swap1\n  dup4\n  0x03\n  dup2\n  gt\n  iszero\n  tag_8\n  jumpi\n  tag_9\n  tag_3\n  jump\t// in\ntag_9:\ntag_8:\n  mul\n  or\n  swap1\n  sstore\n  pop\n    /* \"week8/lab-01-08-2023/example1_4.sol\":57:1139  contract Enum {... */\n  callvalue\n  dup1\n  iszero\n  tag_10\n  jumpi\n  0x00\n  dup1\n  revert\ntag_10:\n  pop\n  jump(tag_11)\n    /* \"#utility.yul\":7:187   */\ntag_3:\n    /* \"#utility.yul\":55:132   */\n  0x4e487b7100000000000000000000000000000000000000000000000000000000\n    /* \"#utility.yul\":52:53   */\n  0x00\n    /* \"#utility.yul\":45:133   */\n  mstore\n    /* \"#utility.yul\":152:156   */\n  0x21\n    /* \"#utility.yul\":149:150   */\n  0x04\n    /* \"#utility.yul\":142:157   */\n  mstore\n    /* \"#utility.yul\":176:180   */\n  0x24\n    /* \"#utility.yul\":173:174   */\n  0x00\n    /* \"#utility.yul\":166:181   */\n  revert\n    /* \"week8/lab-01-08-2023/example1_4.sol\":57:1139  contract Enum {... */\ntag_11:\n  dataSize(sub_0)\n  dup1\n  dataOffset(sub_0)\n  0x00\n  codecopy\n  0x00\n  return\nstop\n\nsub_0: assembly {\n        /* \"week8/lab-01-08-2023/example1_4.sol\":57:1139  contract Enum {... */\n      mstore(0x40, 0x80)\n      callvalue\n      dup1\n      iszero\n      tag_1\n      jumpi\n      0x00\n      dup1\n      revert\n    tag_1:\n      pop\n      jumpi(tag_2, lt(calldatasize, 0x04))\n      shr(0xe0, calldataload(0x00))\n      dup1\n      0x552670ff\n      eq\n      tag_3\n      jumpi\n      dup1\n      0x56800b52\n      eq\n      tag_4\n      jumpi\n      dup1\n      0xa2c2d666\n      eq\n      tag_5\n      jumpi\n      dup1\n      0xce251a30\n      eq\n      tag_6\n      jumpi\n      dup1\n      0xea70a017\n      eq\n      tag_7\n      jumpi\n    tag_2:\n      0x00\n      dup1\n      revert\n        /* \"week8/lab-01-08-2023/example1_4.sol\":883:975  function Fail() public {... */\n    tag_3:\n      tag_8\n      tag_9\n      jump\t// in\n    tag_8:\n      stop\n        /* \"week8/lab-01-08-2023/example1_4.sol\":238:262  Exam public e3 = Exam(3) */\n    tag_4:\n      tag_10\n      tag_11\n      jump\t// in\n    tag_10:\n      mload(0x40)\n      tag_12\n      swap2\n      swap1\n      tag_13\n      jump\t// in\n    tag_12:\n      mload(0x40)\n      dup1\n      swap2\n      sub\n      swap1\n      return\n        /* \"week8/lab-01-08-2023/example1_4.sol\":77:101  Exam public e1 = Exam(0) */\n    tag_5:\n      tag_14\n      tag_15\n      jump\t// in\n    tag_14:\n      mload(0x40)\n      tag_16\n      swap2\n      swap1\n      tag_13\n      jump\t// in\n    tag_16:\n      mload(0x40)\n      dup1\n      swap2\n      sub\n      swap1\n      return\n        /* \"week8/lab-01-08-2023/example1_4.sol\":981:1078  function Scholarship() public {... */\n    tag_6:\n      tag_17\n      tag_18\n      jump\t// in\n    tag_17:\n      stop\n        /* \"week8/lab-01-08-2023/example1_4.sol\":1084:1136  function idelete() public {... */\n    tag_7:\n      tag_19\n      tag_20\n      jump\t// in\n    tag_19:\n      stop\n        /* \"week8/lab-01-08-2023/example1_4.sol\":883:975  function Fail() public {... */\n    tag_9:\n        /* \"week8/lab-01-08-2023/example1_4.sol\":926:939  Exam.Checking */\n      0x00\n        /* \"week8/lab-01-08-2023/example1_4.sol\":920:939  e1 == Exam.Checking */\n      0x03\n      dup2\n      gt\n      iszero\n      tag_22\n      jumpi\n      tag_23\n      tag_24\n      jump\t// in\n    tag_23:\n    tag_22:\n        /* \"week8/lab-01-08-2023/example1_4.sol\":920:922  e1 */\n      0x00\n      dup1\n      sload\n      swap1\n      0x0100\n      exp\n      swap1\n      div\n      0xff\n      and\n        /* \"week8/lab-01-08-2023/example1_4.sol\":920:939  e1 == Exam.Checking */\n      0x03\n      dup2\n      gt\n      iszero\n      tag_25\n      jumpi\n      tag_26\n      tag_24\n      jump\t// in\n    tag_26:\n    tag_25:\n      sub\n        /* \"week8/lab-01-08-2023/example1_4.sol\":916:963  if (e1 == Exam.Checking)... */\n      tag_27\n      jumpi\n        /* \"week8/lab-01-08-2023/example1_4.sol\":954:963  Exam.Fail */\n      0x02\n        /* \"week8/lab-01-08-2023/example1_4.sol\":949:951  e1 */\n      0x00\n      dup1\n        /* \"week8/lab-01-08-2023/example1_4.sol\":949:963  e1 = Exam.Fail */\n      0x0100\n      exp\n      dup2\n      sload\n      dup2\n      0xff\n      mul\n      not\n      and\n      swap1\n      dup4\n      0x03\n      dup2\n      gt\n      iszero\n      tag_28\n      jumpi\n      tag_29\n      tag_24\n      jump\t// in\n    tag_29:\n    tag_28:\n      mul\n      or\n      swap1\n      sstore\n      pop\n        /* \"week8/lab-01-08-2023/example1_4.sol\":916:963  if (e1 == Exam.Checking)... */\n    tag_27:\n        /* \"week8/lab-01-08-2023/example1_4.sol\":883:975  function Fail() public {... */\n      jump\t// out\n        /* \"week8/lab-01-08-2023/example1_4.sol\":238:262  Exam public e3 = Exam(3) */\n    tag_11:\n      0x00\n      0x01\n      swap1\n      sload\n      swap1\n      0x0100\n      exp\n      swap1\n      div\n      0xff\n      and\n      dup2\n      jump\t// out\n        /* \"week8/lab-01-08-2023/example1_4.sol\":77:101  Exam public e1 = Exam(0) */\n    tag_15:\n      0x00\n      dup1\n      sload\n      swap1\n      0x0100\n      exp\n      swap1\n      div\n      0xff\n      and\n      dup2\n      jump\t// out\n        /* \"week8/lab-01-08-2023/example1_4.sol\":981:1078  function Scholarship() public {... */\n    tag_18:\n        /* \"week8/lab-01-08-2023/example1_4.sol\":1031:1040  Exam.Pass */\n      0x01\n        /* \"week8/lab-01-08-2023/example1_4.sol\":1025:1040  e1 == Exam.Pass */\n      0x03\n      dup2\n      gt\n      iszero\n      tag_31\n      jumpi\n      tag_32\n      tag_24\n      jump\t// in\n    tag_32:\n    tag_31:\n        /* \"week8/lab-01-08-2023/example1_4.sol\":1025:1027  e1 */\n      0x00\n      dup1\n      sload\n      swap1\n      0x0100\n      exp\n      swap1\n      div\n      0xff\n      and\n        /* \"week8/lab-01-08-2023/example1_4.sol\":1025:1040  e1 == Exam.Pass */\n      0x03\n      dup2\n      gt\n      iszero\n      tag_33\n      jumpi\n      tag_34\n      tag_24\n      jump\t// in\n    tag_34:\n    tag_33:\n      sub\n        /* \"week8/lab-01-08-2023/example1_4.sol\":1021:1071  if (e1 == Exam.Pass)... */\n      tag_35\n      jumpi\n        /* \"week8/lab-01-08-2023/example1_4.sol\":1055:1071  Exam.Scholarship */\n      0x03\n        /* \"week8/lab-01-08-2023/example1_4.sol\":1050:1052  e1 */\n      0x00\n      dup1\n        /* \"week8/lab-01-08-2023/example1_4.sol\":1050:1071  e1 = Exam.Scholarship */\n      0x0100\n      exp\n      dup2\n      sload\n      dup2\n      0xff\n      mul\n      not\n      and\n      swap1\n      dup4\n      0x03\n      dup2\n      gt\n      iszero\n      tag_36\n      jumpi\n      tag_37\n      tag_24\n      jump\t// in\n    tag_37:\n    tag_36:\n      mul\n      or\n      swap1\n      sstore\n      pop\n        /* \"week8/lab-01-08-2023/example1_4.sol\":1021:1071  if (e1 == Exam.Pass)... */\n    tag_35:\n        /* \"week8/lab-01-08-2023/example1_4.sol\":981:1078  function Scholarship() public {... */\n      jump\t// out\n        /* \"week8/lab-01-08-2023/example1_4.sol\":1084:1136  function idelete() public {... */\n    tag_20:\n        /* \"week8/lab-01-08-2023/example1_4.sol\":1127:1129  e1 */\n      0x00\n      dup1\n        /* \"week8/lab-01-08-2023/example1_4.sol\":1120:1129  delete e1 */\n      0x0100\n      exp\n      dup2\n      sload\n      swap1\n      0xff\n      mul\n      not\n      and\n      swap1\n      sstore\n        /* \"week8/lab-01-08-2023/example1_4.sol\":1084:1136  function idelete() public {... */\n      jump\t// out\n        /* \"#utility.yul\":7:187   */\n    tag_24:\n        /* \"#utility.yul\":55:132   */\n      0x4e487b7100000000000000000000000000000000000000000000000000000000\n        /* \"#utility.yul\":52:53   */\n      0x00\n        /* \"#utility.yul\":45:133   */\n      mstore\n        /* \"#utility.yul\":152:156   */\n      0x21\n        /* \"#utility.yul\":149:150   */\n      0x04\n        /* \"#utility.yul\":142:157   */\n      mstore\n        /* \"#utility.yul\":176:180   */\n      0x24\n        /* \"#utility.yul\":173:174   */\n      0x00\n        /* \"#utility.yul\":166:181   */\n      revert\n        /* \"#utility.yul\":193:305   */\n    tag_39:\n        /* \"#utility.yul\":273:274   */\n      0x04\n        /* \"#utility.yul\":266:271   */\n      dup2\n        /* \"#utility.yul\":263:275   */\n      lt\n        /* \"#utility.yul\":253:299   */\n      tag_46\n      jumpi\n        /* \"#utility.yul\":279:297   */\n      tag_47\n      tag_24\n      jump\t// in\n    tag_47:\n        /* \"#utility.yul\":253:299   */\n    tag_46:\n        /* \"#utility.yul\":193:305   */\n      pop\n      jump\t// out\n        /* \"#utility.yul\":311:436   */\n    tag_40:\n        /* \"#utility.yul\":355:362   */\n      0x00\n        /* \"#utility.yul\":384:389   */\n      dup2\n        /* \"#utility.yul\":373:389   */\n      swap1\n      pop\n        /* \"#utility.yul\":390:430   */\n      tag_49\n        /* \"#utility.yul\":424:429   */\n      dup3\n        /* \"#utility.yul\":390:430   */\n      tag_39\n      jump\t// in\n    tag_49:\n        /* \"#utility.yul\":311:436   */\n      swap2\n      swap1\n      pop\n      jump\t// out\n        /* \"#utility.yul\":442:567   */\n    tag_41:\n        /* \"#utility.yul\":497:506   */\n      0x00\n        /* \"#utility.yul\":530:561   */\n      tag_51\n        /* \"#utility.yul\":555:560   */\n      dup3\n        /* \"#utility.yul\":530:561   */\n      tag_40\n      jump\t// in\n    tag_51:\n        /* \"#utility.yul\":517:561   */\n      swap1\n      pop\n        /* \"#utility.yul\":442:567   */\n      swap2\n      swap1\n      pop\n      jump\t// out\n        /* \"#utility.yul\":573:714   */\n    tag_42:\n        /* \"#utility.yul\":665:707   */\n      tag_53\n        /* \"#utility.yul\":701:706   */\n      dup2\n        /* \"#utility.yul\":665:707   */\n      tag_41\n      jump\t// in\n    tag_53:\n        /* \"#utility.yul\":660:663   */\n      dup3\n        /* \"#utility.yul\":653:708   */\n      mstore\n        /* \"#utility.yul\":573:714   */\n      pop\n      pop\n      jump\t// out\n        /* \"#utility.yul\":720:952   */\n    tag_13:\n        /* \"#utility.yul\":818:822   */\n      0x00\n        /* \"#utility.yul\":856:858   */\n      0x20\n        /* \"#utility.yul\":845:854   */\n      dup3\n        /* \"#utility.yul\":841:859   */\n      add\n        /* \"#utility.yul\":833:859   */\n      swap1\n      pop\n        /* \"#utility.yul\":869:945   */\n      tag_55\n        /* \"#utility.yul\":942:943   */\n      0x00\n        /* \"#utility.yul\":931:940   */\n      dup4\n        /* \"#utility.yul\":927:944   */\n      add\n        /* \"#utility.yul\":918:924   */\n      dup5\n        /* \"#utility.yul\":869:945   */\n      tag_42\n      jump\t// in\n    tag_55:\n        /* \"#utility.yul\":720:952   */\n      swap3\n      swap2\n      pop\n      pop\n      jump\t// out\n\n    auxdata: 0xa2646970667358221220410e7fb43f89335c0a08efdcbd594c4c91067068363ac995d29a5f21c5efb3ce64736f6c63430008120033\n}\n",
				"bytecode": {
					"linkReferences": {},
					"object": "6080604052600060038111156100185761001761008e565b5b6000806101000a81548160ff0219169083600381111561003b5761003a61008e565b5b02179055506003808111156100535761005261008e565b5b600060016101000a81548160ff021916908360038111156100775761007661008e565b5b021790555034801561008857600080fd5b506100bd565b7f4e487b7100000000000000000000000000000000000000000000000000000000600052602160045260246000fd5b610281806100cc6000396000f3fe608060405234801561001057600080fd5b50600436106100575760003560e01c8063552670ff1461005c57806356800b5214610066578063a2c2d66614610084578063ce251a30146100a2578063ea70a017146100ac575b600080fd5b6100646100b6565b005b61006e61011c565b60405161007b9190610230565b60405180910390f35b61008c61012f565b6040516100999190610230565b60405180910390f35b6100aa610140565b005b6100b46101a6565b005b600060038111156100ca576100c96101b9565b5b60008054906101000a900460ff1660038111156100ea576100e96101b9565b5b0361011a5760026000806101000a81548160ff02191690836003811115610114576101136101b9565b5b02179055505b565b600060019054906101000a900460ff1681565b60008054906101000a900460ff1681565b60016003811115610154576101536101b9565b5b60008054906101000a900460ff166003811115610174576101736101b9565b5b036101a45760036000806101000a81548160ff0219169083600381111561019e5761019d6101b9565b5b02179055505b565b6000806101000a81549060ff0219169055565b7f4e487b7100000000000000000000000000000000000000000000000000000000600052602160045260246000fd5b600481106101f9576101f86101b9565b5b50565b600081905061020a826101e8565b919050565b600061021a826101fc565b9050919050565b61022a8161020f565b82525050565b60006020820190506102456000830184610221565b9291505056fea2646970667358221220410e7fb43f89335c0a08efdcbd594c4c91067068363ac995d29a5f21c5efb3ce64736f6c63430008120033",
					"opcodes": "PUSH1 0x80 PUSH1 0x40 MSTORE PUSH1 0x0 PUSH1 0x3 DUP2 GT ISZERO PUSH2 0x18 JUMPI PUSH2 0x17 PUSH2 0x8E JUMP JUMPDEST JUMPDEST PUSH1 0x0 DUP1 PUSH2 0x100 EXP DUP2 SLOAD DUP2 PUSH1 0xFF MUL NOT AND SWAP1 DUP4 PUSH1 0x3 DUP2 GT ISZERO PUSH2 0x3B JUMPI PUSH2 0x3A PUSH2 0x8E JUMP JUMPDEST JUMPDEST MUL OR SWAP1 SSTORE POP PUSH1 0x3 DUP1 DUP2 GT ISZERO PUSH2 0x53 JUMPI PUSH2 0x52 PUSH2 0x8E JUMP JUMPDEST JUMPDEST PUSH1 0x0 PUSH1 0x1 PUSH2 0x100 EXP DUP2 SLOAD DUP2 PUSH1 0xFF MUL NOT AND SWAP1 DUP4 PUSH1 0x3 DUP2 GT ISZERO PUSH2 0x77 JUMPI PUSH2 0x76 PUSH2 0x8E JUMP JUMPDEST JUMPDEST MUL OR SWAP1 SSTORE POP CALLVALUE DUP1 ISZERO PUSH2 0x88 JUMPI PUSH1 0x0 DUP1 REVERT JUMPDEST POP PUSH2 0xBD JUMP JUMPDEST PUSH32 0x4E487B7100000000000000000000000000000000000000000000000000000000 PUSH1 0x0 MSTORE PUSH1 0x21 PUSH1 0x4 MSTORE PUSH1 0x24 PUSH1 0x0 REVERT JUMPDEST PUSH2 0x281 DUP1 PUSH2 0xCC PUSH1 0x0 CODECOPY PUSH1 0x0 RETURN INVALID PUSH1 0x80 PUSH1 0x40 MSTORE CALLVALUE DUP1 ISZERO PUSH2 0x10 JUMPI PUSH1 0x0 DUP1 REVERT JUMPDEST POP PUSH1 0x4 CALLDATASIZE LT PUSH2 0x57 JUMPI PUSH1 0x0 CALLDATALOAD PUSH1 0xE0 SHR DUP1 PUSH4 0x552670FF EQ PUSH2 0x5C JUMPI DUP1 PUSH4 0x56800B52 EQ PUSH2 0x66 JUMPI DUP1 PUSH4 0xA2C2D666 EQ PUSH2 0x84 JUMPI DUP1 PUSH4 0xCE251A30 EQ PUSH2 0xA2 JUMPI DUP1 PUSH4 0xEA70A017 EQ PUSH2 0xAC JUMPI JUMPDEST PUSH1 0x0 DUP1 REVERT JUMPDEST PUSH2 0x64 PUSH2 0xB6 JUMP JUMPDEST STOP JUMPDEST PUSH2 0x6E PUSH2 0x11C JUMP JUMPDEST PUSH1 0x40 MLOAD PUSH2 0x7B SWAP2 SWAP1 PUSH2 0x230 JUMP JUMPDEST PUSH1 0x40 MLOAD DUP1 SWAP2 SUB SWAP1 RETURN JUMPDEST PUSH2 0x8C PUSH2 0x12F JUMP JUMPDEST PUSH1 0x40 MLOAD PUSH2 0x99 SWAP2 SWAP1 PUSH2 0x230 JUMP JUMPDEST PUSH1 0x40 MLOAD DUP1 SWAP2 SUB SWAP1 RETURN JUMPDEST PUSH2 0xAA PUSH2 0x140 JUMP JUMPDEST STOP JUMPDEST PUSH2 0xB4 PUSH2 0x1A6 JUMP JUMPDEST STOP JUMPDEST PUSH1 0x0 PUSH1 0x3 DUP2 GT ISZERO PUSH2 0xCA JUMPI PUSH2 0xC9 PUSH2 0x1B9 JUMP JUMPDEST JUMPDEST PUSH1 0x0 DUP1 SLOAD SWAP1 PUSH2 0x100 EXP SWAP1 DIV PUSH1 0xFF AND PUSH1 0x3 DUP2 GT ISZERO PUSH2 0xEA JUMPI PUSH2 0xE9 PUSH2 0x1B9 JUMP JUMPDEST JUMPDEST SUB PUSH2 0x11A JUMPI PUSH1 0x2 PUSH1 0x0 DUP1 PUSH2 0x100 EXP DUP2 SLOAD DUP2 PUSH1 0xFF MUL NOT AND SWAP1 DUP4 PUSH1 0x3 DUP2 GT ISZERO PUSH2 0x114 JUMPI PUSH2 0x113 PUSH2 0x1B9 JUMP JUMPDEST JUMPDEST MUL OR SWAP1 SSTORE POP JUMPDEST JUMP JUMPDEST PUSH1 0x0 PUSH1 0x1 SWAP1 SLOAD SWAP1 PUSH2 0x100 EXP SWAP1 DIV PUSH1 0xFF AND DUP2 JUMP JUMPDEST PUSH1 0x0 DUP1 SLOAD SWAP1 PUSH2 0x100 EXP SWAP1 DIV PUSH1 0xFF AND DUP2 JUMP JUMPDEST PUSH1 0x1 PUSH1 0x3 DUP2 GT ISZERO PUSH2 0x154 JUMPI PUSH2 0x153 PUSH2 0x1B9 JUMP JUMPDEST JUMPDEST PUSH1 0x0 DUP1 SLOAD SWAP1 PUSH2 0x100 EXP SWAP1 DIV PUSH1 0xFF AND PUSH1 0x3 DUP2 GT ISZERO PUSH2 0x174 JUMPI PUSH2 0x173 PUSH2 0x1B9 JUMP JUMPDEST JUMPDEST SUB PUSH2 0x1A4 JUMPI PUSH1 0x3 PUSH1 0x0 DUP1 PUSH2 0x100 EXP DUP2 SLOAD DUP2 PUSH1 0xFF MUL NOT AND SWAP1 DUP4 PUSH1 0x3 DUP2 GT ISZERO PUSH2 0x19E JUMPI PUSH2 0x19D PUSH2 0x1B9 JUMP JUMPDEST JUMPDEST MUL OR SWAP1 SSTORE POP JUMPDEST JUMP JUMPDEST PUSH1 0x0 DUP1 PUSH2 0x100 EXP DUP2 SLOAD SWAP1 PUSH1 0xFF MUL NOT AND SWAP1 SSTORE JUMP JUMPDEST PUSH32 0x4E487B7100000000000000000000000000000000000000000000000000000000 PUSH1 0x0 MSTORE PUSH1 0x21 PUSH1 0x4 MSTORE PUSH1 0x24 PUSH1 0x0 REVERT JUMPDEST PUSH1 0x4 DUP2 LT PUSH2 0x1F9 JUMPI PUSH2 0x1F8 PUSH2 0x1B9 JUMP JUMPDEST JUMPDEST POP JUMP JUMPDEST PUSH1 0x0 DUP2 SWAP1 POP PUSH2 0x20A DUP3 PUSH2 0x1E8 JUMP JUMPDEST SWAP2 SWAP1 POP JUMP JUMPDEST PUSH1 0x0 PUSH2 0x21A DUP3 PUSH2 0x1FC JUMP JUMPDEST SWAP1 POP SWAP2 SWAP1 POP JUMP JUMPDEST PUSH2 0x22A DUP2 PUSH2 0x20F JUMP JUMPDEST DUP3 MSTORE POP POP JUMP JUMPDEST PUSH1 0x0 PUSH1 0x20 DUP3 ADD SWAP1 POP PUSH2 0x245 PUSH1 0x0 DUP4 ADD DUP5 PUSH2 0x221 JUMP JUMPDEST SWAP3 SWAP2 POP POP JUMP INVALID LOG2 PUSH5 0x6970667358 0x22 SLT KECCAK256 COINBASE 0xE PUSH32 0xB43F89335C0A08EFDCBD594C4C91067068363AC995D29A5F21C5EFB3CE64736F PUSH13 0x63430008120033000000000000 "
				},
				"gasEstimates": {
					"creation": {
						"codeDepositCost": "128200",
						"executionCost": "48865",
						"totalCost": "177065"
					},
					"external": {
						"Fail()": "26617",
						"Scholarship()": "26683",
						"e1()": "2579",
						"e3()": "2610",
						"idelete()": "24452"
					}
				},
				"methodIdentifiers": {
					"Fail()": "552670ff",
					"Scholarship()": "ce251a30",
					"e1()": "a2c2d666",
					"e3()": "56800b52",
					"idelete()": "ea70a017"
				}
			},
			"storageLayout": {
				"storage": [
					{
						"astId": 7,
						"contract": "week8/lab-01-08-2023/example1_4.sol:Enum",
						"label": "e1",
						"offset": 0,
						"slot": "0",
						"type": "t_enum(Exam)12"
					},
					{
						"astId": 18,
						"contract": "week8/lab-01-08-2023/example1_4.sol:Enum",
						"label": "e3",
						"offset": 1,
						"slot": "0",
						"type": "t_enum(Exam)12"
					}
				],
				"types": {
					"t_enum(Exam)12": {
						"encoding": "inplace",
						"label": "enum Enum.Exam",
						"numberOfBytes": "1"
					}
				}
			},
			"userdoc": {
				"kind": "user",
				"methods": {},
				"version": 1
			}
		}
	}
}