{
	"data": {
		"bytecode": {
			"linkReferences": {},
			"object": "608060405234801561001057600080fd5b50610263806100206000396000f3fe608060405234801561001057600080fd5b50600436106100415760003560e01c80632bbacaaa146100465780635d14639d14610064578063b1bdacb614610082575b600080fd5b61004e6100a0565b60405161005b9190610167565b60405180910390f35b61006c6100d6565b6040516100799190610167565b60405180910390f35b61008a610112565b6040516100979190610167565b60405180910390f35b6000806000905060005b80826100b691906101b1565b915080806100c3906101e5565b915050600f81106100aa57819250505090565b6000806000905060005b600f81101561010a5780826100f591906101b1565b91508080610102906101e5565b9150506100e0565b819250505090565b6000806000905060005b600f81101561014657808261013191906101b1565b9150808061013e906101e5565b91505061011c565b819250505090565b6000819050919050565b6101618161014e565b82525050565b600060208201905061017c6000830184610158565b92915050565b7f4e487b7100000000000000000000000000000000000000000000000000000000600052601160045260246000fd5b60006101bc8261014e565b91506101c78361014e565b92508282019050808211156101df576101de610182565b5b92915050565b60006101f08261014e565b91507fffffffffffffffffffffffffffffffffffffffffffffffffffffffffffffffff820361022257610221610182565b5b60018201905091905056fea26469706673582212205ac834fa35f284ae9e382989cea55dfc23f6633fb61dc0489dbe39ccff46699964736f6c63430008120033",
			"opcodes": "PUSH1 0x80 PUSH1 0x40 MSTORE CALLVALUE DUP1 ISZERO PUSH2 0x10 JUMPI PUSH1 0x0 DUP1 REVERT JUMPDEST POP PUSH2 0x263 DUP1 PUSH2 0x20 PUSH1 0x0 CODECOPY PUSH1 0x0 RETURN INVALID PUSH1 0x80 PUSH1 0x40 MSTORE CALLVALUE DUP1 ISZERO PUSH2 0x10 JUMPI PUSH1 0x0 DUP1 REVERT JUMPDEST POP PUSH1 0x4 CALLDATASIZE LT PUSH2 0x41 JUMPI PUSH1 0x0 CALLDATALOAD PUSH1 0xE0 SHR DUP1 PUSH4 0x2BBACAAA EQ PUSH2 0x46 JUMPI DUP1 PUSH4 0x5D14639D EQ PUSH2 0x64 JUMPI DUP1 PUSH4 0xB1BDACB6 EQ PUSH2 0x82 JUMPI JUMPDEST PUSH1 0x0 DUP1 REVERT JUMPDEST PUSH2 0x4E PUSH2 0xA0 JUMP JUMPDEST PUSH1 0x40 MLOAD PUSH2 0x5B SWAP2 SWAP1 PUSH2 0x167 JUMP JUMPDEST PUSH1 0x40 MLOAD DUP1 SWAP2 SUB SWAP1 RETURN JUMPDEST PUSH2 0x6C PUSH2 0xD6 JUMP JUMPDEST PUSH1 0x40 MLOAD PUSH2 0x79 SWAP2 SWAP1 PUSH2 0x167 JUMP JUMPDEST PUSH1 0x40 MLOAD DUP1 SWAP2 SUB SWAP1 RETURN JUMPDEST PUSH2 0x8A PUSH2 0x112 JUMP JUMPDEST PUSH1 0x40 MLOAD PUSH2 0x97 SWAP2 SWAP1 PUSH2 0x167 JUMP JUMPDEST PUSH1 0x40 MLOAD DUP1 SWAP2 SUB SWAP1 RETURN JUMPDEST PUSH1 0x0 DUP1 PUSH1 0x0 SWAP1 POP PUSH1 0x0 JUMPDEST DUP1 DUP3 PUSH2 0xB6 SWAP2 SWAP1 PUSH2 0x1B1 JUMP JUMPDEST SWAP2 POP DUP1 DUP1 PUSH2 0xC3 SWAP1 PUSH2 0x1E5 JUMP JUMPDEST SWAP2 POP POP PUSH1 0xF DUP2 LT PUSH2 0xAA JUMPI DUP2 SWAP3 POP POP POP SWAP1 JUMP JUMPDEST PUSH1 0x0 DUP1 PUSH1 0x0 SWAP1 POP PUSH1 0x0 JUMPDEST PUSH1 0xF DUP2 LT ISZERO PUSH2 0x10A JUMPI DUP1 DUP3 PUSH2 0xF5 SWAP2 SWAP1 PUSH2 0x1B1 JUMP JUMPDEST SWAP2 POP DUP1 DUP1 PUSH2 0x102 SWAP1 PUSH2 0x1E5 JUMP JUMPDEST SWAP2 POP POP PUSH2 0xE0 JUMP JUMPDEST DUP2 SWAP3 POP POP POP SWAP1 JUMP JUMPDEST PUSH1 0x0 DUP1 PUSH1 0x0 SWAP1 POP PUSH1 0x0 JUMPDEST PUSH1 0xF DUP2 LT ISZERO PUSH2 0x146 JUMPI DUP1 DUP3 PUSH2 0x131 SWAP2 SWAP1 PUSH2 0x1B1 JUMP JUMPDEST SWAP2 POP DUP1 DUP1 PUSH2 0x13E SWAP1 PUSH2 0x1E5 JUMP JUMPDEST SWAP2 POP POP PUSH2 0x11C JUMP JUMPDEST DUP2 SWAP3 POP POP POP SWAP1 JUMP JUMPDEST PUSH1 0x0 DUP2 SWAP1 POP SWAP2 SWAP1 POP JUMP JUMPDEST PUSH2 0x161 DUP2 PUSH2 0x14E JUMP JUMPDEST DUP3 MSTORE POP POP JUMP JUMPDEST PUSH1 0x0 PUSH1 0x20 DUP3 ADD SWAP1 POP PUSH2 0x17C PUSH1 0x0 DUP4 ADD DUP5 PUSH2 0x158 JUMP JUMPDEST SWAP3 SWAP2 POP POP JUMP JUMPDEST PUSH32 0x4E487B7100000000000000000000000000000000000000000000000000000000 PUSH1 0x0 MSTORE PUSH1 0x11 PUSH1 0x4 MSTORE PUSH1 0x24 PUSH1 0x0 REVERT JUMPDEST PUSH1 0x0 PUSH2 0x1BC DUP3 PUSH2 0x14E JUMP JUMPDEST SWAP2 POP PUSH2 0x1C7 DUP4 PUSH2 0x14E JUMP JUMPDEST SWAP3 POP DUP3 DUP3 ADD SWAP1 POP DUP1 DUP3 GT ISZERO PUSH2 0x1DF JUMPI PUSH2 0x1DE PUSH2 0x182 JUMP JUMPDEST JUMPDEST SWAP3 SWAP2 POP POP JUMP JUMPDEST PUSH1 0x0 PUSH2 0x1F0 DUP3 PUSH2 0x14E JUMP JUMPDEST SWAP2 POP PUSH32 0xFFFFFFFFFFFFFFFFFFFFFFFFFFFFFFFFFFFFFFFFFFFFFFFFFFFFFFFFFFFFFFFF DUP3 SUB PUSH2 0x222 JUMPI PUSH2 0x221 PUSH2 0x182 JUMP JUMPDEST JUMPDEST PUSH1 0x1 DUP3 ADD SWAP1 POP SWAP2 SWAP1 POP JUMP INVALID LOG2 PUSH5 0x6970667358 0x22 SLT KECCAK256 GAS 0xC8 CALLVALUE STATICCALL CALLDATALOAD CALLCODE DUP5 0xAE SWAP15 CODESIZE 0x29 DUP10 0xCE 0xA5 0x5D 0xFC 0x23 0xF6 PUSH4 0x3FB61DC0 BASEFEE SWAP14 0xBE CODECOPY 0xCC SELFDESTRUCT CHAINID PUSH10 0x9964736F6C6343000812 STOP CALLER "
		},
		"gasEstimates": {
			"creation": {
				"codeDepositCost": "122200",
				"executionCost": "171",
				"totalCost": "122371"
			},
			"external": {
				"doWhileTest()": "infinite",
				"forloopTest()": "infinite",
				"whileTest()": "infinite"
			}
		},
		"methodIdentifiers": {
			"doWhileTest()": "2bbacaaa",
			"forloopTest()": "b1bdacb6",
			"whileTest()": "5d14639d"
		}
	},
	"abi": [
		{
			"inputs": [],
			"name": "doWhileTest",
			"outputs": [
				{
					"internalType": "uint256",
					"name": "",
					"type": "uint256"
				}
			],
			"stateMutability": "pure",
			"type": "function"
		},
		{
			"inputs": [],
			"name": "forloopTest",
			"outputs": [
				{
					"internalType": "uint256",
					"name": "",
					"type": "uint256"
				}
			],
			"stateMutability": "pure",
			"type": "function"
		},
		{
			"inputs": [],
			"name": "whileTest",
			"outputs": [
				{
					"internalType": "uint256",
					"name": "",
					"type": "uint256"
				}
			],
			"stateMutability": "pure",
			"type": "function"
		}
	]
}